:100000000C9485020C94AD020C94AD020C94AD02DC
:100010000C94AD020C94AD020C94AD020C94AD02A4
:100020000C94AD020C94AD020C94AD020C94AD0294
:100030000C94AD020C94AD020C94AD020C94AD0284
:100040000C94650D0C94AD020C94330D0C940D0DB5
:100050000C94AD020C94AD020C94AD020C94AD0264
:100060000C94AF0D0C94AD0208000000BE92244920
:10007000123EABAAAA2ABECDCCCC4C3E00000080DA
:10008000BEABAAAAAA3E00000000BF000000803F4D
:100090000000000000084178D3BB4387D1133D190D
:1000A0000E3CC3BD4282AD2B3E68EC8276BED98F3A
:1000B000E1A93E4C80EFFFBE01C4FF7F3F0000007E
:1000C000000007634236B79BD8A71A39685618AEA6
:1000D000BAAB558C1D3CB7CC5763BD6DEDFD753E7D
:1000E000F6177231BF000000803F4572726F7220B8
:1000F000647572696E67207772697465005265670E
:10010000756C6174696F6E2063616E2774206B6516
:100110006570207570007475726E696E67206C6F03
:100120006164206F6E007475726E696E67206C6F0B
:100130006164206F6666007475726E696E67206C0C
:100140006F6164206F6E007475726E696E67206CEB
:100150006F6164206F6666004D6F64650949286DA4
:10016000412909560950286D57290949696E286D9A
:1001700041290956696E0950696E286D572909543D
:1001800028C2B043295445535420686572650074F1
:1001900075726E696E67206C6F6164206F6E00749B
:1001A00075726E696E67206C6F6164206F666600A1
:1001B0007377656570206220652073203A2073771D
:1001C00065657073206D6F6465277320706172615F
:1001D0006D657465722066726F6D206220746F2089
:1001E0006520696E20732073746570730067657491
:1001F000203A2072657475726E73206C6F61642092
:10020000696E666F006D6F64652078203A205365D3
:100210007420746865206C6F6164206D6F64652064
:100220003A2043433D302043503D312043523D323C
:1002300020424154543D33006C6F61642078203A71
:10024000205475726E7320746865206C6F61642031
:100250006F6E28783D3129206F72206F666628788E
:100260003D30290048656C702050616765000000D2
:100270000000240027002A000000000025002800BC
:100280002B000000000023002600290004040404C1
:100290000404040402020202020203030303030330
:1002A000010204081020408001020408102001020D
:1002B00004081020000000080002010000030407E9
:1002C00000000000000000004572726F722064752B
:1002D00072696E6720504D20696E697400536574B1
:1002E00074696E67730042617474657279004C6F53
:1002F0006164004D657465720020202020205768DD
:100300002020202020206D4168004920202020202E
:100310004120566320202020205600546163712024
:10032000202020732046616E2020200042617474DA
:1003300020202020205620202020202000566F2022
:1003400020202020202056692020202020005072CC
:1003500020202020205720456620202020250056E0
:100360002020202020202049202020202020410063
:10037000435220522020202020204F205420202093
:10038000005620202020202020492020202020202E
:10039000410043502050202020202020572054206E
:1003A0002020005620202020202020502020202007
:1003B0002020570043432049202020202020412096
:1003C00054202020005020202020202057202020B2
:1003D00020202020200056202020202020204920DE
:1003E00020202020204100456C656374726F6E6987
:1003F00063204C6F616420537461727465642021C2
:1004000000302D3130305620302D354120760045DA
:100410006C656374726F6E6963204C6F6164004C2D
:100420006F6164207475726E6564206F6666004942
:100430006E707574206D6561737572656D656E742F
:1004400020736174757261746564004F75747075A2
:1004500074206D6561737572656D656E742073616E
:1004600074757261746564004661756C74206465AE
:100470007465637465642C206C6F616420736875A7
:100480007474696E6720646F776E0046616E206FCA
:10049000666620210046616E206F6E202100546543
:1004A0006D7020686F74206578636565646564208D
:1004B00021006D41682C205768203A004C6F616420
:1004C000206375746F6666202120416363756D75C6
:1004D0006C617465642076616C756573203A2000E8
:1004E000504D414351206E6F7420726561647920D4
:1004F00021004461632073617475726174696E6771
:10050000207570202100BC0FA91E11241FBECFEF43
:10051000D8E0DEBFCDBF27E0A0EBB1E001C01D9267
:10052000A936B207E1F711E0A0E0B1E0E8E3FAE4B0
:1005300002C005900D92A03BB107D9F712E0C4E8C4
:10054000D2E004C02197FE010E94F122C338D107F6
:10055000C9F70E943A150C940F250C940000982FAF
:100560002091770281E0213208F043C0809153024C
:100570008111FCCF8091760232E030935302909348
:1005800052029FEF909351021092500220934F021B
:10059000A6E5B2E0EFE2F2E090E0291331C010925C
:1005A0002E0290912E02880F892B80932E0280912B
:1005B0002D02813049F510922D0280912E028093F8
:1005C000BB008091BC0083FDF8CF85EC8093BC001C
:1005D000809153028230E1F3809151028F3FB1F05C
:1005E000809151028032A1F080915102803391F0CC
:1005F00084E01092550210927702109254020895EE
:100600003D9131939F5FC9CF85EEE0CF80E0F1CF80
:1006100082E0EFCF83E0EDCF80910B0290910C024E
:10062000891B990B089508950895EF92FF920F93F7
:100630001F93CF93DF938C017B01D0E0C0E0F701E3
:10064000EC0FFD1F6491662361F0D801ED91FC91E0
:100650000190F081E02DC8010995892B11F02196B8
:10066000EECFCE01DF91CF911F910F91FF90EF90D0
:100670000895AF92BF92CF92DF92EF92FF920F93C5
:100680001F93CF93DF936C017B018B01040F151F28
:10069000EB015E01AE18BF08C017D10759F0699190
:1006A000D601ED91FC910190F081E02DC6010995F4
:1006B000892B79F7C501DF91CF911F910F91FF90A1
:1006C000EF90DF90CF90BF90AF900895FC01538DD5
:1006D000448D252F30E0842F90E0821B930B54171C
:1006E00010F0CF96089501970895FC01918D828DA9
:1006F000981761F0A28DAE0FBF2FB11D5D968C9142
:10070000928D9F5F9F73928F90E008958FEF9FEF80
:100710000895FC01918D828D981731F0828DE80F3C
:10072000F11D858D90E008958FEF9FEF0895FC01F6
:10073000918D228D892F90E0805C9F4F821B9109C3
:100740008F739927089588E792E00E94970321E02C
:10075000892B09F420E0822F089580E090E0892B16
:1007600029F00E94A30381110C9400000895FC015C
:10077000A48DA80FB92FB11DA35ABF4F2C91848D02
:1007800090E001968F739927848FA689B7892C935F
:10079000A089B1898C91837080648C93938D848DB2
:1007A000981306C00288F389E02D80818F7D8083B5
:1007B0000895EF92FF920F931F93CF93DF93EC0175
:1007C00081E0888F9B8D8C8D98131AC0E889F989F8
:1007D000808185FF15C09FB7F894EE89FF896083FB
:1007E000E889F98980818370806480839FBF81E07C
:1007F00090E0DF91CF911F910F91FF90EF900895BE
:10080000F62E0B8D10E00F5F1F4F0F731127E02E98
:100810008C8D8E110CC00FB607FCFACFE889F989D0
:10082000808185FFF5CFCE010E94B703F1CFEB8D1C
:10083000EC0FFD2FF11DE35AFF4FF0829FB7F894A4
:100840000B8FEA89FB8980818062CFCF69E088E7DE
:1008500092E00C94D903CF93DF93EC01888D882329
:10086000B9F0AA89BB89E889F9898C9185FD03C013
:10087000808186FD0DC00FB607FCF7CF8C9185FFF8
:10088000F2CF808185FFEDCFCE010E94B703E9CF83
:10089000DF91CF910895833081F028F4813099F071
:1008A0008230A9F008958730A9F08830C9F08430EB
:1008B000B1F4809180008F7D03C0809180008F779C
:1008C00080938000089584B58F7784BD089584B5A2
:1008D0008F7DFBCF8091B0008F778093B00008951B
:1008E0008091B0008F7DF9CFCF93DF93282F30E038
:1008F000F901EC54FD4F8491F901E056FD4FD4917C
:10090000F901E457FD4FC491CC23A1F081110E945D
:100910004B04EC2FF0E0EE0FFF1FEE57FD4FA591BB
:10092000B491EC91ED2381E090E009F480E0DF9157
:10093000CF91089580E090E0FACF1F93CF93DF939B
:10094000282F30E0F901EC54FD4F8491F901E05675
:10095000FD4FD491F901E457FD4FC491CC23A9F088
:10096000162F81110E944B04EC2FF0E0EE0FFF1FB9
:10097000E858FD4FA591B4918FB7F894EC911111FF
:1009800008C0D095DE23DC938FBFDF91CF911F91FC
:100990000895DE2BF8CFCF93DF9390E0FC01E05673
:1009A000FD4F249184579D4FFC0184918823C9F009
:1009B00090E0880F991FFC01E259FD4FA591B49179
:1009C000FC01E858FD4FC591D49161110DC09FB74E
:1009D000F8948C91209582238C93888128232883F6
:1009E0009FBFDF91CF910895623051F49FB7F89483
:1009F0003C91822F809583238C93E8812E2BEFCF1F
:100A00008FB7F894EC912E2B2C938FBFEACF3FB782
:100A1000F8948091F9019091FA01A091FB01B091B5
:100A2000FC0126B5A89B05C02F3F19F00196A11D1A
:100A3000B11D3FBFBA2FA92F982F8827BC01CD0128
:100A4000620F711D811D911D42E0660F771F881F87
:100A5000991F4A95D1F708958F929F92AF92BF92B6
:100A6000CF92DF92EF92FF924B015C010E9407054B
:100A70006B017C010E9407056C197D098E099F0995
:100A8000683E734081059105A8F321E0821A910820
:100A9000A108B10888EEC80E83E0D81EE11CF11C45
:100AA00081149104A104B10429F7FF90EF90DF9025
:100AB000CF90BF90AF909F908F9008952FB7F894EC
:100AC0006091F5017091F6018091F7019091F80124
:100AD0002FBF089585ED8093BC008091BC0084FDFC
:100AE000FCCF1092530208952091D101260F332795
:100AF000331F21323105ECF420915302FC0190E0C8
:100B000080E0243069F082E00895A091D101219124
:100B1000AC014F545E4FA40FB52FB11D2C9301961D
:100B2000861798F38091D101680F6093D10180E01E
:100B3000089581E008950895E0910C0280910B02E0
:100B4000E81730F4F0E0E35FFD4F808190E0089516
:100B50008FEF9FEF089590910C0280910B022FEF81
:100B60003FEF981748F4E92FF0E0E35FFD4F208155
:100B700030E09F5F90930C02C9010895CF92DF92FD
:100B8000EF92FF920F931F93CF93DF937C01CB01E2
:100B90008A0120915402222389F0EB016B01C40EDB
:100BA000D51ECC15DD0569F06991D701ED91FC9159
:100BB0000190F081E02DC7010995F3CF642F0E94C9
:100BC0007405C801DF91CF911F910F91FF90EF90B5
:100BD000DF90CF900895CF93DF931F92CDB7DEB70C
:100BE0006983209154022223F9F020917702203268
:100BF00058F021E030E0FC013383228390E080E074
:100C00000F90DF91CF91089580915502E82FF0E089
:100C1000EA5AFD4F998190838F5F809355028093AC
:100C2000770281E090E0ECCF61E0CE0101960E9476
:100C30007405F7CF089590E080E00895FC01838566
:100C40009485A385B485662391F02D913C913487DA
:100C50002387A385B48556962C915697211106C0FB
:100C6000A817B90771F781E0858314820895129659
:100C70002D913C91ECCFCF93DF93DC011B96ED914E
:100C8000FC91A081B18171836083EB01FB83EA83D6
:100C9000B983A88313967C936E931297DF91CF91BB
:100CA0000895CF92DF92EF92FF92CF93DF93C62FFA
:100CB00091E0909354029FE6909376021092550231
:100CC00010927702682F85E193E00E94EB0580E0A7
:100CD0000E94AF02809153028111FCCF81E080938A
:100CE0005302809352029FEF909351021092500250
:100CF0009C0F90934F0280932E0280912E028E6D56
:100D000080932E0280912D02813059F510922D0290
:100D100080912E028093BB008091BC0083FDF8CFB0
:100D200085EC8093BC00809153028130E1F3809187
:100D300050028C17C0F480915002EFE2F2E0ADE077
:100D4000B2E0F12CF81211C010920C02F0920B02DA
:100D5000FC1678F46AE070E080E090E00E942C05D8
:100D6000F7CF85EEDECF8C2FE8CF91919D93F39452
:100D7000E9CFC12CD12C7601D0E085E193E00E942F
:100D8000AB05FE2CED2CDC2CCC24C80ED11CE11CB8
:100D9000F11CDF5FCD13F1CFC701B601DF91CF9119
:100DA000FF90EF90DF90CF900895CF93DF93EC0109
:100DB00060E08E810E949D0461E08E810E949D040E
:100DC00060E08E810E949D048BE891E00197F1F72D
:100DD000DF91CF910895CF92DF92EF92FF920F9320
:100DE0001F93CF93DF936C017C0187E0E80EF11C29
:100DF000D0E0C0E0062F10E0B8010C2E02C07595BF
:100E000067950A94E2F76170F70181917F010E9472
:100E10009D042196C430D10579F7C601DF91CF91A9
:100E20001F910F91FF90EF90DF90CF900C94D5061B
:100E3000CF92DF92EF92FF920F931F93CF93DF93A6
:100E4000EC01F62E642F8C810E949D048D818F3FD2
:100E500019F060E00E949D040F2D10E08F8584FF43
:100E600025C06E0187E0C80ED11CF12CE12CB80121
:100E70000E2C02C0759567950A94E2F76170F60131
:100E800081916F010E949D04FFEFEF1AFF0A88E035
:100E9000E816F10461F7CE01DF91CF911F910F9118
:100EA000FF90EF90DF90CF900C94D506B80184E0CE
:100EB000759567958A95E1F7CE010E94EB066F2D37
:100EC000CE01DF91CF911F910F91FF90EF90DF90B6
:100ED000CF900C94EB0640E0682F86E297E00C94EC
:100EE0001807643008F063E090913907691710F033
:100EF0006FEF690FE62FF0E0EA5DF84F9489890FF4
:100F000080680C946B0781E00E946B078BE39FE184
:100F10000197F1F70895CF93DF93823029F49091F0
:100F200035079860909335078093390710923A07F8
:100F300080E480933B0780E180933C0780E58093C9
:100F40003D0761E080912A070E94CB0480912B0726
:100F50008F3F19F061E00E94CB0461E080912C0783
:100F60000E94CB04C6E2D7E09E0126523740809112
:100F7000350784FD0BC084E090E0219628173907DF
:100F800044F461E08E810E94CB04EECF88E090E0D3
:100F9000F4CF8BE39DE00197F1F760E080912A07A1
:100FA0000E949D0460E080912C070E949D04809126
:100FB0002B078F3F19F060E00E949D048091350758
:100FC00084FD34C063E086E297E00E94EB06CBE448
:100FD000D6E4CE010197F1F763E086E297E00E9444
:100FE000EB062197F1F763E086E297E00E94EB06BB
:100FF00083E592E00197F1F762E086E297E00E94D4
:10100000EB068091350780620E946B0784E0809335
:1010100036078CE00E946B070E94830782E0809372
:10102000370786E0DF91CF910C946B0780620E94B6
:101030006B078BE496E40197F1F7809135078062A6
:101040000E946B0783E592E00197F1F780913507E5
:1010500080620E946B07D5CF41E00E94180781E0B3
:1010600090E00895FB0101900020E9F73197AF016E
:10107000461B570BDC01ED91FC910280F381E02DC2
:101080000994CF93DF93BC0188E792E00E94150397
:10109000EC0164E671E088E792E00E9432088C0F70
:1010A0009D1FDF91CF91089584E692E00E94410850
:1010B00088E392E00E94410885E092E00E944108A6
:1010C0008DEE91E00E94410880EB91E00C94410884
:1010D0008F929F92AF92BF92CF92DF92EF92FF9248
:1010E00080910502909106028130910509F452C069
:1010F00058F08230910509F486C0039709F494C032
:10110000C12CD12C760108C0C0902201D0902301BF
:10111000E0902401F090250180911D07882309F4B7
:1011200096C08090C9049090CA04A090CB04B0905F
:10113000CC0426E636E646E85FE3C701B6010E9426
:101140003A1FA50194010E94D41E87FD10C023E31D
:1011500033E343E75FE3C701B6010E943A1F9B01F7
:10116000AC01C501B4010E94D41E87FF70C08091FC
:10117000B0018F5F8B3008F060C08093B001C70171
:10118000B601FF90EF90DF90CF90BF90AF909F900F
:101190008F900895C0903105D0903205E0903305CE
:1011A000F090340520E030E0A901C701B6010E94AB
:1011B000402118160CF0A4CFA701960160911E01E2
:1011C00070911F0180912001909121010E949F2028
:1011D0006B017C0120E030E0A9010E94D41E87FD54
:1011E0008FCF20E030E040EB50E4C701B6010E9411
:1011F000402118160CF090CFC12CD12C80EBE82E9A
:1012000080E4F82E89CF20911A0130911B01409182
:101210001C0150911D016091310570913205809142
:10122000330590913405D2CFC0900201D0900301D4
:10123000E0900401F09005016FCF1092B00181E0C1
:1012400080931E078DEF90E00E94410898CF109286
:10125000B00195CFCF92DF92EF92FF920F93690189
:101260007A0191E090935402809376021092550295
:101270001092770285E193E00E94EB05015028E08F
:10128000029FC0011124A701960104C055954795FE
:10129000379527958A95D2F7B90185E193E00E94A9
:1012A000EB050111EBCF81E00E94AF02882361F0D2
:1012B0008AEE90E00E94410801E0802F0F91FF909C
:1012C000EF90DF90CF90089561E070E080E090E0D3
:1012D0000E942C05F2CF0F93809123079091240751
:1012E0008115904168F082EF94E00E9441088FEFF1
:1012F0009FE0909324078093230781E080931E074B
:10130000209123073091240750E040E002E060E0A4
:1013100081E60E942A090F9108950F93CF93DF93DE
:10132000CDE1D7E01F821E820E946B0902E021E01E
:1013300030E040E050E068E481E60E942A0918822B
:1013400060E081E1DF91CF910F910C949D048F9229
:101350009F92AF92BF92EF92FF920F931F93CF9302
:10136000DF93CDB7DEB7A1970FB6F894DEBF0FBEFF
:10137000CDBF7C01FA01CB0119A2223008F42AE08A
:101380008E010F5D1F4F822E912CB12CA12CBF011D
:10139000A50194010E94CF22F901CA016A300CF51F
:1013A000605DD8016E938D01232B242B252B79F7BB
:1013B00090E080E0109721F0BD01C7010E94320843
:1013C000A1960FB6F894DEBF0FBECDBFDF91CF91CF
:1013D0001F910F91FF90EF90BF90AF909F908F90D3
:1013E0000895695CDECFCF93DF930E948307C0919D
:1013F0002103D09122036A8589850E94710780911B
:1014000021039091220367E671E0C817D90711F014
:1014100068E871E086E297E00E943208688179818D
:1014200086E297E00E9415030A80DB81C02D80913F
:10143000210390912203C817D907E9F6DF91CF91D4
:1014400008952F923F924F925F926F927F928F9268
:101450009F92AF92BF92CF92DF92EF92FF921F9333
:10146000CF93DF93EC016A017B01722EAB019601F1
:10147000CB01B6010E94E52169E671E0811126C029
:1014800046015701E894B7F82FEF3FEF4FE75FE7CA
:10149000C501B4010E94E52181110CC02FEF3FEF7F
:1014A0004FE75FE7C501B4010E94D41E6DE671E00D
:1014B000181664F02FEF3FEF4FE75FE4C701B60166
:1014C0000E9440211816B4F461E771E0CE01DF916B
:1014D000CF911F91FF90EF90DF90CF90BF90AF9092
:1014E0009F908F907F906F905F904F903F902F9044
:1014F0000C9432082FEF3FEF4FE75FECC701B601C6
:101500000E94D41E87FDE0CF20E030E0A901C70192
:10151000B6010E94D41E312C212C87FF0DC0E8811A
:10152000F9810190F081E02D6DE2CE0109951C0159
:10153000F7FAF094F7F8F09410E060E070E080E0E3
:101540009FE3711641F020E030E040E251E40E9458
:101550009F201F5FF6CFA70196010E9433202B0129
:101560003C010E9411214B015C012AE0BC01A40155
:10157000CE010E94A7097C01E20CF31C1123E1F1CA
:10158000C501B4010E94D91E9B01AC01C301B20187
:101590000E9432204B015C01E881F9810190F081C9
:1015A000E02D6EE2CE010995E80EF91E115020F1F2
:1015B00020E030E040E251E4C501B4010E943A1F4E
:1015C0002B013C010E9411214B01B12CA12C2AE0DE
:1015D000B501A401CE010E94A709E80EF91EC501BC
:1015E000B4010E94D91E9B01AC01C301B2010E944B
:1015F00032204B015C01DACFC701DF91CF911F91FF
:10160000FF90EF90DF90CF90BF90AF909F908F9022
:101610007F906F905F904F903F902F90089588E556
:1016200091E00E944108E0910502F0910602EE0F60
:10163000FF1FE45DFE4F608171816115710521F02E
:1016400088E792E00E9432080E94260420E030E001
:101650004AE754E46091C9047091CA048091CB04B4
:101660009091CC040E943A1FAB01BC0122E088E7B4
:1016700092E00E94210A0E94260440913105509177
:101680003205609133057091340522E088E792E0DD
:101690000E94210A0E94260420E030E04AE754E438
:1016A0006091E5047091E6048091E7049091E8046C
:1016B0000E943A1FAB01BC0122E088E792E00E9441
:1016C000210A0E94260420E030E04AE754E46091B9
:1016D0002D0670912E0680912F06909130060E9463
:1016E0003A1FAB01BC0122E088E792E00E94210A88
:1016F0000E94260440911106509112066091130633
:101700007091140622E088E792E00E94210A0E946C
:10171000260420E030E04AE754E46091F50570913A
:10172000F6058091F7059091F8050E943A1FAB01EC
:10173000BC0122E088E792E00E94210A0E94260470
:101740004091160150911701609118017091190193
:1017500020E088E792E00E94210A0C9426048F92F0
:101760009F92AF92BF92EF92FF920F931F93CF93EE
:10177000DF938C01FC01C385D485EE24E394EC81D6
:10178000FD8180809180A280B3802E813F81488539
:101790005985C501B4010E94D41E882321F08E8290
:1017A0009F82A886B9868E809F80A884B984FC8891
:1017B00020E030E040E251E4C501B4010E94D41EB3
:1017C00087FF44C08FEF8F0D8D8BF11001C01D8AF4
:1017D0006B898A890E9471074E815F81688579854E
:1017E0002D8986E297E00E94210A0990D881C02DB8
:1017F000F801838594858C179D0709F685818111F1
:101800004DC09F896B898A89890F248121112CC041
:1018100081500E947107809136078D7F8093360733
:1018200088600E946B0780913607982F9160909393
:1018300036078960DF91CF911F910F91FF90EF9054
:10184000BF90AF909F908F900C946B0720E030E09A
:1018500048EC52E4C501B4010E94D41E87FF02C0C7
:101860008EEFB1CFED8AB1CF2C893D89231B330B8D
:10187000921713060CF08F5F0E9471078091360754
:10188000982F9260909336078A600E946B07809130
:1018900036078E7F809336078860CCCF80913607DD
:1018A0008E7F8093360788600E946B078091360791
:1018B0008D7FF0CFCF93DF93EC010E94830760E030
:1018C00080E00E9471076E817F8186E297E00E942E
:1018D000150361E080E00E9471076885798586E2E2
:1018E00097E00E941503CE01DF91CF910C94AF0BCE
:1018F00080912303811102C00C94F309E09121032C
:10190000F0912203868197810C945A0CFC0180810E
:101910009181009711F00C94932308951F93CF9316
:10192000DF9320916306309164062A30310504F577
:10193000EB01BC0112E1129FC001139F900D112415
:1019400040E150E08B59994F0E9400258091630639
:1019500090916406189FF001199FF00D1124E75B28
:10196000F94FD5A7C4A701969093640680936306A8
:10197000DF91CF911F91089541E656E06CE576E046
:1019800090E080E00E94AD1E009781F021E0853755
:10199000920721F48FE891E00C9441088757914019
:1019A00019F48FE991E0F8CF0C945408089541E6BA
:1019B00056E06CE576E090E080E00E94AD1E009776
:1019C00081F021E08537920721F487E391E00C94C0
:1019D00041088757914019F487E491E0F8CF0C94BF
:1019E0005408089541E656E06CE576E090E080E02A
:1019F0000E94AD1E009781F021E08537920721F407
:101A000086E191E00C9441088757914019F486E2F1
:101A100091E0F8CF0C94540808951F920F920FB6DE
:101A20000F9211242F933F934F935F936F937F9364
:101A30008F939F93AF93BF93EF93FF9388E792E0C9
:101A40000E94B703FF91EF91BF91AF919F918F914A
:101A50007F916F915F914F913F912F910F900FBEAA
:101A60000F901F9018951F920F920FB60F9211248E
:101A70002F938F939F93EF93FF93E0918802F091C0
:101A800089028081E0918E02F0918F0282FD1BC05D
:101A90009081809191028F5F8F73209192028217C3
:101AA00041F0E0919102F0E0E858FD4F958F80936E
:101AB0009102FF91EF919F918F912F910F900FBE07
:101AC0000F901F9018958081F4CF1F920F920FB640
:101AD0000F9211242F933F938F939F93AF93BF93B4
:101AE0008091F5019091F601A091F701B091F80174
:101AF0003091F40123E0230F2D3758F50196A11DF5
:101B0000B11D2093F4018093F5019093F601A09309
:101B1000F701B093F8018091F9019091FA01A09139
:101B2000FB01B091FC010196A11DB11D8093F9014B
:101B30009093FA01A093FB01B093FC01BF91AF9188
:101B40009F918F913F912F910F900FBE0F901F90FB
:101B5000189526E8230F0296A11DB11DD2CF1F9222
:101B60000F920FB60F9211242F933F934F935F93D1
:101B70006F937F938F939F93AF93BF93EF93FF9355
:101B80008091B900887F803609F44AC0F0F5883228
:101B900009F4A7C018F5803109F49BC0B8F4882374
:101BA00009F4F9C0883009F494C0FF91EF91BF9116
:101BB000AF919F918F917F916F915F914F913F91E5
:101BC0002F910F900FBE0F901F901895883109F438
:101BD00088C0803251F78093510214C0803409F4D8
:101BE0009DC040F48033B9F38833F9F680935102F5
:101BF00085ECB0C0803509F485C0883509F496C0FD
:101C0000883499F60E946A05D0CF883909F48CC0CF
:101C100038F5883729F050F4883611F0803729F6E6
:101C200083E0809353021092F30157C0883809F47F
:101C30007BC0803919F0803809F0B7CF8091F3016B
:101C4000803208F071C0E091F30181E08E0F809343
:101C5000F3018091BB00F0E0ED52FE4F80833DC068
:101C6000803B39F0E0F4803A09F479C0883A09F011
:101C70009CCF84E0809353021092D2011092D10144
:101C8000E091FF01F091000209958091D10181114D
:101C90000FC081E08093D1011092B10109C0803C56
:101CA00009F4A6CF883C09F4A3CF883B09F07DCF87
:101CB000E091D20181E08E0F8093D201F0E0EF54E9
:101CC000FE4F80818093BB009091D2018091D10121
:101CD00029C080912E028093BB0085EC8093BC00CC
:101CE00064CF9091500280914F02981758F5E0917F
:101CF000500281E08E0F80935002F0E0E15DFD4FD5
:101D00008081E9CFE091500281E08E0F80935002F4
:101D10008091BB00F0E0E15DFD4F80839091500227
:101D200080914F029817C8F285E8D8CFE091500211
:101D300081E08E0F809350028091BB00F0E0E15D66
:101D4000FD4F80838091520281115CCF81E08093AE
:101D50002D0284EA8093BC001092530226CF85ECBA
:101D60008093BC00109253028091F301803230F4D2
:101D7000E091F301F0E0ED52FE4F10826091F3012B
:101D800070E0E091FD01F091FE0183ED91E0099595
:101D90001092F3010ACF1092510234CF4F925F920A
:101DA0006F927F928F929F92AF92BF92CF92DF926B
:101DB000EF92FF920F93CF93DF93CDB7DEB73C0145
:101DC0002B01FC01178A75836483428B238B048B60
:101DD000158AC286D386E486F58686869786A08A8B
:101DE000B18A81E0868BA7019601FB016081718138
:101DF000828193810E94D41E87FF05C0F301C682B1
:101E0000D782E086F186A5019401F201608171819B
:101E1000828193810E94402118162CF4F30186825E
:101E20009782A086B186F20180819181A281B381DF
:101E3000F30186839783A087B187DF91CF910F91BC
:101E4000FF90EF90DF90CF90BF90AF909F908F90DA
:101E50007F906F905F904F9008950F931F93CF9353
:101E6000DF93EC0188819981009759F02A813B81A9
:101E70002617370730F081E0DF91CF911F910F9146
:101E800008958B016F5F7F4F0E941C24009759F0CB
:101E9000998388831B830A832C813D81232B59F7E7
:101EA000FC011082E8CF80E0E7CFEF92FF920F9322
:101EB0001F93CF93DF93EC01FB01E080F180E114ED
:101EC000F10411F10481158101151105A9F08C812E
:101ED0009D81080F191FB801CE010E942D0F882384
:101EE00099F0288139818C819D81B701820F931FE0
:101EF0000E94EB241D830C83CE01DF91CF911F91B3
:101F00000F91FF90EF90089588819981009711F0CB
:101F10000E949323198218821D821C821B821A82BE
:101F2000EBCFEF92FF920F931F93CF93DF93EC01D0
:101F30007B018A01BA010E942D0F2881398181110C
:101F400014C02115310519F0C9010E94932319828B
:101F500018821D821C821B821A82CE01DF91CF91D2
:101F60001F910F91FF90EF9008951D830C83B7018F
:101F7000C9010E94EB24F1CF3F924F925F926F9282
:101F80007F928F929F92AF92BF92CF92DF92EF9209
:101F9000FF920F931F93CF93DF93CDB7DEB7689770
:101FA0000FB6F894DEBF0FBECDBF10927B02109229
:101FB0007A0288EE93E0A0E0B0E080937C029093F8
:101FC0007D02A0937E02B0937F0228E331E030933C
:101FD00079022093780225EC30E03093850220933B
:101FE000840224EC30E0309387022093860220ECB8
:101FF00030E0309389022093880221EC30E0309366
:102000008B0220938A0222EC30E030938D022093E1
:102010008C0226EC30E030938F0220938E021092D7
:1020200091021092920210929302109294021092D6
:102030001803109217038093190390931A03A09327
:102040001B03B0931C038AE491E0909316038093E2
:10205000150381E080933E0782E090E09093530760
:102060008093520788EC90E0909355078093540733
:1020700010925607109257071092580784E690E086
:1020800090935E0780935D0710925F071092600740
:102090001092610710926207109263071092640712
:1020A0008CE080933F078DE0809340078BE0809326
:1020B00041070E945E056093420770934307809337
:1020C00044079093450760934607709347078093B2
:1020D00048079093490760934A0770934B07809392
:1020E0004C0790934D076093590770935A0780935C
:1020F0005B0790935C0780913E07813009F0AEC486
:1021000062E080913F070E94CB0462E0809140072B
:102110000E94CB0462E0809141070E94CB041092A0
:102120002907109228078CE591E090932707809368
:10213000260788E080932A078FEF80932B0787E09C
:1021400080932C0786E080932D0785E080932E07EF
:1021500084E080932F0783E080933007109231074B
:1021600010923207109233071092340710923507FD
:1021700081E00E948B0710921E0710922507109293
:102180001C0710921B0780E290E090935D068093FD
:102190005C068DE080935E061092640610926306E2
:1021A000EAE4F6E0119226E0EA35F207D9F7109258
:1021B0005B0610925A0610924706109248068DE26E
:1021C00096E090933606809335068AE0382E30925A
:1021D00043061092440680912D0690912E06A09100
:1021E0002F06B09130068093370690933806A0935F
:1021F0003906B0933A0614E010934506109246064D
:1022000010922B0610922C0691E1492E96E0592E41
:1022100050921A064092190622E0622E609227061A
:10222000109228068091110690911206A091130633
:10223000B091140680931B0690931C06A0931D0674
:10224000B0931E061093290610922A0610920F06CC
:102250001092100685EF95E09093FE058093FD05A2
:1022600060920B067724739470920C068091F505AA
:102270009091F605A091F705B091F8058093FF05C0
:1022800090930006A0930106B093020610930D06EA
:1022900010920E06812C912C30EBA32E30E4B32E3D
:1022A000C12CD12C760104E020E045E062E271E02F
:1022B0008DED95E00E94CE0E812C912C4AEFA42E3C
:1022C00043E4B42E20E045E06EE171E085EC95E05A
:1022D0000E94CE0E812C912C5AE7A52E54E4B52EE7
:1022E0006DECC62E6CECD62E6CE4E62E6EE3F62E6C
:1022F00020E045E06AE171E08DEA95E00E94CE0EB3
:102300001092AB051092AC0546E151E050939A054E
:10231000409399052EE02093A7051092A80580917F
:10232000160190911701A0911801B09119018093A5
:102330009B0590939C05A0939D05B0939E051092DC
:10234000A9051092AA051092930510929405509336
:1023500082054093810520938F051092900580930C
:10236000830590938405A0938505B093860510920C
:1023700091051092920510927B0510927C05509366
:102380006A0540936905209377051092780580933C
:102390006B0590936C05A0936D05B0936E0510923C
:1023A000790510927A05109263051092640582E116
:1023B00091E0909352058093510585E080935F05ED
:1023C000109260058091120190911301A091140167
:1023D000B09115018093530590935405A093550532
:1023E000B093560583E080936105109262051092C8
:1023F0004B0510924C0521E335E030933A052093CC
:102400003905609247057092480540913105509119
:102410003205609133057091340540933B0550932C
:102420003C0560933D0570933E051093490510925D
:102430004A0510922F051092300530931E05209307
:102440001D0560922B0570922C0540931F0550933B
:102450002005609321057093220510932D0510929D
:102460002E0510921705109218053093060520933B
:10247000050560921305709214054093070550936B
:1024800008056093090570930A05109315051092CD
:1024900016051092FF0410920005E5EEF4E0F093AB
:1024A000EE04E093ED043092FB047092FC04C090C3
:1024B000E504D090E604E090E704F090E804C092D0
:1024C000EF04D092F004E092F104F092F204109341
:1024D000FD041092FE041092E3041092E404E9EC6F
:1024E000F4E0F093D204E093D1043092DF047092D0
:1024F000E004C090C904D090CA04E090CB04F090EE
:10250000CC04C092D304D092D404E092D504F092CB
:10251000D6041093E1041092E2041092C7041092C2
:10252000C804F093B604E093B5043092C3047092EB
:10253000C404C092B704D092B804E092B904F092F7
:10254000BA041093C5041092C6041092AF041092FE
:10255000B004E5E9F4E0F0939E04E0939D048093D9
:10256000AB041092AC04C0909504D0909604E09017
:102570009704F0909804C0929F04D092A004E09237
:10258000A104F092A2048093AD041092AE041092C4
:10259000930410929404E9E7F4E0F0938204E0934A
:1025A00081049CE090938F0410929004C090790471
:1025B000D0907A04E0907B04F0907C04C092830475
:1025C000D0928404E0928504F092860410929104E3
:1025D000109292041092770410927804309366045B
:1025E000209365048093730470927404409367048D
:1025F000509368046093690470936A04809375042F
:102600001092760410925F041092600450924E046F
:1026100040924D0490935B0470925C0440911106CB
:1026200050911206609113067091140640934F0466
:1026300050935004609351047093520480935D044E
:1026400010925E04812C912C70E2A72E71E4B72EBB
:10265000EDECCE2EECECDE2EECE4EE2EEDE3FE2ED9
:1026600002E021E045E06EE071E081E394E00E9449
:10267000CE0E812C912CF8E4AF2EF2E4BF2EC12CAB
:10268000D12CA0EAEA2EA1E4FA2E21E04EE06AE085
:1026900071E089E194E00E94CE0EC12CD12C76012C
:1026A00003E020E04BE066E071E081E094E00E940E
:1026B000CE0E812C912CB0EBAB2EB0E4BB2E20E0E3
:1026C00042E062E071E089EE93E00E94CE0E10924B
:1026D000E7031092E8038DEC93E09093D603809388
:1026E000D50388E08093E3037092E4038091CD03E7
:1026F0009091CE03A091CF03B091D0038093D703E4
:102700009093D803A093D903B093DA031093E50311
:102710001092E6031092CB031092CC0381EB93E06E
:102720009093BA038093B9031092C7037092C803C1
:102730008091B1039091B203A091B303B091B4031F
:102740008093BB039093BC03A093BD03B093BE03DF
:102750001093C9031092CA031C8A1B8A1E8A1D8A01
:10276000188E1F8A45E050E069E771E0CE0143967C
:102770000E94910F1E861D86188A1F861A8A198A42
:1027800084EF89831A828E010F5F1F4FF801019039
:102790000020E9F73197AF01401B510BB801CE0182
:1027A0000D960E94910F1A8219821C821B821E8232
:1027B0001D824AE050E06FE771E0C8010E94910F6E
:1027C00018861F821A8619861C861B8669817A8163
:1027D0006115710531F04D815E81CE0107960E9431
:1027E000910FBE01635F7F4FCE0107960E94550F88
:1027F000BE016D5E7F4F0E94550F1092AC03109288
:10280000AB031092AE031092AD031092B00310927E
:10281000AF03E3E08B3A9E0761F0FC0160817181B8
:102820006115710531F0448155818BEA93E00E9476
:10283000910FCE0107960E94860CC8010E94860C5B
:10284000CE010D960E94860CCE0143960E94860C06
:102850002EE933E01092A20381E08093A30310924B
:10286000A80345E156E05093AA034093A90350936F
:102870001606409315065093180640931706E1E993
:10288000F3E0109295038093960310929B034DED15
:1028900055E050939D0340939C035093DE05409375
:1028A000DD055093E0054093DF0510928803809387
:1028B000890310928E0345EC55E0509390034093AA
:1028C0008F035093C6054093C5055093C8054093A8
:1028D000C70510927B0380937C03109281034DEA1D
:1028E00055E050938303409382035093AE05409389
:1028F000AD055093B0054093AF0510926E038093E1
:102900006F031092740349E954E0509376034093A7
:10291000750350939A044093990450939C044093F8
:102920009B044DE553E01092610380936203109283
:1029300067036DE475E070936903609368037093B7
:102940004E0560934D057093500560934F0560E50B
:1029500073E0109254038093550310925A03A9EE2A
:10296000B3E0B0935C03A0935B03B093EA03A0933E
:10297000E903B093EC03A093EB0310924D03309363
:102980004C0320934B0330939F0320939E0330937B
:10299000A1032093A00310924E0380934F032AE3D8
:1029A00033E010924203F0934103E0934003F0932D
:1029B0009203E0939103F0939403E09393031092B6
:1029C00043031092440310923703709336036093CD
:1029D00035037093510360935003709353036093D6
:1029E000520397E0909338031092390310922C030E
:1029F00050932B0340932A0350935E0340935D034F
:102A00005093600340935F0390932D0380932E03B4
:102A100010922303309322032093210330933D032C
:102A200020933C0330933F0320933E0368960FB6F8
:102A3000F894DEBF0FBECDBFDF91CF911F910F91F4
:102A4000FF90EF90DF90CF90BF90AF909F908F90CE
:102A50007F906F905F904F903F90089560E08091DD
:102A60003F070E94CB0460E0809140070E94CB04A6
:102A700060E051CB789484B5826084BD84B5816078
:102A800084BD85B5826085BD85B5816085BD809139
:102A90006E00816080936E001092810080918100B1
:102AA00082608093810080918100816080938100A9
:102AB000809180008160809380008091B10084606B
:102AC0008093B1008091B00081608093B0008091CC
:102AD0007A00846080937A0080917A00826080938B
:102AE0007A0080917A00816080937A0080917A00E8
:102AF000806880937A001092C100E0918802F09182
:102B0000890282E08083E0918402F0918502108244
:102B1000E0918602F091870280E18083109290021A
:102B2000E0918C02F0918D0286E08083E0918A0230
:102B3000F0918B02808180618083E0918A02F09124
:102B40008B02808188608083E0918A02F0918B0201
:102B5000808180688083E0918A02F0918B0280817D
:102B60008F7D808310920C0210920B0210925502FE
:102B7000109277021092530281E0809352021092D9
:102B80002D0261E082E10E949D0461E083E10E94E8
:102B90009D048091B9008E7F8093B9008091B90027
:102BA0008D7F8093B90088E48093B80085E480939A
:102BB000BC0083E193E0909300028093FF0184E1E5
:102BC00093E09093FE018093FD0101E026E030E068
:102BD00040E050E060E08FE60E942A09882321F05F
:102BE00088EC92E00E94410861E080E10E94CB0401
:102BF00061E081E10E94CB0461E082E00E94CB04AD
:102C000060E082E00E949D0460E080E10E949D04FB
:102C100060E081E10E949D0410921D0710921F0741
:102C20001092200710922107109222071092240779
:102C30001092230702E021E030E040E050E060E441
:102C400081E60E942A0920E031E040E050E060E5A2
:102C500081E60E942A0921E030E040E050E068E48B
:102C600081E60E942A0961E089E00E94CB0460E0CD
:102C700089E00E949D0462EF7CE08AE891E00E9476
:102C80008E0C67ED7CE08FE891E00E948E0C6FE087
:102C90007BE084E991E00E948E0C6CEB7CE088E99B
:102CA00091E00E948E0C84E598E090931A0780933F
:102CB000190760E08CE00E94CB0460E08DE00E9488
:102CC000CB0460E08BE00E94CB0460E08EE00E94C9
:102CD000CB0460E08FE00E94CB0461E08AE00E94B8
:102CE000CB0460E08AE00E949D0482E00E948B0792
:102CF0006FE074E086E297E00E94150361E080E0F7
:102D00000E94710761E074E086E297E00E9415037B
:102D10006EE971E086E297E00E94320886ED93E06A
:102D20009093A5038093A40385EC93E09093A7036D
:102D30008093A60384EB93E090939803809397038A
:102D400083EA93E090939A0380939903E4E8CE2E6C
:102D5000E3E0DE2E82E993E090938B0380938A0375
:102D600081E893E090938D0380938C03F7E7AF2E77
:102D7000F3E0BF2E80E793E090937E0380937D0382
:102D80008FE593E09093800380937F03AAE68A2ED9
:102D9000A3E09A2E8EE493E09093710380937003E6
:102DA0008DE393E090937303809372038CE293E03E
:102DB00090936403809363038BE193E090936603A5
:102DC000809365038AE093E09093570380935603C2
:102DD00089EF92E0909359038093580305E413E040
:102DE00083EF92E090934603809345038EEE92E04A
:102DF00090933B0380933A03CFE2D3E086EE92E0D8
:102E00009093300380932F03B4E2EB2EB3E0FB2EBC
:102E10008DED92E0909325038093240361E376E0A7
:102E20008EE993E00E943B0669EF75E08EE993E03E
:102E30000E943B0665E975E081E993E00E943B064C
:102E400065E375E081E993E00E943B0669EE74E07A
:102E500081E993E00E943B066DE775E0C6010E94A0
:102E60003B0669E175E0C6010E943B066DEC74E02B
:102E7000C6010E943B0665E675E0C5010E943B065F
:102E800061E075E0C5010E943B0661EB74E0C5019D
:102E90000E943B066DE774E0C4010E943B0661E6B8
:102EA00074E0C4010E943B0669E474E0C4010E941E
:102EB0003B0661E374E08DE593E00E943B0669E127
:102EC00074E08DE593E00E943B0661E074E080E5EC
:102ED00093E00E943B0665EB73E080E593E00E947F
:102EE0003B0661ED73E080E593E00E943B06E091D4
:102EF0004003F0914103A081B18191828082F093DF
:102F00006D03E0936C03B0936B03A0936A03139675
:102F10009C928E921297A081B181B182A082F0938F
:102F20007A03E0937903B0937803A0937703139621
:102F3000BC92AE921297A081B181D182C082F093EF
:102F40008703E0938603B0938503A09384031396CD
:102F5000DC92CE921297E0912103F0912203A2819C
:102F6000B381F382E282F0932903E0932803B093C4
:102F70002703A09326031596FC92EE921497A28144
:102F8000B38113830283F0934A03E0934903B09320
:102F90004803A093470315961C930E931497A281A0
:102FA000B381D383C283F0933403E0933303B093AC
:102FB0003203A09331031596DC93CE93149787EEDA
:102FC00093E00E94410864EF71E080E090E00E948D
:102FD0002C050E94780C0E945E0560930702709396
:102FE00008028093090290930A020E945E05609392
:102FF0000102709302028093030290930402CAE5D7
:10300000CC2EC6E0DC2ED2E16D2E772473948FE0B7
:103010000E947404209100012817190681F02725C9
:103020002093000121110BC080911D07882309F412
:10303000A4C30E948D098FE194E00E9441088EE0B4
:103040000E947404209101012817190619F12725FF
:103050002093010121111EC080912303882309F4CC
:10306000F7C3A0912103B091220318968C91189771
:10307000882309F4EDC31696ED91FC91179784818E
:10308000811161C618961C928581811101C07582DB
:103090000E94780C0E945E05AB01BC014093420780
:1030A000509343076093440770934507209152075C
:1030B000309153078091460790914707A0914807A8
:1030C000B0914907820F931FA11DB11D48175907E1
:1030D0006A077B0708F472C080913F070E9474045E
:1030E00030913E0721E03817190609F020E02093BF
:1030F0006007809140070E94740420913E0730E0F1
:1031000041E08217930709F040E040936107E091A6
:1031100060074091420750914307609144077091C6
:103120004507E1119FC3F0916307FF2309F49AC398
:103130008217930709F091C381E020915D073091D8
:103140005E078090590790905A07A0905B07B09057
:103150005C0714012501220E331E411C511C9201F3
:103160008101401751076207730708F078C3809107
:103170005F074093590750935A0760935B0770931A
:103180005C07E093630740934607509347076093BB
:10319000480770934907813009F0B2C3E0912103D9
:1031A000F09122038091230381115EC38281938178
:1031B00090932203809321030E94780C0E945E0565
:1031C00060934207709343078093440790934507A9
:1031D000809141070E94740420913E0730E061E035
:1031E0008217930709F060E06093620780904207BE
:1031F00090904307A0904407B09045074091540732
:103200005091550720904A0730904B0740904C074B
:1032100050904D07240E351E411C511C82149304FE
:10322000A404B504C0F18217930709F4C9C38091BF
:103230006407882309F4C4C31092560780924E078E
:1032400090924F07A0925007B092510781E060938F
:10325000640780924A0790924B07A0924C07B09265
:103260004D078823C1F080912303882309F4BAC352
:10327000E0912103F09122037086C681D7818D8170
:10328000882309F49FC31D8261E0CE010E941E06BF
:10329000CE010E945A0C6091070270910802809141
:1032A000090290910A020E94D91E20E030E046E116
:1032B00053E40E9433204B015C010E945E050E9492
:1032C000D91E9B01AC01C501B4010E94D41E87FF29
:1032D000DEC361E08AE00E949D0461E082E30E9417
:1032E0005106672B09F483C363E085E00E94510611
:1032F0000E94DB1E25E831EB45E058E30E943A1FAF
:103300006093F5057093F6058093F7059093F805A3
:1033100062E084E10E9451061B012C0164E0559497
:103320004794379427946A95D1F7C201B1010E945E
:10333000DB1E2FEA35E04AE45AE30E943A1F60930D
:103340002D0670932E0680932F069093300662E030
:103350008EE10E9451064B015C0174E0B594A79484
:10336000979487947A95D1F7C501B4010E94DB1E2A
:1033700020E635EE40ED5CE30E943A1F60931106B3
:10338000709312068093130690931406FFEF2F1686
:10339000FFE03F06410451043CF42FEF82162FE07A
:1033A0009206A104B10424F08FE294E00E94410847
:1033B00063E087E30E9451060E94DB1E25E831EBA3
:1033C00045E058E30E943A1F6093E5047093E604D9
:1033D0008093E7049093E80462E086E40E9451063B
:1033E0001B012C0144E055944794379427944A9547
:1033F000D1F7C201B1010E94DB1E22EB34ED46E998
:103400005AE30E943A1F6093C9047093CA048093E0
:10341000CB049093CC0462E080E50E9451064B01FE
:103420005C0154E0B594A794979487945A95D1F78A
:10343000C501B4010E94DB1E20E635EE40ED5CE3E1
:103440000E943A1F609331057093320580933305D3
:10345000909334058FEF28168FE03806410451040D
:103460003CF49FEF89169FE09906A104B10424F073
:103470008BE494E00E9441082090160130901701DF
:1034800040901801509019010E9468084B015C019E
:1034900020E030E040E252E4C201B1010E9440214C
:1034A00087FD0AC080911D07882331F08EE994E0E2
:1034B0000E94410870921E0780911D078823E1F049
:1034C00080912507811118C020910A0130910B01CC
:1034D00040910C0150910D01C201B1010E944021A7
:1034E00087FD0AC061E082E00E949D04709225077A
:1034F00085E994E00E94410880912507882301F125
:1035000020E030E040E050E460910A0170910B014E
:1035100080910C0190910D010E9432209B01AC0121
:10352000C201B1010E94D41E87FF0AC060E082E0A0
:103530000E949D04109225078BE894E00E944108A8
:1035400080911D078823E1F080911E07811118C02A
:1035500080921F0790922007A0922107B092220725
:1035600020E030E846E354E4C501B4010E943A1F6C
:103570000E94112170932407609323070E946B0916
:1035800080911E07882351F080911D07882331F018
:1035900088E694E00E9441080E948D0960911E0710
:1035A00080E10E949D04809105029091060203979C
:1035B00009F04BC080911D07882309F446C0209173
:1035C0000601309107014091080150910901609175
:1035D00031057091320580913305909134050E9438
:1035E000D41E87FF09C20E948D0910920602109214
:1035F00005026CEB74E088E792E00E9415034091AD
:10360000CD035091CE036091CF037091D00322E09F
:1036100088E792E00E94210A62EB74E088E792E07A
:103620000E9415034091B1035091B2036091B3031E
:103630007091B40323E088E792E00E94210A64E6D7
:1036400071E088E792E00E94320860E08AE00E9420
:103650009D040E945E0560930702709308028093A8
:10366000090290930A0288E792E00E9497031816D5
:1036700019060CF05BC380911B0790911C07892BE6
:1036800031F488E792E00E947503809349066091C7
:10369000490688E792E00E94D903909149068091FB
:1036A0005E06981342C010925B0610925A0641E6DD
:1036B00056E06CE576E08AE496E00E94AD1E7C015F
:1036C0009093600680935F06892B09F42FC3A09026
:1036D0006306B090640609E416E0D0E0C0E0CA15C5
:1036E000DB050CF017C3B801645E7F4F40E150E08A
:1036F000C7010E94F2240E5E1F4F892B09F008C3F8
:103700006C9EF0016D9EF00D1124E75BF94F04A44F
:10371000F5A5E02D0995EAE4F6E01192CE16DF0654
:10372000E1F710925B0610925A06C09149068C2F61
:103730000C2E000C990B0E94DB24892B09F493CFEB
:1037400080915A0690915B069C012F5F3F4F30930A
:103750005B0620935A06875B994FDC011196CC9348
:10376000F901E75BF94F1182203131050CF47BCF71
:1037700010925B0610925A0676CF8091230388231D
:1037800071F0E0912103F09122038681978123E07B
:103790008139920769F510920602109205020E9483
:1037A000680870921D0710921E0760931F077093A0
:1037B0002007809321079093220720E030E846E31A
:1037C00054E40E943A1F0E941121709324076093D1
:1037D00023070E946B0902E020E030E0A90168E4C1
:1037E00081E60E942A0961E081E10E949D0427CCC4
:1037F000A3E084389A0739F4E1E0F0E0F0930602A0
:10380000E0930502CCCF8757934039F482E090E0F3
:103810009093060280930502C2CFEF52F34009F065
:10382000BECFA3E0B0E0B0930602A09305021092D1
:10383000CD031092CE031092CF031092D0031092BA
:10384000B1031092B2031092B3031092B403A7CF46
:10385000109223030E94F3091DCC82E06ECC80936A
:103860005F0787CC80E08DCC068117818085811130
:1038700008C0D8018D919C91978386830E945A0C31
:103880009DCCF801848161E0882309F456C0C3858A
:10389000D485EC80FD806C898D89681B770B615025
:1038A00071098F89681B7109072E000C880B990B11
:1038B0000E94DB1E9B01AC0160E070E080E291E4BD
:1038C0000E949521F70120813181428153810E941C
:1038D0003320D7016D937D938D939C9313978E84A2
:1038E0009F84A888B988A50194010E9440211816D8
:1038F0000CF05CC0F70180829182A282B38256C034
:10390000823009F05BCCE0912103F0912203809199
:103910002303811103C0848195814ACC06811781DC
:103920008085811105C0D80112968D919C91A4CFFC
:10393000F8018481811106C060E0C8010E941E0662
:10394000C8019CCFC385D485EC80FD806C898D89AE
:10395000681B770B615071098F89681B7109072EED
:10396000000C880B990B0E94DB1E9B01AC0160E0F0
:1039700070E080E291E40E9495219B01AC01F70187
:1039800060817181828193810E943220D7016D9381
:103990007D938D939C9313978A849B84AC84BD8480
:1039A000A50194010E94D41E87FDA4CFF701808158
:1039B0009181A281B3818E839F83A887B987C0CF6D
:1039C00080E045CC8C81811102C07C8261CCEB858A
:1039D000FC8587898F5F878B9489891708F458CC79
:1039E000178A56CC709223030E94780C54CC80EE38
:1039F00094E00E944108D7CD20E030E04AE754E44B
:103A00006091C9047091CA048091CB049091CC0458
:103A10000E943A1F2EE333EC4EE258E30E943A1F15
:103A20009B01AC016091CD037091CE038091CF03D7
:103A30009091D0030E9433206093CD037093CE0306
:103A40008093CF039093D0032EE333EC4EE258E300
:103A50006091E5047091E6048091E7049091E80498
:103A60000E943A1F9B01AC016091B1037091B203B7
:103A70008091B3039091B4030E9433206093B1030B
:103A80007093B2038093B3039093B403DECD60913F
:103A900001027091020280910302909104020E943F
:103AA000D91E4B015C0120E030E04AE754E460910C
:103AB0000E0170910F0180911001909111010E94EF
:103AC0003A1F9B01AC01C501B4010E9433204B0198
:103AD0005C010E945E050E94D91E9B01AC01C501DC
:103AE000B4010E94D41E87FFBECD61E08AE00E942F
:103AF0009D0461E082E30E945106672BD1F362E0EE
:103B00008AE50E94510624E09595879577956795FB
:103B10002A95D1F70E94DB1E26E933E44BE85BE3EC
:103B20000E943A1F60931201709313018093140155
:103B30009093150162E088E20E94510634E0959569
:103B40008795779567953A95D1F70E94DB1E2FE60A
:103B500032E143E050E40E943A1F20E030E040E8C8
:103B600059E30E943A1F1B012C0120E030E044E0A1
:103B700052E40E943A1F4B015C01A201910160E0F6
:103B800070E080EA90E40E9432209B01AC01C50104
:103B9000B4010E949F2020E030E040E251E40E9406
:103BA0009F200E944D2121EF3BEB46E859E30E9404
:103BB0003A1F2DE03FEC4BE55BE30E9433209B0175
:103BC000AC0160E070E080E89FE30E949F2023E367
:103BD00033E948E853E40E94322060931601709361
:103BE000170180931801909319018090F50590902A
:103BF000F605A090F705B090F80520E030E0A901A7
:103C0000C501B4010E9440211816D4F4A501940105
:103C10006091E5047091E6048091E7049091E804D6
:103C20000E949F2020E030E048EC52E40E943A1FBE
:103C30006093790470937A0480937B0490937C045E
:103C40002090790430907A0440907B0450907C045A
:103C500020E030E0A901C201B1010E94D41E87FD1D
:103C600053C020E030E046EC52E4C201B1010E94B2
:103C70004021181634F4212C312C86EC482E82E495
:103C8000582E2092790430927A0440927B0450920C
:103C90007C042091E5043091E6044091E7045091C2
:103CA000E804C501B4010E9432201B012C0120E070
:103CB00030E0A9010E94D41E87FF03C0212C312CC3
:103CC00021012092950430929604409297045092DC
:103CD000980480912303882341F0E0912103F0911F
:103CE0002203868197810E94AF0B60E08AE00E94E8
:103CF0009D040E945E05609301027093020280930E
:103D0000030290930402AFCC212C312C2101B9CFB6
:103D10002196E5CCE0911907F0911A070995EAE49C
:103D2000F6E01192CE16DF06E1F7FBCCE0E0F0E022
:103D3000EF2B09F46CC90E94A303882309F465C919
:103D40000E94000062C914820384F485E02D178A62
:103D50009FC98BEA93E00C94860CFA01A191B08183
:103D6000009719F41097E1F0CD01DC01CD010D9021
:103D7000002011F4C00113C0FB012191222319F08E
:103D80002015D9F7F3CFFB012191201519F41E92CC
:103D9000119606C02223C1F70D900020A1F7D00193
:103DA000FA01A193B08308950E94161F08F481E0E0
:103DB0000895E89409C097FB3EF49095809570951E
:103DC00061957F4F8F4F9F4F9923A9F0F92F96E967
:103DD000BB279395F695879577956795B795F111DC
:103DE000F8CFFAF4BB0F11F460FF1BC06F5F7F4F79
:103DF0008F4F9F4F16C0882311F096E911C077238B
:103E000021F09EE8872F762F05C0662371F096E893
:103E1000862F70E060E02AF09A95660F771F881F62
:103E2000DAF7880F9695879597F90895990F000806
:103E3000550FAA0BE0E8FEEF16161706E807F9077C
:103E4000C0F012161306E407F50798F0621B730B17
:103E5000840B950B39F40A2661F0232B242B252B98
:103E600021F408950A2609F4A140A6958FEF811D3B
:103E7000811D08950E944D1F0C94C11F0E94B31F05
:103E800038F00E94BA1F20F0952311F00C94AA1F5D
:103E90000C94B01F11240C94F51F0E94D21F70F3D4
:103EA000959FC1F3950F50E0551F629FF001729FDF
:103EB000BB27F00DB11D639FAA27F00DB11DAA1FEE
:103EC000649F6627B00DA11D661F829F2227B00D3B
:103ED000A11D621F739FB00DA11D621F839FA00DC6
:103EE000611D221F749F3327A00D611D231F849F16
:103EF000600D211D822F762F6A2F11249F5750406D
:103F00009AF0F1F088234AF0EE0FFF1FBB1F661FE7
:103F1000771F881F91505040A9F79E3F510580F0B0
:103F20000C94AA1F0C94F51F5F3FE4F3983ED4F362
:103F3000869577956795B795F795E7959F5FC1F754
:103F4000FE2B880F911D9695879597F908959927CF
:103F50008827089597F99F6780E870E060E00895EA
:103F60009FEF80EC089500240A9416161706180691
:103F70000906089500240A9412161306140605066D
:103F80000895092E0394000C11F4882352F0BB0FFE
:103F900040F4BF2B11F460FF04C06F5F7F4F8F4F61
:103FA0009F4F089557FD9058440F551F59F05F3F9C
:103FB00071F04795880F97FB991F61F09F3F79F04B
:103FC00087950895121613061406551FF2CF4695CD
:103FD000F1DF08C0161617061806991FF1CF86954F
:103FE0007105610508940895E894BB276627772733
:103FF000CB0197F908952F923F924F925F926F9263
:104000007F928F929F92AF92BF92CF92DF92EF9268
:10401000FF920F931F93CF93DF93CDB7DEB7CA1BE9
:10402000DB0B0FB6F894DEBF0FBECDBF09942A8814
:10403000398848885F846E847D848C849B84AA84BC
:10404000B984C884DF80EE80FD800C811B81AA8149
:10405000B981CE0FD11D0FB6F894DEBF0FBECDBF14
:10406000ED0108955058BB27AA270E944A200C94BE
:10407000C11F0E94B31F38F00E94BA1F20F039F40C
:104080009F3F19F426F40C94B01F0EF4E095E7FB63
:104090000C94AA1FE92F0E94D21F58F3BA17620787
:1040A00073078407950720F079F4A6F50C94F41FA4
:1040B0000EF4E0950B2EBA2FA02D0B01B901900143
:1040C0000C01CA01A0011124FF27591B99F0593F87
:1040D00050F4503E68F11A16F040A22F232F342FCF
:1040E0004427585FF3CF469537952795A795F0401D
:1040F0005395C9F77EF41F16BA0B620B730B840B32
:10410000BAF09150A1F0FF0FBB1F661F771F881FE9
:10411000C2F70EC0BA0F621F731F841F48F4879541
:1041200077956795B795F7959E3F08F0B0CF939533
:10413000880F08F09927EE0F9795879508950E94AC
:10414000B3200C94C11F0E94BA1F58F00E94B31FE5
:1041500040F029F45F3F29F00C94AA1F51110C94F0
:10416000F51F0C94B01F0E94D21F68F39923B1F37E
:10417000552391F3951B550BBB27AA27621773078D
:10418000840738F09F5F5F4F220F331F441FAA1F21
:10419000A9F335D00E2E3AF0E0E832D091505040DD
:1041A000E695001CCAF72BD0FE2F29D0660F771F8B
:1041B000881FBB1F261737074807AB07B0E809F071
:1041C000BB0B802DBF01FF2793585F4F3AF09E3FF6
:1041D000510578F00C94AA1F0C94F51F5F3FE4F38F
:1041E000983ED4F3869577956795B795F7959F5F39
:1041F000C9F7880F911D9695879597F90895E1E085
:10420000660F771F881FBB1F621773078407BA07E3
:1042100020F0621B730B840BBA0BEE1F88F7E0953E
:1042200008950E94DA1F88F09F5798F0B92F9927B8
:10423000B751B0F0E1F0660F771F881F991F1AF091
:10424000BA95C9F714C0B13091F00E94F41FB1E0E3
:1042500008950C94F41F672F782F8827B85F39F0E2
:10426000B93FCCF3869577956795B395D9F73EF42A
:1042700090958095709561957F4F8F4F9F4F0895D2
:104280000E94161F08F48FEF089516F00C94242254
:104290000C94B01F68940C94AA1F0E94DA1FA8F314
:1042A0009923C1F3AEF3DF93CF931F930F93FF9244
:1042B000C92FDD2788232AF02197660F771F881FD3
:1042C000DAF720E030E040E85FEB9FE3883920F048
:1042D000803E38F021968F770E943320E8E6F0E0A8
:1042E00004C00E943320E5E9F0E00E9432228B01F5
:1042F000BE01EC01FB2E6F5771097595771F880B76
:10430000990B0E94DB1E28E132E741E35FE30E9444
:104310004D1FAF2D9801AE01FF900F911F91CF91CE
:10432000DF910E944A200C94C11FFA01EE0FFF1F7B
:10433000309621053105A1F16115710561F48038D0
:10434000BFE39B0749F168949038810561F080389C
:10435000BFEF9B0741F099234AF5FF3FE105310587
:10436000210519F1E8940894E795D901AA2329F4C5
:10437000AB2FBE2FF85FD0F310C0FF5F70F4A6958F
:10438000E0F7F73950F019F0FF3A38F49F779F9330
:104390000DD00F9007FC9058089546F00C94B01F74
:1043A00060E070E080E89FE308954FE79F775F93B8
:1043B0004F933F932F930E944D212F913F914F9107
:1043C0005F910E943A1F0C94F2210E94161F880BE5
:1043D000990B089529F416F00C94AA1F0C94F41F5D
:1043E0000C94B01F0E94DA1FA8F39638A0F707F8C4
:1043F0000F92E8942BE33AEA48EB5FE70E94501FE4
:104400000F920F920F924DB75EB70F920E949B22B0
:10441000E2ECF0E00E9432224F915F91EF91FF9128
:10442000E595EE1FFF1F49F0FE57E0684427EE0FA9
:10443000441FFA95E1F74195550B0E9465220F90B4
:1044400007FE0C94592208959F3F31F0915020F4BB
:10445000879577956795B795880F911D9695879560
:1044600097F90895DF93CF931F930F93FF92EF92E5
:10447000DF927B018C01689406C0DA2EEF010E9466
:104480004D1FFE01E894A5912591359145915591D7
:10449000A6F3EF010E944A20FE019701A801DA94D9
:1044A00069F7DF90EF90FF900F911F91CF91DF910F
:1044B00008959B01AC0160E070E080E89FE30C94FC
:1044C0009F200C94AA1F0C9424220E94DA1FD8F378
:1044D0009923C9F3940F511DA3F39150504094F0C8
:1044E00059F0882332F0660F771F881F9150504093
:1044F000C1F79E3F51052CF7880F911D9695879522
:1045000097F908955F3FACF0983E9CF0BB278695E5
:1045100077956795B79508F4B1609395C1F7BB0F90
:1045200058F711F460FFE8CF6F5F7F4F8F4F9F4FB9
:10453000E3CF0C94F51FFA01DC01AA0FBB1F9B010E
:10454000AC01BF5728F4222733274427507820C0D6
:10455000B75190F4AB2F0024469537952795011C51
:10456000A395D2F3002071F0220F331F441FB3959F
:10457000DAF30ED00C94322061307105A0E88A077E
:10458000B94630F49B01AC016627772788279078DD
:10459000309621F020833183428353830895A1E232
:1045A0001A2EAA1BBB1BFD010DC0AA1FBB1FEE1FAD
:1045B000FF1FA217B307E407F50720F0A21BB30BF8
:1045C000E40BF50B661F771F881F991F1A9469F774
:1045D00060957095809590959B01AC01BD01CF01D0
:1045E0000895EE0FFF1F0590F491E02D09940F93AD
:1045F0001F93CF93DF938230910510F482E090E017
:10460000E0916707F091680730E020E0B0E0A0E0BB
:10461000309799F42115310509F44AC0281B390B4C
:1046200024303105D8F58A819B816115710589F1A6
:10463000FB0193838283FE0111C04081518102817D
:10464000138148175907E0F04817590799F4109754
:1046500061F012960C93129713961C933296CF0129
:10466000DF91CF911F910F910895009367071093E9
:104670006807F4CF2115310551F04217530738F080
:10468000A901DB019A01BD01DF01F801C1CFEF01F2
:10469000F9CF9093680780936707CDCFFE01E20FB3
:1046A000F31F819391932250310939832883D7CF07
:1046B0002091650730916607232B41F42091280152
:1046C00030912901309366072093650720912601D8
:1046D000309127012115310541F42DB73EB74091A6
:1046E0002A0150912B01241B350BE0916507F091B5
:1046F0006607E217F307A0F42E1B3F0B28173907B4
:1047000078F0AC014E5F5F4F2417350748F04E0F2D
:104710005F1F5093660740936507819391939FCFE6
:10472000F0E0E0E09CCFCF93DF930097E9F0FC014D
:10473000329713821282A0916707B0916807ED014A
:1047400030E020E01097A1F420813181820F931F87
:1047500020916507309166072817390709F061C075
:10476000F0936607E0936507DF91CF910895EA0122
:10477000CE17DF07E8F54A815B819E01411551059F
:10478000B1F7E901FB83EA8349915991C40FD51F21
:10479000EC17FD0761F4808191810296840F951FCB
:1047A000E90199838883828193819B838A83F0E0E6
:1047B000E0E012968D919C9113970097B9F52D9199
:1047C0003C911197CD010296820F931F20916507AE
:1047D000309166072817390739F6309751F510924E
:1047E000680710926707B0936607A0936507BCCF70
:1047F000D383C28340815181840F951FC817D90785
:1048000061F44E5F5F4F88819981480F591F518332
:1048100040838A819B81938382832115310509F02E
:10482000B0CFF0936807E09367079ECFFD01DC01EE
:10483000C0CF13821282D7CFB0E0A0E0E2E2F4E270
:104840000C94FD1F8C01009751F4CB010E94F722BC
:104850008C01C801CDB7DEB7E0E10C941920FC0152
:10486000E60FF71F9C0122503109E217F30708F405
:104870009DC0D901CD91DC911197C617D70798F04B
:10488000C530D10530F3CE0104978617970708F39A
:10489000C61BD70B2297C193D1936D937C93CF0105
:1048A0000E949323D6CF5B01AC1ABD0A4C018C0E3B
:1048B0009D1EA0916707B0916807512C412CF12CE7
:1048C000E12C109731F58091650790916607881566
:1048D000990509F05CC04616570608F058C080914B
:1048E000260190912701009741F48DB79EB7409122
:1048F0002A0150912B01841B950BE817F90708F04A
:1049000055C0F0936607E0936507F90171836083F2
:10491000A0CF8D919C91119712966C90129713963F
:104920007C901397A815B90559F56C0142E0C40EA7
:10493000D11CCA14DB0420F1AC014A195B09DA016D
:104940001296159780F06282738251834083D90159
:104950006D937C93E114F10471F0D7011396FC93ED
:10496000EE93129776CF22968C0F9D1FF9019183BB
:104970008083F301EFCFF0936807E093670769CF77
:104980004816590608F42C017D01D3019ACFCB01BA
:104990000E94F7227C01009749F0AE01B8010E9405
:1049A000E224C8010E949323870153CF10E000E066
:1049B00050CF803209F091110C94A71F80528F556F
:1049C000D8F70895FB01DC0102C001900D9241501F
:1049D0005040D8F70895FB01DC0101900D920020B2
:1049E000E1F70895FB01DC014150504030F08D911A
:1049F0000190801919F40020B9F7881B990B0895CC
:104A0000FB01DC014150504048F001900D92002024
:104A1000C9F701C01D9241505040E0F7089512E0DF
:104A2000C4E8D2E004C0FE010E94F1222196C538FC
:084A3000D107C9F7F894FFCF8C
:104A380001010000003F000040400000004200006B
:104A4800003F000040410000C8410000C84200008B
:104A5800803F0000003F000069078000A201A50117
:104A6800A801AB0100000000D903390366032B0439
:104A780097037503890300000000EB05BE051B06BC
:104A88009B050C03AB059C05000000002C083903AE
:104A98001B061A060D0A003E006E616E00696E66FE
:104AA800006F76660031003000205420202000433B
:104AB800522052202020202020006C6F6164006D5D
:104AC8006F64650067657400737765657000312EE3
:104AD80033004343004350004352004241545400C2
:00000001FF
