:020000040000FA
:100000000C94DF010C9407020C9407020C94070275
:100010000C9407020C9407020C9407020C9407023C
:100020000C9407020C9407020C9407020C9407022C
:100030000C9407020C9407020C9407020C9407021C
:100040000C942F0E0C9407020C94FD0D0C94D70DFC
:100050000C9407020C9407020C9407020C940702FC
:100060000C94790E0C94070207634236B79BD8A70D
:100070001A39685618AEBAAB558C1D3CB7CC5763CD
:10008000BD6DEDFD753EF6177231BF000000803F7B
:1000900008000000BE922449123EABAAAA2ABECD97
:1000A000CCCC4C3E00000080BEABAAAAAA3E000009
:1000B0000000BF000000803F000000000008417801
:1000C000D3BB4387D1133D190E3CC3BD4282AD2B38
:1000D0003E68EC8276BED98FE1A93E4C80EFFFBE30
:1000E00001C4FF7F3F00000000004D6F64650949B7
:1000F000286D412909560950286D57290949696E0B
:10010000286D41290956696E0950696E286D572975
:100110000945666628252900496E76616C69642068
:100120006E62206F6620617267730053746172742F
:10013000696E672073776565702066726F6D200049
:10014000496E76616C6964205377656570206D6FC8
:100150006465000D0A007377656570206220652074
:1001600073203A20737765657073206D6F6465271F
:100170007320706172616D657465722066726F6D57
:10018000206220746F206520696E2073207374656F
:1001900070730048656C70205061676500456D653F
:1001A0007267656E63792073746F702021000000A0
:1001B0000000240027002A0000000000250028007D
:1001C0002B00000000002300260029000404040482
:1001D00004040404020202020202030303030303F1
:1001E00001020408102040800102040810200102CE
:1001F00004081020000000080002010000030407AA
:10020000000000000000000053657474696E67739D
:100210000042617474657279004C6F6164004D65D1
:100220007465720020202020205768202020202084
:10023000206D416800492020202020412056632065
:10024000202020205600546163712020202073203C
:1002500046616E20202000426174742020202020FE
:100260005620526567202000566F20202020202035
:10027000205669202020202000507220202020209D
:1002800057204566202020202500562020202020B1
:1002900020204920202020202041004352205220AD
:1002A00020202020204F20542020200056202020D5
:1002B00020202020492020202020204100435020C1
:1002C000502020202020205720542020200056207D
:1002D00020202020202050202020202020570043B4
:1002E000432049202020202020412054202020008D
:1002F0005020202020202057202020202020202097
:1003000000562020202020202049202020202020AE
:100310004100456C656374726F6E6963204C6F6158
:10032000642053746172746564202100302D313073
:10033000305620302D3541207600456C656374724F
:100340006F6E6963204C6F6164004661756C742048
:1003500064657465637465642C206C6F61642073DC
:1003600068757474696E6720646F776E0054656D8C
:100370007020686F7420657863656564656420210A
:100380000009000D0A005377656570206578636584
:100390006564656420706172616D65746572206C5E
:1003A000696D69747300446163207361747572616F
:1003B00074696E6720757020210086109A1D1124C3
:1003C0001FBECFEFD8E0DEBFCDBF27E0A6EBB1E088
:1003D00001C01D92A035B207E1F711E0A0E0B1E045
:1003E000E0EAF8E402C005900D92A63BB107D9F708
:1003F00011E0CEEDD1E004C02197FE010E9425223C
:10040000CD3DD107C9F70E941B160C9443240C94D0
:10041000000008950895DC01ED91FC910190F081B8
:10042000E02D0994EF92FF920F931F93CF93DF93E8
:100430008C017B01D0E0C0E0F701EC0FFD1F64915F
:10044000662361F0D801ED91FC910190F081E02DDF
:10045000C8010995892B11F02196EECFCE01DF91CD
:10046000CF911F910F91FF90EF900895AF92BF929F
:10047000CF92DF92EF92FF920F931F93CF93DF9370
:100480006C017B018B01040F151FEB015E01AE189F
:10049000BF08C017D10759F06991D601ED91FC91C1
:1004A0000190F081E02DC6010995892B79F7C501EE
:1004B000DF91CF911F910F91FF90EF90DF90CF9040
:1004C000BF90AF900895FC01538D448D252F30E0EF
:1004D000842F90E0821B930B541710F0CF96089551
:1004E00001970895FC01918D828D981761F0A28D7E
:1004F000AE0FBF2FB11D5D968C91928D9F5F9F7344
:10050000928F90E008958FEF9FEF0895FC01918DF9
:10051000828D981731F0828DE80FF11D858D90E066
:1005200008958FEF9FEF0895FC01918D228D892F03
:1005300090E0805C9F4F821B91098F7399270895EB
:1005400089E892E00E94940221E0892B09F420E0DE
:10055000822F089580E090E0892B29F00E94A0026C
:1005600081110C9400000895FC01A48DA80FB92FEF
:10057000B11DA35ABF4F2C91848D90E001968F73CB
:100580009927848FA689B7892C93A089B1898C91EA
:10059000837080648C93938D848D981306C0028839
:1005A000F389E02D80818F7D80830895EF92FF9203
:1005B0000F931F93CF93DF93EC0181E0888F9B8D86
:1005C0008C8D98131AC0E889F989808185FF15C040
:1005D0009FB7F894EE89FF896083E889F989808163
:1005E0008370806480839FBF81E090E0DF91CF9132
:1005F0001F910F91FF90EF900895F62E0B8D10E054
:100600000F5F1F4F0F731127E02E8C8D8E110CC0C2
:100610000FB607FCFACFE889F989808185FFF5CF0D
:10062000CE010E94B402F1CFEB8DEC0FFD2FF11D36
:10063000E35AFF4FF0829FB7F8940B8FEA89FB894A
:1006400080818062CFCF69E089E892E00C94D60285
:10065000CF93DF93EC01888D8823B9F0AA89BB89F9
:10066000E889F9898C9185FD03C0808186FD0DC0E4
:100670000FB607FCF7CF8C9185FFF2CF808185FF05
:10068000EDCFCE010E94B402E9CFDF91CF91089562
:10069000833081F028F4813099F08230A9F00895F8
:1006A0008730A9F08830C9F08430B1F4809180009F
:1006B0008F7D03C0809180008F77809380000895A4
:1006C00084B58F7784BD089584B58F7DFBCF8091ED
:1006D000B0008F778093B00008958091B0008F7D37
:1006E000F9CFCF93DF93282F30E0F901EC50FE4F84
:1006F0008491F901E052FE4FD491F901E453FE4F89
:10070000C491CC23A1F081110E944803EC2FF0E0AA
:10071000EE0FFF1FEE53FE4FA591B491EC91ED2328
:1007200081E090E009F480E0DF91CF91089580E0CE
:1007300090E0FACF1F93CF93DF93282F30E0F90199
:10074000EC50FE4F8491F901E052FE4FD491F90133
:10075000E453FE4FC491CC23A9F0162F81110E94BF
:100760004803EC2FF0E0EE0FFF1FE854FE4FA59179
:10077000B4918FB7F894EC91111108C0D095DE2395
:10078000DC938FBFDF91CF911F910895DE2BF8CFBF
:10079000CF93DF9390E0FC01E052FE4F249184530D
:1007A0009E4FFC0184918823C9F090E0880F991F27
:1007B000FC01E255FE4FA591B491FC01E854FE4FB7
:1007C000C591D49161110DC09FB7F8948C9120957B
:1007D00082238C938881282328839FBFDF91CF9128
:1007E0000895623051F49FB7F8943C91822F809520
:1007F00083238C93E8812E2BEFCF8FB7F894EC9165
:100800002E2B2C938FBFEACF3FB7F89480911F0215
:1008100090912002A0912102B091220226B5A89BBE
:1008200005C02F3F19F00196A11DB11D3FBFBA2F82
:10083000A92F982F8827BC01CD01620F711D811D42
:10084000911D42E0660F771F881F991F4A95D1F7C7
:1008500008958F929F92AF92BF92CF92DF92EF92C4
:10086000FF924B015C010E9404046B017C010E9419
:1008700004046C197D098E099F09683E7340810547
:100880009105A8F321E0821A9108A108B10888EE29
:10089000C80E83E0D81EE11CF11C81149104A10450
:1008A000B10429F7FF90EF90DF90CF90BF90AF9009
:1008B0009F908F9008952FB7F89460911B027091CC
:1008C0001C0280911D0290911E022FBF089520915D
:1008D000F701260F3327331F21323105ECF4209125
:1008E0005F02FC0190E080E0243069F082E008952E
:1008F000A091F7012191AC0149525E4FA40FB52F91
:10090000B11D2C930196861798F38091F701680F1B
:100910006093F70180E0089581E0089510925F02EE
:1009200081E080935E021092390261E082E10E94D0
:100930009A0361E083E10E949A03E9EBF0E0808191
:100940008E7F808380818D7F808388E48093B80050
:1009500085E48093BC000895CF93DF9391E090935A
:10096000D6018823B9F0C091B800D091BA00809127
:10097000BC008A7B8093BC0060E082E10E949A0305
:1009800060E083E10E949A030E948E04D093BA0033
:10099000C093B800DF91CF9108950895E0912802A7
:1009A00080912702E81730F4F0E0EA54FE4F80818E
:1009B00090E008958FEF9FEF089590912802809125
:1009C00027022FEF3FEF981748F4E92FF0E0EA54A1
:1009D000FE4F208130E09F5F90932802C901089567
:1009E0008091270290912802891B990B0895CF923C
:1009F000DF92EF92FF920F931F93CF93DF937C01CF
:100A0000CB018A0120918802222389F0EB016B013E
:100A1000C40ED51ECC15DD0569F06991D701ED91A5
:100A2000FC910190F081E02DC7010995F3CF642F6F
:100A30000E946704C801DF91CF911F910F91FF9031
:100A4000EF90DF90CF900895CF93DF931F92CDB7B3
:100A5000DEB76983209188022223F9F02091850274
:100A6000203258F021E030E0FC013383228390E013
:100A700080E00F90DF91CF91089580918602E82F5A
:100A8000F0E0EB59FD4F998190838F5F8093860250
:100A90008093850281E090E0ECCF61E0CE01019689
:100AA0000E946704F7CFCF92DF92EF92FF920F93ED
:100AB0001F93CF936A017B0191E09093880291E6A6
:100AC000909387021092860210928502682F86E228
:100AD00093E00E9424059927F7FC9A958F2D7E2D8F
:100AE0006D2D86E293E00E9424056C2D86E293E052
:100AF0000E942405C091850281E0C13208F099C0AE
:100B00000E9404046B017C0180915F0281116BC023
:100B100082E080935F0281E080935E028FEF80939A
:100B20005D0210925C02C0935B02A5E6B2E0EBE3CB
:100B3000F2E080E0C81394C010923A0280913A0229
:100B4000826C80933A0280913902813009F08CC026
:100B5000109239020E9404046B017C0180913A02D8
:100B60008093BB008091610290916202A091630228
:100B7000B0916402892B8A2B8B2BA1F00E94040474
:100B8000009161021091620220916302309164022F
:100B90006C197D098E099F09061717072807390761
:100BA00008F442C08091BC0083FDD8CF85EC8093CF
:100BB000BC000E9404046B017C0180915F028230C2
:100BC00009F454C080915D028F3F09F471C0809197
:100BD0005D02803209F46EC080915D02803309F4B9
:100BE0006BC084E026C08091610290916202A09166
:100BF0006302B0916402892B8A2B8B2B09F484CF7A
:100C00000E9404040091610210916202209163022B
:100C1000309164026C197D098E099F090617170728
:100C20002807390708F070CF809160020E94AC0459
:100C300085E010928602109285021092880281113E
:100C40003DC061E070E080E090E00E94290480E017
:100C5000CF911F910F91FF90EF90DF90CF9008956B
:100C60009D9191938F5F66CF85EEA1CF80916102B8
:100C700090916202A0916302B0916402892B8A2B49
:100C80008B2B09F49ACF0E94040400916102109109
:100C9000620220916302309164026C197D098E0911
:100CA0009F09061717072807390708F086CFBCCF1A
:100CB00080E0BFCF82E0BDCF83E0BBCF81E0C8CF73
:100CC000089590E080E00895CF92DF92EF92FF9236
:100CD0008091290290912A0281309105B1F158F05A
:100CE0008230910509F46AC0039709F478C0C12CD9
:100CF000D12C76011EC0C0902801D0902901E0902F
:100D00002A01F0902B0120E030E040E85FE3C701CA
:100D1000B6010E94742018169CF080E090E0A8EDC7
:100D2000B1E480931C0190931D01A0931E01B09328
:100D30001F01C701B601FF90EF90DF90CF9008959B
:100D400080E090E0A8EFB1E4ECCFC0905A05D090DD
:100D50005B05E0905C05F0905D0520E030E0A901C6
:100D6000C701B6010E94742018160CF0C0CFA7016D
:100D70009601609124017091250180912601909146
:100D800027010E94CC1F6B017C0120E030E0A9010B
:100D90000E94011E87FDABCF23E333E343EA50E417
:100DA000C701B6010E94742018161CF683E3C82EF2
:100DB000DC2C83EAE82E80E4F82EBBCF20912001C2
:100DC00030912101409122015091230160915A05F7
:100DD00070915B0580915C0590915D05D2CFC090CC
:100DE0000401D0900501E0900601F0900701A1CF29
:100DF000809134038823C9F1E0913203F0913303E9
:100E00008681978123E0823A920729F410922A0280
:100E100010922902089523E08539920739F481E080
:100E200090E090932A028093290208958858934075
:100E300019F482E090E0F5CFE054F340B1F483E0A0
:100E400090E090932A02809329021092DE03109280
:100E5000DF031092E0031092E1031092C20310929C
:100E6000C3031092C4031092C5030895FC01838547
:100E70009485A385B485662391F02D913C913487A8
:100E80002387A385B48556962C915697211106C0C9
:100E9000A817B90771F781E0858314820895129627
:100EA0002D913C91ECCFCF93DF93DC011B96ED911C
:100EB000FC91A081B18171836083EB01FB83EA83A4
:100EC000B983A88313967C936E931297DF91CF9189
:100ED00008958F929F92AF92BF92FF920F931F93AC
:100EE000CF93DF938C01CB01BA01F801C481D58186
:100EF000288139814A815B810E94601F68837983E0
:100F00008A839B83F80186849784A088B188A50191
:100F100094010E947420F12C181634F4888299826E
:100F2000AA82BB82FF24F394F80182849384A48470
:100F3000B584A5019401688179818A819B810E9491
:100F4000011E87FF06C088829982AA82BB82FF2485
:100F5000F39488819981AA81BB81F8018683978364
:100F6000A087B1878F2DDF91CF911F910F91FF90B7
:100F7000BF90AF909F908F900895CF93DF93C4E080
:100F8000D7E01F821E8240E050E0BA0180E00E945C
:100F9000530541E050E060E070E088E40E945305B2
:100FA000188260E081E1DF91CF910C949A03CF9396
:100FB000DF93EC0160E08E810E949A0361E08E81F4
:100FC0000E949A0360E08E810E949A038BE891E070
:100FD0000197F1F7DF91CF910895CF92DF92EF92D1
:100FE000FF920F931F93CF93DF936C017C0187E0F7
:100FF000E80EF11CD0E0C0E0062F10E0B8010C2E86
:1010000002C0759567950A94E2F76170F7018191C6
:101010007F010E949A032196C430D10579F7C60159
:10102000DF91CF911F910F91FF90EF90DF90CF90C4
:101030000C94D707CF92DF92EF92FF920F931F93FA
:10104000CF93DF93EC01F62E642F8C810E949A03DC
:101050008D818F3F19F060E00E949A030F2D10E000
:101060008F8584FF25C06E0187E0C80ED11CF12C4E
:10107000E12CB8010E2C02C0759567950A94E2F731
:101080006170F60181916F010E949A03FFEFEF1AE0
:10109000FF0A88E0E816F10461F7CE01DF91CF91F5
:1010A0001F910F91FF90EF90DF90CF900C94D70796
:1010B000B80184E0759567958A95E1F7CE010E94A5
:1010C000ED076F2DCE01DF91CF911F910F91FF9012
:1010D000EF90DF90CF900C94ED0740E0682F8DE00B
:1010E00097E00C941A08643008F063E090912007B0
:1010F000691710F06FEF690FE62FF0E0E35FF84F2C
:101100009489890F80680C946D0881E00E946D08B5
:101110008BE39FE10197F1F70895CF93DF9382303E
:1011200029F490911C07986090931C0780932007E6
:101130001092210780E48093220780E180932307A7
:1011400080E58093240761E0809111070E94C80325
:10115000809112078F3F19F061E00E94C80361E09F
:10116000809113070E94C803CDE0D7E09E012D5067
:10117000374080911C0784FD0BC084E090E02196ED
:101180002817390744F461E08E810E94C803EECF2E
:1011900088E090E0F4CF8BE39DE00197F1F760E009
:1011A000809111070E949A0360E0809113070E94CA
:1011B0009A03809112078F3F19F060E00E949A0312
:1011C00080911C0784FD34C063E08DE097E00E94AD
:1011D000ED07CBE4D6E4CE010197F1F763E08DE0B3
:1011E00097E00E94ED072197F1F763E08DE097E02B
:1011F0000E94ED0783E592E00197F1F762E08DE050
:1012000097E00E94ED0780911C0780620E946D08A4
:1012100084E080931D078CE00E946D080E94850881
:1012200082E080931E0786E0DF91CF910C946D08D9
:1012300080620E946D088BE496E40197F1F780913B
:101240001C0780620E946D0883E592E00197F1F728
:1012500080911C0780620E946D08D5CF41E00E94FA
:101260001A0881E090E00895FB0101900020E9F761
:101270003197AF01461B570BDC01ED91FC910280C9
:10128000F381E02D0994CF93DF93BC0189E892E0CC
:101290000E941202EC016AE671E089E892E00E9485
:1012A00034098C0F9D1FDF91CF91089580910A071B
:1012B00090910B078115904168F086EA93E00E94B7
:1012C00043098FEF9FE090930B0780930A0781E01B
:1012D0008093050740910A0750910B0770E060E08A
:1012E00080E00C945305CF92DF92EF92FF926B0156
:1012F0007C0181E0809304071092050720E030E034
:10130000A901C7010E94742018161CF0C12CD12C11
:101310007601C0920607D0920707E0920807F09284
:10132000090720E030E046E354E4C701B6010E941B
:10133000671E0E94452070930B0760930A070E9466
:10134000560940E050E0BA0188E40E94530561E08C
:1013500081E1FF90EF90DF90CF900C949A03809101
:101360002F0290913002892B71F00E94BD071092DC
:10137000300210922F028DE991E00E94430983E52B
:1013800091E00C94430983E991E00E94430986E5CA
:1013900091E0F3CF8F929F92AF92BF92EF92FF9224
:1013A0000F931F93CF93DF93CDB7DEB7A1970FB6FF
:1013B000F894DEBF0FBECDBF7C01FA01CB0119A2AC
:1013C000223008F42AE08E010F5D1F4F822E912CEF
:1013D000B12CA12CBF01A50194010E940322F901A7
:1013E000CA016A300CF5605DD8016E938D01232B24
:1013F000242B252B79F790E080E0109721F0BD0198
:10140000C7010E943409A1960FB6F894DEBF0FBE43
:10141000CDBFDF91CF911F910F91FF90EF90BF90C3
:10142000AF909F908F900895695CDECFCF92DF924E
:10143000EF92FF92CF93DF936C01990FEE08FF08B4
:10144000F7FE1BC06DE289E892E00E940B02EC01FE
:1014500044275527BA014C195D096E097F092AE016
:1014600089E892E00E94CA098C0F9D1FDF91CF91FD
:10147000FF90EF90DF90CF9008952AE0B701A6018A
:1014800089E892E0DF91CF91FF90EF90DF90CF90CD
:101490000C94CA09CF93DF930E948508C091320350
:1014A000D09133036A8589850E9473088091320345
:1014B000909133036DE671E0C817D90711F067E921
:1014C00071E08DE097E00E943409688179818DE0B8
:1014D00097E00E9412020A80DB81C02D80913203C6
:1014E00090913303C817D907E9F6DF91CF9108959A
:1014F0002F923F924F925F926F927F928F929F9224
:10150000AF92BF92CF92DF92EF92FF921F93CF9351
:10151000DF93EC016A017B01722EAB019601CB01D6
:10152000B6010E94C9206FE671E0811126C0460114
:101530005701E894B7F82FEF3FEF4FE75FE7C5019A
:10154000B4010E94C92081110CC02FEF3FEF4FE77B
:101550005FE7C501B4010E94011E63E771E0181640
:1015600064F02FEF3FEF4FE75FE4C701B6010E9441
:1015700074201816B4F467E771E0CE01DF91CF91C3
:101580001F91FF90EF90DF90CF90BF90AF909F9012
:101590008F907F906F905F904F903F902F900C9422
:1015A00034092FEF3FEF4FE75FECC701B6010E9410
:1015B000011E87FDE0CF20E030E0A901C701B601A0
:1015C0000E94011E312C212C87FF09C06DE2CE0143
:1015D0000E940B021C01F7FAF094F7F8F09410E067
:1015E00060E070E080E09FE3711641F020E030E0C1
:1015F00040E251E40E94CC1F1F5FF6CFA701960185
:101600000E94601F2B013C010E9445204B015C01A0
:101610002AE0BC01A401CE010E94CA097C01E20CAF
:10162000F31C1123C1F1C501B4010E94061E9B01E8
:10163000AC01C301B2010E945F1F4B015C016EE26D
:10164000CE010E940B02E80EF91E115020F120E09D
:1016500030E040E251E4C501B4010E94671E2B0155
:101660003C010E9445204B01B12CA12C2AE0B50180
:10167000A401CE010E94CA09E80EF91EC501B401F9
:101680000E94061E9B01AC01C301B2010E945F1FB4
:101690004B015C01DACFC701DF91CF911F91FF9021
:1016A000EF90DF90CF90BF90AF909F908F907F9002
:1016B0006F905F904F903F902F9008958F929F92E0
:1016C000AF92BF92EF92FF920F931F93CF93DF934E
:1016D0008C01FC01C385D485EE24E394EC81FD816B
:1016E00080809180A280B3802E813F81488559857A
:1016F000C501B4010E94011E882321F08E829F82C1
:10170000A886B9868E809F80A884B984FC8820E052
:1017100030E040E251E4C501B4010E94011E87FFA0
:1017200044C08FEF8F0D8D8BF11001C01D8A6B8926
:101730008A890E9473084E815F81688579852D8929
:101740008DE097E00E94780A0990D881C02DF801B9
:10175000838594858C179D0709F6858181114DC07D
:101760009F896B898A89890F248121112CC081501E
:101770000E94730880911D078D7F80931D078860EC
:101780000E946D0880911D07982F916090931D070E
:101790008960DF91CF911F910F91FF90EF90BF90E3
:1017A000AF909F908F900C946D0820E030E048EC53
:1017B00052E4C501B4010E94011E87FF02C08EEFF2
:1017C000B1CFED8AB1CF2C893D89231B330B921702
:1017D00013060CF08F5F0E94730880911D07982FED
:1017E000926090931D078A600E946D0880911D078A
:1017F0008E7F80931D078860CCCF80911D078E7FE0
:1018000080931D0788600E946D0880911D078D7F61
:10181000F0CFCF93DF93EC010E94850860E080E079
:101820000E9473086E817F818DE097E00E94120212
:1018300061E080E00E947308688579858DE097E01B
:101840000E941202CE01DF91CF910C945E0B809129
:101850003403811102C00C944A0AE0913203F091E2
:101860003303868197810C94090CFC01808191815E
:10187000009711F00C94C72208954EE856E069E8ED
:1018800076E090E080E00E94C51D10922B0210923D
:101890002C0210922D0210922E02009751F00E94FD
:1018A0009E1D7093300260932F028AEE90E00C949C
:1018B000430982E090E09093300280932F02F5CFAD
:1018C0004F925F926F927F928F929F92AF92BF9250
:1018D000CF92DF92EF92FF92CF93DF9300D000D0B0
:1018E000CDB7DEB74EE856E069E876E090E080E0FC
:1018F0000E94C51D009709F41FC10E949E1D6B0127
:101900007C014EE856E069E876E090E080E00E94D5
:10191000C51D009709F410C10E949E1D4B015C017A
:101920004EE856E069E876E090E080E00E94C51D50
:101930003C01892B09F400C1C701B6010E94081EB1
:1019400020E030E04AE754E40E94CC1F6B017C01A8
:10195000C501B4010E94081E20E030E04AE754E4CB
:101960000E94CC1F4B015C01C3010E949E1D698334
:101970007A838B839C83A7019601C501B4010E94E1
:101980005F1F2B013C0129813A81B90190E080E081
:101990000E94061E9B01AC01C301B2010E94CC1F34
:1019A00060932B0270932C0280932D0290932E0251
:1019B00089819A8101969093300280932F020E9430
:1019C000F8068091290290912A028130910509F44C
:1019D0006FC008F454C08230910509F480C00397A9
:1019E00009F494C06BE271E089E892E00E9412026F
:1019F00022E0B701A60189E892E00E94780A6BE72D
:101A000071E089E892E00E94340922E0B501A40166
:101A100089E892E00E94780A60E871E089E892E043
:101A20000E94340940912B0250912C0260912D02AA
:101A300070912E0222E089E892E00E94780A6AE61C
:101A400071E089E892E00E9434098AEE90E00E94F9
:101A500043090E9464060F900F900F900F90DF9142
:101A6000CF91FF90EF90DF90CF90BF90AF909F907D
:101A70008F907F906F905F904F900C94730986E0E9
:101A800096E0909303018093020120912801309108
:101A9000290140912A0150912B01C701B6010E94F2
:101AA0005F1FAB01BC0186E096E00E9469079ACFF8
:101AB0008EEE95E090930301809302012091240122
:101AC000309125014091260150912701C701B601AF
:101AD0000E945F1FAB01BC018EEE95E0E6CF86ED64
:101AE00095E09093030180930201209120013091B1
:101AF00021014091220150912301C701B6010E94AA
:101B00005F1FAB01BC0186ED95E0CFCF80E491E093
:101B10000F900F900F900F90DF91CF91FF90EF906B
:101B2000DF90CF90BF90AF909F908F907F906F90FD
:101B30005F904F900C94430988E191E0E9CF85EDE7
:101B40008093BC008091610290916202A091630237
:101B5000B09164020796A11DB11D23E0B695A7952B
:101B6000979587952A95D1F72091BC0024FD03C055
:101B700010925F020895409161025091620260915B
:101B8000630270916402452B462B472B69F3009743
:101B9000A105B10541F025E32A95F1F70000019771
:101BA000A109B109E1CF809160020C94AC041F92AD
:101BB0000F920FB60F9211242F933F934F935F9381
:101BC0006F937F938F939F93AF93BF93EF93FF9305
:101BD00089E892E00E94B402FF91EF91BF91AF912A
:101BE0009F918F917F916F915F914F913F912F9135
:101BF0000F900FBE0F901F9018951F920F920FB667
:101C00000F9211242F938F939F93EF93FF93E09163
:101C10009902F0919A028081E0919F02F091A002D6
:101C200082FD1BC090818091A2028F5F8F732091F3
:101C3000A302821741F0E091A202F0E0E757FD4FC6
:101C4000958F8093A202FF91EF919F918F912F9199
:101C50000F900FBE0F901F9018958081F4CF1F92A8
:101C60000F920FB60F9211242F933F938F939F9350
:101C7000AF93BF9380911B0290911C02A0911D0213
:101C8000B0911E0230911A0223E0230F2D3758F530
:101C90000196A11DB11D20931A0280931B029093FF
:101CA0001C02A0931D02B0931E0280911F0290910E
:101CB0002002A0912102B09122020196A11DB11D26
:101CC00080931F0290932002A0932102B0932202DE
:101CD000BF91AF919F918F913F912F910F900FBE28
:101CE0000F901F90189526E8230F0296A11DB11D95
:101CF000D2CF1F920F920FB60F9211242F933F93C2
:101D00004F935F936F937F938F939F93AF93BF9303
:101D1000EF93FF938091B900887F803609F44AC021
:101D2000F0F5883209F4A7C018F5803109F49BC09A
:101D3000B8F4882309F4F9C0883009F494C0FF91FD
:101D4000EF91BF91AF919F918F917F916F915F9133
:101D50004F913F912F910F900FBE0F901F901895AC
:101D6000883109F488C0803251F780935D0214C035
:101D7000803409F49DC040F48033B9F38833F9F618
:101D800080935D0285ECB0C0803509F485C088354C
:101D900009F496C0883499F60E949F0DD0CF8839F7
:101DA00009F48CC038F5883729F050F4883611F0E2
:101DB000803729F683E080935F021092190257C0A2
:101DC000883809F47BC0803919F0803809F0B7CF22
:101DD00080911902803208F071C0E091190281E00F
:101DE0008E0F809319028091BB00F0E0E750FE4F08
:101DF00080833DC0803B39F0E0F4803A09F479C03B
:101E0000883A09F09CCF84E080935F021092F80139
:101E10001092F701E0912502F09126020995809138
:101E2000F70181110FC081E08093F7011092D70173
:101E300009C0803C09F4A6CF883C09F4A3CF883BB5
:101E400009F07DCFE091F80181E08E0F8093F801D9
:101E5000F0E0E952FE4F80818093BB009091F80141
:101E60008091F70129C080913A028093BB0085ECF4
:101E70008093BC0064CF90915C0280915B029817C4
:101E800058F5E0915C0281E08E0F80935C02F0E0F7
:101E9000E55CFD4F8081E9CFE0915C0281E08E0F2F
:101EA00080935C028091BB00F0E0E55CFD4F808395
:101EB00090915C0280915B029817C8F285E8D8CFB8
:101EC000E0915C0281E08E0F80935C028091BB0008
:101ED000F0E0E55CFD4F808380915E0281115CCF74
:101EE00081E08093390284EA8093BC0010925F0203
:101EF00026CF85EC8093BC0010925F02809119027E
:101F0000803230F4E0911902F0E0E750FE4F108289
:101F10006091190270E0E0912302F091240289EFB0
:101F200091E00995109219020ACF10925D0234CF08
:101F30004F925F926F927F928F929F92AF92BF92D9
:101F4000CF92DF92EF92FF920F93CF93DF93CDB7B3
:101F5000DEB73C012B01FC01178A75836483428B39
:101F6000238B048B158AC286D386E486F586868603
:101F70009786A08AB18A81E0868BA7019601FB0132
:101F800060817181828193810E94011E87FF05C05B
:101F9000F301C682D782E086F186A5019401F201A1
:101FA00060817181828193810E94742018162CF4C3
:101FB000F30186829782A086B186F20180819181A9
:101FC000A281B381F30186839783A087B187DF91D4
:101FD000CF910F91FF90EF90DF90CF90BF90AF9097
:101FE0009F908F907F906F905F904F9008950F9388
:101FF0001F93CF93DF93EC0188819981009759F06B
:102000002A813B812617370730F081E0DF91CF919D
:102010001F910F9108958B016F5F7F4F0E94502396
:10202000009759F0998388831B830A832C813D8113
:10203000232B59F7FC011082E8CF80E0E7CFEF9225
:10204000FF920F931F93CF93DF93EC01FB01E0808E
:10205000F180E114F10411F10481158101151105DC
:10206000A9F08C819D81080F191FB801CE010E9433
:10207000F70F882399F0288139818C819D81B701E0
:10208000820F931F0E941F241D830C83CE01DF91BA
:10209000CF911F910F91FF90EF90089588819981C2
:1020A000009711F00E94C722198218821D821C829B
:1020B0001B821A82EBCFEF92FF920F931F93CF9365
:1020C000DF93EC017B018A01BA010E94F70F28819E
:1020D0003981811114C02115310519F0C9010E94FF
:1020E000C722198218821D821C821B821A82CE018D
:1020F000DF91CF911F910F91FF90EF9008951D8375
:102100000C83B701C9010E941F24F1CF3F924F9267
:102110005F926F927F928F929F92AF92BF92CF9277
:10212000DF92EF92FF920F931F93CF93DF93CDB780
:10213000DEB768970FB6F894DEBF0FBECDBF109222
:102140008C0210928B0288EE93E0A0E0B0E08093C6
:102150008D0290938E02A0938F02B09390022EE393
:1021600031E030938A022093890225EC30E03093ED
:1021700096022093950224EC30E03093980220934D
:10218000970220EC30E030939A022093990221ECE0
:1021900030E030939C0220939B0222EC30E030939D
:1021A0009E0220939D0226EC30E03093A002209303
:1021B0009F021092A2021092A3021092A402109207
:1021C000A502109229031092280380932A0390936A
:1021D0002B03A0932C03B0932D0380E591E0909303
:1021E00027038093260381E08093250782E090E017
:1021F00090933A078093390788EC90E090933C07DE
:1022000080933B0710923D0710923E0710923F07C4
:1022100084E690E090934507809344071092460728
:1022200010924707109248071092490710924A07E8
:1022300010924B078CE0809326078DE08093270750
:102240008BE0809328070E945B04609329077093BA
:102250002A0780932B0790932C0760932D07709388
:102260002E0780932F079093300760933107709368
:10227000320780933307909334076093400770933D
:10228000410780934207909343078091250781304F
:1022900009F0C5C462E0809126070E94C80362E08D
:1022A000809127070E94C80362E0809128070E945E
:1022B000C8031092100710920F0782E691E09093E6
:1022C0000E0780930D0788E0809311078FEF8093AE
:1022D000120787E08093130786E08093140785E058
:1022E0008093150784E08093160783E08093170797
:1022F000109218071092190710921A0710921B07D4
:1023000010921C0781E00E948D0810920507109220
:102310000C07109203071092020780E290E090935E
:102320008A06809389068DE080938B061092910631
:1023300010929006E3E7F6E0119226E0E738F20704
:10234000D9F71092880610928706109270061092A4
:10235000710686E596E090935F0680935E068AE0BC
:10236000382E30926C0610926D0680915606909130
:102370005706A0915806B091590680936006909335
:102380006106A0936206B093630614E010936E0694
:1023900010926F0610925406109255069AE3492E39
:1023A00096E0592E509243064092420622E0622E59
:1023B000609250061092510680913A0690913B0629
:1023C000A0913C06B0913D0680934406909345064B
:1023D000A0934606B09347061093520610925306F8
:1023E00010923806109239068EE196E090932706F7
:1023F0008093260660923406772473947092350693
:1024000080911E0690911F06A0912006B091210692
:102410008093280690932906A0932A06B0932B0652
:10242000109336061092370633E3832E982C33EA46
:10243000A32E30E4B32EC12CD12C760104E020E091
:1024400045E068E271E086E096E00E94980F812CFA
:10245000912C4AEFA42E43E4B42E20E045E064E240
:1024600071E08EEE95E00E94980F812C912C5AE736
:10247000A52E54E4B52E6DECC62E6CECD62E6CE475
:10248000E62E6EE3F62E20E045E060E271E086ED98
:1024900095E00E94980F1092D4051092D5054CE15A
:1024A00051E05093C3054093C2052EE02093D00520
:1024B0001092D10580911C0190911D01A0911E01E7
:1024C000B0911F018093C4059093C505A093C605E4
:1024D000B093C7051092D2051092D3051092BC0597
:1024E0001092BD055093AB054093AA052093B80503
:1024F0001092B9058093AC059093AD05A093AE05FD
:10250000B093AF051092BA051092BB051092A405C6
:102510001092A50550939305409392052093A00532
:102520001092A1058093940590939505A09396052C
:10253000B09397051092A2051092A30510928C05F6
:1025400010928D0588E191E090937B0580937A0548
:1025500085E08093880510928905809118019091FB
:102560001901A0911A01B0911B0180937C059093F1
:102570007D05A0937E05B0937F0583E080938A0557
:1025800010928B0510927405109275052AE535E0BE
:102590003093630520936205609270057092710517
:1025A00040915A0550915B0560915C0570915D0505
:1025B00040936405509365056093660570936705C5
:1025C00010937205109273051092580510925905D8
:1025D0003093470520934605609254057092550547
:1025E000409348055093490560934A0570934B0505
:1025F0001093560510925705109240051092410510
:1026000030932F0520932E0560923C0570923D0576
:102610004093300550933105609332057093330534
:1026200010933E0510923F0510922805109229053F
:10263000EEE0F5E0F0931705E093160530922405DF
:1026400070922505C0900E05D0900F05E090100502
:10265000F0901105C0921805D0921905E0921A0564
:10266000F0921B05109326051092270510920C0579
:1026700010920D05E2EFF4E0F093FB04E093FA040E
:102680003092080570920905C090F204D090F304CE
:10269000E090F404F090F504C092FC04D092FD04A4
:1026A000E092FE04F092FF0410930A0510920B05CD
:1026B0001092F0041092F104F093DF04E093DE0432
:1026C0003092EC047092ED04C092E004D092E104E8
:1026D000E092E204F092E3041093EE041092EF040F
:1026E0001092D8041092D904EEEBF4E0F093C704F2
:1026F000E093C6048093D4041092D504C090BE0425
:10270000D090BF04E090C004F090C104C092C8040F
:10271000D092C904E092CA04F092CB048093D6040C
:102720001092D7041092BC041092BD04E2EAF4E0C7
:10273000F093AB04E093AA049CE09093B804109249
:10274000B904C090A204D090A304E090A404F09037
:10275000A504C092AC04D092AD04E092AE04F09215
:10276000AF041092BA041092BB041092A00410920D
:10277000A10430938F0420938E0480939C04709264
:102780009D0440939004509391046093920470933D
:10279000930480939E0410929F04109288041092D8
:1027A0008904509277044092760490938404709246
:1027B000850440913A0650913B0660913C06709129
:1027C0003D06409378045093790460937A047093A3
:1027D0007B048093860410928704812C912C70E2F4
:1027E000A72E71E4B72EEDECCE2EECECDE2EECE451
:1027F000EE2EEDE3FE2E02E021E045E064E171E023
:102800008AE594E00E94980F812C912CF8E4AF2E79
:10281000F2E4BF2EC12CD12CA0EAEA2EA1E4FA2EBC
:1028200021E04EE060E171E082E494E00E94980FC4
:10283000812C912CB0E8AB2EBFE3BB2EC12CD12C48
:10284000760101E020E04FE06CE071E08AE294E084
:102850000E94980F812C912C08E4A02E02E4B02E47
:1028600003E020E04BE068E071E082E194E00E9448
:10287000980F83E3882E982C83EAA82E80E4B82E44
:1028800020E042E064E071E08AEF93E00E94980F5C
:102890001092F8031092F9038EED93E09093E70302
:1028A0008093E60388E08093F4037092F5038091AF
:1028B000DE039091DF03A091E003B091E1038093E8
:1028C000E8039093E903A093EA03B093EB0310931A
:1028D000F6031092F7031092DC031092DD0382ECF2
:1028E00093E09093CB038093CA031092D803709225
:1028F000D9038091C2039091C303A091C403B09106
:10290000C5038093CC039093CD03A093CE03B093E3
:10291000CF031093DA031092DB031C8A1B8A1E8AF2
:102920001D8A188E1F8A45E050E068E871E0CE01EC
:1029300043960E945B101E861D86188A1F861A8A7F
:10294000198A84EF89831A828E010F5F1F4FF80165
:1029500001900020E9F73197AF01401B510BB801FE
:10296000CE010D960E945B101A8219821C821B8276
:102970001E821D824AE050E06EE871E0C8010E94AC
:102980005B1018861F821A8619861C861B86698131
:102990007A816115710531F04D815E81CE01079616
:1029A0000E945B10BE01635F7F4FCE0107960E94BD
:1029B0001F10BE016D5E7F4F0E941F101092BD035D
:1029C0001092BC031092BF031092BE031092C10379
:1029D0001092C003E3E08C3B9E0761F0FC01608134
:1029E00071816115710531F0448155818CEB93E063
:1029F0000E945B10CE0107960E94350CC8010E9410
:102A0000350CCE010D960E94350CCE0143960E94E6
:102A1000350C2FEA33E01092B30381E08093B403C6
:102A20001092B9034EE356E05093BB034093BA03B0
:102A300050933F0640933E06509341064093400614
:102A4000E2EAF3E01092A6038093A7031092AC038E
:102A500046E056E05093AE034093AD035093070613
:102A60004093060650930906409308061092990376
:102A700080939A0310929F034EEE55E05093A1036A
:102A80004093A0035093EF054093EE055093F1055A
:102A90004093F00510928C0380938D031092920363
:102AA00046ED55E050939403409393035093D7051C
:102AB0004093D6055093D9054093D80510927F03D3
:102AC000809380031092850342EC54E05093870377
:102AD000409386035093C3044093C2045093C504AB
:102AE0004093C4044EE653E0109272038093730344
:102AF0001092780366E775E070937A036093790328
:102B000070937705609376057093790560937805E7
:102B100061E673E0109265038093660310926B0385
:102B2000AAEFB3E0B0936D03A0936C03B093FB03E3
:102B3000A093FA03B093FD03A093FC0310925E03ED
:102B400030935D0320935C033093B0032093AF0375
:102B50003093B2032093B10310925F03809360031C
:102B60002BE433E010925303F0935203E0935103AC
:102B7000F093A303E093A203F093A503E093A403CF
:102B80001092540310925503109248037093470318
:102B900060934603709362036093610370936403D0
:102BA0006093630397E09093490310924A03109255
:102BB0003D0350933C0340933B0350936F0340937A
:102BC0006E03509371034093700390933E03809380
:102BD0003F03109234033093330320933203309336
:102BE0004E0320934D033093500320934F03689678
:102BF0000FB6F894DEBF0FBECDBFDF91CF911F910E
:102C00000F91FF90EF90DF90CF90BF90AF909F908B
:102C10008F907F906F905F904F903F90089560E00D
:102C2000809126070E94C80360E0809127070E94D8
:102C3000C80360E03ACB789484B5826084BD84B5E3
:102C4000816084BD85B5826085BD85B5816085BDA7
:102C500080916E00816080936E001092810080915F
:102C600081008260809381008091810081608093E7
:102C70008100809180008160809380008091B1000C
:102C800084608093B1008091B00081608093B00037
:102C900080917A00846080937A0080917A008260CB
:102CA00080937A0080917A00816080937A0080918D
:102CB0007A00806880937A001092C100E0919902B6
:102CC000F0919A0282E08083E0919502F091960261
:102CD0001082E0919702F091980280E18083109237
:102CE000A102E0919D02F0919E0286E08083E09136
:102CF0009B02F0919C02808180618083E0919B0225
:102D0000F0919C02808188608083E0919B02F09129
:102D10009C02808180688083E0919B02F0919C02FC
:102D200080818F7D8083109228021092270210925A
:102D30008602109285020E948E0489E092E09093B0
:102D40002602809325028AE092E0909324028093E9
:102D5000230261E080E10E94C80361E081E10E94FA
:102D6000C80361E082E00E94C80360E082E00E9444
:102D70009A0360E080E10E949A0360E081E10E9492
:102D80009A031092040710920607109207071092F8
:102D900008071092090710920B0710920A0741E0EA
:102DA00050E060E070E080E40E94530540E051E0B4
:102DB00060E070E080E50E94530541E050E060E093
:102DC00070E088E40E94530561E089E00E94C80336
:102DD00060E089E00E949A0320919006309191066C
:102DE0002530310514F5C6E1C29FC001C39F900D87
:102DF000112444E150E069E971E08E56994F0E9438
:102E000034248091900690919106C89FF001C99F4B
:102E1000F00D1124EE58F94F2DE33CE035AB24AB17
:102E200001969093910680939006209190063091A0
:102E300091062530310514F5C6E1C29FC001C39F3C
:102E4000900D112444E150E06DE971E08E56994FE8
:102E50000E9434248091900690919106C89FF001C1
:102E6000C99FF00D1124EE58F94F20E63CE035AB38
:102E700024AB019690939106809390068FEA99E097
:102E8000909301078093000760E08CE00E94C803E4
:102E900060E08DE00E94C80360E08BE00E94C80300
:102EA00060E08EE00E94C80360E08FE00E94C803EB
:102EB00061E08AE00E94C80360E08AE00E949A0311
:102EC00082E00E948D086AE373E08DE097E00E9443
:102ED000120261E080E00E9473086CE273E08DE012
:102EE00097E00E94120263EA71E08DE097E00E9491
:102EF000340981E093E09093B6038093B50380EFAB
:102F000092E09093B8038093B7038FED92E0909393
:102F1000A9038093A8038EEC92E09093AB03809377
:102F2000AA0325E9C22E23E0D22E8DEB92E09093E6
:102F30009C0380939B038CEA92E090939E03809382
:102F40009D0338E8A32E33E0B32E8BE992E09093F3
:102F50008F0380938E038AE892E09093910380938D
:102F600090034BE7842E43E0942E89E792E0909300
:102F700082038093810388E692E090938403809398
:102F8000830387E592E0909375038093740386E44E
:102F900092E0909377038093760385E392E0909399
:102FA00068038093670384E292E090936A038093BE
:102FB000690306E513E08EE192E090935703809356
:102FC000560389E192E090934C0380934B03C0E455
:102FD000D3E081E192E0909341038093400355E375
:102FE000E52E53E0F52E88E092E09093360380932F
:102FF00035036AE576E08FEA93E00E94530762E2C8
:1030000076E08FEA93E00E9453076EEB75E082EA68
:1030100093E00E9453076EE575E082EA93E00E9418
:10302000530762E175E082EA93E00E94530766EA83
:1030300075E0C6010E94530762E475E0C6010E9474
:10304000530766EF74E0C6010E9453076EE875E00F
:10305000C5010E9453076AE275E0C5010E9453074B
:103060006AED74E0C5010E94530766EA74E0C4018A
:103070000E9453076AE874E0C4010E94530762E7A4
:1030800074E0C4010E9453076AE574E08EE693E0A1
:103090000E94530762E474E08EE693E00E945307B7
:1030A0006AE274E08EE693E00E94530762E174E006
:1030B00081E693E00E94530766EC73E081E693E0BB
:1030C0000E94530762EE73E081E693E00E9453078B
:1030D000E0915103F0915203A081B18191828082ED
:1030E000F0937E03E0937D03B0937C03A0937B0376
:1030F00013969C928E921297A081B181B182A08288
:10310000F0938B03E0938A03B0938903A093880321
:103110001396BC92AE921297A081B181D182C082E7
:10312000F0939803E0939703B0939603A0939503CD
:103130001396DC92CE921297E0913203F091330312
:10314000A281B381F382E282F0933A03E0933903E0
:10315000B0933803A09337031596FC92EE92149720
:10316000A281B38113830283F0935B03E0935A033C
:10317000B0935903A093580315961C930E9314977C
:10318000A281B381D383C283F0934503E0934403C8
:10319000B0934303A09342031596DC93CE93149708
:1031A00082E193E00E9443096CED75E080E090E0DD
:1031B0000E9429040E94270C0E945B046093350240
:1031C0007093360280933702909338020E945B041A
:1031D00060933102709332028093330290933402F1
:1031E00011E067E8C62E66E0D62E70E0272E70E06C
:1031F000372E01E08FE00E94710320910001281713
:10320000190661F0212720930001211107C0809148
:103210000407882309F483C20E94BD078EE00E9440
:103220007103209101012817190619F12127209314
:10323000010121111EC080913403882309F476C254
:10324000A0913203B091330318968C91189788237C
:1032500009F46CC21696ED91FC9117978481811147
:1032600063C418961C928581811101C015830E9448
:10327000270C0E945B04AB01BC01409329075093CB
:103280002A0760932B0770932C0720913907309100
:103290003A0780912D0790912E07A0912F07B091AA
:1032A0003007820F931FA11DB11D481759076A07E8
:1032B0007B0708F46FC0809126070E94710330914C
:1032C000250721E03817190609F020E02093470769
:1032D000809127070E947103FC012091250730E0AF
:1032E00081E0E217F30709F080E0809348079091AE
:1032F00047074091290750912A0760912B07709149
:103300002C0791111BC280914A07882309F416C229
:1033100081E0E217F30709F082E020914407309141
:1033200045078090400790904107A0904207B090D9
:103330004307820E931EA11CB11C481559056A054E
:103340007B0508F0F8C180914607409340075093F1
:103350004107609342077093430790934A07409355
:103360002D0750932E0760932F07709330078130FD
:1033700009F032C2E0913203F091330380913403BB
:103380008111DEC182819381909333038093320354
:103390000E94270C0E945B046093290770932A0700
:1033A00080932B0790932C07809128070E9471032C
:1033B000FC012091250730E091E0E217F30709F0C6
:1033C00090E0909349074091290750912A07609116
:1033D0002B0770912C07A0913B07B0913C07809080
:1033E000310790903207A0903307B09034078A0ECF
:1033F0009B1EA11CB11C481559056A057B05C0F12F
:10340000E217F30709F448C280914B07882309F4B7
:1034100043C210923D07409335075093360760939F
:1034200037077093380781E090934B07409331073B
:103430005093320760933307709334078823C1F0A9
:1034400080913403882309F439C2E0913203F0916A
:1034500033031087C681D7818D81882309F41EC26A
:103460001D8261E0CE010E943607CE010E94090C48
:103470006091350270913602809137029091380246
:103480000E94061E20E030E046E153E40E94601FE7
:103490004B015C010E945B040E94061E9B01AC0173
:1034A000C501B4010E94011E87FF0DC240901C019E
:1034B00050901D0160901E0170901F010E946406D3
:1034C0004B015C0120E030E040E252E4C301B20174
:1034D0000E94742087FD0AC080910407882331F080
:1034E0008DE693E00E94430900930507809104074D
:1034F0008823C1F080910C07811114C02091100124
:10350000309111014091120150911301C301B20198
:103510000E94742087FD06C061E082E00E949A0349
:1035200000930C0780910C078823E1F020E030E045
:1035300040E050E4609110017091110180911201FE
:10354000909113010E945F1F9B01AC01C301B20166
:103550000E94011E87FF06C060E082E00E949A037D
:1035600010920C0780910407882341F18091050790
:10357000811124C020E030E0A901C501B4010E94FE
:10358000742018161CF0812C912C5401809206078F
:1035900090920707A0920807B092090720E030E058
:1035A00046E354E4C501B4010E94671E0E94452011
:1035B00070930B0760930A070E94560980910507D4
:1035C000882351F080910407882331F08AE493E046
:1035D0000E9443090E94BD076091050780E10E9497
:1035E0009A030E945B0460933502709336028093C5
:1035F00037029093380289E892E00E9494021816EC
:1036000019060CF085C28091020790910307892B5F
:1036100031F489E892E00E94720280937206609110
:10362000720689E892E00E940B02909172068091E6
:103630008B0698134CC010928806109287064EE8AD
:1036400056E069E876E083E796E00E94C51D4C01EC
:1036500090938D0680938C06892B09F459C2A09013
:103660009006B090910682E7E82E86E0F82ED0E032
:10367000C0E0CA15DB050CF03FC2B701605E7F4FAA
:1036800044E150E0C4010E942624F6E1EF0EF11C53
:10369000892B09F02FC263E873E089E892E00E9469
:1036A000120226E12C9FF0012D9FF00D1124EE58FF
:1036B000F94F04A8F5A9E02D0995E3E7F6E011928A
:1036C000CE16DF06E1F71092880610928706C091A9
:1036D00072068C2F0C2E000C990B0E940F24892B44
:1036E00009F489CF80918706909188069C012F5F0D
:1036F0003F4F30938806209387068E58994FDC0100
:103700001196CC93F901EE58F94F1182243131050D
:103710000CF471CF10928806109287066CCF0E942D
:10372000F8060E9464060E94730978CD1092340353
:103730000E944A0A9ECD8093460707CE80E00DCEB8
:10374000E680F7808085811108C0D7018D919C911A
:10375000978386830E94090C1DCEF701848161E066
:10376000882309F456C0C385D485AC80BD806C899C
:103770008D89681B770B615071098F89681B7109EE
:10378000072E000C880B990B0E94081E9B01AC01B0
:1037900060E070E080E291E40E947920F5012081F0
:1037A0003181428153810E94601FD5016D937D93C9
:1037B0008D939C9313974E845F8468887988A301C6
:1037C00092010E94742018160CF05CC0F501408232
:1037D00051826282738256C0823009F0DBCDE09163
:1037E0003203F091330380913403811103C084814B
:1037F0009581CACDE680F7808085811105C0D7010B
:1038000012968D919C91A4CFF7018481811106C0FD
:1038100060E0C7010E943607C7019CCFC385D485ED
:10382000AC80BD806C898D89681B770B61507109F4
:103830008F89681B7109072E000C880B990B0E9459
:10384000081E9B01AC0160E070E080E291E40E9400
:1038500079209B01AC01F5016081718182819381A6
:103860000E945F1FD5016D937D938D939C93139759
:103870004A845B846C847D84A30192010E94011EB2
:1038800087FDA4CFF50180819181A281B3818E83D0
:103890009F83A887B987C0CF80E0C6CD8C81811176
:1038A00002C01C83E2CDEB85FC8587898F5F878B07
:1038B0009489891708F4D9CD178AD7CD009334039A
:1038C0000E94270CD5CD6091310270913202809117
:1038D0003302909134020E94061E4B015C0120E0ED
:1038E00030E04AE754E46091140170911501809131
:1038F0001601909117010E94671E9B01AC01C50142
:10390000B4010E94601F4B015C010E945B040E9495
:10391000061E9B01AC01C501B4010E94011E87FF78
:103920006ACE61E08AE00E949A0380913403882382
:1039300041F0E0913203F0913303868197810E9438
:103940005E0B80912F0290913002009709F4A8C07D
:1039500020910407222309F4A3C001979093300219
:1039600080932F02E0912902F0912A02EE0FFF1FAF
:10397000EE5CFE4F608171816115710521F089E86F
:1039800092E00E9434090E94230320E030E04AE7DD
:1039900054E46091F2047091F3048091F4049091E6
:1039A000F5040E94671E0E943E20CB010E94160A69
:1039B0000E94230340915A0550915B0560915C057C
:1039C00070915D0522E089E892E00E94780A0E94E9
:1039D000230320E030E04AE754E460910E05709143
:1039E0000F0580911005909111050E94671E0E949D
:1039F0003E20CB010E94160A0E94230320E030E003
:103A00004AE754E460915606709157068091580633
:103A1000909159060E94671E0E943E20CB010E9491
:103A2000160A0E94230340913A0650913B0660918A
:103A30003C0670913D0622E089E892E00E94780AF7
:103A40000E94230320E030E04AE754E460911E0620
:103A500070911F0680912006909121060E94671E9A
:103A60000E943E20CB010E94160A0E94230340912F
:103A7000A2045091A3046091A4047091A50421E0D4
:103A800089E892E00E94780A81E893E00E94430965
:103A900080912F0290913002892B89F40E94BD07FA
:103AA00060E08AE00E949A030E945B046093310206
:103AB0007093320280933302909334029CCD4091F4
:103AC0002B0250912C0260912D0270912E02809158
:103AD0000201909103010E946907882309F3109263
:103AE000300210922F020E94BD0786E893E00E94E8
:103AF0004309D6CF2196BDCDE0910007F091010793
:103B00000995E3E7F6E01192CE16DF06E1F7DBCD8B
:103B10002114310409F46ECB0E94A002882309F419
:103B200069CB0E94000066CB14820384F485E02DEB
:103B3000178A9DCB8CEB93E00C94350C1F93FC0102
:103B400099278827BC01E89411911032E9F31930C4
:103B500010F01E30C8F31B3251F01D3249F4689446
:103B600006C00E94EC1D610F711D811D911D1191F8
:103B700010531A30B0F33EF490958095709561958E
:103B80007F4F8F4F9F4F1F910895FA01A191B081F0
:103B9000009719F41097E1F0CD01DC01CD010D90F3
:103BA000002011F4C00113C0FB012191222319F060
:103BB0002015D9F7F3CFFB012191201519F41E929E
:103BC000119606C02223C1F70D900020A1F7D00165
:103BD000FA01A193B0830895592F482F372F262F2C
:103BE000660F771F881F991F660F771F881F991F01
:103BF000620F731F841F951F660F771F881F991F01
:103C000008950E94431E08F481E00895E89409C0D5
:103C100097FB3EF490958095709561957F4F8F4FFF
:103C20009F4F9923A9F0F92F96E9BB279395F69515
:103C3000879577956795B795F111F8CFFAF4BB0F93
:103C400011F460FF1BC06F5F7F4F8F4F9F4F16C0F7
:103C5000882311F096E911C0772321F09EE8872F81
:103C6000762F05C0662371F096E8862F70E060E03D
:103C70002AF09A95660F771F881FDAF7880F9695B6
:103C8000879597F90895990F0008550FAA0BE0E85A
:103C9000FEEF16161706E807F907C0F0121613060E
:103CA000E407F50798F0621B730B840B950B39F44E
:103CB0000A2661F0232B242B252B21F408950A26B4
:103CC00009F4A140A6958FEF811D811D08950E94E2
:103CD0007A1E0C94EE1E0E94E01E38F00E94E71E31
:103CE00020F0952311F00C94D71E0C94DD1E1124A6
:103CF0000C94221F0E94FF1E70F3959FC1F3950F35
:103D000050E0551F629FF001729FBB27F00DB11D5F
:103D1000639FAA27F00DB11DAA1F649F6627B00DEF
:103D2000A11D661F829F2227B00DA11D621F739FD8
:103D3000B00DA11D621F839FA00D611D221F749FE6
:103D40003327A00D611D231F849F600D211D822F2D
:103D5000762F6A2F11249F5750409AF0F1F0882354
:103D60004AF0EE0FFF1FBB1F661F771F881F915081
:103D70005040A9F79E3F510580F00C94D71E0C943B
:103D8000221F5F3FE4F3983ED4F3869577956795BD
:103D9000B795F795E7959F5FC1F7FE2B880F911DAB
:103DA0009695879597F9089599278827089597F903
:103DB0009F6780E870E060E008959FEF80EC0895D1
:103DC00000240A94161617061806090608950024FA
:103DD0000A9412161306140605060895092E039474
:103DE000000C11F4882352F0BB0F40F4BF2B11F4E8
:103DF00060FF04C06F5F7F4F8F4F9F4F089557FD47
:103E00009058440F551F59F05F3F71F04795880F48
:103E100097FB991F61F09F3F79F0879508951216DF
:103E200013061406551FF2CF4695F1DF08C016168B
:103E300017061806991FF1CF86957105610508943C
:103E40000895E894BB2766277727CB0197F9089553
:103E50002F923F924F925F926F927F928F929F929A
:103E6000AF92BF92CF92DF92EF92FF920F931F9388
:103E7000CF93DF93CDB7DEB7CA1BDB0B0FB6F89439
:103E8000DEBF0FBECDBF09942A88398848885F8479
:103E90006E847D848C849B84AA84B984C884DF80EA
:103EA000EE80FD800C811B81AA81B981CE0FD11DCE
:103EB0000FB6F894DEBF0FBECDBFED010895505888
:103EC000BB27AA270E94771F0C94EE1E0E94E01EBB
:103ED00038F00E94E71E20F039F49F3F19F426F4D1
:103EE0000C94DD1E0EF4E095E7FB0C94D71EE92F31
:103EF0000E94FF1E58F3BA176207730784079507DD
:103F000020F079F4A6F50C94211F0EF4E0950B2E09
:103F1000BA2FA02D0B01B90190010C01CA01A0011B
:103F20001124FF27591B99F0593F50F4503E68F176
:103F30001A16F040A22F232F342F4427585FF3CFB7
:103F4000469537952795A795F0405395C9F77EF488
:103F50001F16BA0B620B730B840BBAF09150A1F0D1
:103F6000FF0FBB1F661F771F881FC2F70EC0BA0F57
:103F7000621F731F841F48F4879577956795B795DF
:103F8000F7959E3F08F0B0CF9395880F08F09927DA
:103F9000EE0F9795879508950E94E01F0C94EE1EF2
:103FA0000E94E71E58F00E94E01E40F029F45F3F97
:103FB00029F00C94D71E51110C94221F0C94DD1E75
:103FC0000E94FF1E68F39923B1F3552391F3951BCB
:103FD000550BBB27AA2762177307840738F09F5F2A
:103FE0005F4F220F331F441FAA1FA9F335D00E2E97
:103FF0003AF0E0E832D091505040E695001CCAF704
:104000002BD0FE2F29D0660F771F881FBB1F2617C6
:1040100037074807AB07B0E809F0BB0B802DBF019D
:10402000FF2793585F4F3AF09E3F510578F00C946C
:10403000D71E0C94221F5F3FE4F3983ED4F386957D
:1040400077956795B795F7959F5FC9F7880F911D8D
:104050009695879597F90895E1E0660F771F881F79
:10406000BB1F621773078407BA0720F0621B730B2C
:10407000840BBA0BEE1F88F7E09508950E94452047
:104080006894B1110C94221F08950E94071F88F0B4
:104090009F5798F0B92F9927B751B0F0E1F0660F0C
:1040A000771F881F991F1AF0BA95C9F714C0B1304D
:1040B00091F00E94211FB1E008950C94211F672FF9
:1040C000782F8827B85F39F0B93FCCF3869577957C
:1040D0006795B395D9F73EF4909580957095619565
:1040E0007F4F8F4F9F4F08950E94431E08F48FEF1C
:1040F0000895FA01EE0FFF1F309621053105A1F159
:104100006115710561F48038BFE39B0749F168943C
:104110009038810561F08038BFEF9B0741F099230B
:104120004AF5FF3FE1053105210519F1E8940894AE
:10413000E795D901AA2329F4AB2FBE2FF85FD0F35E
:1041400010C0FF5F70F4A695E0F7F73950F019F052
:10415000FF3A38F49F779F930DD00F9007FC90584B
:10416000089546F00C94DD1E60E070E080E89FE367
:1041700008954FE79F775F934F933F932F930E944C
:1041800079212F913F914F915F910E94671E0C946E
:10419000D6200E94431E880B990B089529F416F02F
:1041A0000C94D71E0C94211F0C94DD1E0E94071F37
:1041B000A8F39638A0F707F80F92E8942BE33AEAB1
:1041C00048EB5FE70E947D1E0F920F920F924DB752
:1041D0005EB70F920E94C121E8E6F0E00E9408213C
:1041E0004F915F91EF91FF91E595EE1FFF1F49F011
:1041F000FE57E0684427EE0F441FFA95E1F741951A
:10420000550B0E943B210F9007FE0C942F2108951F
:10421000DF93CF931F930F93FF92EF92DF927B0177
:104220008C01689406C0DA2EEF010E947A1EFE010E
:10423000E894A5912591359145915591A6F3EF010B
:104240000E94771FFE019701A801DA9469F7DF90B9
:10425000EF90FF900F911F91CF91DF9108959B01F7
:10426000AC0160E070E080E89FE30C94CC1F0C94FC
:10427000D71E0C94F5210E94071FD8F39923C9F388
:10428000940F511DA3F39150504094F059F088239E
:1042900032F0660F771F881F91505040C1F79E3F44
:1042A00051052CF7880F911D9695879597F90895DC
:1042B0005F3FACF0983E9CF0BB278695779567955D
:1042C000B79508F4B1609395C1F7BB0F58F711F497
:1042D00060FFE8CF6F5F7F4F8F4F9F4FE3CF0C940E
:1042E000221F16F00C94F5210C94DD1E68940C949A
:1042F000D71E0E94071FA8F39923C1F3AEF3DF93E3
:10430000CF931F930F93FF92C92FDD2788232AF0A5
:104310002197660F771F881FDAF720E030E040E82A
:104320005FEB9FE3883920F0803E38F021968F774D
:104330000E94601FE0E9F0E004C00E94601FEDEB06
:10434000F0E00E9408218B01BE01EC01FB2E6F57AB
:1043500071097595771F880B990B0E94081E28E13B
:1043600032E741E35FE30E947A1EAF2D9801AE0170
:10437000FF900F911F91CF91DF910E94771F0C94B6
:10438000EE1EFA01DC01AA0FBB1F9B01AC01BF5757
:1043900028F4222733274427507820C0B75190F4BF
:1043A000AB2F0024469537952795011CA395D2F392
:1043B000002071F0220F331F441FB395DAF30ED0A3
:1043C0000C945F1F61307105A0E88A07B94630F48C
:1043D0009B01AC016627772788279078309621F0DB
:1043E000208331834283538308959F3F31F091505E
:1043F00020F4879577956795B795880F911D9695C9
:10440000879597F90895A1E21A2EAA1BBB1BFD01FF
:104410000DC0AA1FBB1FEE1FFF1FA217B307E407A3
:10442000F50720F0A21BB30BE40BF50B661F771FFB
:10443000881F991F1A9469F76095709580959095DB
:104440009B01AC01BD01CF010895EE0FFF1F059048
:10445000F491E02D09940F931F93CF93DF93823053
:10446000910510F482E090E0E0914E07F0914F0743
:1044700030E020E0B0E0A0E0309799F4211531055C
:1044800009F44AC0281B390B24303105D8F58A813C
:104490009B816115710589F1FB0193838283FE0184
:1044A00011C0408151810281138148175907E0F002
:1044B0004817590799F4109761F012960C931297C8
:1044C00013961C933296CF01DF91CF911F910F91DC
:1044D000089500934E0710934F07F4CF211531052F
:1044E00051F04217530738F0A901DB019A01BD01D1
:1044F000DF01F801C1CFEF01F9CF90934F0780930F
:104500004E07CDCFFE01E20FF31F8193919322500E
:10451000310939832883D7CF20914C0730914D073B
:10452000232B41F420912E0130912F0130934D0720
:1045300020934C0720912C0130912D01211531053C
:1045400041F42DB73EB74091300150913101241B09
:10455000350BE0914C07F0914D07E217F307A0F4FB
:104560002E1B3F0B2817390778F0AC014E5F5F4FC9
:104570002417350748F04E0F5F1F50934D074093A7
:104580004C07819391939FCFF0E0E0E09CCFCF93D5
:10459000DF930097E9F0FC01329713821282A09119
:1045A0004E07B0914F07ED0130E020E01097A1F4E5
:1045B00020813181820F931F20914C0730914D074C
:1045C0002817390709F061C0F0934D07E0934C07B5
:1045D000DF91CF910895EA01CE17DF07E8F54A8110
:1045E0005B819E0141155105B1F7E901FB83EA8327
:1045F00049915991C40FD51FEC17FD0761F48081D3
:1046000091810296840F951FE901998388838281A5
:1046100093819B838A83F0E0E0E012968D919C91D8
:1046200013970097B9F52D913C911197CD01029602
:10463000820F931F20914C0730914D07281739079F
:1046400039F6309751F510924F0710924E07B093FC
:104650004D07A0934C07BCCFD383C28340815181C7
:10466000840F951FC817D90761F44E5F5F4F88818B
:104670009981480F591F518340838A819B8193837D
:1046800082832115310509F0B0CFF0934F07E093F5
:104690004E079ECFFD01DC01C0CF13821282D7CF1F
:1046A000B0E0A0E0E6E5F3E20C942A1F8C0100974D
:1046B00051F4CB010E942B228C01C801CDB7DEB78B
:1046C000E0E10C94461FFC01E60FF71F9C0122500D
:1046D0003109E217F30708F49DC0D901CD91DC91AF
:1046E0001197C617D70798F0C530D10530F3CE0122
:1046F00004978617970708F3C61BD70B2297C19319
:10470000D1936D937C93CF010E94C722D6CF5B01DA
:10471000AC1ABD0A4C018C0E9D1EA0914E07B091A3
:104720004F07512C412CF12CE12C109731F5809141
:104730004C0790914D078815990509F05CC0461605
:10474000570608F058C080912C0190912D010097D8
:1047500041F48DB79EB74091300150913101841BD7
:10476000950BE817F90708F055C0F0934D07E09353
:104770004C07F90171836083A0CF8D919C911197B3
:1047800012966C90129713967C901397A815B90502
:1047900059F56C0142E0C40ED11CCA14DB0420F1AF
:1047A000AC014A195B09DA011296159780F0628212
:1047B000738251834083D9016D937C93E114F1049A
:1047C00071F0D7011396FC93EE93129776CF229651
:1047D0008C0F9D1FF90191838083F301EFCFF0933C
:1047E0004F07E0934E0769CF4816590608F42C018D
:1047F0007D01D3019ACFCB010E942B227C0100972F
:1048000049F0AE01B8010E941624C8010E94C722D7
:10481000870153CF10E000E050CF803209F09111B2
:104820000C94D41E80528F55D8F70895FB01DC01FB
:1048300002C001900D9241505040D8F70895FB01FD
:10484000DC0101900D920020E1F70895FB01DC01ED
:104850004150504030F08D910190801919F40020A2
:10486000B9F7881B990B0895FB01DC0141505040BA
:1048700048F001900D920020C9F701C01D924150EF
:104880005040E0F7089511E0CEEDD1E004C0FE0104
:104890000E9425222196CF3DD107C9F7F894FFCF7A
:1048A000010106060000003F000040400000803F7C
:1048B0000000F0410000003F000040410000C841FE
:1048C0000000C8420000803F0000003F0000500789
:1048D0008000A701AA01AD01B00100000000D602CE
:1048E000360263022803940272028602000000006E
:1048F0002405F7046106CD04F004DD04CE040000B5
:1049000000002E093602610660060D0A003E006EA8
:10491000616E00696E66006F76660020746F20001D
:10492000202C20696E632000205420202000435258
:1049300020522020202020200067657400737765B6
:10494000657000312E330043430043500043520052
:0649500042415454000036
:107800000C94343C0C94513C0C94513C0C94513CE1
:107810000C94513C0C94513C0C94513C0C94513CB4
:107820000C94513C0C94513C0C94513C0C94513CA4
:107830000C94513C0C94513C0C94513C0C94513C94
:107840000C94513C0C94513C0C94513C0C94513C84
:107850000C94513C0C94513C0C94513C0C94513C74
:107860000C94513C0C94513C11241FBECFEFD8E036
:10787000DEBFCDBF11E0A0E0B1E0ECE9FFE702C060
:1078800005900D92A230B107D9F712E0A2E0B1E065
:1078900001C01D92AD30B107E1F70E942D3D0C945F
:1078A000CC3F0C94003C982F959595959595959582
:1078B000905D8F708A307CF0282F295A8091C0000B
:1078C00085FFFCCF9093C6008091C00085FFFCCF60
:1078D0002093C6000895282F205DF0CF982F809127
:1078E000C00085FFFCCF9093C6000895EF92FF92F1
:1078F0000F931F93EE24FF2487018091C00087FD22
:1079000017C00894E11CF11C011D111D81E4E8164B
:1079100082E4F8068FE0080780E0180770F3E09132
:107920000401F091050109958091C00087FFE9CF1E
:107930008091C6001F910F91FF90EF9008950E94D3
:10794000763C982F8091C00085FFFCCF9093C600B5
:1079500091362CF490330CF09053892F089597555D
:10796000892F08951F930E949F3C182F0E949F3CCF
:107970001295107F810F1F9108951F93182F882350
:1079800021F00E94763C1150E1F71F9108951F935A
:10799000182F0E94763C803249F0809103018F5F5E
:1079A000809303018530C1F01F9108958091C0003C
:1079B00085FFFCCF84E18093C6008091C00085FFE5
:1079C000FCCF1093C6008091C00085FFFCCF80E102
:1079D0008093C6001F910895E0910401F091050184
:1079E00009951F9108950E94763C803241F0809164
:1079F00003018F5F80930301853081F008958091AA
:107A0000C00085FFFCCF84E18093C6008091C00058
:107A100085FFFCCF80E18093C6000895E0910401CA
:107A2000F09105010995089540E951E08823A1F0FE
:107A30002D9A28EE33E0FA013197F1F721503040CA
:107A4000D1F72D9828EE33E0FA013197F1F7215064
:107A50003040D1F7815061F708953F924F925F9285
:107A60006F927F928F929F92AF92BF92CF92DF924E
:107A7000EF92FF920F931F93CF93DF93000080E16B
:107A80008093C4001092C50088E18093C10086E015
:107A90008093C2005098589A259A81E00E94143D24
:107AA00024E1F22E9EE1E92E85E9D82E0FE0C02ECA
:107AB00010E1B12EAA24A394B1E49B2EA6E58A2E50
:107AC000F2E57F2EE0E26E2E79E4572E63E5462E36
:107AD00050E5352E0E94763C8033B1F18133B9F107
:107AE000803409F46FC0813409F476C0823409F41B
:107AF00085C0853409F488C0803531F1823521F1A3
:107B0000813511F1853509F485C0863509F48DC0BC
:107B1000843609F496C0843709F403C1853709F423
:107B200072C1863709F466C0809103018F5F80932C
:107B30000301853079F6E0910401F0910501099582
:107B40000E94763C803351F60E94F33CC3CF0E94E2
:107B5000763C803249F78091C00085FFFCCFF092DF
:107B6000C6008091C00085FFFCCF9092C600809136
:107B7000C00085FFFCCF8092C6008091C00085FFC9
:107B8000FCCF7092C6008091C00085FFFCCF609250
:107B9000C6008091C00085FFFCCF5092C600809146
:107BA000C00085FFFCCF4092C6008091C00085FFD9
:107BB000FCCF3092C6008091C00085FFFCCFB09210
:107BC000C60088CF0E94763C863808F4BDCF0E945C
:107BD000763C0E94F33C7ECF0E94763C803809F4CC
:107BE0009CC0813809F40BC1823809F43CC1883942
:107BF00009F48FC080E00E94C73C6CCF84E10E94F2
:107C0000BD3C0E94F33C66CF85E00E94BD3C0E94D3
:107C1000F33C60CF0E94763C809306010E94763C44
:107C2000809307010E94F33C55CF0E94763C80333D
:107C300009F41DC183E00E94BD3C80E00E94C73C66
:107C400049CF0E94763C809309020E94763C809343
:107C5000080280910C028E7F80930C020E94763C79
:107C6000853409F415C18091080290910902892B8D
:107C700089F000E010E00E94763CF801E85FFE4FDA
:107C800080830F5F1F4F80910802909109020817AF
:107C9000190788F30E94763C803209F045CF809125
:107CA0000C0280FF01C16091060170910701660F0F
:107CB000771F7093070160930601A0910802B091AD
:107CC00009021097C9F0E8E0F1E09B01AD014E0F09
:107CD0005F1FF999FECF32BD21BD819180BDFA9A17
:107CE000F99A2F5F3F4FE417F50799F76A0F7B1F4B
:107CF00070930701609306018091C00085FFFCCF5F
:107D0000F092C6008091C00085FFFCCFB092C60003
:107D1000E1CE83E00E94C73CDDCE82E00E94C73CFA
:107D2000D9CE0E94763C809309020E94763C8093D3
:107D300008028091060190910701880F991F909386
:107D40000701809306010E94763C853409F4A6C0A1
:107D500080910C028E7F80930C020E94763C8032D0
:107D600009F0B8CE8091C00085FFFCCFF092C6002C
:107D7000609108027091090261157105B9F140E046
:107D800050E080910C02A82FA170B82FB27011C0E2
:107D9000BB2309F45CC0E0910601F0910701319624
:107DA000F0930701E09306014F5F5F4F46175707B7
:107DB000E8F4AA2369F3F999FECF209106013091E6
:107DC000070132BD21BDF89A90B58091C00085FFB2
:107DD000FCCF9093C6002F5F3F4F30930701209355
:107DE00006014F5F5F4F4617570718F38091C00099
:107DF00085FDE5CE8091C00085FFF8CFE0CE81E023
:107E00000E94C73C67CE0E94763C803209F08CCE3F
:107E10008091C00085FFFCCFF092C6008091C00029
:107E200085FFFCCFE092C6008091C00085FFFCCFAB
:107E3000D092C6008091C00085FFFCCFC092C600E2
:107E40008091C00085FFFCCFB092C60043CEE09188
:107E50000601F091070194918091C00085FFFCCF4D
:107E60009093C6009CCF80E10E94C73C33CE0E9415
:107E7000763C0E94763C182F0E94763C112309F430
:107E800083C0113009F484C08FE00E94C73C22CE29
:107E900080910C02816080930C02E5CE80910C02EF
:107EA000816080930C0259CF809107018823880F4D
:107EB000880B8A2180930B02809106019091070123
:107EC000880F991F90930701809306018091080203
:107ED00080FF09C080910802909109020196909359
:107EE000090280930802F894F999FECF1127E091D6
:107EF0000601F0910701C8E0D1E08091080290915D
:107F00000902103091F40091570001700130D9F34B
:107F100003E000935700E89500915700017001308D
:107F2000D9F301E100935700E89509901990009169
:107F3000570001700130D9F301E000935700E89534
:107F40001395103498F011270091570001700130FB
:107F5000D9F305E000935700E895009157000170B0
:107F60000130D9F301E100935700E895329602976A
:107F700009F0C7CF103011F00296E5CF112480919F
:107F8000C00085FFB9CEBCCE8EE10E94C73CA2CD19
:0E7F900085E90E94C73C9ECDF894FFCF80008B
:00000001FF
