:100000000C944D020C9475020C9475020C947502BC
:100010000C9475020C9475020C9475020C94750284
:100020000C9475020C9475020C9475020C94750274
:100030000C9475020C9475020C9475020C94750264
:100040000C94300D0C9475020C94FE0C0C94D80C8E
:100050000C9475020C9475020C9475020C94750244
:100060000C947A0D0C94750208000000BE9224498D
:10007000123EABAAAA2ABECDCCCC4C3E00000080DA
:10008000BEABAAAAAA3E00000000BF000000803F4D
:100090000000000000084178D3BB4387D1133D190D
:1000A0000E3CC3BD4282AD2B3E68EC8276BED98F3A
:1000B000E1A93E4C80EFFFBE01C4FF7F3F0000007E
:1000C000000007634236B79BD8A71A39685618AEA6
:1000D000BAAB558C1D3CB7CC5763BD6DEDFD753E7D
:1000E000F6177231BF000000803F4572726F7220B8
:1000F000647572696E67207772697465005265670E
:10010000756C6174696F6E2063616E2774206B6516
:1001100065702075700009004D6F64650949286D90
:10012000412909560950286D57290949696E286DDA
:1001300041290956696E0950696E286D572909547D
:1001400028C2B0432900737765657020622065205E
:1001500073203A20737765657073206D6F6465272F
:100160007320706172616D657465722066726F6D67
:10017000206220746F206520696E2073207374657F
:10018000707300676574205B785D3A2072657475E2
:10019000726E73206C6F616420696E666F2C2078BC
:1001A0002074696D6573006D6F64652078203A2056
:1001B00053657420746865206C6F6164206D6F6492
:1001C00065203A2043433D302043503D3120435287
:1001D0003D3220424154543D33006C6F61642078BD
:1001E000203A205475726E7320746865206C6F61BC
:1001F00064206F6E28783D3129206F72206F66660B
:1002000028783D30290048656C7020506167650092
:1002100000000000240027002A0000000000250044
:1002200028002B0000000000230026002900040401
:10023000040404040404020202020202030303038E
:10024000030301020408102040800102040810206A
:100250000102040810200000000800020100000351
:10026000040700000000000000004572726F722059
:10027000647572696E6720504D20696E6974005311
:10028000657474696E677300426174746572790095
:100290004C6F6164004D6574657200202020202041
:1002A00057682020202020206D4168004920202010
:1002B00020204120566320202020205600546163D6
:1002C0007120202020732046616E20202000426192
:1002D000747420202020205620202020202000562A
:1002E0006F20202020202020566920202020200060
:1002F00050722020202020572045662020202025D5
:1003000000562020202020202049202020202020AE
:100310004100435220522020202020204F205420F2
:10032000202000562020202020202049202020208E
:100330002020410043502050202020202020572002
:100340005420202000562020202020202050202033
:100350002020202057004343204920202020202017
:1003600041205420202000502020202020205720F1
:100370002020202020202000562020202020202067
:10038000492020202020204100456C656374726F55
:100390006E6963204C6F616420537461727465648C
:1003A000202100302D3130305620302D354120763F
:1003B00000456C656374726F6E6963204C6F616495
:1003C000004C6F6164207475726E6564206F6666A0
:1003D00000496E707574206D6561737572656D6529
:1003E0006E7420736174757261746564004F757406
:1003F000707574206D6561737572656D656E7420BE
:10040000736174757261746564004661756C742003
:1004100064657465637465642C206C6F616420731B
:1004200068757474696E6720646F776E0046616EDC
:10043000206F666620210046616E206F6E202100CD
:1004400054656D7020686F742065786365656465B8
:10045000642021006D41682C205768203A004C6FC1
:100460006164206375746F66662021204163637543
:100470006D756C617465642076616C756573203A86
:1004800020004461632073617475726174696E67E2
:10049000207570202100870FC61E11241FBECFEFCC
:1004A000D8E0DEBFCDBF27E0A8EAB1E001C01D92D1
:1004B000A736B207E1F711E0A0E0B1E0ECECFAE416
:1004C00002C005900D92A83AB107D9F712E0CCE42A
:1004D000D2E004C02197FE010E943B23CB34D10718
:1004E000C9F70E9405150C9459250C940000982F0B
:1004F0002091750281E0213208F043C080915102C1
:100500008111FCCF8091740232E0309351029093BC
:1005100050029FEF90934F0210924E0220934D0293
:10052000A4E5B2E0EDE2F2E090E0291331C01092D0
:100530002C0290912C02880F892B80932C028091A1
:100540002B02813049F510922B0280912C0280936E
:10055000BB008091BC0083FDF8CF85EC8093BC008C
:10056000809151028230E1F380914F028F3FB1F0D0
:1005700080914F028032A1F080914F02803391F040
:1005800084E0109253021092750210925202089564
:100590003D9131939F5FC9CF85EEE0CF80E0F1CFF1
:1005A00082E0EFCF83E0EDCF8091090290910A02C3
:1005B000891B990B0895089508950895DC01ED9124
:1005C000FC910190F081E02D0994EF92FF920F933E
:1005D0001F93CF93DF938C017B01D0E0C0E0F70144
:1005E000EC0FFD1F6491662361F0D801ED91FC9141
:1005F0000190F081E02DC8010995892B11F0219619
:10060000EECFCE01DF91CF911F910F91FF90EF9030
:100610000895AF92BF92CF92DF92EF92FF920F9325
:100620001F93CF93DF936C017B018B01040F151F88
:10063000EB015E01AE18BF08C017D10759F06991F0
:10064000D601ED91FC910190F081E02DC601099554
:10065000892B79F7C501DF91CF911F910F91FF9001
:10066000EF90DF90CF90BF90AF900895FC01538D35
:10067000448D252F30E0842F90E0821B930B54177C
:1006800010F0CF96089501970895FC01918D828D09
:10069000981761F0A28DAE0FBF2FB11D5D968C91A2
:1006A000928D9F5F9F73928F90E008958FEF9FEFE1
:1006B0000895FC01918D828D981731F0828DE80F9D
:1006C000F11D858D90E008958FEF9FEF0895FC0157
:1006D000918D228D892F90E0805C9F4F821B910924
:1006E0008F739927089586E792E00E94670321E0BF
:1006F000892B09F420E0822F089580E090E0892B77
:1007000029F00E94730381110C9400000895FC01EC
:10071000A48DA80FB92FB11DA35ABF4F2C91848D62
:1007200090E001968F739927848FA689B7892C93BF
:10073000A089B1898C91837080648C93938D848D12
:10074000981306C00288F389E02D80818F7D808315
:100750000895EF92FF920F931F93CF93DF93EC01D5
:1007600081E0888F9B8D8C8D98131AC0E889F98958
:10077000808185FF15C09FB7F894EE89FF8960835B
:10078000E889F98980818370806480839FBF81E0DC
:1007900090E0DF91CF911F910F91FF90EF9008951E
:1007A000F62E0B8D10E00F5F1F4F0F731127E02EF9
:1007B0008C8D8E110CC00FB607FCFACFE889F98931
:1007C000808185FFF5CFCE010E948703F1CFEB8DAD
:1007D000EC0FFD2FF11DE35AFF4FF0829FB7F89405
:1007E0000B8FEA89FB8980818062CFCF69E086E741
:1007F00092E00C94A903CF93DF93EC01888D8823BA
:10080000B9F0AA89BB89E889F9898C9185FD03C073
:10081000808186FD0DC00FB607FCF7CF8C9185FF58
:10082000F2CF808185FFEDCFCE010E948703E9CF13
:10083000DF91CF910895833081F028F4813099F0D1
:100840008230A9F008958730A9F08830C9F084304B
:10085000B1F4809180008F7D03C0809180008F77FC
:1008600080938000089584B58F7784BD089584B502
:100870008F7DFBCF8091B0008F778093B00008957B
:100880008091B0008F7DF9CFCF93DF93282F30E098
:10089000F901EA5AFD4F8491F901EE5BFD4FD491C5
:1008A000F901E25DFD4FC491CC23A1F081110E94BA
:1008B0001B04EC2FF0E0EE0FFF1FEC5DFD4FA59148
:1008C000B491EC91ED2381E090E009F480E0DF91B8
:1008D000CF91089580E090E0FACF1F93CF93DF93FC
:1008E000282F30E0F901EA5AFD4F8491F901EE5BBF
:1008F000FD4FD491F901E25DFD4FC491CC23A9F0E5
:10090000162F81110E941B04EC2FF0E0EE0FFF1F49
:10091000E65EFD4FA591B4918FB7F894EC9111115B
:1009200008C0D095DE23DC938FBFDF91CF911F915C
:100930000895DE2BF8CFCF93DF9390E0FC01EE5BC0
:10094000FD4F2491825D9D4FFC0184918823C9F065
:1009500090E0880F991FFC01E05FFD4FA591B491D5
:10096000FC01E65EFD4FC591D49161110DC09FB7AA
:10097000F8948C91209582238C9388812823288356
:100980009FBFDF91CF910895623051F49FB7F894E3
:100990003C91822F809583238C93E8812E2BEFCF7F
:1009A0008FB7F894EC912E2B2C938FBFEACF3FB7E3
:1009B000F8948091F1019091F201A091F301B0912E
:1009C000F40126B5A89B05C02F3F19F00196A11D83
:1009D000B11D3FBFBA2FA92F982F8827BC01CD0189
:1009E000620F711D811D911D42E0660F771F881FE8
:1009F000991F4A95D1F708958F929F92AF92BF9217
:100A0000CF92DF92EF92FF924B015C010E94D704DC
:100A10006B017C010E94D7046C197D098E099F0926
:100A2000683E734081059105A8F321E0821A910880
:100A3000A108B10888EEC80E83E0D81EE11CF11CA5
:100A400081149104A104B10429F7FF90EF90DF9085
:100A5000CF90BF90AF909F908F9008952FB7F8944C
:100A60006091ED017091EE018091EF019091F001A4
:100A70002FBF089585ED8093BC008091BC0084FD5C
:100A8000FCCF1092510208952091C901260F3327FF
:100A9000331F21323105ECF420915102FC0190E02A
:100AA00080E0243069F082E00895A091C90121918D
:100AB000AC0147555E4FA40FB52FB11D2C93019685
:100AC000861798F38091C901680F6093C90180E08F
:100AD000089581E008950895E0910A028091090245
:100AE000E81730F4F0E0E55FFD4F808190E0089575
:100AF0008FEF9FEF089590910A02809109022FEFE6
:100B00003FEF981748F4E92FF0E0E55FFD4F2081B3
:100B100030E09F5F90930A02C9010895CF92DF925F
:100B2000EF92FF920F931F93CF93DF937C01CB0142
:100B30008A0120915202222389F0EB016B01C40E3D
:100B4000D51ECC15DD0569F06991D701ED91FC91B9
:100B50000190F081E02DC7010995F3CF642F0E9429
:100B60004405C801DF91CF911F910F91FF90EF9045
:100B7000DF90CF900895CF93DF931F92CDB7DEB76C
:100B80006983209152022223F9F0209175022032CC
:100B900058F021E030E0FC013383228390E080E0D4
:100BA0000F90DF91CF91089580915302E82FF0E0EC
:100BB000EC5AFD4F998190838F5F8093530280930D
:100BC000750281E090E0ECCF61E0CE0101960E94D9
:100BD0004405F7CF089590E080E00895FC018385F7
:100BE0009485A385B485662391F02D913C9134873B
:100BF0002387A385B48556962C915697211106C05C
:100C0000A817B90771F781E08583148208951296B9
:100C10002D913C91ECCFCF93DF93DC011B96ED91AE
:100C2000FC91A081B18171836083EB01FB83EA8336
:100C3000B983A88313967C936E931297DF91CF911B
:100C40000895CF92DF92EF92FF92CF93DF93C62F5A
:100C500091E0909352029FE6909374021092530297
:100C600010927502682F83E193E00E94BB0580E03B
:100C70000E947702809151028111FCCF81E0809324
:100C80005102809350029FEF90934F0210924E02B8
:100C90009C0F90934D0280932C0280912C028E6DBC
:100CA00080932C0280912B02813059F510922B02F7
:100CB00080912C028093BB008091BC0083FDF8CF13
:100CC00085EC8093BC00809151028130E1F38091EA
:100CD0004E028C17C0F480914E02EDE2F2E0ABE0E0
:100CE000B2E0F12CF81211C010920A02F09209023F
:100CF000FC1678F46AE070E080E090E00E94FC046A
:100D0000F7CF85EEDECF8C2FE8CF91919D93F394B2
:100D1000E9CFC12CD12C7601D0E083E193E00E9491
:100D20007B05FE2CED2CDC2CCC24C80ED11CE11C48
:100D3000F11CDF5FCD13F1CFC701B601DF91CF9179
:100D4000FF90EF90DF90CF900895CF93DF93EC0169
:100D500060E08E810E946D0461E08E810E946D04CE
:100D600060E08E810E946D048BE891E00197F1F7BD
:100D7000DF91CF910895CF92DF92EF92FF920F9380
:100D80001F93CF93DF936C017C0187E0E80EF11C89
:100D9000D0E0C0E0062F10E0B8010C2E02C075951F
:100DA00067950A94E2F76170F70181917F010E94D3
:100DB0006D042196C430D10579F7C601DF91CF913A
:100DC0001F910F91FF90EF90DF90CF900C94A506AC
:100DD000CF92DF92EF92FF920F931F93CF93DF9307
:100DE000EC01F62E642F8C810E946D048D818F3F63
:100DF00019F060E00E946D040F2D10E08F8584FFD4
:100E000025C06E0187E0C80ED11CF12CE12CB80181
:100E10000E2C02C0759567950A94E2F76170F60191
:100E200081916F010E946D04FFEFEF1AFF0A88E0C5
:100E3000E816F10461F7CE01DF91CF911F910F9178
:100E4000FF90EF90DF90CF900C94A506B80184E05E
:100E5000759567958A95E1F7CE010E94BB066F2DC7
:100E6000CE01DF91CF911F910F91FF90EF90DF9016
:100E7000CF900C94BB0640E0682F84E297E00C947E
:100E8000E806643008F063E090913707691710F0C6
:100E90006FEF690FE62FF0E0EC5DF84F9489890F52
:100EA00080680C943B0781E00E943B078BE39FE145
:100EB0000197F1F70895CF93DF93823029F4909151
:100EC0003307986090933307809337071092380761
:100ED00080E48093390780E180933A0780E580932E
:100EE0003B0761E0809128070E949B0480912907BD
:100EF0008F3F19F061E00E949B0461E080912A0716
:100F00000E949B04C4E2D7E09E01245237408091A6
:100F1000330784FD0BC084E090E021962817390741
:100F200044F461E08E810E949B04EECF88E090E063
:100F3000F4CF8BE39DE00197F1F760E08091280703
:100F40000E946D0460E080912A070E946D048091E8
:100F500029078F3F19F060E00E946D0480913307EC
:100F600084FD34C063E084E297E00E94BB06CBE4DA
:100F7000D6E4CE010197F1F763E084E297E00E94A6
:100F8000BB062197F1F763E084E297E00E94BB067D
:100F900083E592E00197F1F762E084E297E00E9436
:100FA000BB068091330780620E943B0784E08093F8
:100FB00034078CE00E943B070E94530782E0809335
:100FC000350786E0DF91CF910C943B0780620E9449
:100FD0003B078BE496E40197F1F780913307806239
:100FE0000E943B0783E592E00197F1F78091330778
:100FF00080620E943B07D5CF41E00E94E80681E075
:1010000090E00895FB0101900020E9F73197AF01CE
:10101000461B570BDC01ED91FC910280F381E02D22
:101020000994CF93DF93BC0186E792E00E94E5022A
:10103000EC0164E671E086E792E00E9402088C0F02
:101040009D1FDF91CF91089586E092E00E941108E4
:101050008AED91E00E94110887EA91E00E94110850
:1010600083E891E00E94110886E491E00C94110855
:101070008F929F92AF92BF92CF92DF92EF92FF92A8
:1010800080910302909104028130910509F452C0CD
:1010900058F08230910509F486C0039709F494C092
:1010A000C12CD12C760108C0C0902201D090230120
:1010B000E0902401F090250180911B07882309F41A
:1010C00096C08090C7049090C804A090C904B090C6
:1010D000CA0426E636E646E85FE3C701B6010E9489
:1010E0007D1FA50194010E94171F87FD10C023E3F7
:1010F00033E343E75FE3C701B6010E947D1F9B0115
:10110000AC01C501B4010E94171F87FF70C0809118
:10111000A8018F5F8B3008F060C08093A801C701E1
:10112000B601FF90EF90DF90CF90BF90AF909F906F
:101130008F900895C0902F05D0903005E090310534
:10114000F090320520E030E0A901C701B6010E940D
:101150008A2118160CF0A4CFA701960160911E01F8
:1011600070911F0180912001909121010E94E22045
:101170006B017C0120E030E0A9010E94171F87FD70
:101180008FCF20E030E040EB50E4C701B6010E9471
:101190008A2118160CF090CFC12CD12C80EBE82EB0
:1011A00080E4F82E89CF20911A0130911B014091E3
:1011B0001C0150911D0160912F05709130058091A7
:1011C000310590913205D2CFC0900201D090030139
:1011D000E0900401F09005016FCF1092A80181E02A
:1011E00080931C078DEF90E00E94110898CF109219
:1011F000A80195CFCF92DF92EF92FF920F936901F2
:101200007A0191E0909352028093740210925302FB
:101210001092750283E193E00E94BB05015028E023
:10122000029FC0011124A701960104C0559547955E
:10123000379527958A95D2F7B90183E193E00E940B
:10124000BB050111EBCF81E00E947702882361F09A
:101250008AEE90E00E94110801E0802F0F91FF902C
:10126000EF90DF90CF90089561E070E080E090E033
:101270000E94FC04F2CF0F938091210790912207E6
:101280008115904168F082E894E00E9411088FEF88
:101290009FE0909322078093210781E080931C07B1
:1012A000209121073091220750E040E002E060E009
:1012B00081E60E94FA080F9108950F93CF93DF9370
:1012C000CBE1D7E01F821E820E943B0902E021E0B1
:1012D00030E040E050E068E481E60E94FA081882BD
:1012E00060E081E1DF91CF910F910C946D048F92BA
:1012F0009F92AF92BF92EF92FF920F931F93CF9363
:10130000DF93CDB7DEB7A1970FB6F894DEBF0FBE5F
:10131000CDBF7C01FA01CB0119A2223008F42AE0EA
:101320008E010F5D1F4F822E912CB12CA12CBF017D
:10133000A50194010E941923F901CA016A300CF534
:10134000605DD8016E938D01232B242B252B79F71B
:1013500090E080E0109721F0BD01C7010E940208D3
:10136000A1960FB6F894DEBF0FBECDBFDF91CF912F
:101370001F910F91FF90EF90BF90AF909F908F9033
:101380000895695CDECFCF92DF92EF92FF92CF9308
:10139000DF936C01990FEE08FF08F7FE1BC06DE2AA
:1013A00086E792E00E94DE02EC0144275527BA014D
:1013B0004C195D096E097F092AE086E792E00E94D8
:1013C00077098C0F9D1FDF91CF91FF90EF90DF90F9
:1013D000CF9008952AE0B701A60186E792E0DF9159
:1013E000CF91FF90EF90DF90CF900C947709CF933F
:1013F000DF930E945307C0911F03D09120036A8599
:1014000089850E94410780911F039091200367E620
:1014100071E0C817D90711F064E871E084E297E041
:101420000E9402086881798184E297E00E94E502C7
:101430000A80DB81C02D80911F0390912003C81783
:10144000D907E9F6DF91CF9108952F923F924F92FD
:101450005F926F927F928F929F92AF92BF92CF9244
:10146000DF92EF92FF921F93CF93DF93EC016A011B
:101470007B01722EAB019601CB01B6010E942F2297
:1014800069E671E0811126C046015701E894B7F87A
:101490002FEF3FEF4FE75FE7C501B4010E942F2216
:1014A00081110CC02FEF3FEF4FE75FE7C501B4019B
:1014B0000E94171F6DE671E0181664F02FEF3FEFE2
:1014C0004FE75FE4C701B6010E948A211816B4F401
:1014D00061E771E0CE01DF91CF911F91FF90EF9016
:1014E000DF90CF90BF90AF909F908F907F906F9044
:1014F0005F904F903F902F900C9402082FEF3FEF9A
:101500004FE75FECC701B6010E94171F87FDE0CFD0
:1015100020E030E0A901C701B6010E94171F312C5D
:10152000212C87FF09C06DE2CE010E94DE021C0162
:10153000F7FAF094F7F8F09410E060E070E080E0E3
:101540009FE3711641F020E030E040E251E40E9458
:10155000E2201F5FF6CFA70196010E9476202B01A3
:101560003C010E945B214B015C012AE0BC01A4010B
:10157000CE010E9477097C01E20CF31C1123C1F11A
:10158000C501B4010E941C1F9B01AC01C301B20143
:101590000E9475204B015C016EE2CE010E94DE02CA
:1015A000E80EF91E115020F120E030E040E251E455
:1015B000C501B4010E947D1F2B013C010E945B21EB
:1015C0004B01B12CA12C2AE0B501A401CE010E944F
:1015D0007709E80EF91EC501B4010E941C1F9B018A
:1015E000AC01C301B2010E9475204B015C01DACF4E
:1015F000C701DF91CF911F91FF90EF90DF90CF90C7
:10160000BF90AF909F908F907F906F905F904F9022
:101610003F902F900895882321F088E191E00E9467
:101620001108E0910302F0910402EE0FFF1FE45D48
:10163000FE4F608171816115710521F086E792E0AE
:101640000E9402080E94F60320E030E04AE754E4DA
:101650006091C7047091C8048091C9049091CA0434
:101660000E947D1F0E945421CB010E94C3090E9449
:10167000F60340912F05509130056091310570912E
:10168000320522E086E792E00E94250A0E94F603D6
:1016900020E030E04AE754E46091E3047091E40410
:1016A0008091E5049091E6040E947D1F0E945421E0
:1016B000CB010E94C3090E94F60320E030E04AE714
:1016C00054E460912B0670912C0680912D06909128
:1016D0002E060E947D1F0E945421CB010E94C30947
:1016E0000E94F60340910F0650911006609111067A
:1016F0007091120622E086E792E00E94250A0E947D
:10170000F60320E030E04AE754E46091F30570917D
:10171000F4058091F5059091F6050E947D1F0E94C9
:101720005421CB010E94C3090E94F6034091160187
:1017300050911701609118017091190120E086E71E
:1017400092E00E94250A86E191E00C9411088F92A4
:101750009F92AF92BF92EF92FF920F931F93CF93FE
:10176000DF938C01FC01C385D485EE24E394EC81E6
:10177000FD8180809180A280B3802E813F81488549
:101780005985C501B4010E94171F882321F08E825C
:101790009F82A886B9868E809F80A884B984FC88A1
:1017A00020E030E040E251E4C501B4010E94171F7F
:1017B00087FF44C08FEF8F0D8D8BF11001C01D8A04
:1017C0006B898A890E9441074E815F81688579858E
:1017D0002D8984E297E00E94250A0990D881C02DC6
:1017E000F801838594858C179D0709F68581811101
:1017F0004DC09F896B898A89890F248121112CC052
:1018000081500E944107809134078D7F8093340777
:1018100088600E943B0780913407982F91609093D5
:1018200034078960DF91CF911F910F91FF90EF9066
:10183000BF90AF909F908F900C943B0720E030E0DA
:1018400048EC52E4C501B4010E94171F87FF02C093
:101850008EEFB1CFED8AB1CF2C893D89231B330B9D
:10186000921713060CF08F5F0E9441078091340796
:10187000982F9260909334078A600E943B07809172
:1018800034078E7F809334078860CCCF80913407F3
:101890008E7F8093340788600E943B0780913407D5
:1018A0008D7FF0CFCF93DF93EC010E94530760E070
:1018B00080E00E9441076E817F8184E297E00E9470
:1018C000E50261E080E00E9441076885798584E255
:1018D00097E00E94E502CE01DF91CF910C94A70B17
:1018E00080912103811102C00C94F709E0911F033C
:1018F000F0912003868197810C94520CFC01808129
:101900009181009711F00C94DD2308951F93CF93DC
:10191000DF9320916106309162062A30310504F58B
:10192000EB01BC0112E1129FC001139F900D112425
:1019300040E150E08D59994F0E944A2580916106FF
:1019400090916206189FF001199FF00D1124E95B38
:10195000F94FD5A7C4A701969093620680936106BC
:10196000DF91CF911F9108954FE556E06AE576E04B
:1019700090E080E00C94E81E4FE556E06AE576E0E2
:1019800090E080E00E94E81E009779F00E94CA1E55
:1019900001979093FE018093FD011092F90110923E
:1019A000FA011092FB011092FC0181E00C940B0BE8
:1019B0001F920F920FB60F9211242F933F934F93C4
:1019C0005F936F937F938F939F93AF93BF93EF93A7
:1019D000FF9386E792E00E948703FF91EF91BF910A
:1019E000AF919F918F917F916F915F914F913F91B7
:1019F0002F910F900FBE0F901F9018951F920F926E
:101A00000FB60F9211242F938F939F93EF93FF9311
:101A1000E0918602F09187028081E0918C02F09142
:101A20008D0282FD1BC0908180918F028F5F8F732A
:101A300020919002821741F0E0918F02F0E0EA5885
:101A4000FD4F958F80938F02FF91EF919F918F9122
:101A50002F910F900FBE0F901F9018958081F4CF9B
:101A60001F920F920FB60F9211242F933F938F93D3
:101A70009F93AF93BF938091ED019091EE01A09160
:101A8000EF01B091F0013091EC0123E0230F2D37ED
:101A900058F50196A11DB11D2093EC018093ED0135
:101AA0009093EE01A093EF01B093F0018091F101CA
:101AB0009091F201A091F301B091F4010196A11D62
:101AC000B11D8093F1019093F201A093F301B093C3
:101AD000F401BF91AF919F918F913F912F910F9002
:101AE0000FBE0F901F90189526E8230F0296A11D98
:101AF000B11DD2CF1F920F920FB60F9211242F93C8
:101B00003F934F935F936F937F938F939F93AF9385
:101B1000BF93EF93FF938091B900887F803609F4DB
:101B20004AC0F0F5883209F4A7C018F5803109F4ED
:101B30009BC0B8F4882309F4F9C0883009F494C034
:101B4000FF91EF91BF91AF919F918F917F916F9195
:101B50005F914F913F912F910F900FBE0F901F906B
:101B60001895883109F488C0803251F780934F026C
:101B700014C0803409F49DC040F48033B9F3883335
:101B8000F9F680934F0285ECB0C0803509F485C02A
:101B9000883509F496C0883499F60E943A05D0CF6A
:101BA000883909F48CC038F5883729F050F4883624
:101BB00011F0803729F683E0809351021092EB01F7
:101BC00057C0883809F47BC0803919F0803809F093
:101BD000B7CF8091EB01803208F071C0E091EB014A
:101BE00081E08E0F8093EB018091BB00F0E0E55324
:101BF000FE4F80833DC0803B39F0E0F4803A09F429
:101C000079C0883A09F09CCF84E080935102109209
:101C1000CA011092C901E091F701F091F80109950C
:101C20008091C90181110FC081E08093C901109298
:101C3000A90109C0803C09F4A6CF883C09F4A3CFD0
:101C4000883B09F07DCFE091CA0181E08E0F80933F
:101C5000CA01F0E0E755FE4F80818093BB00909170
:101C6000CA018091C90129C080912C028093BB00D8
:101C700085EC8093BC0064CF90914E0280914D0220
:101C8000981758F5E0914E0281E08E0F80934E0236
:101C9000F0E0E35DFD4F8081E9CFE0914E0281E00D
:101CA0008E0F80934E028091BB00F0E0E35DFD4F0C
:101CB000808390914E0280914D029817C8F285E87A
:101CC000D8CFE0914E0281E08E0F80934E0280913A
:101CD000BB00F0E0E35DFD4F8083809150028111F5
:101CE0005CCF81E080932B0284EA8093BC00109249
:101CF000510226CF85EC8093BC0010925102809156
:101D0000EB01803230F4E091EB01F0E0E553FE4F5F
:101D100010826091EB0170E0E091F501F091F60125
:101D20008BEC91E009951092EB010ACF10924F02D3
:101D300034CF4F925F926F927F928F929F92AF9229
:101D4000BF92CF92DF92EF92FF920F93CF93DF93E8
:101D5000CDB7DEB73C012B01FC01178A7583648384
:101D6000428B238B048B158AC286D386E486F58644
:101D700086869786A08AB18A81E0868BA701960124
:101D8000FB0160817181828193810E94171F87FF0F
:101D900005C0F301C682D782E086F186A5019401D1
:101DA000F20160817181828193810E948A211816DB
:101DB0002CF4F30186829782A086B186F20180819D
:101DC0009181A281B381F30186839783A087B18734
:101DD000DF91CF910F91FF90EF90DF90CF90BF9068
:101DE000AF909F908F907F906F905F904F900895ED
:101DF0000F931F93CF93DF93EC0188819981009714
:101E000059F02A813B812617370730F081E0DF91B6
:101E1000CF911F910F9108958B016F5F7F4F0E94AB
:101E20006624009759F0998388831B830A832C8149
:101E30003D81232B59F7FC011082E8CF80E0E7CFEA
:101E4000EF92FF920F931F93CF93DF93EC01FB016F
:101E5000E080F180E114F10411F104811581011594
:101E60001105A9F08C819D81080F191FB801CE01C1
:101E70000E94F80E882399F0288139818C819D81F8
:101E8000B701820F931F0E9435251D830C83CE015D
:101E9000DF91CF911F910F91FF90EF90089588816E
:101EA0009981009711F00E94DD23198218821D820A
:101EB0001C821B821A82EBCFEF92FF920F931F932B
:101EC000CF93DF93EC017B018A01BA010E94F80EE7
:101ED00028813981811114C02115310519F0C901FA
:101EE0000E94DD23198218821D821C821B821A82A5
:101EF000CE01DF91CF911F910F91FF90EF90089548
:101F00001D830C83B701C9010E943525F1CF3F9293
:101F10004F925F926F927F928F929F92AF92BF92F9
:101F2000CF92DF92EF92FF920F931F93CF93DF93A5
:101F3000CDB7DEB768970FB6F894DEBF0FBECDBF42
:101F4000109279021092780288EE93E0A0E0B0E05F
:101F500080937A0290937B02A0937C02B0937D02DF
:101F600028E331E0309377022093760225EC30E0CD
:101F7000309383022093820224EC30E03093850278
:101F80002093840220EC30E0309387022093860275
:101F900021EC30E0309389022093880222EC30E07B
:101FA00030938B0220938A0226EC30E030938D022E
:101FB00020938C0210928F02109290021092910244
:101FC0001092920210921603109215038093170339
:101FD00090931803A0931903B0931A038AE491E035
:101FE000909314038093130381E080933C0782E075
:101FF00090E0909351078093500788EC90E0909385
:10200000530780935207109254071092550710926D
:10201000560784E690E090935C0780935B071092EC
:102020005D0710925E0710925F0710926007109292
:102030006107109262078CE080933D078DE08093EA
:102040003E078BE080933F070E942E056093400778
:10205000709341078093420790934307609344072E
:10206000709345078093460790934707609348070E
:102070007093490780934A0790934B0760935707E3
:10208000709358078093590790935A0780913C07A3
:10209000813009F0AEC462E080913D070E949B044C
:1020A00062E080913E070E949B0462E080913F07BE
:1020B0000E949B0410922707109226078CE591E05E
:1020C000909325078093240788E0809328078FEF5B
:1020D0008093290787E080932A0786E080932B0767
:1020E00085E080932C0784E080932D0783E0809324
:1020F0002E0710922F07109230071092310710927E
:1021000032071092330781E00E945B0710921C0790
:102110001092230710921A071092190780E290E09C
:1021200090935B0680935A068DE080935C06109234
:10213000620610926106E8E4F6E0119226E0E835C6
:10214000F207D9F7109259061092580610924506D8
:10215000109246068BE296E0909334068093330605
:102160008AE0382E309241061092420680912B066A
:1021700090912C06A0912D06B0912E0680933506E5
:1021800090933606A0933706B093380614E0109368
:102190004306109244061092290610922A069FE0E8
:1021A000492E96E0592E509218064092170622E0CA
:1021B000622E609225061092260680910F0690915D
:1021C0001006A0911106B091120680931906909303
:1021D0001A06A0931B06B0931C06109327061092B4
:1021E000280610920D0610920E0683EF95E090934C
:1021F000FC058093FB056092090677247394709226
:102200000A068091F3059091F405A091F505B0912F
:10221000F6058093FD059093FE05A093FF05B0930E
:10222000000610930B0610920C06812C912C30EBBB
:10223000A32E30E4B32EC12CD12C760104E020E093
:1022400045E062E271E08BED95E00E94990E812CF1
:10225000912C4AEFA42E43E4B42E20E045E06EE139
:1022600071E083EC95E00E94990E812C912C5AE745
:10227000A52E54E4B52E6DECC62E6CECD62E6CE477
:10228000E62E6EE3F62E20E045E06AE171E08BEA8F
:1022900095E00E94990E1092A9051092AA0546E1B8
:1022A00051E050939805409397052EE02093A505A3
:1022B0001092A6058091160190911701A091180126
:1022C000B09119018093990590939A05A0939B056D
:1022D000B0939C051092A7051092A8051092910545
:1022E000109292055093800540937F0520938D05B1
:1022F00010928E058093810590938205A0938305AB
:10230000B093840510928F05109290051092790574
:1023100010927A05509368054093670520937505E0
:10232000109276058093690590936A05A0936B05DA
:10233000B0936C05109277051092780510926105A4
:102340001092620582E191E09093500580934F05D1
:1023500085E080935D0510925E0580911201909159
:102360001301A0911401B091150180935105909330
:102370005205A0935305B093540583E080935F0505
:10238000109260051092490510924A052FE235E03F
:1023900030933805209337056092450570924605C5
:1023A00040912F05509130056091310570913205B3
:1023B0004093390550933A0560933B0570933C0573
:1023C000109347051092480510922D0510922E0586
:1023D00030931C0520931B056092290570922A05F5
:1023E00040931D0550931E0560931F0570932005B3
:1023F00010932B0510922C051092150510921605BE
:102400003093040520930305609211057092120524
:1024100040930505509306056093070570930805E2
:1024200010931305109214051092FD041092FE04EF
:10243000E3EEF4E0F093EC04E093EB043092F90463
:102440007092FA04C090E304D090E404E090E504B4
:10245000F090E604C092ED04D092EE04E092EF0416
:10246000F092F0041093FB041092FC041092E1042B
:102470001092E204E7ECF4E0F093D004E093CF0490
:102480003092DD047092DE04C090C704D090C8047E
:10249000E090C904F090CA04C092D104D092D20452
:1024A000E092D304F092D4041093DF041092E0047D
:1024B0001092C5041092C604F093B404E093B304E0
:1024C0003092C1047092C204C092B504D092B60496
:1024D000E092B704F092B8041093C3041092C404BD
:1024E0001092AD041092AE04E3E9F4E0F0939C0482
:1024F000E0939B048093A9041092AA04C0909304D3
:10250000D0909404E0909504F0909604C0929D04BD
:10251000D0929E04E0929F04F092A0048093AB04BA
:102520001092AC041092910410929204E7E7F4E048
:10253000F0938004E0937F049CE090938D041092CC
:102540008E04C0907704D0907804E0907904F090E5
:102550007A04C0928104D0928204E0928304F092C3
:10256000840410928F0410929004109275041092BB
:102570007604309364042093630480937104709212
:1025800072044093650450936604609367047093EB
:102590006804809373041092740410925D04109286
:1025A0005E0450924C0440924B04909359047092F4
:1025B0005A0440910F0650911006609111067091D7
:1025C000120640934D0450934E0460934F04709351
:1025D000500480935B0410925C04812C912C70E277
:1025E000A72E71E4B72EEDECCE2EECECDE2EECE453
:1025F000EE2EEDE3FE2E02E021E045E06EE071E01C
:102600008FE294E00E94990E812C912CF8E4AF2E79
:10261000F2E4BF2EC12CD12CA0EAEA2EA1E4FA2EBE
:1026200021E04EE06AE071E087E194E00E94990EBB
:10263000C12CD12C760103E020E04BE066E071E094
:102640008FEF93E00E94990E812C912CB0EBAB2E72
:10265000B0E4BB2E20E042E062E071E087EE93E060
:102660000E94990E1092E5031092E6038BEC93E022
:102670009093D4038093D30388E08093E103709216
:10268000E2038091CB039091CC03A091CD03B09154
:10269000CE038093D5039093D603A093D703B09332
:1026A000D8031093E3031092E4031092C90310922D
:1026B000CA038FEA93E09093B8038093B703109214
:1026C000C5037092C6038091AF039091B003A091AF
:1026D000B103B091B2038093B9039093BA03A0936E
:1026E000BB03B093BC031093C7031092C8031C8AAA
:1026F0001B8A1E8A1D8A188E1F8A45E050E065E7F6
:1027000071E0CE0143960E945C0F1E861D86188ADA
:102710001F861A8A198A84EF89831A828E010F5FB5
:102720001F4FF80101900020E9F73197AF01401BDE
:10273000510BB801CE010D960E945C0F1A821982CE
:102740001C821B821E821D824AE050E06BE771E012
:10275000C8010E945C0F18861F821A8619861C8683
:102760001B8669817A816115710531F04D815E8129
:10277000CE0107960E945C0FBE01635F7F4FCE01C2
:1027800007960E94200FBE016D5E7F4F0E94200FB2
:102790001092AA031092A9031092AC031092AB03FB
:1027A0001092AE031092AD03E3E0893A9E0761F008
:1027B000FC01608171816115710531F044815581A1
:1027C00089EA93E00E945C0FCE0107960E947E0C7E
:1027D000C8010E947E0CCE010D960E947E0CCE0197
:1027E00043960E947E0C2CE933E01092A00381E016
:1027F0008093A1031092A60343E156E05093A803EF
:102800004093A70350931406409313065093160663
:1028100040931506EFE8F3E010929303809394033E
:10282000109299034BED55E050939B0340939A030C
:102830005093DC054093DB055093DE054093DD05A6
:10284000109286038093870310928C0343EC55E02B
:1028500050938E0340938D035093C4054093C3055A
:102860005093C6054093C5051092790380937A036F
:1028700010927F034BEA55E050938103409380030D
:102880005093AC054093AB055093AE054093AD0516
:1028900010926C0380936D031092720347E954E029
:1028A0005093740340937303509398044093970498
:1028B00050939A04409399044BE553E010925F03C0
:1028C00080936003109265036BE475E07093670377
:1028D0006093660370934C0560934B0570934E05AF
:1028E00060934D056EE473E010925203809353039E
:1028F00010925803A7EEB3E0B0935A03A093590384
:10290000B093E803A093E703B093EA03A093E9032D
:1029100010924B0330934A032093490330939D0355
:1029200020939C0330939F0320939E0310924C03AB
:1029300080934D0328E333E010924003F0933F036C
:10294000E0933E03F0939003E0938F03F0939203A0
:10295000E0939103109241031092420310923503C9
:10296000709334036093330370934F0360934E036B
:10297000709351036093500397E090933603109245
:10298000370310922A03509329034093280350934E
:102990005C0340935B0350935E0340935D0390930D
:1029A0002B0380932C031092210330932003209358
:1029B0001F0330933B0320933A0330933D0320934E
:1029C0003C0368960FB6F894DEBF0FBECDBFDF9113
:1029D000CF911F910F91FF90EF90DF90CF90BF901C
:1029E000AF909F908F907F906F905F904F903F90AF
:1029F000089560E080913D070E949B0460E0809113
:102A00003E070E949B0460E051CB789484B58260BD
:102A100084BD84B5816084BD85B5826085BD85B582
:102A2000816085BD80916E00816080936E00109200
:102A3000810080918100826080938100809181007B
:102A4000816080938100809180008160809380000C
:102A50008091B10084608093B1008091B00081606A
:102A60008093B00080917A00846080937A00809196
:102A70007A00826080937A0080917A0081608093EE
:102A80007A0080917A00806880937A001092C10069
:102A9000E0918602F091870282E08083E0918202D9
:102AA000F09183021082E0918402F091850280E12E
:102AB000808310928E02E0918A02F0918B0286E070
:102AC0008083E0918802F091890280818061808317
:102AD000E0918802F0918902808188608083E09192
:102AE0008802F0918902808180688083E091880269
:102AF000F091890280818F7D808310920A0210926A
:102B0000090210925302109275021092510281E054
:102B10008093500210922B0261E082E10E946D04CA
:102B200061E083E10E946D048091B9008E7F809303
:102B3000B9008091B9008D7F8093B90088E48093BB
:102B4000B80085E48093BC008CED92E09093F8018E
:102B50008093F7018DED92E09093F6018093F5015B
:102B600001E026E030E040E050E060E08FE60E94C7
:102B7000FA08882321F08AE692E00E94110861E0B9
:102B800080E10E949B0461E081E10E949B0461E07E
:102B900082E00E949B0460E082E00E946D0460E09D
:102BA00080E10E946D0460E081E10E946D0410925A
:102BB0001B0710921D0710921E0710921F071092FC
:102BC0002007109222071092210702E021E030E056
:102BD00040E050E060E481E60E94FA0820E031E045
:102BE00040E050E060E581E60E94FA0821E030E034
:102BF00040E050E068E481E60E94FA0861E089E084
:102C00000E949B0460E089E00E946D0464EB7CE01C
:102C100086E891E00E94860C6CEB7CE08BE891E00A
:102C20000E94860C6BED72E08FE891E00E94860CAA
:102C300084E298E0909318078093170760E08CE097
:102C40000E949B0460E08DE00E949B0460E08BE0AA
:102C50000E949B0460E08EE00E949B0460E08FE095
:102C60000E949B0461E08AE00E949B0460E08AE08D
:102C70000E946D0482E00E945B0761EB73E084E2D6
:102C800097E00E94E50261E080E00E94410763EA6C
:102C900073E084E297E00E94E50265E971E084E276
:102CA00097E00E94020888E793E09093A303809343
:102CB000A20387E693E09093A5038093A40386E59F
:102CC00093E0909396038093950385E493E090932B
:102CD000980380939703E2E8CE2EE3E0DE2E84E3B0
:102CE00093E0909389038093880383E293E0909329
:102CF0008B0380938A03F5E7AF2EF3E0BF2E82E1CA
:102D000093E090937C0380937B0381E093E0909326
:102D10007E0380937D03A8E68A2EA3E09A2E80EF9F
:102D200092E090936F0380936E038FED92E0909307
:102D30007103809370038EEC92E090936203809312
:102D400061038DEB92E090936403809363038CEABC
:102D500092E090935503809354038BE992E0909313
:102D600057038093560303E413E085E992E09093C0
:102D700044038093430380E992E090933903809366
:102D80003803CDE2D3E088E892E090932E0380935D
:102D90002D03B2E2EB2EB3E0FB2E8FE792E090938F
:102DA0002303809322036FE276E08CE993E00E9494
:102DB0000B0667EF75E08CE993E00E940B0663E970
:102DC00075E08FE893E00E940B0663E375E08FE8FF
:102DD00093E00E940B0667EE74E08FE893E00E9498
:102DE0000B066BE775E0C6010E940B0667E175E014
:102DF000C6010E940B066BEC74E0C6010E940B0634
:102E000063E675E0C5010E940B066FEF74E0C50133
:102E10000E940B066FEA74E0C5010E940B066BE787
:102E200074E0C4010E940B066FE574E0C4010E94C7
:102E30000B0667E474E0C4010E940B066FE274E0C5
:102E40008BE593E00E940B0667E174E08BE593E06D
:102E50000E940B066FEF73E08EE493E00E940B0676
:102E600063EB73E08EE493E00E940B066FEC73E07B
:102E70008EE493E00E940B06E0913E03F0913F0345
:102E8000A081B18191828082F0936B03E0936A0309
:102E9000B0936903A093680313969C928E92129745
:102EA000A081B181B182A082F0937803E09377038F
:102EB000B0937603A09375031396BC92AE921297CB
:102EC000A081B181D182C082F0938503E093840315
:102ED000B0938303A09382031396DC92CE92129751
:102EE000E0911F03F0912003A281B381F382E2827B
:102EF000F0932703E0932603B0932503A0932403C4
:102F00001596FC92EE921497A281B38113830283EB
:102F1000F0934803E0934703B0934603A09345031F
:102F200015961C930E931497A281B381D383C28309
:102F3000F0933203E0933103B0933003A0932F0357
:102F40001596DC93CE93149789E893E00E941108BC
:102F500064EF71E080E090E00E94FC040E94700C3D
:102F60000E942E056093050270930602809307026B
:102F7000909308020E942E056093FF017093000257
:102F80008093010290930202C8E5CC2EC6E0DC2EAD
:102F9000D2E16D2E772473948FE00E944404209137
:102FA00000012817190681F027252093000121111F
:102FB0000BC080911B07882309F4A4C30E945D09FC
:102FC00081EC93E00E9411088EE00E94440420915D
:102FD00001012817190619F1272520930101211154
:102FE0001EC080912103882309F4F7C3A0911F0319
:102FF000B091200318968C911897882309F4EDC39B
:103000001696ED91FC91179784818111B9C6189697
:103010001C928581811101C075820E94700C0E94F2
:103020002E05AB01BC0140934007509341076093CC
:1030300042077093430720915007309151078091C8
:10304000440790914507A0914607B0914707820F2A
:10305000931FA11DB11D481759076A077B0708F484
:1030600072C080913D070E94440430913C0721E0EA
:103070003817190609F020E020935E0780913E077B
:103080000E94440420913C0730E041E082179307FE
:1030900009F040E040935F07E0915E0740914007F0
:1030A000509141076091420770914307E1119FC31E
:1030B000F0916107FF2309F49AC38217930709F07F
:1030C00091C381E020915B0730915C0780905707A6
:1030D00090905807A0905907B0905A071401250105
:1030E000220E331E411C511C9201810140175107D1
:1030F0006207730708F078C380915D074093570714
:10310000509358076093590770935A07E0936107EB
:1031100040934407509345076093460770934707D1
:10312000813009F0B2C3E0911F03F0912003809138
:10313000210381115EC38281938190932003809348
:103140001F030E94700C0E942E056093400770932D
:103150004107809342079093430780913F070E9465
:10316000440420913C0730E061E08217930709F0A6
:1031700060E0609360078090400790904107A090C6
:103180004207B09043074091520750915307209057
:1031900048073090490740904A0750904B07240E4B
:1031A000351E411C511C82149304A404B504C0F1C3
:1031B0008217930709F4C9C380916207882309F431
:1031C000C4C31092540780924C0790924D07A0926E
:1031D0004E07B0924F0781E06093620780924807E4
:1031E00090924907A0924A07B0924B078823C1F0FA
:1031F00080912103882309F4BAC3E0911F03F09161
:1032000020037086C681D7818D81882309F49FC3EE
:103210001D8261E0CE010E94EE05CE010E94520C9B
:103220006091050270910602809107029091080258
:103230000E941C1F20E030E046E153E40E9476200B
:103240004B015C010E942E050E941C1F9B01AC01DA
:10325000C501B4010E94171F87FFD9C361E08AE04E
:103260000E946D0461E082E30E942106672B09F44D
:103270005FC163E085E00E9421060E941E1F25E8D1
:1032800031EB45E058E30E947D1F6093F305709396
:10329000F4058093F5059093F60562E084E10E94C1
:1032A00021061B012C0164E0559447943794279420
:1032B0006A95D1F7C201B1010E941E1F2FEA35E0C5
:1032C0004AE45AE30E947D1F60932B0670932C06FC
:1032D00080932D0690932E0662E08EE10E942106D7
:1032E0004B015C0174E0B594A794979487947A9508
:1032F000D1F7C501B4010E941E1F20E635EE40ED56
:103300005CE30E947D1F60930F067093100680930C
:10331000110690931206FFEF2F16FFE03F064104BF
:1033200051043CF42FEF82162FE09206A104B10461
:1033300024F081ED93E00E94110863E087E30E948E
:1033400021060E941E1F25E831EB45E058E30E944C
:103350007D1F6093E3047093E4048093E5049093ED
:10336000E60462E086E40E9421061B012C0144E091
:1033700055944794379427944A95D1F7C201B101E7
:103380000E941E1F22EB34ED46E95AE30E947D1F86
:103390006093C7047093C8048093C9049093CA04CF
:1033A00062E080E50E9421064B015C0154E0B59487
:1033B000A794979487945A95D1F7C501B4010E94B8
:1033C0001E1F20E635EE40ED5CE30E947D1F6093FA
:1033D0002F057093300580933105909332058FEF60
:1033E00028168FE03806410451043CF49FEF8916FB
:1033F0009FE09906A104B10424F08DEE93E00E94B1
:10340000110820901601309017014090180150903B
:1034100019010E9438084B015C0120E030E040E2D5
:1034200052E4C201B1010E948A2187FD0AC0809145
:103430001B07882331F080E494E00E941108709209
:103440001C0780911B078823E1F0809123078111DD
:1034500018C020910A0130910B0140910C0150914C
:103460000D01C201B1010E948A2187FD0AC061E0FD
:1034700082E00E946D047092230787E394E00E942B
:10348000110880912307882301F120E030E040E01B
:1034900050E460910A0170910B0180910C019091B0
:1034A0000D010E9475209B01AC01C201B1010E9477
:1034B000171F87FF0AC060E082E00E946D0410922F
:1034C00023078DE294E00E94110880911B07882356
:1034D000E1F080911C07811118C080921D07909225
:1034E0001E07A0921F07B092200720E030E846E3B5
:1034F00054E4C501B4010E947D1F0E945B217093BA
:103500002207609321070E943B0980911C078823B2
:1035100051F080911B07882331F08AE094E00E94EB
:1035200011080E945D0960911C0780E10E946D04F2
:103530008091030290910402039709F04BC080919F
:103540001B07882309F446C020910601309107012A
:10355000409108015091090160912F05709130054B
:1035600080913105909132050E94171F87FF04C298
:103570000E945D0910920402109203026EE574E04D
:1035800086E792E00E94E5024091CB035091CC0384
:103590006091CD037091CE0322E086E792E00E9415
:1035A000250A64E574E086E792E00E94E502409116
:1035B000AF035091B0036091B1037091B20323E067
:1035C00086E792E00E94250A64E671E086E792E0D1
:1035D0000E94020860E08AE00E946D040E942E05AD
:1035E000609305027093060280930702909308028D
:1035F00086E792E00E946703181619060CF0B3C321
:103600008091190790911A07892B31F486E792E08F
:103610000E944503809347066091470686E792E043
:103620000E94DE029091470680915C06981342C08A
:1036300010925906109258064FE556E06AE576E07A
:1036400088E496E00E94E81E7C0190935E068093D9
:103650005D06892B09F487C3A0906106B0906206CD
:1036600007E416E0D0E0C0E0CA15DB050CF06FC33C
:10367000B801645E7F4F40E150E0C7010E943C25E5
:103680000E5E1F4F892B09F060C36C9EF0016D9E8A
:10369000F00D1124E95BF94F04A4F5A5E02D09957F
:1036A000E8E4F6E01192CE16DF06E1F71092590633
:1036B00010925806C09147068C2F0C2E000C990BC7
:1036C0000E942525892B09F493CF8091580690916B
:1036D00059069C012F5F3F4F30935906209358069F
:1036E000895B994FDC011196CC93F901E95BF94FA5
:1036F0001182203131050CF47BCF109259061092C3
:10370000580676CF80912103882371F0E0911F0342
:10371000F09120038681978123E08F38920769F525
:1037200010920402109203020E94380870921B0744
:1037300010921C0760931D0770931E0780931F074C
:103740009093200720E030E846E354E40E947D1F78
:103750000E945B2170932207609321070E943B091E
:1037600002E020E030E0A90168E481E60E94FA0866
:1037700061E081E10E946D0427CCA3E082389A07C2
:1037800039F4E1E0F0E0F0930402E0930302CCCFDF
:103790008557934039F482E090E09093040280933F
:1037A0000302C2CFED52F34009F0BECFA3E0B0E078
:1037B000B0930402A09303021092CB031092CC03A7
:1037C0001092CD031092CE031092AF031092B0036B
:1037D0001092B1031092B203A7CF109221030E945E
:1037E000F7091DCC82E06ECC80935D0787CC80E02A
:1037F0008DCC068117818085811108C0D8018D91FB
:103800009C91978386830E94520C9DCCF801848101
:1038100061E0882309F456C0C385D485EC80FD801F
:103820006C898D89681B770B615071098F89681BC2
:103830007109072E000C880B990B0E941E1F9B011B
:10384000AC0160E070E080E291E40E94DF21F701CA
:1038500020813181428153810E947620D7016D936E
:103860007D938D939C9313978E849F84A888B988A9
:10387000A50194010E948A2118160CF05CC0F70182
:1038800080829182A282B38256C0823009F05BCCE2
:10389000E0911F03F091200380912103811103C067
:1038A000848195814ACC068117818085811105C06C
:1038B000D80112968D919C91A4CFF8018481811139
:1038C00006C060E0C8010E94EE05C8019CCFC38518
:1038D000D485EC80FD806C898D89681B770B6150E5
:1038E00071098F89681B7109072E000C880B990BD1
:1038F0000E941E1F9B01AC0160E070E080E291E439
:103900000E94DF219B01AC01F701608171818281FE
:1039100093810E947520D7016D937D938D939C9325
:1039200013978A849B84AC84BD84A50194010E9472
:10393000171F87FDA4CFF70180819181A281B381F8
:103940008E839F83A887B987C0CF80E045CC8C81C8
:10395000811102C07C8261CCEB85FC8587898F5FF9
:10396000878B9489891708F458CC178A56CC7092A3
:1039700021030E94700C54CC20E030E04AE754E46C
:103980006091C7047091C8048091C9049091CA04E1
:103990000E947D1F2EE333EC4EE258E30E947D1F10
:1039A0009B01AC016091CB037091CC038091CD035E
:1039B0009091CE030E9476206093CB037093CC034A
:1039C0008093CD039093CE032EE333EC4EE258E385
:1039D0006091E3047091E4048091E5049091E60421
:1039E0000E947D1F9B01AC016091AF037091B003F9
:1039F0008091B1039091B2030E9476206093AF034F
:103A00007093B0038093B1039093B203E3CD6091C0
:103A1000FF017091000280910102909102020E94C8
:103A20001C1F4B015C0120E030E04AE754E4609148
:103A30000E0170910F0180911001909111010E946F
:103A40007D1F9B01AC01C501B4010E9476204B0192
:103A50005C010E942E050E941C1F9B01AC01C50148
:103A6000B4010E94171F87FFC3CD61E08AE00E9466
:103A70006D0461E082E30E942106672BD1F362E0CE
:103A80008AE50E94210624E09595879577956795AC
:103A90002A95D1F70E941E1F26E933E44BE85BE329
:103AA0000E947D1F60931201709313018093140193
:103AB0009093150162E088E20E94210634E095951A
:103AC0008795779567953A95D1F70E941E1F2FE647
:103AD00032E143E050E40E947D1F20E030E040E806
:103AE00059E30E947D1F1B012C0120E030E044E0DF
:103AF00052E40E947D1F4B015C01A201910160E034
:103B000070E080EA90E40E9475209B01AC01C50141
:103B1000B4010E94E22020E030E040E251E40E9443
:103B2000E2200E94972121EF3BEB46E859E30E94F7
:103B30007D1F2DE03FEC4BE55BE30E9476209B016F
:103B4000AC0160E070E080E89FE30E94E22023E3A4
:103B500033E948E853E40E9475206093160170939E
:103B6000170180931801909319018090F3059090AC
:103B7000F405A090F505B090F60520E030E0A9012D
:103B8000C501B4010E948A211816D4F4A50194013C
:103B90006091E3047091E4048091E5049091E6045F
:103BA0000E94E22020E030E048EC52E40E947D1FB9
:103BB00060937704709378048093790490937A04E7
:103BC00020907704309078044090790450907A04E3
:103BD00020E030E0A901C201B1010E94171F87FD5A
:103BE000B0C020E030E046EC52E4C201B1010E94D6
:103BF0008A21181634F4212C312C86EC482E82E4CC
:103C0000582E209277043092780440927904509292
:103C10007A042091E3043091E4044091E50450914A
:103C2000E604C501B4010E9475201B012C0120E0AF
:103C300030E0A9010E94171F87FF03C0212C312CFF
:103C40002101209293043092940440929504509262
:103C5000960480912103882341F0E0911F03F091A5
:103C60002003868197810E94A70B8091FD0190918E
:103C7000FE01892B09F456C080E00E940B0B809155
:103C8000FD019091FE0101979093FE018093FD014B
:103C9000C091DF05D091E005288139814A815B819F
:103CA0006091F9017091FA018091FB019091FC0102
:103CB0000E947620688379838A839B832090E9051C
:103CC0003090EA054090EB055090EC05A20191017F
:103CD0000E948A21181624F4288239824A825B8243
:103CE0002090E5053090E6054090E7055090E80506
:103CF000A2019101688179818A819B810E94171FAD
:103D000087FF04C0288239824A825B828881998138
:103D1000AA81BB818093E1059093E205A093E3051E
:103D2000B093E40560E08AE00E946D040E942E05D5
:103D30006093FF017093000280930102909302024E
:103D400057CC212C312C21015CCF21968DCCE091D8
:103D50001707F09118070995E8E4F6E01192CE16DE
:103D6000DF06E1F7A3CCE0E0F0E0EF2B09F414C9A3
:103D70000E947303882309F40DC90E9400000AC938
:103D800014820384F485E02D178A47C989EA93E0F9
:103D90000C947E0CFC0188279927E894219120320D
:103DA000E9F3293010F02E30C8F32B3241F02D32D8
:103DB00039F4689404C00E940F1F820F911D219155
:103DC00020532A30C0F31EF4909581959F4F08959B
:103DD000FA01A191B081009719F41097E1F0CD019B
:103DE000DC01CD010D90002011F4C00113C0FB01D6
:103DF0002191222319F02015D9F7F3CFFB0121914E
:103E0000201519F41E92119606C02223C1F70D90B9
:103E10000020A1F7D001FA01A193B08308957AE0C0
:103E2000979F902D879F802D910D112408950E94BA
:103E3000591F08F481E00895E89409C097FB3EF407
:103E400090958095709561957F4F8F4F9F4F9923E7
:103E5000A9F0F92F96E9BB279395F6958795779565
:103E60006795B795F111F8CFFAF4BB0F11F460FF25
:103E70001BC06F5F7F4F8F4F9F4F16C0882311F07D
:103E800096E911C0772321F09EE8872F762F05C091
:103E9000662371F096E8862F70E060E02AF09A952C
:103EA000660F771F881FDAF7880F9695879597F921
:103EB0000895990F0008550FAA0BE0E8FEEF1616BB
:103EC0001706E807F907C0F012161306E407F5070E
:103ED00098F0621B730B840B950B39F40A2661F082
:103EE000232B242B252B21F408950A2609F4A14025
:103EF000A6958FEF811D811D08950E94901F0C943F
:103F000004200E94F61F38F00E94FD1F20F0952328
:103F100011F00C94ED1F0C94F31F11240C94382015
:103F20000E94152070F3959FC1F3950F50E0551F27
:103F3000629FF001729FBB27F00DB11D639FAA27FE
:103F4000F00DB11DAA1F649F6627B00DA11D661F4D
:103F5000829F2227B00DA11D621F739FB00DA11D6E
:103F6000621F839FA00D611D221F749F3327A00D28
:103F7000611D231F849F600D211D822F762F6A2FC4
:103F800011249F5750409AF0F1F088234AF0EE0F29
:103F9000FF1FBB1F661F771F881F91505040A9F756
:103FA0009E3F510580F00C94ED1F0C9438205F3F2C
:103FB000E4F3983ED4F3869577956795B795F79592
:103FC000E7959F5FC1F7FE2B880F911D969587950A
:103FD00097F9089599278827089597F99F6780E8AA
:103FE00070E060E008959FEF80EC089500240A944B
:103FF0001616170618060906089500240A941216C4
:104000001306140605060895092E0394000C11F4F6
:10401000882352F0BB0F40F4BF2B11F460FF04C0A3
:104020006F5F7F4F8F4F9F4F089557FD9058440FFC
:10403000551F59F05F3F71F04795880F97FB991F07
:1040400061F09F3F79F087950895121613061406C4
:10405000551FF2CF4695F1DF08C016161706180651
:10406000991FF1CF86957105610508940895E8942C
:10407000BB2766277727CB0197F908952F923F92A8
:104080004F925F926F927F928F929F92AF92BF9268
:10409000CF92DF92EF92FF920F931F93CF93DF9314
:1040A000CDB7DEB7CA1BDB0B0FB6F894DEBF0FBE71
:1040B000CDBF09942A88398848885F846E847D84BE
:1040C0008C849B84AA84B984C884DF80EE80FD80C0
:1040D0000C811B81AA81B981CE0FD11D0FB6F89436
:1040E000DEBF0FBECDBFED0108955058BB27AA27F4
:1040F0000E948D200C9404200E94F61F38F00E942C
:10410000FD1F20F039F49F3F19F426F40C94F31F9F
:104110000EF4E095E7FB0C94ED1FE92F0E941520AB
:1041200058F3BA17620773078407950720F079F4EC
:10413000A6F50C9437200EF4E0950B2EBA2FA02D87
:104140000B01B90190010C01CA01A0011124FF2744
:10415000591B99F0593F50F4503E68F11A16F0403F
:10416000A22F232F342F4427585FF3CF469537953E
:104170002795A795F0405395C9F77EF41F16BA0B03
:10418000620B730B840BBAF09150A1F0FF0FBB1FB1
:10419000661F771F881FC2F70EC0BA0F621F731FFA
:1041A000841F48F4879577956795B795F7959E3F57
:1041B00008F0B0CF9395880F08F09927EE0F9795E8
:1041C000879508950E94F6200C9404200E94FD1FFC
:1041D00058F00E94F61F40F029F45F3F29F00C943C
:1041E000ED1F51110C9438200C94F31F0E941520E0
:1041F00068F39923B1F3552391F3951B550BBB2716
:10420000AA2762177307840738F09F5F5F4F220F5A
:10421000331F441FAA1FA9F335D00E2E3AF0E0E851
:1042200032D091505040E695001CCAF72BD0FE2F9B
:1042300029D0660F771F881FBB1F2617370748072F
:10424000AB07B0E809F0BB0B802DBF01FF279358E7
:104250005F4F3AF09E3F510578F00C94ED1F0C949F
:1042600038205F3FE4F3983ED4F3869577956795C1
:10427000B795F7959F5FC9F7880F911D969587951C
:1042800097F90895E1E0660F771F881FBB1F62173B
:1042900073078407BA0720F0621B730B840BBA0BF9
:1042A000EE1F88F7E09508950E945B216894B11194
:1042B0000C94382008950E941D2088F09F5798F094
:1042C000B92F9927B751B0F0E1F0660F771F881F1B
:1042D000991F1AF0BA95C9F714C0B13091F00E9435
:1042E0003720B1E008950C943720672F782F882766
:1042F000B85F39F0B93FCCF3869577956795B3955C
:10430000D9F73EF490958095709561957F4F8F4FCA
:104310009F4F08950E94591F08F48FEF089516F0DB
:104320000C946E220C94F31F68940C94ED1F0E9461
:104330001D20A8F39923C1F3AEF3DF93CF931F930E
:104340000F93FF92C92FDD2788232AF02197660F4C
:10435000771F881FDAF720E030E040E85FEB9FE34B
:10436000883920F0803E38F021968F770E947620A1
:10437000E8E6F0E004C00E947620E5E9F0E00E9463
:104380007C228B01BE01EC01FB2E6F5771097595E4
:10439000771F880B990B0E941E1F28E132E741E32B
:1043A0005FE30E94901FAF2D9801AE01FF900F9127
:1043B0001F91CF91DF910E948D200C940420FA016F
:1043C000EE0FFF1F309621053105A1F16115710532
:1043D00061F48038BFE39B0749F168949038810508
:1043E00061F08038BFEF9B0741F099234AF5FF3F0A
:1043F000E1053105210519F1E8940894E795D90103
:10440000AA2329F4AB2FBE2FF85FD0F310C0FF5FB3
:1044100070F4A695E0F7F73950F019F0FF3A38F448
:104420009F779F930DD00F9007FC9058089546F00A
:104430000C94F31F60E070E080E89FE308954FE77D
:104440009F775F934F933F932F930E9497212F91D4
:104450003F914F915F910E947D1F0C943C220E94DE
:10446000591F880B990B089529F416F00C94ED1F31
:104470000C9437200C94F31F0E941D20A8F396384B
:10448000A0F707F80F92E8942BE33AEA48EB5FE7CE
:104490000E94931F0F920F920F924DB75EB70F922B
:1044A0000E94E522E2ECF0E00E947C224F915F91B5
:1044B000EF91FF91E595EE1FFF1F49F0FE57E06871
:1044C0004427EE0F441FFA95E1F74195550B0E94E2
:1044D000AF220F9007FE0C94A32208959F3F31F066
:1044E000915020F4879577956795B795880F911D22
:1044F0009695879597F90895DF93CF931F930F9320
:10450000FF92EF92DF927B018C01689406C0DA2E55
:10451000EF010E94901FFE01E894A591259135912D
:1045200045915591A6F3EF010E948D20FE01970160
:10453000A801DA9469F7DF90EF90FF900F911F9137
:10454000CF91DF9108959B01AC0160E070E080E8BD
:104550009FE30C94E2200C94ED1F0C946E220E94B9
:104560001D20D8F39923C9F3940F511DA3F3915043
:10457000504094F059F0882332F0660F771F881F5F
:1045800091505040C1F79E3F51052CF7880F911D67
:104590009695879597F908955F3FACF0983E9CF00B
:1045A000BB27869577956795B79508F4B160939585
:1045B000C1F7BB0F58F711F460FFE8CF6F5F7F4F73
:1045C0008F4F9F4FE3CF0C943820FA01DC01AA0FE4
:1045D000BB1F9B01AC01BF5728F422273327442778
:1045E000507820C0B75190F4AB2F002446953795F2
:1045F0002795011CA395D2F3002071F0220F331FE1
:10460000441FB395DAF30ED00C9475206130710518
:10461000A0E88A07B94630F49B01AC0166277727EA
:1046200088279078309621F020833183428353830A
:104630000895A1E21A2EAA1BBB1BFD010DC0AA1FE3
:10464000BB1FEE1FFF1FA217B307E407F50720F0FB
:10465000A21BB30BE40BF50B661F771F881F991F76
:104660001A9469F760957095809590959B01AC01BF
:10467000BD01CF010895EE0FFF1F0590F491E02DCD
:1046800009940F931F93CF93DF938230910510F419
:1046900082E090E0E0916507F091660730E020E06D
:1046A000B0E0A0E0309799F42115310509F44AC033
:1046B000281B390B24303105D8F58A819B8161157F
:1046C000710589F1FB0193838283FE0111C0408152
:1046D00051810281138148175907E0F048175907A3
:1046E00099F4109761F012960C93129713961C93FD
:1046F0003296CF01DF91CF911F910F9108950093D2
:10470000650710936607F4CF2115310551F0421764
:10471000530738F0A901DB019A01BD01DF01F8015F
:10472000C1CFEF01F9CF9093660780936507CDCF96
:10473000FE01E20FF31F81939193225031093983D7
:104740002883D7CF2091630730916407232B41F44E
:104750002091280130912901309364072093630749
:1047600020912601309127012115310541F42DB703
:104770003EB740912A0150912B01241B350BE0914B
:104780006307F0916407E217F307A0F42E1B3F0BB9
:104790002817390778F0AC014E5F5F4F24173507B3
:1047A00048F04E0F5F1F5093640740936307819357
:1047B00091939FCFF0E0E0E09CCFCF93DF93009701
:1047C000E9F0FC01329713821282A0916507B09143
:1047D0006607ED0130E020E01097A1F420813181DF
:1047E000820F931F209163073091640728173907C0
:1047F00009F061C0F0936407E0936307DF91CF9104
:104800000895EA01CE17DF07E8F54A815B819E0132
:1048100041155105B1F7E901FB83EA8349915991AB
:10482000C40FD51FEC17FD0761F4808191810296BA
:10483000840F951FE90199838883828193819B83EB
:104840008A83F0E0E0E012968D919C911397009797
:10485000B9F52D913C911197CD010296820F931FCE
:1048600020916307309164072817390739F630978C
:1048700051F51092660710926507B0936407A093F4
:104880006307BCCFD383C28340815181840F951FBE
:10489000C817D90761F44E5F5F4F88819981480F2F
:1048A000591F518340838A819B8193838283211581
:1048B000310509F0B0CFF0936607E09365079ECF0E
:1048C000FD01DC01C0CF13821282D7CFB0E0A0E09F
:1048D000ECE6F4E20C9440208C01009751F4CB01FB
:1048E0000E9441238C01C801CDB7DEB7E0E10C94F2
:1048F0005C20FC01E60FF71F9C0122503109E217F2
:10490000F30708F49DC0D901CD91DC911197C6172A
:10491000D70798F0C530D10530F3CE01049786173C
:10492000970708F3C61BD70B2297C193D1936D93BA
:104930007C93CF010E94DD23D6CF5B01AC1ABD0A68
:104940004C018C0E9D1EA0916507B0916607512CFD
:10495000412CF12CE12C109731F580916307909157
:1049600064078815990509F05CC04616570608F0DB
:1049700058C08091260190912701009741F48DB78E
:104980009EB740912A0150912B01841B950BE8178B
:10499000F90708F055C0F0936407E0936307F90145
:1049A00071836083A0CF8D919C91119712966C902A
:1049B000129713967C901397A815B90559F56C01B9
:1049C00042E0C40ED11CCA14DB0420F1AC014A1928
:1049D0005B09DA011296159780F062827382518327
:1049E0004083D9016D937C93E114F10471F0D701F8
:1049F0001396FC93EE93129776CF22968C0F9D1F01
:104A0000F90191838083F301EFCFF0936607E09380
:104A1000650769CF4816590608F42C017D01D301BA
:104A20009ACFCB010E9441237C01009749F0AE014F
:104A3000B8010E942C25C8010E94DD23870153CFB5
:104A400010E000E050CF803209F091110C94EA1F81
:104A500080528F55D8F70895FB01DC0102C0019008
:104A60000D9241505040D8F70895FB01DC010190B0
:104A70000D920020E1F70895FB01DC014150504008
:104A800030F08D910190801919F40020B9F7881B3E
:104A9000990B0895FB01DC014150504048F0019012
:104AA0000D920020C9F701C01D9241505040E0F71F
:104AB000089512E0CCE4D2E004C0FE010E943B2342
:0C4AC0002196CD34D107C9F7F894FFCF40
:104ACC0001010000003F00004040000000420000D7
:104ADC00003F000040410000C8410000C8420000F7
:104AEC00803F0000003F00006707800099019C0197
:104AFC009F01A20100000000A90309033603FB0378
:104B0C0067034503590300000000BB058E05EB0548
:104B1C006B05D4027B056C0500000000FC07090343
:104B2C00EB05EA050D0A003E006E616E00696E66CB
:104B3C00006F766600205420202000435220522023
:104B4C002020202020006D6F646500676574007361
:104B5C007765657000312E330043430043500043AA
:084B6C005200424154540000C4
:00000001FF
