:100000000C946A020C9492020C9492020C94920248
:100010000C9492020C9492020C9492020C94920210
:100020000C9492020C9492020C9492020C94920200
:100030000C9492020C9492020C9492020C949202F0
:100040000C945E0D0C9492020C942C0D0C94060DE5
:100050000C9492020C9492020C9492020C949202D0
:100060000C94A80D0C94920208000000BE92244942
:10007000123EABAAAA2ABECDCCCC4C3E00000080DA
:10008000BEABAAAAAA3E00000000BF000000803F4D
:100090000000000000084178D3BB4387D1133D190D
:1000A0000E3CC3BD4282AD2B3E68EC8276BED98F3A
:1000B000E1A93E4C80EFFFBE01C4FF7F3F0000007E
:1000C000000007634236B79BD8A71A39685618AEA6
:1000D000BAAB558C1D3CB7CC5763BD6DEDFD753E7D
:1000E000F6177231BF000000803F4572726F7220B8
:1000F000647572696E67207772697465005265670E
:10010000756C6174696F6E2063616E2774206B6516
:100110006570207570004D6F64650949286D41292F
:1001200009560950286D57290949696E286D4129DA
:100130000956696E0950696E286D5729095428C2FD
:10014000B043295445535420686572650074757234
:100150006E696E67206C6F6164206F6E00747572DB
:100160006E696E67206C6F6164206F6666007377DE
:10017000656570206220652073203A20737765657D
:100180007073206D6F6465277320706172616D6597
:100190007465722066726F6D206220746F20652016
:1001A000696E207320737465707300676574205BDB
:1001B000785D3A2072657475726E73206C6F61643D
:1001C00020696E666F2C20782074696D6573006DF0
:1001D0006F64652078203A20536574207468652028
:1001E0006C6F6164206D6F6465203A2043433D303D
:1001F0002043503D312043523D3220424154543D32
:1002000033006C6F61642078203A205475726E73ED
:1002100020746865206C6F6164206F6E28783D31B2
:1002200029206F72206F666628783D302900486566
:100230006C702050616765000000000024002700FA
:100240002A0000000000250028002B00000000000C
:100250002300260029000404040404040404020208
:100260000202020203030303030301020408102035
:100270004080010204081020010204081020000040
:100280000008000201000003040700000000000055
:1002900000004572726F7220647572696E6720503B
:1002A0004D20696E69740053657474696E677300DC
:1002B00042617474657279004C6F6164004D6574BD
:1002C0006572002020202020576820202020202038
:1002D0006D416800492020202020412056632020C5
:1002E0002020205600546163712020202073204676
:1002F000616E20202000426174742020202020564E
:1003000020202020202000566F2020202020202088
:1003100056692020202020005072202020202057C5
:100320002045662020202025005620202020202047
:10033000204920202020202041004352205220200C
:10034000202020204F205420202000562020202034
:1003500020202049202020202020410043502050F0
:10036000202020202020572054202020005620200C
:1003700020202020205020202020202057004343F0
:1003800020492020202020204120542020200050DF
:100390002020202020205720202020202020200046
:1003A00056202020202020204920202020202041CD
:1003B00000456C656374726F6E6963204C6F616495
:1003C0002053746172746564202100302D31303007
:1003D0005620302D3541207600456C656374726F70
:1003E0006E6963204C6F6164004C6F6164207475AA
:1003F000726E6564206F666600496E707574206D5C
:100400006561737572656D656E7420736174757264
:1004100061746564004F7574707574206D656173E7
:100420007572656D656E7420736174757261746543
:1004300064004661756C74206465746563746564FA
:100440002C206C6F6164207368757474696E67200A
:10045000646F776E0046616E206F666620210046ED
:10046000616E206F6E20210054656D7020686F747E
:100470002065786365656465642021006D41682CA2
:10048000205768203A004C6F6164206375746F6672
:1004900066202120416363756D756C61746564200D
:1004A00076616C756573203A2000504D41435120B0
:1004B0006E6F74207265616479202100446163204D
:1004C00073617475726174696E67207570202100A4
:1004D000B50FF91E11241FBECFEFD8E0DEBFCDBF90
:1004E00027E0ACEAB1E001C01D92AB36B207E1F7FC
:1004F00011E0A0E0B1E0E2E3FBE402C005900D9260
:10050000AC3AB107D9F712E0C9E6D2E004C02197AE
:10051000FE010E946E23C836D107C9F70E94331529
:100520000C948C250C940000982F2091790281E086
:10053000213208F043C0809155028111FCCF809197
:10054000780232E030935502909354029FEF9093DB
:1005500053021092520220935102A8E5B2E0E1E367
:10056000F2E090E0291331C01092300290913002F5
:10057000880F892B8093300280912F02813049F5BA
:1005800010922F02809130028093BB008091BC00BA
:1005900083FDF8CF85EC8093BC00809155028230BA
:1005A000E1F3809153028F3FB1F08091530280328A
:1005B000A1F080915302803391F084E010925702B1
:1005C000109279021092560208953D9131939F5FE7
:1005D000C9CF85EEE0CF80E0F1CF82E0EFCF83E0BE
:1005E000EDCF80910D0290910E02891B990B089519
:1005F000089508950895DC01ED91FC910190F0813A
:10060000E02D0994EF92FF920F931F93CF93DF9306
:100610008C017B01D0E0C0E0F701EC0FFD1F64917D
:10062000662361F0D801ED91FC910190F081E02DFD
:10063000C8010995892B11F02196EECFCE01DF91EB
:10064000CF911F910F91FF90EF900895AF92BF92BD
:10065000CF92DF92EF92FF920F931F93CF93DF938E
:100660006C017B018B01040F151FEB015E01AE18BD
:10067000BF08C017D10759F06991D601ED91FC91DF
:100680000190F081E02DC6010995892B79F7C5010C
:10069000DF91CF911F910F91FF90EF90DF90CF905E
:1006A000BF90AF900895FC01538D448D252F30E00D
:1006B000842F90E0821B930B541710F0CF9608956F
:1006C00001970895FC01918D828D981761F0A28D9C
:1006D000AE0FBF2FB11D5D968C91928D9F5F9F7362
:1006E000928F90E008958FEF9FEF0895FC01918D18
:1006F000828D981731F0828DE80FF11D858D90E085
:1007000008958FEF9FEF0895FC01918D228D892F21
:1007100090E0805C9F4F821B91098F739927089509
:100720008AE792E00E94840321E0892B09F420E00B
:10073000822F089580E090E0892B29F00E94900399
:1007400081110C9400000895FC01A48DA80FB92F0D
:10075000B11DA35ABF4F2C91848D90E001968F73E9
:100760009927848FA689B7892C93A089B1898C9108
:10077000837080648C93938D848D981306C0028857
:10078000F389E02D80818F7D80830895EF92FF9221
:100790000F931F93CF93DF93EC0181E0888F9B8DA4
:1007A0008C8D98131AC0E889F989808185FF15C05E
:1007B0009FB7F894EE89FF896083E889F989808181
:1007C0008370806480839FBF81E090E0DF91CF9150
:1007D0001F910F91FF90EF900895F62E0B8D10E072
:1007E0000F5F1F4F0F731127E02E8C8D8E110CC0E1
:1007F0000FB607FCFACFE889F989808185FFF5CF2C
:10080000CE010E94A403F1CFEB8DEC0FFD2FF11D63
:10081000E35AFF4FF0829FB7F8940B8FEA89FB8968
:1008200080818062CFCF69E08AE792E00C94C603B2
:10083000CF93DF93EC01888D8823B9F0AA89BB8917
:10084000E889F9898C9185FD03C0808186FD0DC002
:100850000FB607FCF7CF8C9185FFF2CF808185FF23
:10086000EDCFCE010E94A403E9CFDF91CF9108958F
:10087000833081F028F4813099F08230A9F0089516
:100880008730A9F08830C9F08430B1F480918000BD
:100890008F7D03C0809180008F77809380000895C2
:1008A00084B58F7784BD089584B58F7DFBCF80910B
:1008B000B0008F778093B00008958091B0008F7D55
:1008C000F9CFCF93DF93282F30E0F901E258FD4FA5
:1008D0008491F901E659FD4FD491F901EA5AFD4F8F
:1008E000C491CC23A1F081110E943804EC2FF0E0D8
:1008F000EE0FFF1FE45BFD4FA591B491EC91ED234A
:1009000081E090E009F480E0DF91CF91089580E0EC
:1009100090E0FACF1F93CF93DF93282F30E0F901B7
:10092000E258FD4F8491F901E659FD4FD491F90148
:10093000EA5AFD4FC491CC23A9F0162F81110E94D1
:100940003804EC2FF0E0EE0FFF1FEE5BFD4FA5919A
:10095000B4918FB7F894EC91111108C0D095DE23B3
:10096000DC938FBFDF91CF911F910895DE2BF8CFDD
:10097000CF93DF9390E0FC01E659FD4F24918A5A12
:100980009D4FFC0184918823C9F090E0880F991F46
:10099000FC01E85CFD4FA591B491FC01EE5BFD4FBD
:1009A000C591D49161110DC09FB7F8948C91209599
:1009B00082238C938881282328839FBFDF91CF9146
:1009C0000895623051F49FB7F8943C91822F80953E
:1009D00083238C93E8812E2BEFCF8FB7F894EC9183
:1009E0002E2B2C938FBFEACF3FB7F8948091F5015F
:1009F0009091F601A091F701B091F80126B5A89B5E
:100A000005C02F3F19F00196A11DB11D3FBFBA2FA0
:100A1000A92F982F8827BC01CD01620F711D811D60
:100A2000911D42E0660F771F881F991F4A95D1F7E5
:100A300008958F929F92AF92BF92CF92DF92EF92E2
:100A4000FF924B015C010E94F4046B017C010E9447
:100A5000F4046C197D098E099F09683E7340810575
:100A60009105A8F321E0821A9108A108B10888EE47
:100A7000C80E83E0D81EE11CF11C81149104A1046E
:100A8000B10429F7FF90EF90DF90CF90BF90AF9027
:100A90009F908F9008952FB7F8946091F101709115
:100AA000F2018091F3019091F4012FBF089585ED3B
:100AB0008093BC008091BC0084FDFCCF1092550255
:100AC00008952091CD01260F3327331F21323105A0
:100AD000ECF420915502FC0190E080E0243069F0B4
:100AE00082E00895A091CD012191AC0143555E4F64
:100AF000A40FB52FB11D2C930196861798F3809102
:100B0000CD01680F6093CD0180E0089581E00895E4
:100B10000895E0910E0280910D02E81730F4F0E0A4
:100B2000E15FFD4F808190E008958FEF9FEF089582
:100B300090910E0280910D022FEF3FEF981748F42D
:100B4000E92FF0E0E15FFD4F208130E09F5F90935F
:100B50000E02C9010895CF92DF92EF92FF920F9398
:100B60001F93CF93DF937C01CB018A012091560222
:100B7000222389F0EB016B01C40ED51ECC15DD05D7
:100B800069F06991D701ED91FC910190F081E02D20
:100B9000C7010995F3CF642F0E946105C801DF9159
:100BA000CF911F910F91FF90EF90DF90CF9008951C
:100BB000CF93DF931F92CDB7DEB7698320915602A2
:100BC0002223F9F020917902203258F021E030E020
:100BD000FC013383228390E080E00F90DF91CF917E
:100BE000089580915702E82FF0E0E85AFD4F99816F
:100BF00090838F5F809357028093790281E090E029
:100C0000ECCF61E0CE0101960E946105F7CF089517
:100C100090E080E00895FC0183859485A385B485E8
:100C2000662391F02D913C9134872387A385B48569
:100C300056962C915697211106C0A817B90771F73F
:100C400081E085831482089512962D913C91ECCF1A
:100C5000CF93DF93DC011B96ED91FC91A081B181D4
:100C600071836083EB01FB83EA83B983A8831396C6
:100C70007C936E931297DF91CF910895CF92DF927C
:100C8000EF92FF92CF93DF93C62F91E0909356029D
:100C90009FE6909378021092570210927902682F83
:100CA00087E193E00E94D80580E00E949402809141
:100CB00055028111FCCF81E080935502809354024C
:100CC0009FEF90935302109252029C0F9093510207
:100CD00080933002809130028E6D8093300280913B
:100CE0002F02813059F510922F02809130028093AB
:100CF000BB008091BC0083FDF8CF85EC8093BC00E5
:100D0000809155028130E1F3809152028C17C0F43A
:100D100080915202E1E3F2E0AFE0B2E0F12CF81290
:100D200011C010920E02F0920D02FC1678F46AE0E7
:100D300070E080E090E00E941905F7CF85EEDECFED
:100D40008C2FE8CF91919D93F394E9CFC12CD12CB6
:100D50007601D0E087E193E00E949805FE2CED2C0F
:100D6000DC2CCC24C80ED11CE11CF11CDF5FCD13A0
:100D7000F1CFC701B601DF91CF91FF90EF90DF90E7
:100D8000CF900895CF93DF93EC0160E08E810E94B5
:100D90008A0461E08E810E948A0460E08E810E9454
:100DA0008A048BE891E00197F1F7DF91CF910895E4
:100DB000CF92DF92EF92FF920F931F93CF93DF9327
:100DC0006C017C0187E0E80EF11CD0E0C0E0062F4A
:100DD00010E0B8010C2E02C0759567950A94E2F7F1
:100DE0006170F70181917F010E948A042196C430CD
:100DF000D10579F7C601DF91CF911F910F91FF9037
:100E0000EF90DF90CF900C94C206CF92DF92EF92DA
:100E1000FF920F931F93CF93DF93EC01F62E642F75
:100E20008C810E948A048D818F3F19F060E00E94BE
:100E30008A040F2D10E08F8584FF25C06E0187E0A6
:100E4000C80ED11CF12CE12CB8010E2C02C07595F6
:100E500067950A94E2F76170F60181916F010E9433
:100E60008A04FFEFEF1AFF0A88E0E816F10461F741
:100E7000CE01DF91CF911F910F91FF90EF90DF9006
:100E8000CF900C94C206B80184E0759567958A9559
:100E9000E1F7CE010E94D8066F2DCE01DF91CF91F0
:100EA0001F910F91FF90EF90DF90CF900C94D80698
:100EB00040E0682F88E297E00C940507643008F062
:100EC00063E090913B07691710F06FEF690FE62F11
:100ED000F0E0E85DF84F9489890F80680C9458071A
:100EE00081E00E9458078BE39FE10197F1F7089595
:100EF000CF93DF93823029F49091370798609093D5
:100F0000370780933B0710923C0780E480933D07AE
:100F100080E180933E0780E580933F0761E0809108
:100F20002C070E94B80480912D078F3F19F061E0D3
:100F30000E94B80461E080912E070E94B804C8E2C4
:100F4000D7E09E01285237408091370784FD0BC0BF
:100F500084E090E021962817390744F461E08E81FF
:100F60000E94B804EECF88E090E0F4CF8BE39DE0E0
:100F70000197F1F760E080912C070E948A0460E0FD
:100F800080912E070E948A0480912D078F3F19F0CF
:100F900060E00E948A048091370784FD34C063E0DA
:100FA00088E297E00E94D806CBE4D6E4CE01019710
:100FB000F1F763E088E297E00E94D8062197F1F705
:100FC00063E088E297E00E94D80683E592E001970B
:100FD000F1F762E088E297E00E94D8068091370737
:100FE00080620E94580784E0809338078CE00E945A
:100FF00058070E94700782E08093390786E0DF91EE
:10100000CF910C94580780620E9458078BE496E4B5
:101010000197F1F78091370780620E94580783E5B6
:1010200092E00197F1F78091370780620E9458079C
:10103000D5CF41E00E94050781E090E00895FB01D3
:1010400001900020E9F73197AF01461B570BDC01F7
:10105000ED91FC910280F381E02D0994CF93DF9311
:10106000BC018AE792E00E940203EC0164E671E0B1
:101070008AE792E00E941F088C0F9D1FDF91CF919D
:1010800008958EE292E00E942E0882E092E00E9493
:101090002E088FEC91E00E942E088BEA91E00E94CE
:1010A0002E088EE691E00C942E088F929F92AF92BC
:1010B000BF92CF92DF92EF92FF92809107029091C0
:1010C00008028130910509F452C058F08230910530
:1010D00009F486C0039709F494C0C12CD12C760181
:1010E00008C0C0902201D0902301E0902401F0902C
:1010F000250180911F07882309F496C08090CB04B6
:101100009090CC04A090CD04B090CE0426E636E6B4
:1011100046E85FE3C701B6010E94B01FA501940134
:101120000E944A1F87FD10C023E333E343E75FE3D8
:10113000C701B6010E94B01F9B01AC01C501B401FB
:101140000E944A1F87FF70C08091AC018F5F8B3077
:1011500008F060C08093AC01C701B601FF90EF902A
:10116000DF90CF90BF90AF909F908F900895C090E8
:101170003305D0903405E0903505F090360520E039
:1011800030E0A901C701B6010E94BD2118160CF07C
:10119000A4CFA701960160911E0170911F0180915B
:1011A0002001909121010E9415216B017C0120E01A
:1011B00030E0A9010E944A1F87FD8FCF20E030E078
:1011C00040EB50E4C701B6010E94BD2118160CF097
:1011D00090CFC12CD12C80EBE82E80E4F82E89CF63
:1011E00020911A0130911B0140911C0150911D0169
:1011F00060913305709134058091350590913605E5
:10120000D2CFC0900201D0900301E0900401F09091
:1012100005016FCF1092AC0181E0809320078DEF24
:1012200090E00E942E0898CF1092AC0195CFCF92FB
:10123000DF92EF92FF920F9369017A0191E0909310
:10124000560280937802109257021092790287E139
:1012500093E00E94D805015028E0029FC0011124AC
:10126000A701960104C055954795379527958A950E
:10127000D2F7B90187E193E00E94D8050111EBCFC5
:1012800081E00E949402882361F08AEE90E00E943F
:101290002E0801E0802F0F91FF90EF90DF90CF900C
:1012A000089561E070E080E090E00E941905F2CFBF
:1012B0000F9380912507909126078115904168F042
:1012C0008CEB94E00E942E088FEF9FE0909326070E
:1012D0008093250781E08093200720912507309196
:1012E000260750E040E002E060E081E60E94170936
:1012F0000F9108950F93CF93DF93CFE1D7E01F8233
:101300001E820E94580902E021E030E040E050E0F7
:1013100068E481E60E941709188260E081E1DF91AC
:10132000CF910F910C948A048F929F92AF92BF92AB
:10133000EF92FF920F931F93CF93DF93CDB7DEB75A
:10134000A1970FB6F894DEBF0FBECDBF7C01FA01A6
:10135000CB0119A2223008F42AE08E010F5D1F4F45
:10136000822E912CB12CA12CBF01A50194010E94C9
:101370004C23F901CA016A300CF5605DD8016E9307
:101380008D01232B242B252B79F790E080E01097FB
:1013900021F0BD01C7010E941F08A1960FB6F89465
:1013A000DEBF0FBECDBFDF91CF911F910F91FF9098
:1013B000EF90BF90AF909F908F900895695CDECFC3
:1013C000CF92DF92EF92FF92CF93DF936C01990F50
:1013D000EE08FF08F7FE1BC06DE28AE792E00E946C
:1013E000FB02EC0144275527BA014C195D096E092F
:1013F0007F092AE08AE792E00E9494098C0F9D1FE2
:10140000DF91CF91FF90EF90DF90CF9008952AE089
:10141000B701A6018AE792E0DF91CF91FF90EF90AC
:10142000DF90CF900C949409CF93DF930E947007C4
:10143000C0912303D09124036A8589850E945E07A9
:10144000809123039091240367E671E0C817D907C0
:1014500011F068E871E088E297E00E941F08688157
:10146000798188E297E00E9402030A80DB81C02D27
:101470008091230390912403C817D907E9F6DF91DF
:10148000CF9108952F923F924F925F926F927F92E9
:101490008F929F92AF92BF92CF92DF92EF92FF9284
:1014A0001F93CF93DF93EC016A017B01722EAB0196
:1014B0009601CB01B6010E94622269E671E08111BA
:1014C00026C046015701E894B7F82FEF3FEF4FE7EA
:1014D0005FE7C501B4010E94622281110CC02FEFA9
:1014E0003FEF4FE75FE7C501B4010E944A1F6DE679
:1014F00071E0181664F02FEF3FEF4FE75FE4C7018C
:10150000B6010E94BD211816B4F461E771E0CE0166
:10151000DF91CF911F91FF90EF90DF90CF90BF9020
:10152000AF909F908F907F906F905F904F903F9083
:101530002F900C941F082FEF3FEF4FE75FECC70190
:10154000B6010E944A1F87FDE0CF20E030E0A901EC
:10155000C701B6010E944A1F312C212C87FF09C008
:101560006DE2CE010E94FB021C01F7FAF094F7F83D
:10157000F09410E060E070E080E09FE3711641F0CD
:1015800020E030E040E251E40E9415211F5FF6CFD9
:10159000A70196010E94A9202B013C010E948E21E7
:1015A0004B015C012AE0BC01A401CE010E94940918
:1015B0007C01E20CF31C1123C1F1C501B4010E94AE
:1015C0004F1F9B01AC01C301B2010E94A8204B0137
:1015D0005C016EE2CE010E94FB02E80EF91E115082
:1015E00020F120E030E040E251E4C501B4010E9466
:1015F000B01F2B013C010E948E214B01B12CA12C6C
:101600002AE0B501A401CE010E949409E80EF91E5A
:10161000C501B4010E944F1F9B01AC01C301B2017F
:101620000E94A8204B015C01DACFC701DF91CF9166
:101630001F91FF90EF90DF90CF90BF90AF909F9061
:101640008F907F906F905F904F903F902F90089574
:10165000882321F086E191E00E942E08E0910702A4
:10166000F0910802EE0FFF1FE45DFE4F6081718173
:101670006115710521F08AE792E00E941F080E941F
:10168000130420E030E04AE754E46091CB04709109
:10169000CC048091CD049091CE040E94B01F0E9492
:1016A0008721CB010E94E0090E9413044091330579
:1016B00050913405609135057091360522E08AE736
:1016C00092E00E94420A0E94130420E030E04AE7C0
:1016D00054E46091E7047091E8048091E9049091EA
:1016E000EA040E94B01F0E948721CB010E94E009FA
:1016F0000E94130420E030E04AE754E460912F0692
:101700007091300680913106909132060E94B01F90
:101710000E948721CB010E94E0090E94130440919E
:10172000130650911406609115067091160622E07A
:101730008AE792E00E94420A0E94130420E030E00F
:101740004AE754E46091F7057091F8058091F90536
:101750009091FA050E94B01F0E948721CB010E9440
:10176000E0090E9413044091160150911701609105
:1017700018017091190120E08AE792E00E94420A64
:101780000C9413048F929F92AF92BF92EF92FF92AC
:101790000F931F93CF93DF938C01FC01C385D485F6
:1017A000EE24E394EC81FD8180809180A280B3805F
:1017B0002E813F8148855985C501B4010E944A1F89
:1017C000882321F08E829F82A886B9868E809F8092
:1017D000A884B984FC8820E030E040E251E4C501EF
:1017E000B4010E944A1F87FF44C08FEF8F0D8D8B7D
:1017F000F11001C01D8A6B898A890E945E074E81A3
:101800005F81688579852D8988E297E00E94420A88
:101810000990D881C02DF801838594858C179D0788
:1018200009F6858181114DC09F896B898A89890F4D
:10183000248121112CC081500E945E0780913807BD
:101840008D7F8093380788600E9458078091380701
:10185000982F9160909338078960DF91CF911F9105
:101860000F91FF90EF90BF90AF909F908F900C944E
:10187000580720E030E048EC52E4C501B4010E9472
:101880004A1F87FF02C08EEFB1CFED8AB1CF2C89FE
:101890003D89231B330B921713060CF08F5F0E94B8
:1018A0005E0780913807982F9260909338078A607E
:1018B0000E945807809138078E7F80933807886090
:1018C000CCCF809138078E7F8093380788600E9444
:1018D0005807809138078D7FF0CFCF93DF93EC01CD
:1018E0000E94700760E080E00E945E076E817F8149
:1018F00088E297E00E94020361E080E00E945E07B8
:101900006885798588E297E00E940203CE01DF9125
:10191000CF910C94C20B80912503811102C00C94CD
:10192000140AE0912303F0912403868197810C949B
:101930006D0CFC0180819181009711F00C941024B2
:1019400008951F93CF93DF9320916506309166062B
:101950002A30310504F5EB01BC0112E1129FC001F0
:10196000139F900D112440E150E08959994F0E9436
:101970007D258091650690916606189FF001199F5C
:10198000F00D1124E55BF94FD5A7C4A701969093FC
:10199000660680936506DF91CF911F91089543E617
:1019A00056E06EE576E090E080E00E941B1F009715
:1019B00081F021E08537920721F48DE491E00C94C9
:1019C0002E088757914019F48DE591E0F8CF0C94DB
:1019D0004108089543E656E06EE576E090E080E049
:1019E0000E941B1F009779F00E94FD1E01979093A3
:1019F0000202809301021092FD011092FE011092EA
:101A0000FF011092000281E00C94280B1F920F92AC
:101A10000FB60F9211242F933F934F935F936F93C1
:101A20007F938F939F93AF93BF93EF93FF938AE737
:101A300092E00E94A403FF91EF91BF91AF919F911B
:101A40008F917F916F915F914F913F912F910F9067
:101A50000FBE0F901F9018951F920F920FB60F9206
:101A600011242F938F939F93EF93FF93E0918A021A
:101A7000F0918B028081E0919002F091910282FDC1
:101A80001BC09081809193028F5F8F73209194028D
:101A9000821741F0E0919302F0E0E658FD4F958FF8
:101AA00080939302FF91EF919F918F912F910F90CF
:101AB0000FBE0F901F9018958081F4CF1F920F9248
:101AC0000FB60F9211242F933F938F939F93AF9351
:101AD000BF938091F1019091F201A091F301B09137
:101AE000F4013091F00123E0230F2D3758F50196D2
:101AF000A11DB11D2093F0018093F1019093F2019B
:101B0000A093F301B093F4018091F5019091F60157
:101B1000A091F701B091F8010196A11DB11D80932C
:101B2000F5019093F601A093F701B093F801BF91EE
:101B3000AF919F918F913F912F910F900FBE0F907A
:101B40001F90189526E8230F0296A11DB11DD2CF34
:101B50001F920F920FB60F9211242F933F934F9322
:101B60005F936F937F938F939F93AF93BF93EF9305
:101B7000FF938091B900887F803609F44AC0F0F560
:101B8000883209F4A7C018F5803109F49BC0B8F475
:101B9000882309F4F9C0883009F494C0FF91EF91CB
:101BA000BF91AF919F918F917F916F915F914F9175
:101BB0003F912F910F900FBE0F901F901895883175
:101BC00009F488C0803251F78093530214C08034E6
:101BD00009F49DC040F48033B9F38833F9F680935B
:101BE000530285ECB0C0803509F485C0883509F40E
:101BF00096C0883499F60E945705D0CF883909F4E9
:101C00008CC038F5883729F050F4883611F08037C9
:101C100029F683E0809355021092EF0157C088386F
:101C200009F47BC0803919F0803809F0B7CF809172
:101C3000EF01803208F071C0E091EF0181E08E0F7A
:101C40008093EF018091BB00F0E0E153FE4F808371
:101C50003DC0803B39F0E0F4803A09F479C0883A1D
:101C600009F09CCF84E0809355021092CE0110922F
:101C7000CD01E091FB01F091FC0109958091CD012E
:101C800081110FC081E08093CD011092AD0109C098
:101C9000803C09F4A6CF883C09F4A3CF883B09F027
:101CA0007DCFE091CE0181E08E0F8093CE01F0E0F8
:101CB000E355FE4F80818093BB009091CE018091CF
:101CC000CD0129C0809130028093BB0085EC8093C8
:101CD000BC0064CF9091520280915102981758F540
:101CE000E091520281E08E0F80935202F0E0EF5CAF
:101CF000FD4F8081E9CFE091520281E08E0F809309
:101D000052028091BB00F0E0EF5CFD4F8083909128
:101D10005202809151029817C8F285E8D8CFE0911D
:101D2000520281E08E0F809352028091BB00F0E05E
:101D3000EF5CFD4F80838091540281115CCF81E084
:101D400080932F0284EA8093BC001092550226CF24
:101D500085EC8093BC00109255028091EF01803297
:101D600030F4E091EF01F0E0E153FE4F108260911A
:101D7000EF0170E0E091F901F091FA018FEC91E050
:101D800009951092EF010ACF1092530234CF4F926F
:101D90005F926F927F928F929F92AF92BF92CF92FB
:101DA000DF92EF92FF920F93CF93DF93CDB7DEB721
:101DB0003C012B01FC01178A75836483428B238BC2
:101DC000048B158AC286D386E486F5868686978636
:101DD000A08AB18A81E0868BA7019601FB01608110
:101DE0007181828193810E944A1F87FF05C0F301A0
:101DF000C682D782E086F186A5019401F201608156
:101E00007181828193810E94BD2118162CF4F30107
:101E100086829782A086B186F20180819181A2811B
:101E2000B381F30186839783A087B187DF91CF9138
:101E30000F91FF90EF90DF90CF90BF90AF909F9069
:101E40008F907F906F905F904F9008950F931F93A6
:101E5000CF93DF93EC0188819981009759F02A8113
:101E60003B812617370730F081E0DF91CF911F913A
:101E70000F9108958B016F5F7F4F0E949924009707
:101E800059F0998388831B830A832C813D81232BFE
:101E900059F7FC011082E8CF80E0E7CFEF92FF9284
:101EA0000F931F93CF93DF93EC01FB01E080F18050
:101EB000E114F10411F10481158101151105A9F056
:101EC0008C819D81080F191FB801CE010E94260F39
:101ED000882399F0288139818C819D81B701820FF7
:101EE000931F0E9468251D830C83CE01DF91CF9143
:101EF0001F910F91FF90EF9008958881998100972D
:101F000011F00E941024198218821D821C821B82EB
:101F10001A82EBCFEF92FF920F931F93CF93DF9331
:101F2000EC017B018A01BA010E94260F28813981C8
:101F3000811114C02115310519F0C9010E94102426
:101F4000198218821D821C821B821A82CE01DF91A7
:101F5000CF911F910F91FF90EF9008951D830C83F7
:101F6000B701C9010E946825F1CF3F924F925F925D
:101F70006F927F928F929F92AF92BF92CF92DF9299
:101F8000EF92FF920F931F93CF93DF93CDB7DEB7FE
:101F900068970FB6F894DEBF0FBECDBF10927D02DA
:101FA00010927C0288EE93E0A0E0B0E080937E0285
:101FB00090937F02A0938002B093810228E331E0E6
:101FC00030937B0220937A0225EC30E03093870235
:101FD0002093860224EC30E030938902209388021B
:101FE00020EC30E030938B0220938A0221EC30E029
:101FF00030938D0220938C0222EC30E030938F02DC
:1020000020938E0226EC30E03093910220939002D0
:1020100010929302109294021092950210929602DE
:1020200010921A031092190380931B0390931C03C0
:10203000A0931D03B0931E038AE491E090931803CC
:102040008093170381E08093400782E090E09093B3
:1020500055078093540788EC90E09093570780933E
:102060005607109258071092590710925A0784E6A3
:1020700090E09093600780935F0710926107109241
:10208000620710926307109264071092650710921E
:1020900066078CE0809341078DE0809342078BE0D8
:1020A000809343070E944B05609344077093450754
:1020B00080934607909347076093480770934907BA
:1020C00080934A0790934B0760934C0770934D079A
:1020D00080934E0790934F0760935B0770935C0764
:1020E00080935D0790935E0780914007813009F0EF
:1020F000AEC462E0809141070E94B80462E0809122
:1021000042070E94B80462E0809143070E94B8042D
:1021100010922B0710922A078CE591E090932907E3
:102120008093280788E080932C078FEF80932D07FA
:1021300087E080932E0786E080932F0785E08093C9
:10214000300784E08093310783E080933207109258
:102150003307109234071092350710923607109209
:10216000370781E00E947807109220071092270716
:1021700010921E0710921D0780E290E090935F0678
:1021800080935E068DE08093600610926606109242
:102190006506ECE4F6E0119226E0EC35F207D9F79B
:1021A00010925D0610925C061092490610924A0643
:1021B0008FE296E090933806809337068AE0382EB7
:1021C000309245061092460680912F069091300677
:1021D000A0913106B09132068093390690933A0669
:1021E000A0933B06B0933C0614E010934706109270
:1021F000480610922D0610922E0693E1492E96E085
:10220000592E50921C0640921B0622E0622E6092CC
:10221000290610922A068091130690911406A09127
:102220001506B091160680931D0690931E06A09386
:102230001F06B093200610932B0610922C061092C6
:1022400011061092120687EF95E090930006809396
:10225000FF0560920D067724739470920E068091AC
:10226000F7059091F805A091F905B091FA058093D2
:10227000010690930206A0930306B0930406109300
:102280000F0610921006812C912C30EBA32E30E417
:10229000B32EC12CD12C760104E020E045E062E2AF
:1022A00071E08FED95E00E94C70E812C912C4AEFD2
:1022B000A42E43E4B42E20E045E06EE171E087EC0B
:1022C00095E00E94C70E812C912C5AE7A52E54E46C
:1022D000B52E6DECC62E6CECD62E6CE4E62E6EE3BD
:1022E000F62E20E045E06AE171E08FEA95E00E9479
:1022F000C70E1092AD051092AE0546E151E0509325
:102300009C0540939B052EE02093A9051092AA05F9
:102310008091160190911701A0911801B0911901B7
:1023200080939D0590939E05A0939F05B093A00573
:102330001092AB051092AC0510929505109296057F
:102340005093840540938305209391051092920544
:102350008093850590938605A0938705B0938805A3
:10236000109293051092940510927D0510927E05AF
:1023700050936C0540936B052093790510927A0574
:1023800080936D0590936E05A0936F05B0937005D3
:1023900010927B0510927C051092650510926605DF
:1023A00082E191E0909354058093530585E08093FA
:1023B0006105109262058091120190911301A09124
:1023C0001401B09115018093550590935605A09383
:1023D0005705B093580583E0809363051092640518
:1023E00010924D0510924E0523E335E030933C05E5
:1023F00020933B056092490570924A054091330550
:1024000050913405609135057091360540933D0536
:1024100050933E0560933F057093400510934B0524
:1024200010924C0510923105109232053093200520
:1024300020931F0560922D0570922E054093210573
:1024400050932205609323057093240510932F0564
:10245000109230051092190510921A053093080554
:1024600020930705609215057092160540930905A3
:1024700050930A0560930B0570930C051093170594
:10248000109218051092010510920205E7EEF4E093
:10249000F093F004E093EF043092FD047092FE0498
:1024A000C090E704D090E804E090E904F090EA04DA
:1024B000C092F104D092F204E092F304F092F4049A
:1024C0001093FF04109200051092E5041092E604A8
:1024D000EBECF4E0F093D404E093D3043092E10405
:1024E0007092E204C090CB04D090CC04E090CD0474
:1024F000F090CE04C092D504D092D604E092D704D6
:10250000F092D8041093E3041092E4041092C904EA
:102510001092CA04F093B804E093B7043092C50453
:102520007092C604C092B904D092BA04E092BB047F
:10253000F092BC041093C7041092C8041092B10426
:102540001092B204E7E9F4E0F093A004E0939F0452
:102550008093AD041092AE04C0909704D09098047C
:10256000E0909904F0909A04C092A104D092A20441
:10257000E092A304F092A4048093AF041092B004FC
:102580001092950410929604EBE7F4E0F093840423
:10259000E09383049CE09093910410929204C09085
:1025A0007B04D0907C04E0907D04F0907E04C09287
:1025B0008504D0928604E0928704F09288041092F9
:1025C0009304109294041092790410927A04309338
:1025D0006804209367048093750470927604409396
:1025E000690450936A0460936B0470936C04809345
:1025F0007704109278041092610410926204509251
:10260000500440924F0490935D0470925E04409198
:1026100013065091140660911506709116064093AA
:102620005104509352046093530470935404809364
:102630005F0410926004812C912C70E2A72E71E44B
:10264000B72EEDECCE2EECECDE2EECE4EE2EEDE330
:10265000FE2E02E021E045E06EE071E083E394E0CD
:102660000E94C70E812C912CF8E4AF2EF2E4BF2E0D
:10267000C12CD12CA0EAEA2EA1E4FA2E21E04EE0F2
:102680006AE071E08BE194E00E94C70EC12CD12C6E
:10269000760103E020E04BE066E071E083E094E047
:1026A0000E94C70E812C912CB0EBAB2EB0E4BB2E58
:1026B00020E042E062E071E08BEE93E00E94C70E02
:1026C0001092E9031092EA038FEC93E09093D80301
:1026D0008093D70388E08093E5037092E6038091AE
:1026E000CF039091D003A091D103B091D2038093F6
:1026F000D9039093DA03A093DB03B093DC03109328
:10270000E7031092E8031092CD031092CE0383EBFF
:1027100093E09093BC038093BB031092C903709223
:10272000CA038091B3039091B403A091B503B09113
:10273000B6038093BD039093BE03A093BF03B093F1
:10274000C0031093CB031092CC031C8A1B8A1E8AF1
:102750001D8A188E1F8A45E050E069E771E0CE01BE
:1027600043960E948A0F1E861D86188A1F861A8A23
:10277000198A84EF89831A828E010F5F1F4FF80137
:1027800001900020E9F73197AF01401B510BB801D0
:10279000CE010D960E948A0F1A8219821C821B821A
:1027A0001E821D824AE050E06FE771E0C8010E947E
:1027B0008A0F18861F821A8619861C861B866981D5
:1027C0007A816115710531F04D815E81CE010796E8
:1027D0000E948A0FBE01635F7F4FCE0107960E9461
:1027E0004E0FBE016D5E7F4F0E944E0F1092AE03E2
:1027F0001092AD031092B0031092AF031092B20387
:102800001092B103E3E08D3A9E0761F0FC01608114
:1028100071816115710531F0448155818DEA93E034
:102820000E948A0FCE0107960E94990CC8010E944F
:10283000990CCE010D960E94990CCE0143960E94F0
:10284000990C20EA33E01092A40381E08093A50361
:102850001092AA0347E156E05093AC034093AB03B8
:10286000509318064093170650931A064093190682
:10287000E3E9F3E0109297038093980310929D038D
:102880004FED55E050939F0340939E035093E00516
:102890004093DF055093E2054093E10510928A03CF
:1028A00080938B031092900347EC55E05093920372
:1028B000409391035093C8054093C7055093CA05B0
:1028C0004093C90510927D0380937E031092830389
:1028D0004FEA55E050938503409384035093B0052D
:1028E0004093AF055093B2054093B1051092700329
:1028F00080937103109276034BE954E05093780370
:102900004093770350939C0440939B0450939E0400
:1029100040939D044FE553E010926303809364035A
:10292000109269036FE475E070936B0360936A0320
:102930007093500560934F05709352056093510555
:1029400062E573E0109256038093570310925C0384
:10295000ABEEB3E0B0935E03A0935D03B093EC03E2
:10296000A093EB03B093EE03A093ED0310924F03FB
:1029700030934E0320934D033093A1032093A00383
:102980003093A3032093A20310925003809351032A
:102990002CE333E010924403F0934303E0934203AB
:1029A000F0939403E0939303F0939603E0939503DD
:1029B0001092450310924603109239037093380326
:1029C00060933703709353036093520370935503DE
:1029D0006093540397E090933A0310923B03109254
:1029E0002E0350932D0340932C0350936003409388
:1029F0005F03509362034093610390932F0380938E
:102A00003003109225033093240320932303309343
:102A10003F0320933E033093410320934003689685
:102A20000FB6F894DEBF0FBECDBFDF91CF911F91DF
:102A30000F91FF90EF90DF90CF90BF90AF909F905D
:102A40008F907F906F905F904F903F90089560E0DF
:102A5000809141070E94B80460E0809142070E9483
:102A6000B80460E051CB789484B5826084BD84B5AD
:102A7000816084BD85B5826085BD85B5816085BD79
:102A800080916E00816080936E0010928100809131
:102A900081008260809381008091810081608093B9
:102AA0008100809180008160809380008091B100DE
:102AB00084608093B1008091B00081608093B00009
:102AC00080917A00846080937A0080917A0082609D
:102AD00080937A0080917A00816080937A0080915F
:102AE0007A00806880937A001092C100E0918A0297
:102AF000F0918B0282E08083E0918602F091870260
:102B00001082E0918802F091890280E18083109226
:102B10009202E0918E02F0918F0286E08083E09134
:102B20008C02F0918D02808180618083E0918C0223
:102B3000F0918D02808188608083E0918C02F09119
:102B40008D02808180688083E0918C02F0918D02FB
:102B500080818F7D808310920E0210920D02109260
:102B60005702109279021092550281E0809354022C
:102B700010922F0261E082E10E948A0461E083E109
:102B80000E948A048091B9008E7F8093B900809161
:102B9000B9008D7F8093B90088E48093B80085E404
:102BA0008093BC0089EF92E09093FC018093FB013D
:102BB0008AEF92E09093FA018093F90101E026E018
:102BC00030E040E050E060E08FE60E941709882383
:102BD00021F082E992E00E942E0861E080E10E94EB
:102BE000B80461E081E10E94B80461E082E00E94E3
:102BF000B80460E082E00E948A0460E080E10E9404
:102C00008A0460E081E10E948A0410921F071092FA
:102C10002107109222071092230710922407109286
:102C200026071092250702E021E030E040E050E066
:102C300060E481E60E94170920E031E040E050E0C6
:102C400060E581E60E94170921E030E040E050E0B5
:102C500068E481E60E94170961E089E00E94B804F7
:102C600060E089E00E948A046FEC7CE08AE891E0F1
:102C70000E94A10C6AEE7CE08FE891E00E94A10C1A
:102C800068EF72E083E991E00E94A10C81E498E092
:102C900090931C0780931B0760E08CE00E94B804AF
:102CA00060E08DE00E94B80460E08BE00E94B80410
:102CB00060E08EE00E94B80460E08FE00E94B804FB
:102CC00061E08AE00E94B80460E08AE00E948A0421
:102CD00082E00E94780769ED73E088E297E00E9445
:102CE000020361E080E00E945E076BEC73E088E223
:102CF00097E00E94020369E971E088E297E00E9490
:102D00001F0880EA93E09093A7038093A6038FE8BF
:102D100093E09093A9038093A8038EE793E09093A8
:102D20009A03809399038DE693E090939C0380939C
:102D30009B03E6E8CE2EE3E0DE2E8CE593E0909355
:102D40008D0380938C038BE493E090938F038093A7
:102D50008E03F9E7AF2EF3E0BF2E8AE393E0909362
:102D6000800380937F0389E293E0909382038093B2
:102D70008103ACE68A2EA3E09A2E88E193E090933B
:102D800073038093720387E093E0909375038093BD
:102D9000740386EF92E0909366038093650385EE5B
:102DA00092E0909368038093670384ED92E09093A0
:102DB00059038093580383EC92E090935B038093D4
:102DC0005A0307E413E08DEB92E09093480380935D
:102DD000470388EB92E090933D0380933C03C1E36B
:102DE000D3E080EB92E09093320380933103B6E21C
:102DF000EB2EB3E0FB2E87EA92E0909327038093BB
:102E0000260363E376E080EA93E00E9428066BEFF6
:102E100075E080EA93E00E94280667E975E083E99F
:102E200093E00E94280667E375E083E993E00E943F
:102E300028066BEE74E083E993E00E9428066FE7B2
:102E400075E0C6010E9428066BE175E0C6010E948C
:102E500028066FEC74E0C6010E94280667E675E05C
:102E6000C5010E94280663E075E0C5010E9428069E
:102E700063EB74E0C5010E9428066FE774E0C401AB
:102E80000E94280663E674E0C4010E9428066BE4F1
:102E900074E0C4010E94280663E374E08FE593E0C8
:102EA0000E9428066BE174E08FE593E00E942806FB
:102EB00063E074E082E593E00E94280667EB73E02C
:102EC00082E593E00E94280663ED73E082E593E0DB
:102ED0000E942806E0914203F0914303A081B18152
:102EE00091828082F0936F03E0936E03B0936D0341
:102EF000A0936C0313969C928E921297A081B1813D
:102F0000B182A082F0937C03E0937B03B0937A03B9
:102F1000A09379031396BC92AE921297A081B181CF
:102F2000D182C082F0938903E0938803B093870332
:102F3000A09386031396DC92CE921297E09123031E
:102F4000F0912403A281B381F382E282F0932B03F8
:102F5000E0932A03B0932903A09328031596FC92CB
:102F6000EE921497A281B38113830283F0934C03F2
:102F7000E0934B03B0934A03A093490315961C9327
:102F80000E931497A281B381D383C283F093360347
:102F9000E0933503B0933403A09333031596DC9389
:102FA000CE93149781EB93E00E942E0864EF71E0BA
:102FB00080E090E00E9419050E948B0C0E944B0556
:102FC0006093090270930A0280930B0290930C02A3
:102FD0000E944B05609303027093040280930502E4
:102FE00090930602CCE5CC2EC6E0DC2ED2E16D2E0D
:102FF000772473948FE00E946104209100012817C8
:10300000190681F027252093000121110BC0809122
:103010001F07882309F4A4C30E947A0989EE93E06C
:103020000E942E088EE00E94610420910101281761
:10303000190619F127252093010121111EC0809145
:103040002503882309F4F7C3A0912303B091240337
:1030500018968C911897882309F4EDC31696ED9174
:10306000FC91179784818111BEC618961C928581A8
:10307000811101C075820E948B0C0E944B05AB012F
:10308000BC014093440750934507609346077093F3
:103090004707209154073091550780914807909138
:1030A0004907A0914A07B0914B07820F931FA11DBA
:1030B000B11D481759076A077B0708F472C0809151
:1030C00041070E9461043091400721E0381719063A
:1030D00009F020E020936207809142070E9461047A
:1030E0002091400730E041E08217930709F040E06B
:1030F00040936307E0916207409144075091450770
:103100006091460770914707E1119FC3F0916507F1
:10311000FF2309F49AC38217930709F091C381E052
:1031200020915F073091600780905B0790905C076B
:10313000A0905D07B0905E0714012501220E331E9A
:10314000411C511C9201810140175107620773070E
:1031500008F078C38091610740935B0750935C0748
:1031600060935D0770935E07E0936507409348079F
:103170005093490760934A0770934B07813009F0D9
:10318000B2C3E0912303F0912403809125038111C0
:103190005EC38281938190932403809323030E94D2
:1031A0008B0C0E944B0560934407709345078093F6
:1031B000460790934707809143070E94610420913E
:1031C000400730E061E08217930709F060E0609308
:1031D00064078090440790904507A0904607B09000
:1031E0004707409156075091570720904C07309061
:1031F0004D0740904E0750904F07240E351E411C3E
:10320000511C82149304A404B504C0F182179307DF
:1032100009F4C9C380916607882309F4C4C31092D6
:1032200058078092500790925107A0925207B0928F
:10323000530781E06093660780924C0790924D0798
:10324000A0924E07B0924F078823C1F080912503CA
:10325000882309F4BAC3E0912303F0912403708614
:10326000C681D7818D81882309F49FC31D8261E0C7
:10327000CE010E940B06CE010E946D0C60910902E6
:1032800070910A0280910B0290910C020E944F1FD4
:1032900020E030E046E153E40E94A9204B015C01AC
:1032A0000E944B050E944F1F9B01AC01C501B40158
:1032B0000E944A1F87FFDEC361E08AE00E948A0401
:1032C00061E082E30E943E06672B09F483C363E05A
:1032D00085E00E943E060E94511F25E831EB45E043
:1032E00058E30E94B01F6093F7057093F805809330
:1032F000F9059093FA0562E084E10E943E061B0105
:103300002C0164E055944794379427946A95D1F73B
:10331000C201B1010E94511F2FEA35E04AE45AE38D
:103320000E94B01F60932F06709330068093310681
:103330009093320662E08EE10E943E064B015C01F2
:1033400074E0B594A794979487947A95D1F7C501C2
:10335000B4010E94511F20E635EE40ED5CE30E946F
:10336000B01F609313067093140680931506909314
:103370001606FFEF2F16FFE03F06410451043CF410
:103380002FEF82162FE09206A104B10424F089EFFA
:1033900093E00E942E0863E087E30E943E060E94AD
:1033A000511F25E831EB45E058E30E94B01F6093C0
:1033B000E7047093E8048093E9049093EA0462E0E0
:1033C00086E40E943E061B012C0144E0559447947C
:1033D000379427944A95D1F7C201B1010E94511F39
:1033E00022EB34ED46E95AE30E94B01F6093CB0410
:1033F0007093CC048093CD049093CE0462E080E57A
:103400000E943E064B015C0154E0B594A79497944A
:1034100087945A95D1F7C501B4010E94511F20E647
:1034200035EE40ED5CE30E94B01F6093330570936E
:10343000340580933505909336058FEF28168FE07D
:103440003806410451043CF49FEF89169FE0990629
:10345000A104B10424F085E194E00E942E0820909C
:1034600016013090170140901801509019010E94E8
:1034700055084B015C0120E030E040E252E4C2011B
:10348000B1010E94BD2187FD0AC080911F078823DA
:1034900031F088E694E00E942E0870922007809117
:1034A0001F078823E1F080912707811118C0209120
:1034B0000A0130910B0140910C0150910D01C201A4
:1034C000B1010E94BD2187FD0AC061E082E00E9437
:1034D0008A04709227078FE594E00E942E0880915D
:1034E0002707882301F120E030E040E050E46091BC
:1034F0000A0170910B0180910C0190910D010E94C5
:10350000A8209B01AC01C201B1010E944A1F87FFA4
:103510000AC060E082E00E948A041092270785E5D5
:1035200094E00E942E0880911F078823E1F080918B
:103530002007811118C08092210790922207A09243
:103540002307B092240720E030E846E354E4C501A5
:10355000B4010E94B01F0E948E21709326076093D1
:1035600025070E94580980912007882351F08091F7
:103570001F07882331F082E394E00E942E080E9406
:103580007A096091200780E10E948A0480910702F5
:1035900090910802039709F04BC080911F07882380
:1035A00009F446C0209106013091070140910801BD
:1035B0005091090160913305709134058091350572
:1035C000909136050E944A1F87FF09C20E947A091E
:1035D000109208021092070266E874E08AE792E00F
:1035E0000E9402034091CF035091D0036091D10318
:1035F0007091D20322E08AE792E00E94420A6CE7CF
:1036000074E08AE792E00E9402034091B303509174
:10361000B4036091B5037091B60323E08AE792E0AA
:103620000E94420A64E671E08AE792E00E941F0865
:1036300060E08AE00E948A040E944B0560930902C0
:1036400070930A0280930B0290930C028AE792E037
:103650000E948403181619060CF0B8C380911D0748
:1036600090911E07892B31F48AE792E00E94620351
:1036700080934B0660914B068AE792E00E94FB0222
:1036800090914B0680916006981342C010925D069F
:1036900010925C0643E656E06EE576E08CE496E038
:1036A0000E941B1F7C019093620680936106892B08
:1036B00009F48CC3A0906506B09066060BE416E092
:1036C000D0E0C0E0CA15DB050CF074C3B801645E3D
:1036D0007F4F40E150E0C7010E946F250E5E1F4FF3
:1036E000892B09F065C36C9EF0016D9EF00D1124CD
:1036F000E55BF94F04A4F5A5E02D0995ECE4F6E0AF
:103700001192CE16DF06E1F710925D0610925C066C
:10371000C0914B068C2F0C2E000C990B0E94582543
:10372000892B09F493CF80915C0690915D069C01F2
:103730002F5F3F4F30935D0620935C06855B994F6A
:10374000DC011196CC93F901E55BF94F1182203130
:1037500031050CF47BCF10925D0610925C0676CF9B
:1037600080912503882371F0E0912303F0912403D5
:103770008681978123E08339920769F510920802C8
:10378000109207020E94550870921F07109220079E
:103790006093210770932207809323079093240757
:1037A00020E030E846E354E40E94B01F0E948E21DE
:1037B00070932607609325070E94580902E020E0D5
:1037C00030E0A90168E481E60E94170961E081E127
:1037D0000E948A0427CCA3E086389A0739F4E1E0F6
:1037E000F0E0F0930802E0930702CCCF89579340B2
:1037F00039F482E090E09093080280930702C2CFF0
:10380000E153F34009F0BECFA3E0B0E0B09308026B
:10381000A09307021092CF031092D0031092D1030D
:103820001092D2031092B3031092B4031092B50316
:103830001092B603A7CF109225030E94140A1DCC44
:1038400082E06ECC8093610787CC80E08DCC0681CE
:1038500017818085811108C0D8018D919C91978333
:1038600086830E946D0C9DCCF801848161E08823E1
:1038700009F456C0C385D485EC80FD806C898D89A0
:10388000681B770B615071098F89681B7109072EBE
:10389000000C880B990B0E94511F9B01AC0160E04A
:1038A00070E080E291E40E941222F70120813181D0
:1038B000428153810E94A920D7016D937D938D93FE
:1038C0009C9313978E849F84A888B988A50194013E
:1038D0000E94BD2118160CF05CC0F7018082918215
:1038E000A282B38256C0823009F05BCCE091230300
:1038F000F091240380912503811103C08481958177
:103900004ACC068117818085811105C0D8011296A5
:103910008D919C91A4CFF8018481811106C060E053
:10392000C8010E940B06C8019CCFC385D485EC80DA
:10393000FD806C898D89681B770B615071098F89B7
:10394000681B7109072E000C880B990B0E94511FF0
:103950009B01AC0160E070E080E291E40E941222E1
:103960009B01AC01F70160817181828193810E948A
:10397000A820D7016D937D938D939C9313978A8490
:103980009B84AC84BD84A50194010E944A1F87FDDD
:10399000A4CFF70180819181A281B3818E839F831F
:1039A000A887B987C0CF80E045CC8C81811102C047
:1039B0007C8261CCEB85FC8587898F5F878B9489BE
:1039C000891708F458CC178A56CC709225030E94A8
:1039D0008B0C54CC8AEA94E00E942E08D7CD20E0CC
:1039E00030E04AE754E46091CB047091CC048091BC
:1039F000CD049091CE040E94B01F2EE333EC4EE232
:103A000058E30E94B01F9B01AC016091CF037091FD
:103A1000D0038091D1039091D2030E94A92060939A
:103A2000CF037093D0038093D1039093D2032EE3FE
:103A300033EC4EE258E36091E7047091E804809122
:103A4000E9049091EA040E94B01F9B01AC016091CF
:103A5000B3037091B4038091B5039091B6030E94B3
:103A6000A9206093B3037093B4038093B50390933C
:103A7000B603DECD609103027091040280910502CD
:103A8000909106020E944F1F4B015C0120E030E044
:103A90004AE754E460910E0170910F01809110018A
:103AA000909111010E94B01F9B01AC01C501B401AE
:103AB0000E94A9204B015C010E944B050E944F1FF0
:103AC0009B01AC01C501B4010E944A1F87FFBECD16
:103AD00061E08AE00E948A0461E082E30E943E067F
:103AE000672BD1F362E08AE50E943E0624E09595BB
:103AF0008795779567952A95D1F70E94511F26E9FA
:103B000033E44BE85BE30E94B01F609312017093B3
:103B10001301809314019093150162E088E20E94E2
:103B20003E0634E095958795779567953A95D1F758
:103B30000E94511F2FE632E143E050E40E94B01F83
:103B400020E030E040E859E30E94B01F1B012C0147
:103B500020E030E044E052E40E94B01F4B015C01E1
:103B6000A201910160E070E080EA90E40E94A82048
:103B70009B01AC01C501B4010E94152120E030E099
:103B800040E251E40E9415210E94CA2121EF3BEB43
:103B900046E859E30E94B01F2DE03FEC4BE55BE3A4
:103BA0000E94A9209B01AC0160E070E080E89FE3E7
:103BB0000E94152123E333E948E853E40E94A8203A
:103BC0006093160170931701809318019093190167
:103BD0008090F7059090F805A090F905B090FA054F
:103BE00020E030E0A901C501B4010E94BD211816F2
:103BF000D4F4A50194016091E7047091E8048091E8
:103C0000E9049091EA040E94152120E030E048EC9C
:103C100052E40E94B01F60937B0470937C048093F5
:103C20007D0490937E0420907B0430907C0440902F
:103C30007D0450907E0420E030E0A901C201B10172
:103C40000E944A1F87FDB0C020E030E046EC52E4FD
:103C5000C201B1010E94BD21181634F4212C312C6F
:103C600086EC482E82E4582E20927B0430927C040D
:103C700040927D0450927E042091E7043091E80444
:103C80004091E9045091EA04C501B4010E94A820C2
:103C90001B012C0120E030E0A9010E944A1F87FF90
:103CA00003C0212C312C21012092970430929804DA
:103CB0004092990450929A0480912503882341F000
:103CC000E0912303F0912403868197810E94C20B27
:103CD0008091010290910202892B09F456C080E084
:103CE0000E94280B8091010290910202019790930B
:103CF000020280930102C091E305D091E40528817E
:103D000039814A815B816091FD017091FE01809152
:103D1000FF01909100020E94A920688379838A8321
:103D20009B832090ED053090EE054090EF0550907C
:103D3000F005A20191010E94BD21181624F42882E9
:103D400039824A825B822090E9053090EA054090F2
:103D5000EB055090EC05A2019101688179818A817F
:103D60009B810E944A1F87FF04C0288239824A82B1
:103D70005B8288819981AA81BB818093E5059093BC
:103D8000E605A093E705B093E80560E08AE00E94AD
:103D90008A040E944B05609303027093040280938F
:103DA00005029093060252CC212C312C21015CCFCC
:103DB000219688CCE0911B07F0911C070995ECE453
:103DC000F6E01192CE16DF06E1F79ECCE0E0F0E0DF
:103DD000EF2B09F40FC90E949003882309F408C946
:103DE0000E94000005C914820384F485E02D178A1F
:103DF00042C98DEA93E00C94990CFC01882799271D
:103E0000E89421912032E9F3293010F02E30C8F3E4
:103E10002B3241F02D3239F4689404C00E94421FC5
:103E2000820F911D219120532A30C0F31EF49095EA
:103E300081959F4F0895FA01A191B081009719F4DF
:103E40001097E1F0CD01DC01CD010D90002011F4BF
:103E5000C00113C0FB012191222319F02015D9F7CD
:103E6000F3CFFB012191201519F41E92119606C083
:103E70002223C1F70D900020A1F7D001FA01A193F0
:103E8000B08308957AE0979F902D879F802D910DA4
:103E9000112408950E948C1F08F481E00895E8948D
:103EA00009C097FB3EF490958095709561957F4F82
:103EB0008F4F9F4F9923A9F0F92F96E9BB27939530
:103EC000F695879577956795B795F111F8CFFAF440
:103ED000BB0F11F460FF1BC06F5F7F4F8F4F9F4F71
:103EE00016C0882311F096E911C0772321F09EE8CF
:103EF000872F762F05C0662371F096E8862F70E035
:103F000060E02AF09A95660F771F881FDAF7880F0E
:103F10009695879597F90895990F0008550FAA0B64
:103F2000E0E8FEEF16161706E807F907C0F01216CC
:103F30001306E407F50798F0621B730B840B950BCF
:103F400039F40A2661F0232B242B252B21F4089524
:103F50000A2609F4A140A6958FEF811D811D0895C1
:103F60000E94C31F0C9437200E94292038F00E9421
:103F7000302020F0952311F00C9420200C94262062
:103F800011240C946B200E94482070F3959FC1F37C
:103F9000950F50E0551F629FF001729FBB27F00DF7
:103FA000B11D639FAA27F00DB11DAA1F649F66274C
:103FB000B00DA11D661F829F2227B00DA11D621F9B
:103FC000739FB00DA11D621F839FA00D611D221F55
:103FD000749F3327A00D611D231F849F600D211D39
:103FE000822F762F6A2F11249F5750409AF0F1F0BC
:103FF00088234AF0EE0FFF1FBB1F661F771F881F25
:1040000091505040A9F79E3F510580F00C9420201C
:104010000C946B205F3FE4F3983ED4F3869577953C
:104020006795B795F795E7959F5FC1F7FE2B880FCA
:10403000911D9695879597F9089599278827089552
:1040400097F99F6780E870E060E008959FEF80EC4B
:10405000089500240A9416161706180609060895EE
:1040600000240A9412161306140605060895092E54
:104070000394000C11F4882352F0BB0F40F4BF2BC3
:1040800011F460FF04C06F5F7F4F8F4F9F4F089503
:1040900057FD9058440F551F59F05F3F71F04795F9
:1040A000880F97FB991F61F09F3F79F087950895DE
:1040B000121613061406551FF2CF4695F1DF08C0FD
:1040C000161617061806991FF1CF8695710561051A
:1040D00008940895E894BB2766277727CB0197F9C2
:1040E00008952F923F924F925F926F927F928F929C
:1040F0009F92AF92BF92CF92DF92EF92FF920F9377
:104100001F93CF93DF93CDB7DEB7CA1BDB0B0FB680
:10411000F894DEBF0FBECDBF09942A88398848883D
:104120005F846E847D848C849B84AA84B984C884D3
:10413000DF80EE80FD800C811B81AA81B981CE0FCA
:10414000D11D0FB6F894DEBF0FBECDBFED010895AF
:104150005058BB27AA270E94C0200C9437200E94E9
:10416000292038F00E94302020F039F49F3F19F4C4
:1041700026F40C9426200EF4E095E7FB0C94202006
:10418000E92F0E94482058F3BA1762077307840783
:10419000950720F079F4A6F50C946A200EF4E095CA
:1041A0000B2EBA2FA02D0B01B90190010C01CA01F1
:1041B000A0011124FF27591B99F0593F50F4503E9C
:1041C00068F11A16F040A22F232F342F4427585F8E
:1041D000F3CF469537952795A795F0405395C9F7A6
:1041E0007EF41F16BA0B620B730B840BBAF091505E
:1041F000A1F0FF0FBB1F661F771F881FC2F70EC0FD
:10420000BA0F621F731F841F48F4879577956795CF
:10421000B795F7959E3F08F0B0CF9395880F08F0BB
:104220009927EE0F9795879508950E9429210C9460
:1042300037200E94302058F00E94292040F029F4B5
:104240005F3F29F00C94202051110C946B200C94AA
:1042500026200E94482068F39923B1F3552391F357
:10426000951B550BBB27AA2762177307840738F0E5
:104270009F5F5F4F220F331F441FAA1FA9F335D042
:104280000E2E3AF0E0E832D091505040E695001CF6
:10429000CAF72BD0FE2F29D0660F771F881FBB1FB0
:1042A000261737074807AB07B0E809F0BB0B802D8E
:1042B000BF01FF2793585F4F3AF09E3F510578F0BA
:1042C0000C9420200C946B205F3FE4F3983ED4F3D1
:1042D000869577956795B795F7959F5FC9F7880F8E
:1042E000911D9695879597F90895E1E0660F771FE0
:1042F000881FBB1F621773078407BA0720F0621B71
:10430000730B840BBA0BEE1F88F7E09508950E949B
:104310008E216894B1110C946B2008950E94502056
:1043200088F09F5798F0B92F9927B751B0F0E1F076
:10433000660F771F881F991F1AF0BA95C9F714C026
:10434000B13091F00E946A20B1E008950C946A2087
:10435000672F782F8827B85F39F0B93FCCF386955F
:1043600077956795B395D9F73EF4909580957095BC
:1043700061957F4F8F4F9F4F08950E948C1F08F4C7
:104380008FEF089516F00C94A1220C9426206894C7
:104390000C9420200E945020A8F39923C1F3AEF37F
:1043A000DF93CF931F930F93FF92C92FDD278823AD
:1043B0002AF02197660F771F881FDAF720E030E098
:1043C00040E85FEB9FE3883920F0803E38F021968B
:1043D0008F770E94A920E8E6F0E004C00E94A9209F
:1043E000E5E9F0E00E94AF228B01BE01EC01FB2E5B
:1043F0006F5771097595771F880B990B0E94511F94
:1044000028E132E741E35FE30E94C31FAF2D98012B
:10441000AE01FF900F911F91CF91DF910E94C020BC
:104420000C943720FA01EE0FFF1F3096210531055D
:10443000A1F16115710561F48038BFE39B0749F173
:1044400068949038810561F08038BFEF9B0741F098
:1044500099234AF5FF3FE1053105210519F1E8945B
:104460000894E795D901AA2329F4AB2FBE2FF85F52
:10447000D0F310C0FF5F70F4A695E0F7F73950F065
:1044800019F0FF3A38F49F779F930DD00F9007FCF7
:104490009058089546F00C94262060E070E080E883
:1044A0009FE308954FE79F775F934F933F932F9339
:1044B0000E94CA212F913F914F915F910E94B01F9E
:1044C0000C946F220E948C1F880B990B089529F47D
:1044D00016F00C9420200C946A200C9426200E9444
:1044E0005020A8F39638A0F707F80F92E8942BE332
:1044F0003AEA48EB5FE70E94C61F0F920F920F92B5
:104500004DB75EB70F920E941823E2ECF0E00E94D4
:10451000AF224F915F91EF91FF91E595EE1FFF1F45
:1045200049F0FE57E0684427EE0F441FFA95E1F783
:104530004195550B0E94E2220F9007FE0C94D62263
:1045400008959F3F31F0915020F4879577956795B6
:10455000B795880F911D9695879597F90895DF93E4
:10456000CF931F930F93FF92EF92DF927B018C0109
:10457000689406C0DA2EEF010E94C31FFE01E89482
:10458000A5912591359145915591A6F3EF010E9492
:10459000C020FE019701A801DA9469F7DF90EF903F
:1045A000FF900F911F91CF91DF9108959B01AC0176
:1045B00060E070E080E89FE30C9415210C942020CB
:1045C0000C94A1220E945020D8F39923C9F3940F90
:1045D000511DA3F39150504094F059F0882332F0CC
:1045E000660F771F881F91505040C1F79E3F5105BD
:1045F0002CF7880F911D9695879597F908955F3F41
:10460000ACF0983E9CF0BB27869577956795B7955B
:1046100008F4B1609395C1F7BB0F58F711F460FF30
:10462000E8CF6F5F7F4F8F4F9F4FE3CF0C946B208E
:10463000FA01DC01AA0FBB1F9B01AC01BF5728F494
:10464000222733274427507820C0B75190F4AB2F4E
:104650000024469537952795011CA395D2F3002099
:1046600071F0220F331F441FB395DAF30ED00C9470
:10467000A82061307105A0E88A07B94630F49B0193
:10468000AC016627772788279078309621F0208321
:104690003183428353830895A1E21A2EAA1BBB1BC8
:1046A000FD010DC0AA1FBB1FEE1FFF1FA217B307FE
:1046B000E407F50720F0A21BB30BE40BF50B661F14
:1046C000771F881F991F1A9469F7609570958095D8
:1046D00090959B01AC01BD01CF010895EE0FFF1F26
:1046E0000590F491E02D09940F931F93CF93DF93DE
:1046F0008230910510F482E090E0E0916907F0913A
:104700006A0730E020E0B0E0A0E0309799F421158E
:10471000310509F44AC0281B390B24303105D8F57E
:104720008A819B816115710589F1FB0193838283E5
:10473000FE0111C040815181028113814817590740
:10474000E0F04817590799F4109761F012960C930E
:10475000129713961C933296CF01DF91CF911F9140
:104760000F9108950093690710936A07F4CF2115FC
:10477000310551F04217530738F0A901DB019A01C6
:10478000BD01DF01F801C1CFEF01F9CF90936A07B6
:1047900080936907CDCFFE01E20FF31F81939193C0
:1047A0002250310939832883D7CF20916707309170
:1047B0006807232B41F4209128013091290130937F
:1047C0006807209367072091260130912701211562
:1047D000310541F42DB73EB740912A0150912B018C
:1047E000241B350BE0916707F0916807E217F30788
:1047F000A0F42E1B3F0B2817390778F0AC014E5F51
:104800005F4F2417350748F04E0F5F1F509368071E
:1048100040936707819391939FCFF0E0E0E09CCFB6
:10482000CF93DF930097E9F0FC0132971382128255
:10483000A0916907B0916A07ED0130E020E0109780
:10484000A1F420813181820F931F2091670730915D
:1048500068072817390709F061C0F0936807E093EB
:104860006707DF91CF910895EA01CE17DF07E8F5DA
:104870004A815B819E0141155105B1F7E901FB8336
:10488000EA8349915991C40FD51FEC17FD0761F4D4
:10489000808191810296840F951FE9019983888315
:1048A000828193819B838A83F0E0E0E012968D9170
:1048B0009C9113970097B9F52D913C911197CD01DB
:1048C0000296820F931F209167073091680728177F
:1048D000390739F6309751F510926A071092690737
:1048E000B0936807A0936707BCCFD383C28340818E
:1048F0005181840F951FC817D90761F44E5F5F4F30
:1049000088819981480F591F518340838A819B81F7
:10491000938382832115310509F0B0CFF0936A07A4
:10492000E09369079ECFFD01DC01C0CF13821282A4
:10493000D7CFB0E0A0E0EFE9F4E20C9473208C0153
:10494000009751F4CB010E9474238C01C801CDB7AC
:10495000DEB7E0E10C948F20FC01E60FF71F9C010D
:1049600022503109E217F30708F49DC0D901CD9117
:10497000DC911197C617D70798F0C530D10530F3F1
:10498000CE0104978617970708F3C61BD70B22970B
:10499000C193D1936D937C93CF010E941024D6CF05
:1049A0005B01AC1ABD0A4C018C0E9D1EA0916907DB
:1049B000B0916A07512C412CF12CE12C109731F564
:1049C00080916707909168078815990509F05CC088
:1049D0004616570608F058C080912601909127018D
:1049E000009741F48DB79EB740912A0150912B0159
:1049F000841B950BE817F90708F055C0F09368077A
:104A0000E0936707F90171836083A0CF8D919C913A
:104A1000119712966C90129713967C901397A81585
:104A2000B90559F56C0142E0C40ED11CCA14DB046F
:104A300020F1AC014A195B09DA011296159780F052
:104A40006282738251834083D9016D937C93E11418
:104A5000F10471F0D7011396FC93EE93129776CF81
:104A600022968C0F9D1FF90191838083F301EFCF74
:104A7000F0936A07E093690769CF4816590608F46E
:104A80002C017D01D3019ACFCB010E9474237C01BC
:104A9000009749F0AE01B8010E945F25C8010E944D
:104AA0001024870153CF10E000E050CF803209F08E
:104AB00091110C941D2080528F55D8F70895FB0159
:104AC000DC0102C001900D9241505040D8F708958A
:104AD000FB01DC0101900D920020E1F70895FB013C
:104AE000DC014150504030F08D910190801919F453
:104AF0000020B9F7881B990B0895FB01DC01415098
:104B0000504048F001900D920020C9F701C01D925D
:104B100041505040E0F7089512E0C9E6D2E004C0E9
:104B2000FE010E946E232196CA36D107C9F7F89478
:024B3000FFCFB5
:104B320001010000003F0000404000000042000070
:104B4200003F000040410000C8410000C842000090
:104B5200803F0000003F00006B0780009D01A00124
:104B6200A301A60100000000C60326035303180494
:104B720084036203760300000000D805AB05080633
:104B82008805F1029805890500000000190826032E
:104B9200080607060D0A003E006E616E00696E6629
:104BA200006F766600310030002054202020004340
:104BB200522052202020202020006D6F6465006763
:104BC200657400737765657000312E3300434300CE
:0C4BD20043500043520042415454000084
:00000001FF
