:100000000C9422030C944A030C944A030C944A0364
:100010000C944A030C944A030C944A030C944A032C
:100020000C944A030C944A030C944A030C944A031C
:100030000C944A030C944A030C944A030C944A030C
:100040000C949E0C0C944A030C946C0C0C94460C6F
:100050000C944A030C944A030C944A030C944A03EC
:100060000C94E80C0C944A0308000000BE9224494A
:10007000123EABAAAA2ABECDCCCC4C3E00000080DA
:10008000BEABAAAAAA3E00000000BF000000803F4D
:100090000000000000084178D3BB4387D1133D190D
:1000A0000E3CC3BD4282AD2B3E68EC8276BED98F3A
:1000B000E1A93E4C80EFFFBE01C4FF7F3F0000007E
:1000C000000007634236B79BD8A71A39685618AEA6
:1000D000BAAB558C1D3CB7CC5763BD6DEDFD753E7D
:1000E000F6177231BF000000803F4572726F7220B8
:1000F000647572696E67207772697465005265670E
:10010000756C6174696F6E2063616E2774206B6516
:1001100065702075700000000000240027002A0090
:1001200000000000250028002B0000000000230034
:100130002600290004040404040404040202020248
:10014000020203030303030301020408102040809A
:100150000102040810200102040810200000000819
:10016000000201000003040700000000000000007E
:100170004572726F7220647572696E6720504D20EF
:10018000696E69740053657474696E6773004261C7
:100190007474657279004C6F6164004D65746572AA
:1001A00000202020202057682020202020206D4182
:1001B0006800492020202020412056632020202054
:1001C0002056005461637120202020732046616E08
:1001D00020202000426174742020202020562020FE
:1001E0002020202000566F2020202020202056692B
:1001F0002020202020005072202020202057204541
:100200006620202020250056202020202020204964
:100210002020202020204100435220522020202056
:1002200020204F2054202020005620202020202055
:100230002049202020202020410043502050202011
:10024000202020205720542020200056202020202D
:1002500020202050202020202020570043432049E8
:100260002020202020204120542020200050202029
:100270002020202057202020202020202000562031
:10028000202020202020492020202020204100451F
:100290006C656374726F6E6963204C6F6164205388
:1002A000746172746564202100302D313030562025
:1002B000302D3541207600456C656374726F6E6930
:1002C00063204C6F6164004C6F6164207475726EC2
:1002D0006564206F66660053637265656E206261B7
:1002E000636B203A2067657474696E67206F75745C
:1002F000206F662076616C75652065646974696E2F
:10030000670053637265656E206261636B203A20FB
:1003100067657474696E67206F7574206F662073EB
:10032000637265656E2073656C656374696F6E00DA
:100330004D656E754974656D206261636B004D6536
:100340006E75206261636B203A206D656E75206565
:100350006E74657265643D74727565004D656E7589
:10036000206261636B203A206D656E7520656E7446
:10037000657265643D66616C7365004564697469A6
:100380006E672076616C7565203A20757000536346
:100390007265656E206E657874203A20466F756EC2
:1003A00064206E657874206564697461626C652090
:1003B00076616C75650053637265656E206E657855
:1003C00074203A20536561726368696E6720666FB6
:1003D00072206E657874206564697461626C652052
:1003E00076616C7565004D656E75206E657874205C
:1003F0003A206E6578746D656E756974656D004D33
:10040000656E75206E657874203A206E6578747319
:10041000637265656E0045646974696E6720766114
:100420006C7565203A20646F776E00536372656562
:100430006E2070726576203A20466F756E6420706B
:10044000726576696F7573206564697461626C6545
:100450002076616C75650053637265656E207072FD
:100460006576203A20536561726368696E6720661D
:100470006F722070726576696F7573206564697438
:1004800061626C652076616C7565004D656E7520E6
:1004900070726576203A20707265766D656E75694A
:1004A00074656D004D656E752070726576203A201A
:1004B0007072657653637265656E0053637265652D
:1004C0006E20656E746572203A2045646974696EA9
:1004D000672076616C7565203A20616476616E6391
:1004E000696E6720637572736F720053637265651E
:1004F0006E20656E746572203A2053776974636864
:10050000696E6720746F2076616C7565206564691B
:1005100074696E67004D656E7520616C726561640B
:100520007920656E7465726564203A2073656C6528
:10053000637465644D656E754974656D20656E7490
:10054000657265643D74727565004D656E752065F4
:100550006E746572203A206D656E7520656E7465E7
:100560007265643D7472756500496E707574206DB6
:100570006561737572656D656E74207361747572F3
:1005800061746564004F7574707574206D65617376
:100590007572656D656E74207361747572617465D2
:1005A00064004661756C7420646574656374656489
:1005B0002C206C6F6164207368757474696E672099
:1005C000646F776E0046616E206F6666202100467C
:1005D000616E206F6E20210054656D7020686F740D
:1005E0002065786365656465642021006D41682C31
:1005F000205768203A004C6F6164206375746F6601
:1006000066202120416363756D756C61746564209B
:1006100076616C756573203A2000504D414351203E
:100620006E6F7420726561647920210044616320DB
:1006300073617475726174696E6720757020210032
:10064000F50ED41C11241FBECFEFD8E0DEBFCDBF06
:1006500025E0A4E8B1E001C01D92A13EB207E1F798
:1006600011E0A0E0B1E0EEEEF5E402C005900D92DD
:10067000A438B107D9F713E0C1E2D3E004C0219751
:10068000FE010E94F220C032D107C9F70E94C413B4
:100690000C94EA220C940000982F2091490281E0EA
:1006A000213208F043C0809125028111FCCF809156
:1006B000480232E030932502909324029FEF9093FA
:1006C00023021092220220932102A8E2B2E0E1E08C
:1006D000F2E090E0291331C01092000290910002E4
:1006E000880F892B809300028091FF01813049F5AA
:1006F0001092FF01809100028093BB008091BC00AA
:1007000083FDF8CF85EC8093BC0080912502823078
:10071000E1F3809123028F3FB1F080912302803278
:10072000A1F080912302803391F084E0109227029F
:10073000109249021092260208953D9131939F5FD5
:10074000C9CF85EEE0CF80E0F1CF82E0EFCF83E04C
:10075000EDCF8091DD019091DE01891B990B089509
:1007600008950895EF92FF920F931F93CF93DF9315
:100770008C017B01D0E0C0E0F701EC0FFD1F64911C
:10078000662361F0D801ED91FC910190F081E02D9C
:10079000C8010995892B11F02196EECFCE01DF918A
:1007A000CF911F910F91FF90EF900895AF92BF925C
:1007B000CF92DF92EF92FF920F931F93CF93DF932D
:1007C0006C017B018B01040F151FEB015E01AE185C
:1007D000BF08C017D10759F06991D601ED91FC917E
:1007E0000190F081E02DC6010995892B79F7C501AB
:1007F000DF91CF911F910F91FF90EF90DF90CF90FD
:10080000BF90AF900895FC01538D448D252F30E0AB
:10081000842F90E0821B930B541710F0CF9608950D
:1008200001970895FC01918D828D981761F0A28D3A
:10083000AE0FBF2FB11D5D968C91928D9F5F9F7300
:10084000928F90E008958FEF9FEF0895FC01918DB6
:10085000828D981731F0828DE80FF11D858D90E023
:1008600008958FEF9FEF0895FC01918D228D892FC0
:1008700090E0805C9F4F821B91098F7399270895A8
:100880008AE492E00E94340421E0892B09F420E0FC
:10089000822F089580E090E0892B29F00E94400487
:1008A00081110C9400000895FC01A48DA80FB92FAC
:1008B000B11DA35ABF4F2C91848D90E001968F7388
:1008C0009927848FA689B7892C93A089B1898C91A7
:1008D000837080648C93938D848D981306C00288F6
:1008E000F389E02D80818F7D80830895EF92FF92C0
:1008F0000F931F93CF93DF93EC0181E0888F9B8D43
:100900008C8D98131AC0E889F989808185FF15C0FC
:100910009FB7F894EE89FF896083E889F98980811F
:100920008370806480839FBF81E090E0DF91CF91EE
:100930001F910F91FF90EF900895F62E0B8D10E010
:100940000F5F1F4F0F731127E02E8C8D8E110CC07F
:100950000FB607FCFACFE889F989808185FFF5CFCA
:10096000CE010E945404F1CFEB8DEC0FFD2FF11D51
:10097000E35AFF4FF0829FB7F8940B8FEA89FB8907
:1009800080818062CFCFCF93DF93EC01888D882365
:10099000B9F0AA89BB89E889F9898C9185FD03C0E2
:1009A000808186FD0DC00FB607FCF7CF8C9185FFC7
:1009B000F2CF808185FFEDCFCE010E945404E9CFB4
:1009C000DF91CF910895833081F028F4813099F040
:1009D0008230A9F008958730A9F08830C9F08430BA
:1009E000B1F4809180008F7D03C0809180008F776B
:1009F00080938000089584B58F7784BD089584B571
:100A00008F7DFBCF8091B0008F778093B0000895E9
:100A10008091B0008F7DF9CFCF93DF93282F30E006
:100A2000F901E45AFE4F8491F901E85BFE4FD4913D
:100A3000F901EC5CFE4FC491CC23A1F081110E941E
:100A4000E304EC2FF0E0EE0FFF1FE65DFE4FA591F3
:100A5000B491EC91ED2381E090E009F480E0DF9126
:100A6000CF91089580E090E0FACF1F93CF93DF936A
:100A7000282F30E0F901E45AFE4F8491F901E85B38
:100A8000FE4FD491F901EC5CFE4FC491CC23A9F048
:100A9000162F81110E94E304EC2FF0E0EE0FFF1FF0
:100AA000E05EFE4FA591B4918FB7F894EC911111CF
:100AB00008C0D095DE23DC938FBFDF91CF911F91CB
:100AC0000895DE2BF8CFCF93DF9390E0FC01E85B35
:100AD000FE4F24918C5C9E4FFC0184918823C9F0C9
:100AE00090E0880F991FFC01EA5EFE4FA591B4913A
:100AF000FC01E05EFE4FC591D49161110DC09FB71E
:100B0000F8948C91209582238C93888128232883C4
:100B10009FBFDF91CF910895623051F49FB7F89451
:100B20003C91822F809583238C93E8812E2BEFCFED
:100B30008FB7F894EC912E2B2C938FBFEACF3FB751
:100B4000F8948091CD019091CE01A091CF01B09108
:100B5000D00126B5A89B05C02F3F19F00196A11D15
:100B6000B11D3FBFBA2FA92F982F8827BC01CD01F7
:100B7000620F711D811D911D42E0660F771F881F56
:100B8000991F4A95D1F708958F929F92AF92BF9285
:100B9000CF92DF92EF92FF924B015C010E949F0582
:100BA0006B017C010E949F056C197D098E099F09CC
:100BB000683E734081059105A8F321E0821A9108EF
:100BC000A108B10888EEC80E83E0D81EE11CF11C14
:100BD00081149104A104B10429F7FF90EF90DF90F4
:100BE000CF90BF90AF909F908F9008952FB7F894BB
:100BF0006091C9017091CA018091CB019091CC01A3
:100C00002FBF089585ED8093BC008091BC0084FDCA
:100C1000FCCF1092250208952091A501260F3327BD
:100C2000331F21323105ECF420912502FC0190E0C4
:100C300080E0243069F082E00895A091A50121911F
:100C4000AC014B575E4FA40FB52FB11D2C930196ED
:100C5000861798F38091A501680F6093A50180E045
:100C6000089581E008950895E091DE018091DD010D
:100C7000E81730F4F0E0E152FE4F808190E00895F3
:100C80008FEF9FEF08959091DE018091DD012FEFAE
:100C90003FEF981748F4E92FF0E0E152FE4F208132
:100CA00030E09F5F9093DE01C9010895CF92DF92FB
:100CB000EF92FF920F931F93CF93DF937C01CB01B1
:100CC0008A0120912602222389F0EB016B01C40ED8
:100CD000D51ECC15DD0569F06991D701ED91FC9128
:100CE0000190F081E02DC7010995F3CF642F0E9498
:100CF0000C06C801DF91CF911F910F91FF90EF90EB
:100D0000DF90CF900895CF93DF931F92CDB7DEB7DA
:100D10006983209126022223F9F020914902203292
:100D200058F021E030E0FC013383228390E080E042
:100D30000F90DF91CF91089580912702E82FF0E086
:100D4000E85DFD4F998190838F5F809327028093A8
:100D5000490281E090E0ECCF61E0CE0101960E9473
:100D60000C06F7CF089590E080E00895CF93DF93CD
:100D7000DC011996ED91FC91A081B18171836083B2
:100D8000EB01FB83EA83B983A88313967C936E936C
:100D90001297DF91CF910895CF92DF92EF92FF9259
:100DA000CF93DF93C62F91E0909326029FE6909316
:100DB00048021092270210924902682F87EE92E0B3
:100DC0000E94830680E00E944C03809125028111DD
:100DD000FCCF81E080932502809324029FEF9093C3
:100DE0002302109222029C0F909321028093000212
:100DF000809100028E6D809300028091FF0181300E
:100E000059F51092FF01809100028093BB00809100
:100E1000BC0083FDF8CF85EC8093BC008091250257
:100E20008130E1F3809122028C17C0F4809122027C
:100E3000E1E0F2E0AFEDB1E0F12CF81211C0109258
:100E4000DE01F092DD01FC1678F46AE070E080E0EB
:100E500090E00E94C405F7CF85EEDECF8C2FE8CF5F
:100E600091919D93F394E9CFC12CD12C7601D0E0E0
:100E700087EE92E00E944306FE2CED2CDC2CCC2465
:100E8000C80ED11CE11CF11CDF5FCD13F1CFC701EF
:100E9000B601DF91CF91FF90EF90DF90CF90089552
:100EA000CF93DF93EC0160E08E810E94350561E015
:100EB0008E810E94350560E08E810E9435058BE8A9
:100EC00091E00197F1F7DF91CF910895CF92DF92F2
:100ED000EF92FF920F931F93CF93DF936C017C01EE
:100EE00087E0E80EF11CD0E0C0E0062F10E0B8016A
:100EF0000C2E02C0759567950A94E2F76170F701B0
:100F000081917F010E9435052196C430D10579F782
:100F1000C601DF91CF911F910F91FF90EF90DF906D
:100F2000CF900C945007CF92DF92EF92FF920F93E5
:100F30001F93CF93DF93EC01F62E642F8C810E94D8
:100F400035058D818F3F19F060E00E9435050F2D2A
:100F500010E08F8584FF25C06E0187E0C80ED11C8C
:100F6000F12CE12CB8010E2C02C0759567950A94FE
:100F7000E2F76170F60181916F010E943505FFEF84
:100F8000EF1AFF0A88E0E816F10461F7CE01DF915D
:100F9000CF911F910F91FF90EF90DF90CF900C9425
:100FA0005007B80184E0759567958A95E1F7CE0101
:100FB0000E9466076F2DCE01DF91CF911F910F9197
:100FC000FF90EF90DF90CF900C94660740E0682F81
:100FD0008EE995E00C949307643008F063E09091FB
:100FE000B105691710F06FEF690FE62FF0E0E256D8
:100FF000FA4F9489890F80680C94E60781E00E947B
:10100000E6078BE39FE10197F1F70895CF93DF9314
:10101000823029F49091AD0598609093AD0580934E
:10102000B1051092B20580E48093B30580E180930E
:10103000B40580E58093B50561E08091A2050E942A
:1010400063058091A3058F3F19F061E00E9463055D
:1010500061E08091A4050E946305CEE9D5E09E0180
:101060002E5935408091AD0584FD0BC084E090E0A1
:1010700021962817390744F461E08E810E946305A8
:10108000EECF88E090E0F4CF8BE39DE00197F1F79D
:1010900060E08091A2050E94350560E08091A40582
:1010A0000E9435058091A3058F3F19F060E00E94F2
:1010B00035058091AD0584FD34C063E08EE995E08F
:1010C0000E946607CBE4D6E4CE010197F1F763E016
:1010D0008EE995E00E9466072197F1F763E08EE9BB
:1010E00095E00E94660783E592E00197F1F762E0E0
:1010F0008EE995E00E9466078091AD0580620E94AE
:10110000E60784E08093AE058CE00E94E6070E942B
:10111000FE0782E08093AF0586E0DF91CF910C94CB
:10112000E60780620E94E6078BE496E40197F1F7F8
:101130008091AD0580620E94E60783E592E0019709
:10114000F1F78091AD0580620E94E607D5CF41E0BE
:101150000E94930781E090E00895FB010190002038
:10116000E9F73197AF01461B570BDC01ED91FC917C
:101170000280F381E02D0994CF93DF93BC018AE4D0
:1011800092E00E94B203EC016EE571E08AE492E025
:101190000E94AD088C0F9D1FDF91CF9108958F9213
:1011A0009F92AF92BF92CF92DF92EF92FF92809187
:1011B0000201909103018130910569F008F451C05A
:1011C0008230910509F486C0039709F494C0C12CBC
:1011D000D12C760108C0C0902401D0902501E09068
:1011E0002601F090270180919505882309F496C087
:1011F0008090750490907604A0907704B090780465
:1012000026E636E646E85FE3C701B6010E943E1DCA
:10121000A50194010E94D81C87FD10C023E333E38D
:1012200043E75FE3C701B6010E943E1D9B01AC018D
:10123000C501B4010E94D81C87FF70C08091840151
:101240008F5F8B3008F060C080938401C701B601C6
:10125000FF90EF90DF90CF90BF90AF909F908F90D6
:101260000895C090AD04D090AE04E090AF04F0902B
:10127000B00420E030E0A901C701B6010E94411F7F
:1012800018160CF0A4CFA70196016091200170916F
:10129000210180912201909123010E94A01E6B01E7
:1012A0007C0120E030E0A9010E94D81C87FD8FCF8F
:1012B00020E030E040EB50E4C701B6010E94411F3E
:1012C00018160CF090CFC12CD12C80EBE82E80E4C6
:1012D000F82E89CF20911C0130911D0140911E01F3
:1012E00050911F016091AD047091AE048091AF04E4
:1012F0009091B004D2CFC0900401D0900501E0904D
:101300000601F09007016FCF1092840181E0809375
:1013100096058DEF90E00E94BC0898CF1092840152
:1013200095CFCF92DF92EF92FF920F9369017A01EE
:1013300091E0909326028093480210922702109227
:10134000490287EE92E00E948306015028E0029F46
:10135000C0011124A701960104C055954795379502
:1013600027958A95D2F7B90187EE92E00E9483060D
:101370000111EBCF81E00E944C03882361F08AEEDB
:1013800090E00E94BC0801E0802F0F91FF90EF9049
:10139000DF90CF90089561E070E080E090E00E94DF
:1013A000C405F2CF0F9380919B0590919C05811508
:1013B000904168F08CE296E00E94BC088FEF9FE0BD
:1013C00090939C0580939B0581E0809396052091E6
:1013D0009B0530919C0550E040E002E060E081E632
:1013E0000E9491090F9108950F93CF93DF93C5E960
:1013F000D5E01F821E820E94D20902E021E030E087
:1014000040E050E068E481E60E949109188260E0C3
:1014100081E1DF91CF910F910C9435058F929F92CE
:10142000AF92BF92EF92FF920F931F93CF93DF93F0
:10143000CDB7DEB7A1970FB6F894DEBF0FBECDBF14
:101440007C01FA01CB0119A2223008F42AE08E01B6
:101450000F5D1F4F822E912CB12CA12CBF01A50135
:1014600094010E94D020F901CA016A300CF5605D38
:10147000D8016E938D01232B242B252B79F790E037
:1014800080E0109721F0BD01C7010E94AD08A19630
:101490000FB6F894DEBF0FBECDBFDF91CF911F9185
:1014A0000F91FF90EF90BF90AF909F908F90089515
:1014B000695CDECFCF93DF930E94FE07C091F302F9
:1014C000D091F4026A8589850E94EC078091F3022D
:1014D0009091F40261E671E0C817D90711F06EE748
:1014E00071E08EE995E00E94AD08688179818EE90E
:1014F00095E00E94B2030A80DB81C02D8091F30247
:101500009091F402C817D907E9F6DF91CF910895B9
:101510002F923F924F925F926F927F928F929F9203
:10152000AF92BF92CF92DF92EF92FF921F93CF9331
:10153000DF93EC016A017B01722EAB019601CB01B6
:10154000B6010E94E61F63E671E0811126C04601E4
:101550005701E894B7F82FEF3FEF4FE75FE7C5017A
:10156000B4010E94E61F81110CC02FEF3FEF4FE73F
:101570005FE7C501B4010E94D81C67E671E0181648
:1015800064F02FEF3FEF4FE75FE4C701B6010E9421
:10159000411F1816B4F46BE671E0CE01DF91CF91D4
:1015A0001F91FF90EF90DF90CF90BF90AF909F90F2
:1015B0008F907F906F905F904F903F902F900C9402
:1015C000AD082FEF3FEF4FE75FECC701B6010E9478
:1015D000D81C87FDE0CF20E030E0A901C701B601AB
:1015E0000E94D81C312C212C87FF0DC0E881F98185
:1015F0000190F081E02D6DE2CE0109951C01F7FA12
:10160000F094F7F8F09410E060E070E080E09FE381
:10161000711641F020E030E040E251E40E94A01E4B
:101620001F5FF6CFA70196010E94341E2B013C01DB
:101630000E94121F4B015C012AE0BC01A401CE01F3
:101640000E940E0A7C01E20CF31C1123E1F1C5019A
:10165000B4010E94DD1C9B01AC01C301B2010E94D8
:10166000331E4B015C01E881F9810190F081E02D8E
:101670006EE2CE010995E80EF91E115020F120E02E
:1016800030E040E251E4C501B4010E943E1D2B014F
:101690003C010E94121F4B01B12CA12C2AE0B50184
:1016A000A401CE010E940E0AE80EF91EC501B40184
:1016B0000E94DD1C9B01AC01C301B2010E94331EDC
:1016C0004B015C01DACFC701DF91CF911F91FF90F1
:1016D000EF90DF90CF90BF90AF909F908F907F90D2
:1016E0006F905F904F903F902F9008958F929F92B0
:1016F000AF92BF92EF92FF920F931F93CF93DF931E
:101700008C01FC01C185D285EE24E394EC81FD813E
:1017100080809180A280B3802E813F814885598549
:10172000C501B4010E94D81C882321F08E829F82BB
:10173000A886B9868E809F80A884B984FC8820E022
:1017400030E040E251E4C501B4010E94D81C87FF9B
:1017500041C08FEF8F0D8D8BF11001C01D8A6B89F9
:101760008A890E94EC074E815F81688579852D8981
:101770008EE995E00E94880A0990D881C02DF80171
:10178000818592858C179D0709F69F896B898A89C7
:10179000890F248121112CC081500E94EC07809177
:1017A000AE058D7F8093AE0588600E94E60780912C
:1017B000AE05982F91609093AE058960DF91CF912F
:1017C0001F910F91FF90EF90BF90AF909F908F90DF
:1017D0000C94E60720E030E048EC52E4C501B40187
:1017E0000E94D81C87FF02C08EEFB4CFED8AB4CF21
:1017F0002C893D89231B330B921713060CF08F5F46
:101800000E94EC078091AE05982F92609093AE05F0
:101810008A600E94E6078091AE058E7F8093AE05B8
:101820008860CCCFCF93DF93EC010E94FE0760E08D
:1018300080E00E94EC076D817E818EE995E00E9438
:10184000B20361E080E00E94EC076F8178858EE949
:1018500095E00E94B203CE01DF91CF910C94760BFC
:101860008091F502811102C00C945A0AE091F302B2
:10187000F091F402868197810C94120CFC01808116
:101880009181009711F00C94942108951F920F926A
:101890000FB60F9211242F933F934F935F936F9343
:1018A0007F938F939F93AF93BF93EF93FF938AE4BC
:1018B00092E00E945404FF91EF91BF91AF919F91EC
:1018C0008F917F916F915F914F913F912F910F90E9
:1018D0000FBE0F901F9018951F920F920FB60F9288
:1018E00011242F938F939F93EF93FF93E0915A02CC
:1018F000F0915B028081E0916002F091610282FDD3
:101900001BC09081809163028F5F8F73209164026E
:10191000821741F0E0916302F0E0E65BFD4F958FA6
:1019200080936302FF91EF919F918F912F910F9080
:101930000FBE0F901F9018958081F4CF1F920F92C9
:101940000FB60F9211242F933F938F939F93AF93D2
:10195000BF938091C9019091CA01A091CB01B09130
:10196000CC013091C80123E0230F2D3758F50196A3
:10197000A11DB11D2093C8018093C9019093CA0194
:10198000A093CB01B093CC018091CD019091CE0179
:10199000A091CF01B091D0010196A11DB11D8093FE
:1019A000CD019093CE01A093CF01B093D001BF9110
:1019B000AF919F918F913F912F910F900FBE0F90FC
:1019C0001F90189526E8230F0296A11DB11DD2CFB6
:1019D0001F920F920FB60F9211242F933F934F93A4
:1019E0005F936F937F938F939F93AF93BF93EF9387
:1019F000FF938091B900887F803609F44AC0F0F5E2
:101A0000883209F4A7C018F5803109F49BC0B8F4F6
:101A1000882309F4F9C0883009F494C0FF91EF914C
:101A2000BF91AF919F918F917F916F915F914F91F6
:101A30003F912F910F900FBE0F901F9018958831F6
:101A400009F488C0803251F78093230214C0803497
:101A500009F49DC040F48033B9F38833F9F68093DC
:101A6000230285ECB0C0803509F485C0883509F4BF
:101A700096C0883499F60E940206D0CF883909F4BE
:101A80008CC038F5883729F050F4883611F080374B
:101A900029F683E0809325021092C70157C0883849
:101AA00009F47BC0803919F0803809F0B7CF8091F4
:101AB000C701803208F071C0E091C70181E08E0F4C
:101AC0008093C7018091BB00F0E0E955FE4F808311
:101AD0003DC0803B39F0E0F4803A09F479C0883A9F
:101AE00009F09CCF84E0809325021092A601109209
:101AF000A501E091D301F091D40109958091A50150
:101B000081110FC081E08093A5011092850109C069
:101B1000803C09F4A6CF883C09F4A3CF883B09F0A8
:101B20007DCFE091A60181E08E0F8093A601F0E0C9
:101B3000EB57FE4F80818093BB009091A60180916E
:101B4000A50129C0809100028093BB0085EC8093A1
:101B5000BC0064CF9091220280912102981758F521
:101B6000E091220281E08E0F80932202F0E0EF5F8D
:101B7000FD4F8081E9CFE091220281E08E0F8093BA
:101B800022028091BB00F0E0EF5FFD4F80839091D7
:101B90002202809121029817C8F285E8D8CFE091FF
:101BA000220281E08E0F809322028091BB00F0E040
:101BB000EF5FFD4F80838091240281115CCF81E033
:101BC0008093FF0184EA8093BC001092250226CF07
:101BD00085EC8093BC00109225028091C701803271
:101BE00030F4E091C701F0E0E955FE4F10826091BA
:101BF000C70170E0E091D101F091D20187EA91E054
:101C000009951092C7010ACF1092230234CF4F9248
:101C10005F926F927F928F929F92AF92BF92CF927C
:101C2000DF92EF92FF920F93CF93DF93CDB7DEB7A2
:101C30003C012B01FC01178A75836483428B238B43
:101C4000048B158AC286D386E486F58686869786B7
:101C5000A08AB18A81E0868BA7019601FB01608191
:101C60007181828193810E94D81C87FF05C0F30196
:101C7000C682D782E086F186A5019401F2016081D7
:101C80007181828193810E94411F18162CF4F30107
:101C900086829782A086B186F20180819181A2819D
:101CA000B381F30186839783A087B187DF91CF91BA
:101CB0000F91FF90EF90DF90CF90BF90AF909F90EB
:101CC0008F907F906F905F904F9008950F931F9328
:101CD000CF93DF93EC0188819981009759F02A8195
:101CE0003B812617370730F081E0DF91CF911F91BC
:101CF0000F9108958B016F5F7F4F0E941D22009707
:101D000059F0998388831B830A832C813D81232B7F
:101D100059F7FC011082E8CF80E0E7CFEF92FF9205
:101D20000F931F93CF93DF93EC01FB01E080F180D1
:101D3000E114F10411F10481158101151105A9F0D7
:101D40008C819D81080F191FB801CE010E94660E7B
:101D5000882399F0288139818C819D81B701820F78
:101D6000931F0E94E3221D830C83CE01DF91CF914C
:101D70001F910F91FF90EF900895888199810097AE
:101D800011F00E949421198218821D821C821B82EC
:101D90001A82EBCFEF92FF920F931F93CF93DF93B3
:101DA000EC017B018A01BA010E94660E288139810B
:101DB000811114C02115310519F0C9010E94942127
:101DC000198218821D821C821B821A82CE01DF9129
:101DD000CF911F910F91FF90EF9008951D830C8379
:101DE000B701C9010E94E322F1CF2F923F924F9297
:101DF0005F926F927F928F929F92AF92BF92CF929B
:101E0000DF92EF92FF920F931F93CF93DF93CDB7A3
:101E1000DEB768970FB6F894DEBF0FBECDBF109245
:101E20004D0210924C0288EE93E0A0E0B0E0809367
:101E30004E0290934F02A0935002B093510222E3BE
:101E400031E030934B0220934A0225EC30E030938E
:101E500057022093560224EC30E03093590220932D
:101E6000580220EC30E030935B0220935A0221ECC0
:101E700030E030935D0220935C0222EC30E030933E
:101E80005F0220935E0226EC30E0309361022093E3
:101E90006002109263021092640210926502109226
:101EA00066021092EA021092E9028093EB0290938C
:101EB000EC02A093ED02B093EE0284E491E09093E3
:101EC000E8028093E70281E08093B60582E090E02B
:101ED0009093CB058093CA0588EC90E09093CD0554
:101EE0008093CC051092CE051092CF051092D005AC
:101EF00084E690E09093D6058093D5051092D7059F
:101F00001092D8051092D9051092DA051092DB05CF
:101F10001092DC058CE08093B7058DE08093B805C6
:101F20008BE08093B9050E94F6056093BA05709323
:101F3000BB058093BC059093BD056093BE0570936F
:101F4000BF058093C0059093C1056093C20570934F
:101F5000C3058093C4059093C5056093D105709324
:101F6000D2058093D3059093D4058091B605813036
:101F700009F0FEC362E08091B7050E94630562E04C
:101F80008091B8050E94630562E08091B9050E94C6
:101F900063051092A1051092A00586E591E090934B
:101FA0009F0580939E0528E02093A2058FEF8093E4
:101FB000A30587E08093A40586E08093A50585E0CE
:101FC0008093A60514E01093A70583E0682E609225
:101FD000A8051092A9051092AA051092AB051092BF
:101FE000AC051092AD0581E00E940608109296059E
:101FF00010929D05109293051092940589E795E043
:1020000090938205809381059AE0392E30928F0556
:10201000109290058091790590917A05A0917B05A9
:10202000B0917C058093830590938405A0938505EA
:10203000B093860510939105109292051092770542
:10204000109278052DE5422E25E0522E509266051D
:102050004092650532E0232E20927305109274059C
:1020600080915D0590915E05A0915F05B09160053E
:102070008093670590936805A0936905B0936A05FE
:10208000109375051092760510925B0510925C0511
:1020900081E495E090934A05809349052092570585
:1020A0007724739470925805809141059091420570
:1020B000A0914305B091440580934B0590934C0546
:1020C000A0934D05B0934E051093590510925A05F3
:1020D000812C912C40EBA42E40E4B42EC12CD12CA9
:1020E000760104E020E045E064E271E089E295E0F9
:1020F0000E94070E812C912C5AEFA52E53E4B52E89
:1021000020E045E060E271E081E195E00E94070E89
:10211000812C912C6AE7A62E64E4B62E7DECC72EA6
:102120007CECD72E7CE4E72E7EE3F72E20E045E022
:102130006CE171E089EF94E00E94070E1092F704C1
:102140001092F80488E191E09093E6048093E5040E
:102150008EE08093F3041092F40480911801909122
:102160001901A0911A01B0911B018093E70490938B
:10217000E804A093E904B093EA041092F5041092E5
:10218000F6041092DF041092E00484E191E0909351
:10219000CE048093CD04E5E0E093DB041092DC04F0
:1021A0008091140190911501A0911601B091170131
:1021B0008093CF049093D004A093D104B093D20421
:1021C0006092DD041092DE041092C7041092C804DD
:1021D0002DEA34E03093B6042093B5042092C30472
:1021E0007092C4044091AD045091AE046091AF046C
:1021F0007091B0044093B7045093B8046093B9044D
:102200007093BA041093C5041092C6041092AB04E4
:102210001092AC0481E994E090939A04809399041D
:102220003092A7047092A804809191049091920436
:10223000A0919304B091940480939B0490939C0488
:10224000A0939D04B0939E041093A9041092AA0435
:1022500010928F041092900485E794E090937E048E
:1022600080937D0430928B0470928C04809175046D
:1022700090917604A0917704B091780480937F04C4
:1022800090938004A0938104B093820410938D04F2
:1022900010928E04109273041092740489E594E0F5
:1022A000909362048093610460926F0410927004B2
:1022B0008091590490915A04A0915B04B0915C0400
:1022C0008093630490936404A0936504B0936604C0
:1022D0006092710410927204109257041092580484
:1022E0008DE394E090934604809345048CE08093C2
:1022F000530410925404C0903D04D0903E04E090EA
:102300003F04F0904004C0924704D0924804E09209
:102310004904F0924A041092550410925604109207
:102320003B0410923C0430932A04209329046092C9
:1023300037047092380440932B0450932C0460931C
:102340002D0470932E046092390410923A04109276
:10235000230410922404509212044092110480939A
:102360001F047092200480915D0590915E05A091FC
:102370005F05B09160058093130490931404A093BB
:102380001504B09316046092210410922204812C4B
:10239000912CE0E2AE2EE1E4BE2EFDECCF2EFCEC63
:1023A000DF2EFCE4EF2EFDE3FF2E02E021E045E00E
:1023B00060E171E085EF93E00E94070E812C912C83
:1023C000A8E4AA2EA2E4BA2EC12CD12CB0EAEB2E9E
:1023D000B1E4FB2E21E04EE06CE071E08DED93E086
:1023E0000E94070EC12CD12C760103E020E04BE0C7
:1023F00068E071E085EC93E00E94070E812C912C3F
:1024000080EBA82E80E4B82E20E042E064E071E08A
:102410008DEA93E00E94070E1092AB031092AC037A
:1024200081E993E090939A0380939903F8E0F09305
:10243000A7037092A8038091910390919203A091B9
:102440009303B091940380939B0390939C03A09378
:102450009D03B0939E031093A9031092AA031092B8
:102460008F031092900385E793E090937E0380930F
:102470007D0310928B0370928C0380917503909171
:102480007603A0917703B091780380937F039093B4
:102490008003A0938103B093820310938D03109265
:1024A0008E031C8A1B8A1E8A1D8A188E1F8A45E08D
:1024B00050E06FE671E0CE0143960E94CA0E1E8680
:1024C0001D86188A1F861A8A198A84EF89831A82C0
:1024D0008E010F5F1F4FF80101900020E9F731973F
:1024E000AF01401B510BB801CE010D960E94CA0EE0
:1024F0001A8219821C821B821E821D824AE050E0D1
:1025000065E771E0C8010E94CA0E18861F821A860C
:1025100019861C861B8669817A816115710531F0E7
:102520004D815E81CE0107960E94CA0EBE01635F97
:102530007F4FCE0107960E948E0EBE016D5E7F4FCB
:102540000E948E0E1092700310926F03109272030D
:1025500010927103109274031092730323E08F366C
:10256000920761F0FC01608171816115710531F0A4
:10257000448155818FE693E00E94CA0ECE010796F2
:102580000E943E0CC8010E943E0CCE010D960E9496
:102590003E0CCE0143960E943E0C84E693E01092DE
:1025A000680321E635E030936E0320936D0330938A
:1025B000620520936105309364052093630569E506
:1025C00073E010925D0329E235E0309363032093BA
:1025D000620330932A052093290530932C0520931C
:1025E0002B051092520321E135E0309358032093DC
:1025F000570330931205209311053093140520934F
:1026000013051092470329EF34E030934D032093D4
:102610004C033093FA042093F9043093FC04209384
:10262000FB0410923C032DE534E0309342032093E9
:10263000410330935E0420935D0430936004209343
:102640005F042DE233E01092310349EC54E05093E3
:102650003703409336035093CA044093C904509300
:10266000CC044093CB0442E253E010922603EDEAFF
:10267000F3E0F0932C03E0932B03F093AE03E0938D
:10268000AD03F093B003E093AF0310921F03909358
:102690001E0380931D0390936503809364039093BE
:1026A00067038093660310922003E1E0E093210327
:1026B0008CE093E010921403709313036093120361
:1026C00070935A036093590370935C0360935B03A8
:1026D00010921503109216031092090350930803E9
:1026E0004093070350932303409322035093250301
:1026F0004093240347E040930A0310920B03109287
:10270000FE023093FD022093FC0230932E032093AF
:102710002D033093300320932F034093FF02E09367
:1027200000031092F5029093F4028093F3029093C9
:102730000F0380930E039093110380931003689608
:102740000FB6F894DEBF0FBECDBFDF91CF911F91C2
:102750000F91FF90EF90DF90CF90BF90AF909F9040
:102760008F907F906F905F904F903F902F90089543
:1027700060E08091B7050E94630560E08091B80534
:102780000E94630560E001CC789484B5826084BDCA
:1027900084B5816084BD85B5826085BD85B5816065
:1027A00085BD80916E00816080936E0010928100E3
:1027B000809181008260809381008091810081609E
:1027C000809381008091800081608093800080915F
:1027D000B10084608093B1008091B00081608093EB
:1027E000B00080917A00846080937A0080917A00B2
:1027F000826080937A0080917A00816080937A0071
:1028000080917A00806880937A001092C100E091F4
:102810005A02F0915B0282E08083E0915602F091CF
:1028200057021082E0915802F091590280E18083B2
:1028300010926202E0915E02F0915F0286E0808376
:10284000E0915C02F0915D02808180618083E09183
:102850005C02F0915D02808188608083E0915C027F
:10286000F0915D02808180688083E0915C02F0914C
:102870005D0280818F7D80831092DE011092DD01E8
:1028800010922702109249021092250281E0809353
:1028900024021092FF0161E082E10E94350561E0AF
:1028A00083E10E9435058091B9008E7F8093B90045
:1028B0008091B9008D7F8093B90088E48093B8003F
:1028C00085E48093BC0080EB93E09093D4018093E7
:1028D000D30181EB93E09093D2018093D10101E089
:1028E00026E030E040E050E060E08FE60E94910991
:1028F000882321F080E791E00E94BC0861E080E13C
:102900000E94630561E081E10E94630561E082E06D
:102910000E94630560E082E00E94350560E080E18E
:102920000E94350560E081E10E9435051092950511
:1029300010929705109298051092990510929A0599
:1029400010929C0510929B0502E021E030E040E0EF
:1029500050E060E481E60E94910920E031E040E02F
:1029600050E060E581E60E94910921E030E040E01E
:1029700050E068E481E60E94910960E08CE00E94EA
:10298000630560E08DE00E94630560E08BE00E94DB
:10299000630560E08EE00E94630560E08FE00E94C6
:1029A000630561E089E00E94630561E08AE00E94BE
:1029B000630560E089E00E94350560E08AE00E94DE
:1029C000350582E00E94060867EB72E08EE995E02B
:1029D0000E94B20361E080E00E94EC0769EA72E0C5
:1029E0008EE995E00E94B20360E871E08EE995E01F
:1029F0000E94AD088EE792E090936A03809369038A
:102A00008DE692E090936C0380936B038CE592E0EB
:102A100090935F0380935E038BE492E09093610355
:102A200080936003EEE48E2EE3E09E2E8AE392E034
:102A3000909354038093530389E292E0909356035A
:102A400080935503F3E4AF2EF3E0BF2E88E192E0CC
:102A5000909349038093480387E092E090934B035F
:102A600080934A03A8E3CA2EA3E0DA2E86EF91E012
:102A700090933E0380933D0385EE91E09093400355
:102A800080933F0384ED91E090933303809332036E
:102A900083EC91E0909335038093340382EB91E0D3
:102AA000909328038093270381EA91E090932A036F
:102AB0008093290307E113E08BE991E090931803D9
:102AC0008093170386E991E090930D0380930C03A4
:102AD000C1E0D3E08EE891E090930203809301037C
:102AE000B6EFEB2EB2E0FB2E85E891E09093F70273
:102AF0008093F6026DE775E084E693E00E94B606E7
:102B000065E475E084E693E00E94B60661EE74E049
:102B100089E593E00E94B60661EB74E089E593E0F5
:102B20000E94B60665E974E089E593E00E94B60666
:102B300061EE74E0C4010E94B60661EB74E0C4016A
:102B40000E94B60669E774E0C4010E94B60661EE11
:102B500074E0C5010E94B60661EB74E0C5010E94F5
:102B6000B60669E774E0C5010E94B60661E474E048
:102B7000C6010E94B60665E274E0C6010E94B60670
:102B80006DE074E0C6010E94B60665EF73E08DE269
:102B900093E00E94B6066DED73E08DE293E00E9433
:102BA000B60665EC73E082E293E00E94B60669E740
:102BB00073E082E293E00E94B60665E973E082E288
:102BC00093E00E94B606E0911203F0911303A081F6
:102BD000B18191828082F0935103E0935003B093CE
:102BE0004F03A0934E0313969C928E921297A0814E
:102BF000B181B182A082F0934603E0934503B09384
:102C00004403A09343031396BC92AE921297A08103
:102C1000B181D182C082F0933B03E0933A03B09339
:102C20003903A09338031396DC92CE921297E09169
:102C3000F302F091F402A281B381F382E282F09375
:102C4000FB02E093FA02B093F902A093F802159602
:102C5000FC92EE921497A281B38113830283F093C6
:102C60001C03E0931B03B0931A03A093190315965A
:102C70001C930E931497A281B381D383C283F093E4
:102C80000603E0930503B0930403A0930303159692
:102C9000DC93CE9314978FE892E00E94BC0864EF17
:102CA00071E080E090E00E94C4050E94300C0E9418
:102CB000F6056093D9017093DA018093DB0190935C
:102CC000DC010E94F6056093D5017093D6018093D4
:102CD000D7019093D801FF24F394EE24E394C3E04A
:102CE0002C2E312CCC24C394D12C8FE00E940C05C7
:102CF000209100012817190681F02F25209300014B
:102D000021110BC080919505882309F43FC30E94CF
:102D1000F40987EC92E00E94BC088EE00E940C054A
:102D20002091010128171906C1F12F2520930101D7
:102D3000211133C08091F502882309F493C3E091F7
:102D4000F302F091F4028085882309F48BC38EE3AB
:102D500093E00E94BC08C091F302D091F402EE818E
:102D6000FF818481811101C0188680E393E00E9475
:102D7000BC080E80DF81C02D8C81882309F46DC3CF
:102D80001C8287ED92E00E94BC08E985FA85178ACB
:102D9000CE010E94120C0E94300C0E94F605AB017D
:102DA000BC014093BA055093BB056093BC0570937A
:102DB000BD052091CA053091CB058091BE0590914B
:102DC000BF05A091C005B091C105820F931FA11D41
:102DD000B11D481759076A077B0708F472C0809134
:102DE000B7050E940C053091B60521E03817190689
:102DF00009F020E02093D8058091B8050E940C05C9
:102E00002091B60530E041E08217930709F040E0D9
:102E10004093D905E091D8054091BA055091BB0582
:102E20006091BC057091BD05E1112AC3F091DB05ED
:102E3000FF2309F425C38217930709F01CC381E01F
:102E40002091D5053091D6054090D1055090D205FE
:102E50006090D3057090D405420E531E611C711C06
:102E6000441555056605770508F007C38091D70519
:102E70004093D1055093D2056093D3057093D40548
:102E8000E093DB054093BE055093BF056093C005FA
:102E90007093C105813009F05EC38091F502811104
:102EA000F1C2E091F302F091F40282819381909358
:102EB000F4028093F30286EE93E00E94BC080E9425
:102EC000300C0E94F6056093BA057093BB058093A1
:102ED000BC059093BD058091B9050E940C05209119
:102EE000B60530E061E08217930709F060E0609377
:102EF000DA054090BA055090BB056090BC05709013
:102F0000BD054091CC055091CD058090C2059090B3
:102F1000C305A090C405B090C505840E951EA11CE4
:102F2000B11C481459046A047B04D8F18217930732
:102F300009F48FC38091DC05882309F48AC31092B9
:102F4000CE054092C6055092C7056092C8057092A2
:102F5000C90581E06093DC054092C2055092C3052B
:102F60006092C4057092C5058823D9F08091F5025E
:102F7000882309F47FC385E195E00E94BC08E091B5
:102F8000F302F091F402F086C681D7818C81811121
:102F900062C38BEE94E00E94BC08FC82CE010E94CA
:102FA000120C6091D9017091DA018091DB0190914E
:102FB000DC010E94DD1C20E030E046E153E40E9489
:102FC000341E2B013C010E94F6050E94DD1C9B0172
:102FD000AC01C301B2010E94D81C87FFA4C361E009
:102FE00089E00E94350561E082E30E94CC06672BF0
:102FF00009F449C363E085E00E94CC060E94DF1C0F
:1030000025E831EB45E058E30E943E1D6093410501
:1030100070934205809343059093440562E084E1F8
:103020000E94CC064B015C0164E0B594A794979490
:1030300087946A95D1F7C501B4010E94DF1C2FEA7D
:1030400035E04AE45AE30E943E1D6093790570938F
:103050007A0580937B0590937C0562E08EE10E9467
:10306000CC062B013C0174E0759467945794479407
:103070007A95D1F7C301B2010E94DF1C20E635EE3C
:1030800040ED5CE30E943E1D60935D0570935E051C
:1030900080935F0590936005FFEF8F16FFE09F061A
:1030A000A104B1043CF42FEF42162FE05206610454
:1030B000710424F089E695E00E94BC0863E087E390
:1030C0000E94CC060E94DF1C25E831EB45E058E366
:1030D0000E943E1D60939104709392048093930428
:1030E0009093940462E086E40E94CC064B015C015C
:1030F00044E0B594A794979487944A95D1F7C50175
:10310000B4010E94DF1C22EB34ED46E95AE30E9431
:103110003E1D6093750470937604809377049093BA
:10312000780462E080E50E94CC062B013C0154E06B
:1031300075946794579447945A95D1F7C301B20197
:103140000E94DF1C20E635EE40ED5CE30E943E1D50
:103150006093AD047093AE048093AF049093B00479
:103160008FEF88168FE09806A104B1043CF49FEF1E
:1031700049169FE059066104710424F085E895E042
:103180000E94BC08409018015090190160901A01EB
:1031900070901B010E94CF084B015C0120E030E0E1
:1031A00040E252E4C301B2010E94411F87FD0AC000
:1031B00080919505882331F088ED95E00E94BC0848
:1031C000E0929605809195058823E1F080919D0518
:1031D000811118C020910C0130910D0140910E0118
:1031E00050910F01C301B2010E94411F87FD0AC027
:1031F00061E082E00E943505E0929D058FEC95E04C
:103200000E94BC0880919D05882301F120E030E0F8
:1032100040E050E460910C0170910D0180910E012D
:1032200090910F010E94331E9B01AC01C301B201BA
:103230000E94D81C87FF0AC060E082E00E9435052A
:1032400010929D0585EC95E00E94BC088091950543
:103250008823E1F080919605811118C0809297052E
:1032600090929805A0929905B0929A0520E030E8D6
:1032700046E354E4C501B4010E943E1D0E94121FA2
:1032800070939C0560939B050E94D20980919605DE
:10329000882351F080919505882331F082EA95E0EA
:1032A0000E94BC080E94F4096091960580E10E948A
:1032B00035058091020190910301039709F04BC0FD
:1032C00080919505882309F446C02091080130912A
:1032D000090140910A0150910B016091AD04709178
:1032E000AE048091AF049091B0040E94D81C87FF77
:1032F000CFC10E94F409D0920301C092020166EF8F
:1033000075E08AE492E00E94B203409191035091EB
:103310009203609193037091940322E08AE492E017
:103320000E94880A6CEE75E08AE492E00E94B20383
:103330004091750350917603609177037091780303
:1033400023E08AE492E00E94880A6EE571E08AE454
:1033500092E00E94AD0860E089E00E9435050E947D
:10336000F6056093D9017093DA018093DB019093A5
:10337000DC01E0E0F0E0EF2B09F4B7CC0E94400460
:10338000882309F4B2CC0E940000AFCC8091F502F2
:10339000882371F0E091F302F091F4028681978125
:1033A00023E08935920769F5D0920301C0920201AA
:1033B0000E94CF08E09295051092960560939705BC
:1033C000709398058093990590939A0520E030E8D2
:1033D00046E354E40E943E1D0E94121F70939C0518
:1033E00060939B050E94D20902E020E030E0A90131
:1033F00068E481E60E94910961E081E10E9435055F
:103400008CCC23E08E34920729F4109203011092A1
:103410000201CECF8354934039F482E090E0909340
:10342000030180930201C4CFE150F34009F0C0CF03
:1034300030920301209202011092910310929203A4
:1034400010929303109294031092750310927603D6
:103450001092770310927803ABCF82E093E00E9442
:10346000BC0899CC8CE593E00E94BC081092F50250
:103470000E945A0A92CC82E0E3CC8093D705F8CC24
:1034800080E0FECC8FEF93E00E94BC08E091F30255
:10349000F091F4028085C681D781811107C08881AF
:1034A0009981978386830E94120C0BCD8C818111A8
:1034B00014C086EB93E00E94BC08E985FA85019070
:1034C000F081E02D86898823D1F3FA87E9878EE899
:1034D00093E00E94BC08CE01E6CF8BE793E00E9408
:1034E000BC0809851A85F801A480B580648985899E
:1034F000681B770B615071098789681B7109072E5A
:10350000000C880B990B0E94DF1C9B01AC0160E052
:1035100070E080E291E40E94961FF50120813181E4
:10352000428153810E94341EF5016083718382833E
:103530009383F8014684578460887188A3019201BF
:103540000E94411F18160CF079C0F501408251828B
:103550006282738273C0823009F0B3CC8091F5022D
:1035600081110FC08BE894E00E94BC08E091F30247
:10357000F091F402848195819093F4028093F30298
:103580009ECC84EA94E00E94BC08E091F302F091A2
:10359000F4028085C681D781811103C08A819B8115
:1035A00080CF8C81811111C087E594E00E94BC0816
:1035B000E985FA850280F381E02D86898823D1F39D
:1035C000FA87E9878BE294E084CF86E194E00E9459
:1035D000BC0809851A85F801A480B58064898589AD
:1035E000681B770B615071098789681B7109072E69
:1035F000000C880B990B0E94DF1C9B01AC0160E062
:1036000070E080E291E40E94961F9B01AC01F501FD
:1036100060817181828193810E94331EF5016083F4
:10362000718382839383F801428453846484758414
:10363000A30192010E94D81C87FD87CFF5018081EC
:103640009181A281B381F80186839783A087B18796
:1036500042CF80E07FCC8BEB94E00E94BC08E985F0
:10366000FA8587898F5F878B9489891708F496CCB0
:10367000178A94CC8AE495E00E94BC08E092F50297
:103680000E94300C8ECC8AE196E00E94BC0811CEDC
:1036900020E030E04AE754E46091750470917604CC
:1036A00080917704909178040E943E1D2EE333ECC4
:1036B0004EE258E30E943E1D9B01AC0160919103D4
:1036C0007091920380919303909194030E94341E11
:1036D0006093910370939203809393039093940368
:1036E0002EE333EC4EE258E3609191047091920422
:1036F00080919304909194040E943E1D9B01AC0123
:1037000060917503709176038091770390917803AF
:103710000E94341E60937503709376038093770341
:103720009093780318CE6091D5017091D601809165
:10373000D7019091D8010E94DD1C2B013C0120E0B3
:1037400030E04AE754E460911001709111018091DA
:103750001201909113010E943E1D9B01AC01C30117
:10376000B2010E94341E2B013C010E94F6050E940A
:10377000DD1C9B01AC01C301B2010E94D81C87FF74
:10378000F8CD61E08AE00E94350561E082E30E94A5
:10379000CC06672BD1F362E08AE50E94CC0624E0D8
:1037A00095958795779567952A95D1F70E94DF1CA7
:1037B00026E933E44BE85BE30E943E1D609314016D
:1037C00070931501809316019093170162E088E2CF
:1037D0000E94CC0634E095958795779567953A9544
:1037E000D1F70E94DF1C2FE632E143E050E40E9453
:1037F0003E1D20E030E040E859E30E943E1D2B01D1
:103800003C0120E030E044E052E40E943E1D4B01C8
:103810005C01A301920160E070E080EA90E40E9404
:10382000331E9B01AC01C501B4010E94A01E20E023
:1038300030E040E251E40E94A01E0E944E1F21EFA2
:103840003BEB46E859E30E943E1D2DE03FEC4BE583
:103850005BE30E94341E9B01AC0160E070E080E8F5
:103860009FE30E94A01E23E333E948E853E40E944B
:10387000331E609318017093190180931A0190937D
:103880001B018090410590904205A0904305B090A7
:10389000440520E030E0A901C501B4010E94411FA8
:1038A0001816D4F4A50194016091910470919204CA
:1038B00080919304909194040E94A01E20E030E037
:1038C00048EC52E40E943E1D60933D0470933E0418
:1038D00080933F049093400440903D0450903E04F8
:1038E00060903F047090400420E030E0A901C301E3
:1038F000B2010E94D81C87FD53C020E030E046ECA6
:1039000052E4C301B2010E94411F181634F4412C45
:10391000512C86EC682E82E4782E40923D04509221
:103920003E0460923F0470924004209191043091D3
:1039300092044091930450919404C501B4010E94F3
:10394000331E2B013C0120E030E0A9010E94D81C6D
:1039500087FF03C0412C512C3201409259045092F0
:103960005A0460925B0470925C048091F502882393
:1039700041F0E091F302F091F402868197810E9478
:10398000760B60E08AE00E9435050E94F6056093A0
:10399000D5017093D6018093D7019093D801E9CCDB
:1039A000412C512C3201B9CF8FE693E00C943E0CA0
:1039B0000E941A1D08F481E00895E89409C097FB5D
:1039C0003EF490958095709561957F4F8F4F9F4FF6
:1039D0009923A9F0F92F96E9BB279395F69587953A
:1039E00077956795B795F111F8CFFAF4BB0F11F4FD
:1039F00060FF1BC06F5F7F4F8F4F9F4F16C08823A4
:103A000011F096E911C0772321F09EE8872F762FD9
:103A100005C0662371F096E8862F70E060E02AF01A
:103A20009A95660F771F881FDAF7880F9695879506
:103A300097F90895990F0008550FAA0BE0E8FEEFDB
:103A400016161706E807F907C0F012161306E40762
:103A5000F50798F0621B730B840B950B39F40A265B
:103A600061F0232B242B252B21F408950A2609F439
:103A7000A140A6958FEF811D811D08950E94511DC3
:103A80000C94C21D0E94B41D38F00E94BB1D20F092
:103A9000952311F00C94AB1D0C94B11D11240C94C2
:103AA000F61D0E94D31D70F3959FC1F3950F50E052
:103AB000551F629FF001729FBB27F00DB11D639FE0
:103AC000AA27F00DB11DAA1F649F6627B00DA11D86
:103AD000661F829F2227B00DA11D621F739FB00D2C
:103AE000A11D621F839FA00D611D221F749F33279C
:103AF000A00D611D231F849F600D211D822F762F35
:103B00006A2F11249F5750409AF0F1F088234AF011
:103B1000EE0FFF1FBB1F661F771F881F915050407D
:103B2000A9F79E3F510580F00C94AB1D0C94F61D37
:103B30005F3FE4F3983ED4F3869577956795B79504
:103B4000F795E7959F5FC1F7FE2B880F911D96951E
:103B5000879597F9089597F99F6780E870E060E08E
:103B600008959FEF80EC089500240A941616170616
:103B700018060906089500240A941216130614065E
:103B800005060895092E0394000C11F4882352F0C1
:103B9000BB0F40F4BF2B11F460FF04C06F5F7F4F79
:103BA0008F4F9F4F089557FD9058440F551F59F060
:103BB0005F3F71F04795880F97FB991F61F09F3F1A
:103BC00079F087950895121613061406551FF2CF43
:103BD0004695F1DF08C0161617061806991FF1CF93
:103BE00086957105610508940895E894BB276627BA
:103BF0007727CB0197F908952F923F924F925F92CA
:103C00006F927F928F929F92AF92BF92CF92DF92EC
:103C1000EF92FF920F931F93CF93DF93CDB7DEB751
:103C2000CA1BDB0B0FB6F894DEBF0FBECDBF0994E5
:103C30002A88398848885F846E847D848C849B843C
:103C4000AA84B984C884DF80EE80FD800C811B814A
:103C5000AA81B981CE0FD11D0FB6F894DEBF0FBE79
:103C6000CDBFED0108955058BB27AA270E944B1ED7
:103C70000C94C21D0E94B41D38F00E94BB1D20F0A0
:103C800039F49F3F19F426F40C94B11D0EF4E0951D
:103C9000E7FB0C94AB1DE92F0E94D31D58F3BA1714
:103CA000620773078407950720F079F4A6F50C9452
:103CB000F51D0EF4E0950B2EBA2FA02D0B01B901C6
:103CC00090010C01CA01A0011124FF27591B99F092
:103CD000593F50F4503E68F11A16F040A22F232F9E
:103CE000342F4427585FF3CF469537952795A795EE
:103CF000F0405395C9F77EF41F16BA0B620B730B95
:103D0000840BBAF09150A1F0FF0FBB1F661F771F05
:103D1000881FC2F70EC0BA0F621F731F841F48F4BA
:103D2000879577956795B795F7959E3F08F0B0CF43
:103D30009395880F08F09927EE0F9795879508952A
:103D40000E94B41E0C94C21D0E94BB1D58F00E941C
:103D5000B41D40F029F45F3F29F00C94AB1D5111C4
:103D60000C94F61D0C94B11D0E94D31D68F3992389
:103D7000B1F3552391F3951B550BBB27AA27621767
:103D80007307840738F09F5F5F4F220F331F441F74
:103D9000AA1FA9F335D00E2E3AF0E0E832D09150A8
:103DA0005040E695001CCAF72BD0FE2F29D0660F95
:103DB000771F881FBB1F261737074807AB07B0E8D8
:103DC00009F0BB0B802DBF01FF2793585F4F3AF0DE
:103DD0009E3F510578F00C94AB1D0C94F61D5F3F8F
:103DE000E4F3983ED4F3869577956795B795F79564
:103DF0009F5FC9F7880F911D9695879597F908954C
:103E0000E1E0660F771F881FBB1F621773078407E7
:103E1000BA0720F0621B730B840BBA0BEE1F88F7F6
:103E2000E09508950E94DB1D88F09F5798F0B92F08
:103E30009927B751B0F0E1F0660F771F881F991FDF
:103E40001AF0BA95C9F714C0B13091F00E94F51D6F
:103E5000B1E008950C94F51D672F782F8827B85F7F
:103E600039F0B93FCCF3869577956795B395D9F737
:103E70003EF490958095709561957F4F8F4F9F4F41
:103E800008950E941A1D08F48FEF089516F00C94FF
:103E900025200C94B11D68940C94AB1D0E94DB1D71
:103EA000A8F39923C1F3AEF3DF93CF931F930F933E
:103EB000FF92C92FDD2788232AF02197660F771FED
:103EC000881FDAF720E030E040E85FEB9FE38839B5
:103ED00020F0803E38F021968F770E94341EE8E66D
:103EE000F0E004C00E94341EE5E9F0E00E943320B7
:103EF0008B01BE01EC01FB2E6F5771097595771F81
:103F0000880B990B0E94DF1C28E132E741E35FE355
:103F10000E94511DAF2D9801AE01FF900F911F918E
:103F2000CF91DF910E944B1E0C94C21DFA01EE0F3F
:103F3000FF1F309621053105A1F16115710561F46E
:103F40008038BFE39B0749F168949038810561F0A0
:103F50008038BFEF9B0741F099234AF5FF3FE10509
:103F60003105210519F1E8940894E795D901AA23B0
:103F700029F4AB2FBE2FF85FD0F310C0FF5F70F4B1
:103F8000A695E0F7F73950F019F0FF3A38F49F772B
:103F90009F930DD00F9007FC9058089546F00C9415
:103FA000B11D60E070E080E89FE308954FE79F77E0
:103FB0005F934F933F932F930E944E1F2F913F91FA
:103FC0004F915F910E943E1D0C94F31F0E941A1D99
:103FD000880B990B089529F416F00C94AB1D0C94E2
:103FE000F51D0C94B11D0E94DB1DA8F39638A0F7B7
:103FF00007F80F92E8942BE33AEA48EB5FE70E9458
:10400000541D0F920F920F924DB75EB70F920E9400
:104010009C20E2ECF0E00E9433204F915F91EF9101
:10402000FF91E595EE1FFF1F49F0FE57E06844271A
:10403000EE0F441FFA95E1F74195550B0E9466205B
:104040000F9007FE0C945A2008959F3F31F0915035
:1040500020F4879577956795B795880F911D96956C
:10406000879597F90895DF93CF931F930F93FF924E
:10407000EF92DF927B018C01689406C0DA2EEF018B
:104080000E94511DFE01E894A5912591359145911D
:104090005591A6F3EF010E944B1EFE019701A80166
:1040A000DA9469F7DF90EF90FF900F911F91CF9115
:1040B000DF9108959B01AC0160E070E080E89FE330
:1040C0000C94A01E0C94AB1D0C9425200E94DB1DAB
:1040D000D8F39923C9F3940F511DA3F39150504085
:1040E00094F059F0882332F0660F771F881F9150A3
:1040F0005040C1F79E3F51052CF7880F911D9695B2
:10410000879597F908955F3FACF0983E9CF0BB27E8
:10411000869577956795B79508F4B1609395C1F743
:10412000BB0F58F711F460FFE8CF6F5F7F4F8F4FE1
:104130009F4FE3CF0C94F61DFA01DC01AA0FBB1FC1
:104140009B01AC01BF5728F422273327442750781E
:1041500020C0B75190F4AB2F002446953795279592
:10416000011CA395D2F3002071F0220F331F441FCE
:10417000B395DAF30ED00C94331E61307105A0E8CC
:104180008A07B94630F49B01AC0166277727882758
:104190009078309621F020833183428353830895B1
:1041A000A1E21A2EAA1BBB1BFD010DC0AA1FBB1F3B
:1041B000EE1FFF1FA217B307E407F50720F0A21BAD
:1041C000B30BE40BF50B661F771F881F991F1A941A
:1041D00069F760957095809590959B01AC01BD0144
:1041E000CF010895EE0FFF1F0590F491E02D099483
:1041F0000F931F93CF93DF938230910510F482E0E9
:1042000090E0E091DF05F091E00530E020E0B0E0E3
:10421000A0E0309799F42115310509F44AC0281B14
:10422000390B24303105D8F58A819B8161157105E0
:1042300089F1FB0193838283FE0111C0408151818A
:104240000281138148175907E0F04817590799F47C
:10425000109761F012960C93129713961C93329656
:10426000CF01DF91CF911F910F9108950093DF054A
:104270001093E005F4CF2115310551F04217530793
:1042800038F0A901DB019A01BD01DF01F801C1CFBE
:10429000EF01F9CF9093E0058093DF05CDCFFE01CC
:1042A000E20FF31F819391932250310939832883C0
:1042B000D7CF2091DD053091DE05232B41F42091ED
:1042C0002A0130912B013093DE052093DD052091EA
:1042D0002801309129012115310541F42DB73EB750
:1042E00040912C0150912D01241B350BE091DD05EF
:1042F000F091DE05E217F307A0F42E1B3F0B281701
:10430000390778F0AC014E5F5F4F2417350748F04E
:104310004E0F5F1F5093DE054093DD05819391930F
:104320009FCFF0E0E0E09CCFCF93DF930097E9F0E0
:10433000FC01329713821282A091DF05B091E00553
:10434000ED0130E020E01097A1F420813181820F4F
:10435000931F2091DD053091DE052817390709F0FC
:1043600061C0F093DE05E093DD05DF91CF91089504
:10437000EA01CE17DF07E8F54A815B819E0141150E
:104380005105B1F7E901FB83EA8349915991C40FC3
:10439000D51FEC17FD0761F4808191810296840F8F
:1043A000951FE90199838883828193819B838A8306
:1043B000F0E0E0E012968D919C9113970097B9F58B
:1043C0002D913C911197CD010296820F931F209160
:1043D000DD053091DE052817390739F6309751F59C
:1043E0001092E0051092DF05B093DE05A093DD0585
:1043F000BCCFD383C28340815181840F951FC817DE
:10440000D90761F44E5F5F4F88819981480F591F2A
:10441000518340838A819B81938382832115310557
:1044200009F0B0CFF093E005E093DF059ECFFD01EA
:10443000DC01C0CF13821282D7CFB0E0A0E0E3E26C
:10444000F2E20C94FE1D8C01009751F4CB010E9406
:10445000F8208C01C801CDB7DEB7E0E10C941A1E3C
:10446000FC01E60FF71F9C0122503109E217F30708
:1044700008F49DC0D901CD91DC911197C617D707DB
:1044800098F0C530D10530F3CE0104978617970711
:1044900008F3C61BD70B2297C193D1936D937C93DE
:1044A000CF010E949421D6CF5B01AC1ABD0A4C010A
:1044B0008C0E9D1EA091DF05B091E005512C412C82
:1044C000F12CE12C109731F58091DD059091DE05FE
:1044D0008815990509F05CC04616570608F058C0C3
:1044E0008091280190912901009741F48DB79EB7E2
:1044F00040912C0150912D01841B950BE817F90771
:1045000008F055C0F093DE05E093DD05F9017183F5
:104510006083A0CF8D919C91119712966C90129709
:1045200013967C901397A815B90559F56C0142E0D4
:10453000C40ED11CCA14DB0420F1AC014A195B097A
:10454000DA011296159780F062827382518340835C
:10455000D9016D937C93E114F10471F0D7011396A6
:10456000FC93EE93129776CF22968C0F9D1FF90144
:1045700091838083F301EFCFF093E005E093DF05B3
:1045800069CF4816590608F42C017D01D3019ACF52
:10459000CB010E94F8207C01009749F0AE01B801E0
:1045A0000E94DA22C8010E949421870153CF10E0B3
:1045B00000E050CFFB01DC0102C001900D924150A0
:1045C0005040D8F70895FB01DC0101900D920020C6
:1045D000E1F7089513E0C1E2D3E004C0FE010E94B8
:0E45E000F2202196C232D107C9F7F894FFCF1E
:1045EE00010101000000003F0000404000000042B9
:1045FE000000003F000040410000C8410000C842DA
:10460E000000803F0000003F0000E1058000000038
:10461E0000007604D6030304C304340412042604F3
:10462E000000000083065606B3063306A9034306B0
:10463E00340600000000A708D603B306B2060D0A22
:10464E00003E006E616E00696E66006F7666002039
:10465E0054202020004352205220202020202000D1
:04466E00312E3300B6
:107800000C94343C0C94513C0C94513C0C94513CE1
:107810000C94513C0C94513C0C94513C0C94513CB4
:107820000C94513C0C94513C0C94513C0C94513CA4
:107830000C94513C0C94513C0C94513C0C94513C94
:107840000C94513C0C94513C0C94513C0C94513C84
:107850000C94513C0C94513C0C94513C0C94513C74
:107860000C94513C0C94513C11241FBECFEFD8E036
:10787000DEBFCDBF11E0A0E0B1E0ECE9FFE702C060
:1078800005900D92A230B107D9F712E0A2E0B1E065
:1078900001C01D92AD30B107E1F70E942D3D0C945F
:1078A000CC3F0C94003C982F959595959595959582
:1078B000905D8F708A307CF0282F295A8091C0000B
:1078C00085FFFCCF9093C6008091C00085FFFCCF60
:1078D0002093C6000895282F205DF0CF982F809127
:1078E000C00085FFFCCF9093C6000895EF92FF92F1
:1078F0000F931F93EE24FF2487018091C00087FD22
:1079000017C00894E11CF11C011D111D81E4E8164B
:1079100082E4F8068FE0080780E0180770F3E09132
:107920000401F091050109958091C00087FFE9CF1E
:107930008091C6001F910F91FF90EF9008950E94D3
:10794000763C982F8091C00085FFFCCF9093C600B5
:1079500091362CF490330CF09053892F089597555D
:10796000892F08951F930E949F3C182F0E949F3CCF
:107970001295107F810F1F9108951F93182F882350
:1079800021F00E94763C1150E1F71F9108951F935A
:10799000182F0E94763C803249F0809103018F5F5E
:1079A000809303018530C1F01F9108958091C0003C
:1079B00085FFFCCF84E18093C6008091C00085FFE5
:1079C000FCCF1093C6008091C00085FFFCCF80E102
:1079D0008093C6001F910895E0910401F091050184
:1079E00009951F9108950E94763C803241F0809164
:1079F00003018F5F80930301853081F008958091AA
:107A0000C00085FFFCCF84E18093C6008091C00058
:107A100085FFFCCF80E18093C6000895E0910401CA
:107A2000F09105010995089540E951E08823A1F0FE
:107A30002D9A28EE33E0FA013197F1F721503040CA
:107A4000D1F72D9828EE33E0FA013197F1F7215064
:107A50003040D1F7815061F708953F924F925F9285
:107A60006F927F928F929F92AF92BF92CF92DF924E
:107A7000EF92FF920F931F93CF93DF93000080E16B
:107A80008093C4001092C50088E18093C10086E015
:107A90008093C2005098589A259A81E00E94143D24
:107AA00024E1F22E9EE1E92E85E9D82E0FE0C02ECA
:107AB00010E1B12EAA24A394B1E49B2EA6E58A2E50
:107AC000F2E57F2EE0E26E2E79E4572E63E5462E36
:107AD00050E5352E0E94763C8033B1F18133B9F107
:107AE000803409F46FC0813409F476C0823409F41B
:107AF00085C0853409F488C0803531F1823521F1A3
:107B0000813511F1853509F485C0863509F48DC0BC
:107B1000843609F496C0843709F403C1853709F423
:107B200072C1863709F466C0809103018F5F80932C
:107B30000301853079F6E0910401F0910501099582
:107B40000E94763C803351F60E94F33CC3CF0E94E2
:107B5000763C803249F78091C00085FFFCCFF092DF
:107B6000C6008091C00085FFFCCF9092C600809136
:107B7000C00085FFFCCF8092C6008091C00085FFC9
:107B8000FCCF7092C6008091C00085FFFCCF609250
:107B9000C6008091C00085FFFCCF5092C600809146
:107BA000C00085FFFCCF4092C6008091C00085FFD9
:107BB000FCCF3092C6008091C00085FFFCCFB09210
:107BC000C60088CF0E94763C863808F4BDCF0E945C
:107BD000763C0E94F33C7ECF0E94763C803809F4CC
:107BE0009CC0813809F40BC1823809F43CC1883942
:107BF00009F48FC080E00E94C73C6CCF84E10E94F2
:107C0000BD3C0E94F33C66CF85E00E94BD3C0E94D3
:107C1000F33C60CF0E94763C809306010E94763C44
:107C2000809307010E94F33C55CF0E94763C80333D
:107C300009F41DC183E00E94BD3C80E00E94C73C66
:107C400049CF0E94763C809309020E94763C809343
:107C5000080280910C028E7F80930C020E94763C79
:107C6000853409F415C18091080290910902892B8D
:107C700089F000E010E00E94763CF801E85FFE4FDA
:107C800080830F5F1F4F80910802909109020817AF
:107C9000190788F30E94763C803209F045CF809125
:107CA0000C0280FF01C16091060170910701660F0F
:107CB000771F7093070160930601A0910802B091AD
:107CC00009021097C9F0E8E0F1E09B01AD014E0F09
:107CD0005F1FF999FECF32BD21BD819180BDFA9A17
:107CE000F99A2F5F3F4FE417F50799F76A0F7B1F4B
:107CF00070930701609306018091C00085FFFCCF5F
:107D0000F092C6008091C00085FFFCCFB092C60003
:107D1000E1CE83E00E94C73CDDCE82E00E94C73CFA
:107D2000D9CE0E94763C809309020E94763C8093D3
:107D300008028091060190910701880F991F909386
:107D40000701809306010E94763C853409F4A6C0A1
:107D500080910C028E7F80930C020E94763C8032D0
:107D600009F0B8CE8091C00085FFFCCFF092C6002C
:107D7000609108027091090261157105B9F140E046
:107D800050E080910C02A82FA170B82FB27011C0E2
:107D9000BB2309F45CC0E0910601F0910701319624
:107DA000F0930701E09306014F5F5F4F46175707B7
:107DB000E8F4AA2369F3F999FECF209106013091E6
:107DC000070132BD21BDF89A90B58091C00085FFB2
:107DD000FCCF9093C6002F5F3F4F30930701209355
:107DE00006014F5F5F4F4617570718F38091C00099
:107DF00085FDE5CE8091C00085FFF8CFE0CE81E023
:107E00000E94C73C67CE0E94763C803209F08CCE3F
:107E10008091C00085FFFCCFF092C6008091C00029
:107E200085FFFCCFE092C6008091C00085FFFCCFAB
:107E3000D092C6008091C00085FFFCCFC092C600E2
:107E40008091C00085FFFCCFB092C60043CEE09188
:107E50000601F091070194918091C00085FFFCCF4D
:107E60009093C6009CCF80E10E94C73C33CE0E9415
:107E7000763C0E94763C182F0E94763C112309F430
:107E800083C0113009F484C08FE00E94C73C22CE29
:107E900080910C02816080930C02E5CE80910C02EF
:107EA000816080930C0259CF809107018823880F4D
:107EB000880B8A2180930B02809106019091070123
:107EC000880F991F90930701809306018091080203
:107ED00080FF09C080910802909109020196909359
:107EE000090280930802F894F999FECF1127E091D6
:107EF0000601F0910701C8E0D1E08091080290915D
:107F00000902103091F40091570001700130D9F34B
:107F100003E000935700E89500915700017001308D
:107F2000D9F301E100935700E89509901990009169
:107F3000570001700130D9F301E000935700E89534
:107F40001395103498F011270091570001700130FB
:107F5000D9F305E000935700E895009157000170B0
:107F60000130D9F301E100935700E895329602976A
:107F700009F0C7CF103011F00296E5CF112480919F
:107F8000C00085FFB9CEBCCE8EE10E94C73CA2CD19
:0C7F900085E90E94C73C9ECDF894FFCF0D
:027F9C00800063
:040000030000780081
:00000001FF
