:100000000C944D010C9475010C9475010C947501C0
:100010000C9475010C9475010C9475010C94750188
:100020000C9475010C9475010C9475010C94750178
:100030000C9475010C9475010C9475010C94750168
:100040000C94800A0C9475010C944E0A0C94280AA6
:100050000C9475010C9475010C9475010C94750148
:100060000C94CA0A0C94750108000000BE92244941
:10007000123EABAAAA2ABECDCCCC4C3E00000080DA
:10008000BEABAAAAAA3E00000000BF000000803F4D
:100090000000000000084178D3BB4387D1133D190D
:1000A0000E3CC3BD4282AD2B3E68EC8276BED98F3A
:1000B000E1A93E4C80EFFFBE01C4FF7F3F0000007E
:1000C000000007634236B79BD8A71A39685618AEA6
:1000D000BAAB558C1D3CB7CC5763BD6DEDFD753E7D
:1000E000F6177231BF000000803F4572726F7220B8
:1000F000647572696E67207772697465006C6F61F0
:10010000647365742063616C6C6261636B2063610E
:100110006C6C656420210000000000240027002A88
:100120000000000000250028002B00000000002334
:10013000002600290004040404040404040202024A
:100140000202020303030303030102040810204018
:1001500080010204081020010204081020000000A1
:100160000800020100000304070000000000000076
:1001700000456C656374726F6E6963204C6F6164D7
:1001800020537461727465642021004352206D6FA6
:100190006465004350206D6F6465004343206D6FBC
:1001A0006465004C6F6164207475726E6564206FC5
:1001B0006E20696E20004C6F6164207475726E65EC
:1001C00064206F666600496E707574206D6561739A
:1001D0007572656D656E7420736174757261746596
:1001E00064004F7574707574206D65617375726508
:1001F0006D656E7420736174757261746564004618
:1002000061756C742064657465637465642C206C1E
:100210006F6164207368757474696E6720646F77AA
:100220006E005475726E696E672066616E206F662F
:10023000662021005475726E696E672066616E20BB
:100240006F6E20210054656D7020686F7420657892
:10025000636565646564202100504D414351206E03
:100260006F7420726561647920210044616320739A
:10027000617475726174696E6720646F776E202196
:10028000004461632073617475726174696E6720E4
:10029000757020210000E20C7B1B11241FBECFEFE4
:1002A000D8E0DEBFCDBF27E0A2E8B2E001C01D92DA
:1002B000A035B207E1F712E0A0E0B1E0EAE4F3E430
:1002C00002C005900D92A238B107D9F711E0CCE435
:1002D000D1E004C02197FE010E94A01FCB34D107BA
:1002E000C9F70E9447130C9498210C9400000895BC
:1002F000982F2091480381E0213208F043C080917B
:1003000024038111FCCF8091470332E03093240312
:10031000909323039FEF9093220310922103209345
:100320002003A7E2B3E0E0E0F3E090E0291331C05E
:100330001092FF029091FF02880F892B8093FF0299
:100340008091FE02813049F51092FE028091FF02F9
:100350008093BB008091BC0083FDF8CF85EC809337
:10036000BC00809124038230E1F3809122038F3F0F
:10037000B1F0809122038032A1F08091220380337A
:1003800091F084E010922603109248031092250306
:1003900008953D9131939F5FC9CF85EEE0CF80E016
:1003A000F1CF82E0EFCF83E0EDCF8091DC0290913E
:1003B000DD02891B990B089508950895AF92BF92AD
:1003C000CF92DF92EF92FF920F931F93CF93DF9321
:1003D0006C017B018B01040F151FEB015E01AE1850
:1003E000BF08C017D10759F06991D601ED91FC9172
:1003F0000190F081E02DC6010995892B79F7C5019F
:10040000DF91CF911F910F91FF90EF90DF90CF90F0
:10041000BF90AF900895FC01538D448D252F30E09F
:10042000842F90E0821B930B541710F0CF96089501
:1004300001970895FC01918D828D981761F0A28D2E
:10044000AE0FBF2FB11D5D968C91928D9F5F9F73F4
:10045000928F90E008958FEF9FEF0895FC01918DAA
:10046000828D981731F0828DE80FF11D858D90E017
:1004700008958FEF9FEF0895FC01918D228D892FB4
:1004800090E0805C9F4F821B91098F73992708959C
:1004900089E493E00E943C0221E0892B09F420E0EA
:1004A000822F089580E090E0892B29F00E94480275
:1004B00081110C9400000895FC01A48DA80FB92FA0
:1004C000B11DA35ABF4F2C91848D90E001968F737C
:1004D0009927848FA689B7892C93A089B1898C919B
:1004E000837080648C93938D848D981306C00288EA
:1004F000F389E02D80818F7D80830895EF92FF92B4
:100500000F931F93CF93DF93EC0181E0888F9B8D36
:100510008C8D98131AC0E889F989808185FF15C0F0
:100520009FB7F894EE89FF896083E889F989808113
:100530008370806480839FBF81E090E0DF91CF91E2
:100540001F910F91FF90EF900895F62E0B8D10E004
:100550000F5F1F4F0F731127E02E8C8D8E110CC073
:100560000FB607FCFACFE889F989808185FFF5CFBE
:10057000CE010E945C02F1CFEB8DEC0FFD2FF11D3F
:10058000E35AFF4FF0829FB7F8940B8FEA89FB89FB
:1005900080818062CFCF0F931F93CF93DF938C0125
:1005A000D0E0C0E0F801EC0FFD1F6491662341F03C
:1005B00089E493E00E947E02892B11F02196F2CF0C
:1005C000CE01DF91CF911F910F910895CF93DF93CB
:1005D000EC01888D8823B9F0AA89BB89E889F9895B
:1005E0008C9185FD03C0808186FD0DC00FB607FC90
:1005F000F7CF8C9185FFF2CF808185FFEDCFCE01C3
:100600000E945C02E9CFDF91CF910895833081F0A1
:1006100028F4813099F08230A9F008958730A9F04C
:100620008830C9F08430B1F4809180008F7D03C0A0
:10063000809180008F7780938000089584B58F77B4
:1006400084BD089584B58F7DFBCF8091B0008F77F6
:100650008093B00008958091B0008F7DF9CFCF9343
:10066000DF93282F30E0F901E35AFE4F8491F9011E
:10067000E75BFE4FD491F901EB5CFE4FC491CC23B4
:10068000A1F081110E940603EC2FF0E0EE0FFF1F96
:10069000E55DFE4FA591B491EC91ED2381E090E0F2
:1006A00009F480E0DF91CF91089580E090E0FACFE7
:1006B0001F93CF93DF93282F30E0F901E35AFE4FC9
:1006C0008491F901E75BFE4FD491F901EB5CFE4F99
:1006D000C491CC23A9F0162F81110E940603EC2FA0
:1006E000F0E0EE0FFF1FEF5DFE4FA591B4918FB7C5
:1006F000F894EC91111108C0D095DE23DC938FBFE4
:10070000DF91CF911F910895DE2BF8CFCF93DF9328
:1007100090E0FC01E75BFE4F24918B5C9E4FFC0157
:1007200084918823C9F090E0880F991FFC01E95E4D
:10073000FE4FA591B491FC01EF5DFE4FC591D491A0
:1007400061110DC09FB7F8948C91209582238C93F2
:100750008881282328839FBFDF91CF91089562303D
:1007600051F49FB7F8943C91822F809583238C930A
:10077000E8812E2BEFCF8FB7F894EC912E2B2C9392
:100780008FBFEACF3FB7F8948091CA029091CB0215
:10079000A091CC02B091CD0226B5A89B05C02F3FF9
:1007A00019F00196A11DB11D3FBFBA2FA92F982F97
:1007B0008827BC01CD01620F711D811D911D42E092
:1007C000660F771F881F991F4A95D1F708958F925A
:1007D0009F92AF92BF92CF92DF92EF92FF924B0126
:1007E0005C010E94C2036B017C010E94C2036C1970
:1007F0007D098E099F09683E734081059105A8F324
:1008000021E0821A9108A108B10888EEC80E83E0A1
:10081000D81EE11CF11C81149104A104B10429F734
:10082000FF90EF90DF90CF90BF90AF909F908F9010
:1008300008952FB7F8946091C6027091C702809115
:10084000C8029091C9022FBF089585ED8093BC0026
:100850008091BC0084FDFCCF109224030895209168
:10086000A202260F3327331F21323105ECF42091E9
:100870002403FC0190E080E0243069F082E00895D8
:10088000A091A2022191AC014E575D4FA40FB52F4C
:10089000B11D2C930196861798F38091A202680FE0
:1008A0006093A20280E0089581E008950895E091A8
:1008B000DD028091DC02E81730F4F0E0E252FD4FF7
:1008C000808190E008958FEF9FEF08959091DD0271
:1008D0008091DC022FEF3FEF981748F4E92FF0E00A
:1008E000E252FD4F208130E09F5F9093DD02C9010D
:1008F0000895CF92DF92EF92FF920F931F93CF93C1
:10090000DF937C01CB018A0120912503222389F00A
:10091000EB016B01C40ED51ECC15DD0569F06991A4
:10092000D701ED91FC910190F081E02DC70109956F
:10093000F3CF642F0E942F04C801DF91CF911F9144
:100940000F91FF90EF90DF90CF900895CF93DF93BA
:100950001F92CDB7DEB76983209125032223F9F0DA
:1009600020914803203258F021E030E0FC0133832D
:10097000228390E080E00F90DF91CF9108958091E5
:100980002603E82FF0E0E95DFC4F998190838F5FAB
:10099000809326038093480381E090E0ECCF61E0F0
:1009A000CE0101960E942F04F7CF089590E080E0D9
:1009B0000895CF92DF92EF92FF9280910001909183
:1009C00001018130910541F0B0F0029709F44AC06D
:1009D000C12CD12C760108C0C0902401D0902501F3
:1009E000E0902601F0902701C701B601FF90EF903B
:1009F000DF90CF900895C0900106D0900206E0905D
:100A00000306F090040620E030E0A901C701B6011A
:100A10000E94EF1D1816E4F6A701960160912001CF
:100A20007091210180912201909123010E94471D24
:100A30006B017C0120E030E0A9010E947F1B87FD53
:100A4000C7CF20E030E040EB50E4C701B6010E9480
:100A5000EF1D18164CF6C12CD12C80EBE82E80E44B
:100A6000F82EC2CF20912001309121014091220126
:100A70005091230160910106709102068091030656
:100A800090910406D3CF0895CF93DF93FC01C585E1
:100A9000D68545E050E081E090E0258536852C172D
:100AA0003D0719F54150510901F19E01280F391FE9
:100AB00024303105ACF024503109D901AA0FBB1FF5
:100AC000AE0FBF1F0D90BC91A02D109731F0569620
:100AD000AC91AA2311F036872587860F971FDDCFAB
:100AE00037FFEBCF2C5F3F4FE8CFDF91CF910895D9
:100AF000CF92DF92EF92FF920F931F93CF93DF93EA
:100B00008B0191E0909325039FE690934703109209
:100B1000260310924803682F86EE93E00E94A604F5
:100B200080E00E947801809124038111FCCF802F06
:100B300091E090932403909323032FEF20932203BB
:100B400010922103200F209320039093FF02909195
:100B5000FF029E6D9093FF029091FE02913069F525
:100B60001092FE029091FF029093BB009091BC0006
:100B700093FDF8CF95EC9093BC00909124039130B5
:100B8000E1F390912103981710F480912103E0E0A4
:100B9000F3E0AEEDB2E0C0E0C81311C01092DD0288
:100BA000C093DC02D0E0C017D1076CF46AE070E0BB
:100BB00080E090E00E94E703F6CF95EEDCCF9191C4
:100BC0009D93CF5FE9CFC12CD12C7601D0E0C0E05E
:100BD00086EE93E00E946604FE2CED2CDC2CCC24E7
:100BE000C80ED11CE11CF11C21960C171D0781F7C2
:100BF000C701B601DF91CF911F910F91FF90EF9048
:100C0000DF90CF900895CF93DF93EC0160E08E8169
:100C10000E94580361E08E810E94580360E08E813B
:100C20000E9458038BE891E00197F1F7DF91CF9193
:100C30000895CF92DF92EF92FF920F931F93CF937D
:100C4000DF936C017C0187E0E80EF11CD0E0C0E08E
:100C5000062F10E0B8010C2E02C0759567950A9416
:100C6000E2F76170F70181917F010E94580321969C
:100C7000C430D10579F7C601DF91CF911F910F9153
:100C8000FF90EF90DF90CF900C940306CF92DF920D
:100C9000EF92FF920F931F93CF93DF93EC01F62E09
:100CA000642F8C810E9458038D818F3F19F060E082
:100CB0000E9458030F2D10E08F8584FF25C06E0120
:100CC00087E0C80ED11CF12CE12CB8010E2C02C01B
:100CD000759567950A94E2F76170F60181916F014D
:100CE0000E945803FFEFEF1AFF0A88E0E816F104AC
:100CF00061F7CE01DF91CF911F910F91FF90EF909F
:100D0000DF90CF900C940306B80184E07595679549
:100D10008A95E1F7CE010E9419066F2DCE01DF9171
:100D2000CF911F910F91FF90EF90DF90CF900C9497
:100D3000190640E0682F8DE097E00C944606643079
:100D400008F063E090912007691710F06FEF690FCA
:100D5000E62FF0E0E35FF84F9489890F80680C94E8
:100D6000990681E00E9499068BE39FE10197F1F7D4
:100D70000895CF93DF93823029F490911C079860F7
:100D800090931C07809320071092210780E48093A2
:100D9000220780E18093230780E58093240761E0A8
:100DA000809111070E948603809112078F3F19F0EE
:100DB00061E00E94860361E0809113070E94860330
:100DC000CDE0D7E09E012D50374080911C0784FD77
:100DD0000BC084E090E021962817390744F461E0C5
:100DE0008E810E948603EECF88E090E0F4CF8BE303
:100DF0009DE00197F1F760E0809111070E94580390
:100E000060E0809113070E945803809112078F3F82
:100E100019F060E00E94580380911C0784FD34C0E3
:100E200063E08DE097E00E941906CBE4D6E4CE01A2
:100E30000197F1F763E08DE097E00E941906219792
:100E4000F1F763E08DE097E00E94190683E592E0F8
:100E50000197F1F762E08DE097E00E94190680911A
:100E60001C0780620E94990684E080931D078CE035
:100E70000E9499060E94B10682E080931E0786E0D8
:100E8000DF91CF910C94990680620E9499068BE4C1
:100E900096E40197F1F780911C0780620E94990601
:100EA00083E592E00197F1F780911C0780620E9430
:100EB0009906D5CFCF93DF93CDE0D7E088898E7F99
:100EC000888B88600E94990688898D7F888B8860CE
:100ED000DF91CF910C949906FC01262F4789508D04
:100EE00060899685892F840F211114C081500E943A
:100EF0009F0680911D078D7F80931D0788600E944B
:100F0000990680911D07982F916090931D07896025
:100F10000C949906228933890488F589E02D2E1BCB
:100F20003F0B421753070CF08F5F0E949F06809182
:100F30001D07982F926090931D078A600E94990662
:100F400080911D078E7F80931D078860E1CF41E06F
:100F50000E94460681E090E00895FB010190002088
:100F6000E9F73197AF01461B570BDC01ED91FC917E
:100F70000280F381E02D0994CF93DF930E94CB028E
:100F8000EC016EE571E089E493E00E94AD078C0FFF
:100F90009D1FDF91CF9108958DEF90E00C94BC07D9
:100FA000CF92DF92EF92FF920F931F93CF93DF9335
:100FB00069017A0191E09093250380934703109291
:100FC00026031092480386EE93E00E94A604E801EF
:100FD0002197CE0123E0880F991F2A95E1F7A701F9
:100FE000960104C055954795379527958A95D2F770
:100FF000B90186EE93E00E94A604209749F781E0AC
:101000000E947801882381F08AEE90E00E94BC075C
:10101000CFEFDFEFCE01DF91CF911F910F91FF90C6
:10102000EF90DF90CF90089561E070E080E090E075
:101030000E94E703EFCF0F931F93CF93DF93C4E09A
:10104000D7E01E821D8202E010E020E030E0A9011E
:1010500070E060E081E60E94D00721E030E040E0EF
:1010600050E068E470E081E60E94D007188260E0FA
:1010700081E1DF91CF911F910F910C9458038F92D2
:101080009F92AF92BF920F931F93CF93DF93CDB7F1
:10109000DEB7A1970FB6F894DEBF0FBECDBF19A281
:1010A000423008F44AE08E010F5D1F4F842E912CD0
:1010B000B12CA12CA50194010E947E1FE62FB9013D
:1010C000CA01EA3004F5E05DD801EE938D01232BCF
:1010D000242B252B79F790E080E0109729F0BD01B3
:1010E0008DE097E00E94AD07A1960FB6F894DEBFA1
:1010F0000FBECDBFDF91CF911F910F91BF90AF90E9
:101100009F908F900895E95CDFCF009729F0BC0194
:101110008DE097E00C94AD0790E080E00895EF92A9
:10112000FF920F931F93CF93DF937C010E94B10630
:101130008701D0E0C0E0D801ED91FD918D0130979D
:10114000B9F0678585850E949F06F70180859185A6
:101150008C179D07C1F481E691E00E948508F80193
:1011600032970190F081E02D808191810E94850865
:101170002196C430D105F9F6DF91CF911F910F91DF
:10118000FF90EF9008958AE991E0E7CF8F929F92C8
:10119000AF92BF92CF92DF92EF92FF921F93CF93C5
:1011A000DF93EC018A809B80AC80BD80EA88FB885D
:1011B00020E030E040E251E4C501B4010E947F1B11
:1011C00087FF4FC0C70101979D8B8C8BEF2811F4CF
:1011D0001D8A1C8A68898E850E949F06CA80DB80D2
:1011E000EC80FD80A7019601C701B6010E94941E04
:1011F00063E671E0811126C046015701E894B7F813
:101200002FEF3FEF4FE75FE7C501B4010E94941E47
:1012100081110CC02FEF3FEF4FE75FE7C501B4012D
:101220000E947F1B67E671E0181664F02FEF3FEF16
:101230004FE75FE4C701B6010E94EF1D18160CF5D9
:101240006BE671E08DE097E0DF91CF911F91FF9009
:10125000EF90DF90CF90BF90AF909F908F900C94C5
:10126000AD0720E030E048EC52E4C501B4010E9433
:101270007F1B87FF03C0C7010297A6CF81E090E0E4
:10128000A3CF2FEF3FEF4FE75FECC701B6010E94FE
:101290007F1B87FDD5CFDC8920E030E0A901C701A5
:1012A000B6010E947F1B87FF0AC041E06DE28DE01E
:1012B00097E00E944606F7FAF094F7F8F094CD2FE5
:1012C00010E060E070E080E09FE31D1740F420E054
:1012D00030E040E251E40E94471D1F5FF6CFA701B6
:1012E00096010E94DB1C6B017C010E94C01D4B011A
:1012F0005C014AE00E943F08DD23A9F1C501B40169
:101300000E94841B9B01AC01C701B6010E94DA1C3C
:101310006B017C0141E06EE28DE097E00E944606A1
:10132000C15008F120E030E040E251E4C701B601CD
:101330000E94E51B4B015C010E94C01D6B01F12C5A
:10134000E12C4AE0C701B6010E943F08C701B6017F
:101350000E94841B9B01AC01C501B4010E94DA1CF0
:101360006B017C01DDCFDF91CF911F91FF90EF905A
:10137000DF90CF90BF90AF909F908F900895EF92A5
:10138000FF920F931F93CF93DF93EC010E94B1065E
:1013900060E080E00E949F0689859A850E9485080A
:1013A00061E080E00E949F068B859C850E948508F5
:1013B0008E017E0128E0E20EF11CF80181919191ED
:1013C0008F01009711F00E94C6080E151F05A9F79E
:1013D0008D859E858F3F980781F0880F991FFE01AC
:1013E000E80FF91F688580819181DF91CF911F916E
:1013F0000F91FF90EF900C946C07DF91CF911F91AC
:101400000F91FF90EF900C945A07DC011A962C91E3
:10141000211102C00C948F08FC0120853185220F18
:10142000331F820F931FDC01ED91FC918281938128
:10143000880F991FE80FF91F858196810C94BF09C9
:10144000FC0180819181009711F00C944220089555
:101450001F920F920FB60F9211242F933F934F9329
:101460005F936F937F938F939F93AF93BF93EF930C
:10147000FF9389E493E00E945C02FF91EF91BF919A
:10148000AF919F918F917F916F915F914F913F911C
:101490002F910F900FBE0F901F9018951F920F92D3
:1014A0000FB60F9211242F938F939F93EF93FF9377
:1014B000E0915903F0915A038081E0915F03F0912C
:1014C000600382FD1BC09081809162038F5F8F73E8
:1014D00020916303821741F0E0916203F0E0E75B43
:1014E000FC4F958F80936203FF91EF919F918F91B5
:1014F0002F910F900FBE0F901F9018958081F4CF01
:101500001F920F920FB60F9211242F933F938F9338
:101510009F93AF93BF938091C6029091C702A09111
:10152000C802B091C9023091C50223E0230F2D37C4
:1015300058F50196A11DB11D2093C5028093C602E6
:101540009093C702A093C802B093C9028091CA02C7
:101550009091CB02A091CC02B091CD020196A11D39
:10156000B11D8093CA029093CB02A093CC02B0939A
:10157000CD02BF91AF919F918F913F912F910F908D
:101580000FBE0F901F90189526E8230F0296A11DFD
:10159000B11DD2CF1F920F920FB60F9211242F932D
:1015A0003F934F935F936F937F938F939F93AF93EB
:1015B000BF93EF93FF938091B900887F803609F441
:1015C0004AC0F0F5883209F4A7C018F5803109F453
:1015D0009BC0B8F4882309F4F9C0883009F494C09A
:1015E000FF91EF91BF91AF919F918F917F916F91FB
:1015F0005F914F913F912F910F900FBE0F901F90D1
:101600001895883109F488C0803251F780932203FD
:1016100014C0803409F49DC040F48033B9F388339A
:10162000F9F68093220385ECB0C0803509F485C0BB
:10163000883509F496C0883499F60E942504D0CFE5
:10164000883909F48CC038F5883729F050F4883689
:1016500011F0803729F683E0809324031092C402AE
:1016600057C0883809F47BC0803919F0803809F0F8
:10167000B7CF8091C402803208F071C0E091C402FB
:1016800081E08E0F8093C4028091BB00F0E0EC55A6
:10169000FD4F80833DC0803B39F0E0F4803A09F48F
:1016A00079C0883A09F09CCF84E08093240310929B
:1016B000A3021092A202E091D002F091D10209950A
:1016C0008091A20281110FC081E08093A20210924A
:1016D000820209C0803C09F4A6CF883C09F4A3CF5C
:1016E000883B09F07DCFE091A30281E08E0F8093CB
:1016F000A302F0E0EE57FD4F80818093BB009091F4
:10170000A3028091A20229C08091FF028093BB00B6
:1017100085EC8093BC0064CF9091210380912003DD
:10172000981758F5E091210381E08E0F80932103F3
:10173000F0E0E050FD4F8081E9CFE091210381E0AE
:101740008E0F809321038091BB00F0E0E050FD4FAD
:10175000808390912103809120039817C8F285E837
:10176000D8CFE091210381E08E0F809321038091F7
:10177000BB00F0E0E050FD4F808380912303811196
:101780005CCF81E08093FE0284EA8093BC001092DB
:10179000240326CF85EC8093BC0010922403809113
:1017A000C402803230F4E091C402F0E0EC55FD4F09
:1017B00010826091C40270E0E091CE02F091CF02FD
:1017C00084EA92E009951092C4020ACF1092220393
:1017D00034CF4F925F926F927F928F929F92AF928F
:1017E000BF92CF92DF92EF92FF920F931F93CF930E
:1017F000DF93CDB7DEB73C012B01FC01108E178AB9
:101800007183608357874687318B208B138B028BC4
:10181000158A148AC682D782E086F18682869386EC
:10182000A486B58681E0868BA7019601FB016081C5
:101830007181828193810E947F1B87FF05C0F30124
:10184000C282D382E482F582A5019401F201608113
:101850007181828193810E94EF1D18162CF4F3018F
:1018600082829382A482B582F20180819181A281D9
:10187000B381F30182839383A483B5838B899C898D
:10188000928F818FDF91CF911F910F91FF90EF90F9
:10189000DF90CF90BF90AF909F908F907F906F9090
:1018A0005F904F9008950F931F93CF93DF93EC01B8
:1018B00088819981009759F02A813B812617370743
:1018C00030F081E0DF91CF911F910F9108958B014E
:1018D0006F5F7F4F0E94CB20009759F099838883D8
:1018E0001B830A832C813D81232B59F7FC01108235
:1018F000E8CF80E0E7CFEF92FF920F931F93CF9353
:10190000DF93EC01FB01E080F180E114F10411F1BF
:101910000481158101151105A9F08C819D81080FA5
:10192000191FB801CE010E94530C882399F0288119
:1019300039818C819D81B701820F931F0E94912173
:101940001D830C83CE01DF91CF911F910F91FF90EA
:10195000EF90089588819981009711F00E944220AC
:10196000198218821D821C821B821A82EBCFEF9291
:10197000FF920F931F93CF93DF93EC017B018A01BA
:10198000BA010E94530C28813981811114C021159C
:10199000310519F0C9010E944220198218821D8266
:1019A0001C821B821A82CE01DF91CF911F910F9171
:1019B000FF90EF9008951D830C83B701C9010E9429
:1019C0009121F1CF2F923F924F925F926F927F922F
:1019D0008F929F92AF92BF92CF92DF92EF92FF923F
:1019E0000F931F93CF93DF93CDB7DEB768970FB6F2
:1019F000F894DEBF0FBECDBF10924C0310924B0384
:101A000088EE93E0A0E0B0E080934D0390934E0306
:101A1000A0934F03B093500322E331E030934A0385
:101A20002093490325EC30E030935603209355036F
:101A300024EC30E0309358032093570320EC30E03F
:101A400030935A032093590321EC30E030935C0328
:101A500020935B0322EC30E030935E0320935D0320
:101A600026EC30E03093600320935F031092620312
:101A70001092630310926403109265031092E903BD
:101A80001092E8038093EA039093EB03A093EC0396
:101A9000B093ED0384E491E09093E7038093E60331
:101AA00081E08093250782E090E090933A0780934D
:101AB000390788EC90E090933C0780933B071092A5
:101AC0003D0710923E0710923F0784E690E0909306
:101AD00045078093440710924607109247071092DB
:101AE00048071092490710924A0710924B078CE062
:101AF000809326078DE0809327078BE0809328074B
:101B00000E9419046093290770932A0780932B077A
:101B100090932C0760932D0770932E0780932F07C7
:101B200090933007609331077093320780933307A7
:101B30009093340760934007709341078093420766
:101B40009093430780912507813009F094C562E0A6
:101B5000809126070E94860362E0809127070E94F9
:101B6000860362E0809128070E9486031092100786
:101B700010920F0786E591E090930E0780930D0772
:101B800088E0809311078FEF8093120787E080939E
:101B9000130786E08093140785E08093150784E09F
:101BA0008093160783E0809317071092180710920E
:101BB000190710921A0710921B0710921C0781E058
:101BC0000E94B90610920B0710920C071092FF06A4
:101BD000109201071092000785EE96E09093EA06B6
:101BE0008093E9062AE030E03093F8062093F70668
:101BF0001092FA061092F9068091E5069091E60699
:101C0000A091E706B091E8068093EB069093EC066E
:101C1000A093ED06B093EE0684E0282E312C30928E
:101C2000FC062092FB061092FE061092FD06109212
:101C3000E0061092E2061092E10646EC56E0509360
:101C4000CB064093CA0682E090E09093D906809339
:101C5000D8061092DB061092DA068091C6069091A3
:101C6000C706A091C806B091C9068093CC06909390
:101C7000CD06A093CE06B093CF063092DD0620921B
:101C8000DC061092DF061092DE061092C10610925A
:101C9000C3061092C20687EA96E09093AC06809342
:101CA000AB06E2E0F0E0F093BA06E093B9066624F2
:101CB0006394712C7092BC066092BB068091A7065B
:101CC0009091A806A091A906B091AA068093AD06AE
:101CD0009093AE06A093AF06B093B0063092BE06C6
:101CE0002092BD061092C0061092BF062CEC422E28
:101CF00027E0522E5F924F92812C912C30EBA32E35
:101D000030E4B32EC12CD12C760104E010E030E099
:101D100020E045E050E064E271E08CE896E00E944B
:101D2000E90B5F924F92812C912C4AEFA42E43E451
:101D3000B42E30E020E045E050E060E271E081E761
:101D400096E00E94E90B5F924F92812C912C50EA11
:101D5000A52E51E4B52E6DECC62E6CECD62E6CE49F
:101D6000E62E6EE3F62E30E020E045E050E06CE138
:101D700071E086E596E00E94E90B10925106109200
:101D800053061092520688E191E090933C068093AE
:101D90003B068EE090E090934A06809349061092AD
:101DA0004C0610924B068091180190911901A09158
:101DB0001A01B0911B0180933D0690933E06A093BB
:101DC0003F06B093400610924E0610924D061092B8
:101DD000500610924F061092360610923806109256
:101DE000370684E191E0909321068093200685E0F8
:101DF00090E090932F0680932E0610923106109259
:101E000030068091140190911501A0911601B091B6
:101E100017018093220690932306A0932406B09383
:101E2000250683E090E0909333068093320610926B
:101E300035061092340610921B0610921D06109261
:101E40001C06E1E0F6E0F0930606E093050622E0CA
:101E500030E03093140620931306709216066092B9
:101E6000150640910106509102066091030670919B
:101E70000406409307065093080660930906709382
:101E80000A06309218062092170610921A0610922F
:101E900019061092FC051092FE051092FD0522EE27
:101EA00035E03093E7052093E6052AE030E03093F3
:101EB000F5052093F4057092F7056092F605009100
:101EC000E2051091E3052091E4053091E5050093CA
:101ED000E8051093E9052093EA053093EB0530926D
:101EE000F9052092F8051092FB051092FA05109260
:101EF000DD051092DF051092DE0523EC35E030930E
:101F0000C8052093C7052AE030E03093D60520931A
:101F1000D5057092D8056092D7050091C305109140
:101F2000C4052091C5053091C6050093C9051093DD
:101F3000CA052093CB053093CC053092DA05209268
:101F4000D9051092DC051092DB051092BE051092A7
:101F5000C0051092BF0524EA35E03093A90520930F
:101F6000A8059093B7058093B6051092B905109215
:101F7000B8050091A4051091A5052091A605309102
:101F8000A7050093AA051093AB052093AC053093E9
:101F9000AD059093BB058093BA051092BD051092D4
:101FA000BC0510929F051092A1051092A00525E88E
:101FB00035E030938A05209389052CE030E030939A
:101FC00098052093970510929A0510929905C09054
:101FD0008505D0908605E0908705F0908805C09231
:101FE0008B05D0928C05E0928D05F0928E051092B3
:101FF0009C0510929B0510929E0510929D051092D3
:1020000080051092820510928105F0936B05E09394
:102010006A05909379058093780570927B056092AC
:102020007A0540936C0550936D0560936E0570932F
:102030006F0590937D0580937C0510927F0510922B
:102040007E0510926505109267051092660546ECB4
:1020500056E05093500540934F0530935E05209312
:102060005D057092600560925F054091C6065091D3
:10207000C7066091C8067091C906409351055093F8
:1020800052056093530570935405909362058093B5
:102090006105109264051092630573E4472E75E0A4
:1020A000572E5F924F92812C912CE0E2AE2EE1E40C
:1020B000BE2EFDECCF2EFCECDF2EFCE4EF2EFDE37C
:1020C000FF2E02E010E021E030E045E050E060E16A
:1020D00071E084E395E00E94E90B5F924F92812CBE
:1020E000912CA8E4AA2EA2E4BA2EC12CD12CB0EADD
:1020F000EB2EB1E4FB2E21E030E04EE050E06CE04E
:1021000071E089E195E00E94E90B17E7412E11E0AB
:10211000512E5F924F92C12CD12CE12C0FE3F02E67
:1021200003E010E030E020E04BE050E068E071E0D8
:102130008EEF94E00E94E90B5F924F92812C912CDC
:1021400080EBA82E80E4B82EC12CD12C760130E093
:1021500020E042E050E064E071E083EE94E00E9411
:10216000E90B1092DE041092E0041092DF0484EC7C
:1021700094E09093C9048093C80488E090E0909321
:10218000D7048093D6047092D9046092D8048091C9
:10219000C4049091C504A091C604B091C704809373
:1021A000CA049093CB04A093CC04B093CD04309296
:1021B000DB042092DA041092DD041092DC04109209
:1021C000BF041092C1041092C00485EA94E0909379
:1021D000AA048093A9041092B8041092B7047092D4
:1021E000BA046092B9048091A5049091A604A091CC
:1021F000A704B091A8048093AB049093AC04A0937F
:10220000AD04B093AE043092BC042092BB04109293
:10221000BE041092BD041C8A1B8A1E8A1D8A188E59
:102220001F8A45E050E067EA71E0CE0143960E94C4
:10223000B70C1E861D86188A1F861A8A198A84EF93
:1022400089831A828E010F5F1F4FF80101900020D1
:10225000E9F73197AF01401B510BB801CE010D9644
:102260000E94B70C1A8219821C821B821E821D8258
:102270004AE050E06FE671E0C8010E94B70C188692
:102280001F821A8619861C861B8669817A810FB681
:10229000F894DEBF0FBECDBF6115710531F04D81E1
:1022A0005E81CE0107960E94B70CBE01635F7F4F2F
:1022B000CE0107960E947B0CBE016D5E7F4F0E948F
:1022C0007B0C1092A00410929F041092A204109212
:1022D000A1041092A4041092A304E4E08F399E0795
:1022E00061F0FC01608171816115710531F04481FB
:1022F00055818FE994E00E94B70CCE0107960E94A9
:10230000200AC8010E94200ACE010D960E94200AD0
:10231000CE0143960E94200A109298048FEF9FEFFF
:1023200090939E0480939D042BEA36E030939704AB
:102330002093960429EE36E030939504209394047C
:102340002AEC36E030939304209392041092910487
:10235000109290042AE731E030939A042093990474
:102360004BE851E050939C0440939B0410928904E5
:1023700090938F0480938E0446EE55E0509388042A
:102380004093870465E076E070938604609385044B
:102390004BE356E05093840440938304ECE8F6E06A
:1023A000F0938204E0938104ECE9F1E0F0938B0474
:1023B000E0938A04EDEAF1E0F0938D04E0938C045D
:1023C00010927A049093800480937F04E7ECF5E008
:1023D000F0937904E0937804709377046093760423
:1023E0005093750440937404A1E7B6E0B09373046E
:1023F000A0937204AEEBB1E0B0937C04A0937B0495
:1024000030937E0420937D04A0919F04B091A0049A
:1024100010926B049093710480937004F0936A049B
:10242000E0936904709368046093670450936604B2
:102430004093650446E556E050936404409363047A
:10244000B0936D04A0936C0430936F0420936E04DA
:1024500010925C0490936204809361042FE435E051
:1024600030935B0420935A042AE635E030935904F4
:102470002093580429E835E03093570420935604FC
:1024800028EA35E030935504209354042FEC31E0D2
:1024900030935E0420935D0420EE31E030936004BD
:1024A00020935F0410924D04909353048093520440
:1024B00010924C0410924B0429E135E030934A0409
:1024C0002093490424E335E03093480420934704E3
:1024D00020E236E0309346042093450420EF31E0BB
:1024E00030934F0420934E0421E032E030935104A6
:1024F0002093500410923E0490934404809343042C
:1025000088EC94E090933D0480933C0489EA94E045
:1025100090933B0480933A048EEF94E090933904B7
:102520008093380483EE94E09093370480933604CC
:1025300082E192E09093400480933F0483E292E032
:10254000909342048093410410922804109227042F
:102550001092290483E392E090932604809325044B
:1025600080E994E090932B0480932A041092330422
:102570001092320481E090E090933504809334040B
:102580001092170410921604109218042AE632E0F2
:10259000309315042093140421E834E030931A0496
:1025A0002093190422E734E030931C0420931B0489
:1025B00023E634E030931E0420931D0424E534E028
:1025C0003093200420931F041092220410922104BF
:1025D0001092240410922304109206041092050411
:1025E0001092070429E332E030930404209303049B
:1025F00026E334E0309309042093080427E030E018
:1026000030931104209310041092130410921204BA
:102610001092F5031092F4031092F60341E452E095
:102620005093F3034093F20345E454E05093F803CE
:102630004093F703309300042093FF039093020428
:102640008093010468960FB6F894DEBF0FBECDBF2D
:10265000DF91CF911F910F91FF90EF90DF90CF907E
:10266000BF90AF909F908F907F906F905F904F90B2
:102670003F902F90089560E0809126070E94860386
:1026800060E0809127070E94860360E06BCA78941F
:1026900084B5826084BD84B5816084BD85B5826067
:1026A00085BD85B5816085BD80916E008160809318
:1026B0006E00109281008091810082608093810081
:1026C0008091810081608093810080918000816091
:1026D000809380008091B10084608093B1008091EC
:1026E000B00081608093B00080917A008460809314
:1026F0007A0080917A00826080937A0080917A00DB
:10270000816080937A0080917A00806880937A005B
:102710001092C100E0915903F0915A0382E0808346
:10272000E0915503F09156031082E0915703F09128
:10273000580380E1808310926103E0915D03F09182
:102740005E0386E08083E0915B03F0915C0380810F
:1027500080618083E0915B03F0915C0380818860FD
:102760008083E0915B03F0915C03808180688083CB
:10277000E0915B03F0915C0380818F7D80831092F8
:10278000DD021092DC021092260310924803109290
:10279000240381E0809323031092FE0261E082E132
:1027A0000E94580361E083E10E9458038091B900C0
:1027B0008E7F8093B9008091B9008D7F8093B9009E
:1027C00088E48093B80085E48093BC008CED91E0B0
:1027D0009093D1028093D0028DED91E09093CF023F
:1027E0008093CE0201E010E026E030E040E050E0CF
:1027F00070E060E08FE60E94D007892B61F06AE408
:1028000072E089E493E00E94AD076EE571E089E42F
:1028100093E00E94AD0761E080E10E94860361E0E1
:1028200081E10E94860361E082E00E94860360E00D
:1028300082E00E94580360E080E10E94580360E05B
:1028400081E10E945803109204071092050710922C
:102850000607109207071092080710920A071092B5
:10286000090702E010E021E030E040E050E060E4E1
:1028700070E081E60E94D00720E031E040E050E0C7
:1028800060E570E081E60E94D00721E030E040E0A2
:1028900050E068E470E081E60E94D00760E08CE0E0
:1028A0000E94860360E08DE00E94860360E08BE07A
:1028B0000E94860360E08EE00E94860360E08FE065
:1028C0000E94860361E089E00E94860361E08AE05D
:1028D0000E94860360E089E00E94580360E08AE07D
:1028E0000E94580382E00E94B9068FE592E00E94A0
:1028F000850861E080E00E949F068FE692E00E94DA
:1029000085088DE792E00E94850881E791E00E94AA
:10291000BC0764EF71E080E090E00E94E7038BE089
:1029200090E00E94A61FFC0111861086128684E1A9
:1029300094E09183808383E094E09383828385E2B3
:1029400094E09583848382EF93E097838683F0936A
:10295000DB02E093DA02CF010E94050A0E9419040B
:102960006093D6027093D7028093D8029093D902D5
:102970000E9419046093D2027093D3028093D40210
:102980009093D502C1E003E0C02ED12C22242394E1
:10299000312C8FE00E942F03209102012817190685
:1029A00009F488C02C2720930201211183C0809153
:1029B0000407882339F00E941B0886EB91E00E94EF
:1029C000BC0778C0E091DA02F091DB0282858823AF
:1029D000D1F080859185880F991FE80FF91F01902C
:1029E000F081E02D82819381880F991FE80FF91FF4
:1029F0008581968124E08138920709F03CC13092AC
:102A00000101209200010E94D904C0930407109292
:102A10000B07609305077093060780930707909351
:102A2000080720E030E846E354E40E94E51B0E94DA
:102A3000B91D70930A07609309076115E0E17E07ED
:102A40000CF42DC181E892E00E94BC078FEF9FE05B
:102A500090930A0780930907C0930B0720910907F9
:102A600030910A07032E000C440B550B02E010E0D6
:102A700070E060E081E60E94D00720E030E0A9012C
:102A800068E470E081E60E94D00761E081E10E9485
:102A9000580383EA91E00E94CB028091000190915B
:102AA00001018130910509F405C108F406C10297BE
:102AB00009F406C18EE00E942F032091030128171C
:102AC0001906B1F12C2720930301211131C0009187
:102AD000DA021091DB02D8011A968C911A9788239A
:102AE00009F4F1C01896ED91FC91EE0FFF1FE00F75
:102AF000F11FA081B18114968C911497882309F459
:102B0000E2C01296ED91FC911397EE0FFF1FEA0FB2
:102B1000FB1F0580F681E02D80858111DAC51496B2
:102B20001C928FEF9FEF96878587C8010E94050A48
:102B30000E941904AB01BC014093290750932A0756
:102B400060932B0770932C072091390730913A0737
:102B500080912D0790912E07A0912F07B0913007FB
:102B6000820F931FA11DB11D481759076A077B07E4
:102B700008F459C1809126070E942F033091250740
:102B800021E03817190609F020E0209347078091CB
:102B900027070E942F032091250730E041E082178C
:102BA000930709F040E040934807E09147074091C0
:102BB000290750912A0760912B0770912C07E1118A
:102BC0008EC0F0914A07FF2309F489C0821793074A
:102BD00009F080C081E02091440730914507809042
:102BE000400790904107A0904207B0904307820EA3
:102BF000931EA11CB11C481559056A057B0508F0F8
:102C00006BC0809146074093400750934107609303
:102C1000420770934307E0934A0740932D07509370
:102C20002E0760932F0770933007813009F0D5C0CD
:102C3000E091DA02F091DB028085918522852111F5
:102C400050C00196843091059CF4918780878085DF
:102C50009185DC01AA0FBB1FAE0FBF1F2D913C91C8
:102C6000232B09F0DDC001969187808704977CF3C0
:102C700011861086ECCFA4E082379A0729F41092CF
:102C8000010110920001BFCE8356944009F0BBCEE3
:102C900082E090E09093010180930001B4CE77FF31
:102CA000DDCE8BE692E00E94BC0710920A071092DC
:102CB0000907D2CE8BE991E082CE83E991E07FCE05
:102CC0008BE891E07CCED8011A961C92C8010E9434
:102CD0008F082ECF82E07FCF8093460794CF80E08D
:102CE0009ACF880F991FE80FF91F0190F081E02D0E
:102CF00082819381248121111DC001968430910528
:102D0000B4F49383828322813381D901AA0FBB1F3C
:102D1000AE0FBF1F15968D919C91009709F0C7C209
:102D20002F5F3F4F338322832430310564F31382B6
:102D30001282E9CF880F991FE80FF91FE580F6800E
:102D4000F701808561E070E0882309F4ACC2058456
:102D5000F685E02DEE0FFF1FEE0DFF1D00811181A6
:102D6000F801A080B1806289738984899589681B84
:102D7000790B615071098789908D681B790B072E3B
:102D8000000C880B990B0E94861B9B01AC0160E034
:102D900070E080E291E40E94441ED5012D913D91A6
:102DA0004D915C910E94DB1CF501608371838283ED
:102DB0009383D8011A964D905D906D907C901D97ED
:102DC000A30192010E94EF1D18160CF0B4C2F50188
:102DD0004082518262827382AEC2823021F5E091DC
:102DE000DA02F091DB02808591852285211127C2CC
:102DF000019797FD12C09187808780859185DC01BE
:102E0000AA0FBB1FAE0FBF1F2D913C91232B41F486
:102E100001979187808797FFF0CFD186C086EDCF4D
:102E2000CF010E94050A0E9419046093290770933C
:102E30002A0780932B0790932C07809128070E94E4
:102E40002F032091250730E061E08217930709F0F6
:102E500060E0609349078090290790902A07A0902E
:102E60002B07B0902C0740913B0750913C074090B6
:102E70003107509032076090330770903407440E4A
:102E8000551E611C711C84149504A604B70408F433
:102E90004EC08217930709F45DC280914B078823C7
:102EA00009F458C210923D07809235079092360778
:102EB000A0923707B092380781E060934B07809269
:102EC000310790923207A0923307B09234078823DB
:102ED00071F1A091DA02B091DB021896ED91FC91AC
:102EE0001997EE0FFF1FEA0FFB1F0190F081E02DF5
:102EF0001A968C911A97882309F449C2C483828157
:102F00009381880F991FE80FF91F05811681D80159
:102F10001D968D919C918F3F980709F01DC261E02D
:102F200070E0C8010E944405C8010E94BF0980905A
:102F3000D6029090D702A090D802B090D90286E92C
:102F4000880E911CA11CB11C0E94190486169706BC
:102F5000A806B90608F028C261E089E00E9458037B
:102F600061E070E082E390E00E947805672B09F44D
:102F700018C263E070E085E090E00E9478050E944E
:102F8000861B25E831EB45E058E30E94E51B609382
:102F9000A7067093A8068093A9069093AA0662E0FC
:102FA00070E084E190E00E9478052B013C0114E080
:102FB00075946794579447941A95D1F7C301B20159
:102FC0000E94861B2FEA35E04AE45AE30E94E51B83
:102FD0006093E5067093E6068093E7069093E80613
:102FE00062E070E08EE190E00E9478054B015C01A8
:102FF00004E0B594A794979487940A95D1F7C501F6
:10300000B4010E94861B20E635EE40ED5CE30E9491
:10301000E51B6093C6067093C7068093C80690931D
:10302000C9069FEF49169FE05906610471043CF4FC
:10303000AFEF8A16AFE09A06A104B10424F086EC43
:1030400091E00E94BC0763E070E087E390E00E949B
:1030500078050E94861B25E831EB45E058E30E9485
:10306000E51B6093E2057093E3058093E40590937C
:10307000E50562E070E086E490E00E9478052B01AF
:103080003C01A4E07594679457944794AA95D1F7AE
:10309000C301B2010E94861B22EB34ED46E95AE3DC
:1030A0000E94E51B6093C3057093C4058093C5051A
:1030B0009093C60562E070E080E590E00E9478059C
:1030C0004B015C01B4E0B594A79497948794BA95AA
:1030D000D1F7C501B4010E94861B20E635EE40ED14
:1030E0005CE30E94E51B60930106709302068093E7
:1030F000030690930406BFEF4B16BFE05B06610426
:1031000071043CF4EFEF8E16EFE09E06A104B104CB
:1031100024F082EE91E00E94BC0760E089E00E940A
:1031200058030E9419046093D6027093D7028093CB
:10313000D8029093D9028090180190901901A09024
:103140001A01B0901B0120E030E040E252E4C501DA
:10315000B4010E94EF1D87FD0AC0809104078823F7
:1031600031F085E492E00E94BC07C0930B07809188
:103170000407882321F180910C07811120C020E0F1
:1031800030E040E85FE360910C0170910D018091A7
:103190000E0190910F010E94DB1C9B01AC01C50147
:1031A000B4010E94EF1D87FD0AC061E082E00E9429
:1031B0005803C0930C0784E392E00E94BC078091FF
:1031C0000C07882301F120E030E040E85FE36091E4
:1031D0000C0170910D0180910E0190910F010E94E0
:1031E000DA1C9B01AC01C501B4010E947F1B87FF63
:1031F0000AC060E082E00E94580310920C0782E24D
:1032000092E00E94BC0780910B07882331F08FEF7A
:1032100091E00E94BC070E941B0860910B0780E1AF
:103220000E945803E0E0F0E0EF2B09F4B2CB0E94DB
:103230004802882309F4ADCB0E940000AACB880F76
:10324000991FE80FF91F0190F081E02D8281938191
:10325000248121111AC0019797FD14C093838283A2
:1032600022813381D901AA0FBB1FAE0FBF1F159654
:103270008D919C910097D9F4215031093383228399
:1032800037FFEECFD382C282EBCF880F991FE80FB2
:10329000F91FE580F680D70118968C911897811157
:1032A00009C06FEF7FEFC7010E944405C7010E946C
:1032B000BF09B9CD1D96ED91FC91EE0FFF1FEE0DEC
:1032C000FF1D00811181F801A080B180628973899E
:1032D00084899589681B790B615071098789908D64
:1032E000681B790B072E000C880B990B0E94861B1C
:1032F0009B01AC0160E070E080E291E40E94441E1A
:103300009B01AC01D5016D917D918D919C910E94A5
:10331000DA1CF5016083718382839383D80116964A
:103320004D905D906D907C901997A30192010E9441
:103330007F1B87FD4CCDF50180819181A281B381F6
:10334000F80182839383A483B583018CF28DE02DF1
:103350000995ACCF80E0B1CDF8012085211102C0E4
:10336000C087E2CD880F991FE80FF91F0190F08107
:10337000E02D8789908D0196908F878B22893389E4
:10338000821793070CF4D0CD108E178ACDCD3596C9
:1033900009F4CDCD1A96CC931A97CD010E94050A57
:1033A000C6CD89E592E0B7CE6091D2027091D3028A
:1033B0008091D4029091D5020E94841B4B015C0144
:1033C00020E030E04AE754E460911001709111016F
:1033D00080911201909113010E94E51B9B01AC01A9
:1033E000C501B4010E94DB1C4B015C010E94190461
:1033F0000E94841B9B01AC01C501B4010E947F1B8C
:1034000087FF99CE61E08AE00E94580361E070E096
:1034100082E390E00E947805672BC1F362E070E0E0
:103420008AE590E00E947805E4E095958795779588
:103430006795EA95D1F70E94861B26E933E44BE8AD
:103440005BE30E94E51B6093140170931501809368
:1034500016019093170162E070E088E290E00E940C
:103460007805F4E09595879577956795FA95D1F766
:103470000E94861B2FE632E143E050E40E94E51BE8
:1034800020E030E040E859E30E94E51B4B015C017D
:1034900020E030E044E052E40E94E51B2B013C01B7
:1034A000A501940160E070E080EA90E40E94DA1CDB
:1034B0009B01AC01C301B2010E94471D20E030E036
:1034C00040E251E40E94471D0E94FC1D21EF3BEBAE
:1034D00046E859E30E94E51B2DE03FEC4BE55BE33A
:1034E0000E94DB1C9B01AC0160E070E080E89FE380
:1034F0000E94471D23E333E948E853E40E94DA1CA5
:10350000609318017093190180931A0190931B0125
:103510004090A7065090A8066090A9067090AA0651
:1035200020E030E0A901C301B2010E94EF1D18168E
:10353000D4F4A30192016091E2057091E3058091BA
:10354000E4059091E5050E94471D20E030E048EC3D
:1035500052E40E94E51B6093850570938605809375
:103560008705909388058090850590908605A090AA
:103570008705B090880520E030E0A901C501B401BD
:103580000E947F1B87FD9EC020E030E046EC52E4A5
:10359000C501B4010E94EF1D181634F4812C912C42
:1035A00056ECA52E52E4B52E8092850590928605A4
:1035B000A0928705B09288052091E2053091E3053D
:1035C0004091E4055091E505C301B2010E94DA1C67
:1035D0004B015C0120E030E0A9010E947F1B87FFC6
:1035E00003C0812C912C54018092A4059092A505D2
:1035F000A092A605B092A705E091DA02F091DB0255
:103600008285882309F44FC080859185880F991F92
:10361000E80FF91F0190F081E02D82819381880FDE
:10362000991FE80FF91F0581168158014801F8E03C
:103630008F0E911CD501ED90FD905D01E114F10418
:10364000E1F0D701ED91FC911197408051806280AB
:10365000738012962D913D914D915C911597C30108
:10366000B2010E947F1B882329F0F7014282538216
:1036700064827582C7010E94C6088A149B04D1F631
:10368000D8011D968D919C918F3F9807F9F0880F76
:10369000991FF801E80FF91FD80118966C918081E5
:1036A00091810E946C0760E08AE00E9458030E94AA
:1036B00019046093D2027093D3028093D402909342
:1036C000D50239CD812C912C54016ECF0E945A071E
:1036D000EACF1086A585B685AA0FBB1FAE0FBF1F08
:1036E0000D90BC91A02D58961C921E925797CF0119
:1036F0000E94BF091ACA8FE994E00C94200A0E9424
:10370000C11B08F481E00895E89409C097FB3EF4DA
:1037100090958095709561957F4F8F4F9F4F99231E
:10372000A9F0F92F96E9BB279395F695879577959C
:103730006795B795F111F8CFFAF4BB0F11F460FF5C
:103740001BC06F5F7F4F8F4F9F4F16C0882311F0B4
:1037500096E911C0772321F09EE8872F762F05C0C8
:10376000662371F096E8862F70E060E02AF09A9563
:10377000660F771F881FDAF7880F9695879597F958
:103780000895990F0008550FAA0BE0E8FEEF1616F2
:103790001706E807F907C0F012161306E407F50745
:1037A00098F0621B730B840B950B39F40A2661F0B9
:1037B000232B242B252B21F408950A2609F4A1405C
:1037C000A6958FEF811D811D08950E94F81B0C9412
:1037D000691C0E945B1C38F00E94621C20F095233B
:1037E00011F00C94521C0C94581C11240C949D1C28
:1037F0000E947A1C70F3959FC1F3950F50E0551FFE
:10380000629FF001729FBB27F00DB11D639FAA2735
:10381000F00DB11DAA1F649F6627B00DA11D661F84
:10382000829F2227B00DA11D621F739FB00DA11DA5
:10383000621F839FA00D611D221F749F3327A00D5F
:10384000611D231F849F600D211D822F762F6A2FFB
:1038500011249F5750409AF0F1F088234AF0EE0F60
:10386000FF1FBB1F661F771F881F91505040A9F78D
:103870009E3F510580F00C94521C0C949D1C5F3FA0
:10388000E4F3983ED4F3869577956795B795F795C9
:10389000E7959F5FC1F7FE2B880F911D9695879541
:1038A00097F9089597F99F6780E870E060E00895C0
:1038B0009FEF80EC089500240A9416161706180648
:1038C0000906089500240A94121613061406050624
:1038D0000895092E0394000C11F4882352F0BB0FB5
:1038E00040F4BF2B11F460FF04C06F5F7F4F8F4F18
:1038F0009F4F089557FD9058440F551F59F05F3F53
:1039000071F04795880F97FB991F61F09F3F79F001
:1039100087950895121613061406551FF2CF469583
:10392000F1DF08C0161617061806991FF1CF869505
:103930007105610508940895E894BB2766277727E9
:10394000CB0197F908952F923F924F925F926F9219
:103950007F928F929F92AF92BF92CF92DF92EF921F
:10396000FF920F931F93CF93DF93CDB7DEB7CA1BA0
:10397000DB0B0FB6F894DEBF0FBECDBF09942A88CB
:10398000398848885F846E847D848C849B84AA8473
:10399000B984C884DF80EE80FD800C811B81AA8100
:1039A000B981CE0FD11D0FB6F894DEBF0FBECDBFCB
:1039B000ED0108955058BB27AA270E94F21C0C94D1
:1039C000691C0E945B1C38F00E94621C20F039F4D4
:1039D0009F3F19F426F40C94581C0EF4E095E7FB75
:1039E0000C94521CE92F0E947A1C58F3BA176207F4
:1039F00073078407950720F079F4A6F50C949C1CB6
:103A00000EF4E0950B2EBA2FA02D0B01B9019001F9
:103A10000C01CA01A0011124FF27591B99F0593F3D
:103A200050F4503E68F11A16F040A22F232F342F85
:103A30004427585FF3CF469537952795A795F040D3
:103A40005395C9F77EF41F16BA0B620B730B840BE8
:103A5000BAF09150A1F0FF0FBB1F661F771F881FA0
:103A6000C2F70EC0BA0F621F731F841F48F48795F8
:103A700077956795B795F7959E3F08F0B0CF9395EA
:103A8000880F08F09927EE0F9795879508950E9463
:103A90005B1D0C94691C0E94621C58F00E945B1C08
:103AA00040F029F45F3F29F00C94521C51110C9402
:103AB0009D1C0C94581C0E947A1C68F39923B1F346
:103AC000552391F3951B550BBB27AA276217730744
:103AD000840738F09F5F5F4F220F331F441FAA1FD8
:103AE000A9F335D00E2E3AF0E0E832D09150504094
:103AF000E695001CCAF72BD0FE2F29D0660F771F42
:103B0000881FBB1F261737074807AB07B0E809F027
:103B1000BB0B802DBF01FF2793585F4F3AF09E3FAC
:103B2000510578F00C94521C0C949D1C5F3FE4F3FB
:103B3000983ED4F3869577956795B795F7959F5FEF
:103B4000C9F7880F911D9695879597F90895E1E03B
:103B5000660F771F881FBB1F621773078407BA079A
:103B600020F0621B730B840BBA0BEE1F88F7E095F5
:103B700008950E94C01D6894B1110C949D1C089575
:103B80000E94821C88F09F5798F0B92F9927B7514F
:103B9000B0F0E1F0660F771F881F991F1AF0BA95F1
:103BA000C9F714C0B13091F00E949C1CB1E0089597
:103BB0000C949C1C672F782F8827B85F39F0B93F89
:103BC000CCF3869577956795B395D9F73EF49095A4
:103BD0008095709561957F4F8F4F9F4F08950E94FC
:103BE000C11B08F48FEF089516F00C94D31E0C94AB
:103BF000581C68940C94521C0E94821CA8F39923B0
:103C0000C1F3AEF3DF93CF931F930F93FF92C92FAE
:103C1000DD2788232AF02197660F771F881FDAF7A0
:103C200020E030E040E85FEB9FE3883920F0803E01
:103C300038F021968F770E94DB1CE8E6F0E004C0A4
:103C40000E94DB1CE5E9F0E00E94E11E8B01BE0151
:103C5000EC01FB2E6F5771097595771F880B990B37
:103C60000E94861B28E132E741E35FE30E94F81BD4
:103C7000AF2D9801AE01FF900F911F91CF91DF9171
:103C80000E94F21C0C94691CFA01EE0FFF1F309683
:103C900021053105A1F16115710561F48038BFE39B
:103CA0009B0749F168949038810561F08038BFEF37
:103CB0009B0741F099234AF5FF3FE10531052105B6
:103CC00019F1E8940894E795D901AA2329F4AB2FB8
:103CD000BE2FF85FD0F310C0FF5F70F4A695E0F739
:103CE000F73950F019F0FF3A38F49F779F930DD0D1
:103CF0000F9007FC9058089546F00C94581C60E013
:103D000070E080E89FE308954FE79F775F934F93BC
:103D10003F932F930E94FC1D2F913F914F915F91F4
:103D20000E94E51B0C94A11E0E94C11B880B990BDD
:103D3000089529F416F00C94521C0C949C1C0C94BD
:103D4000581C0E94821CA8F39638A0F707F80F921F
:103D5000E8942BE33AEA48EB5FE70E94FB1B0F92E3
:103D60000F920F924DB75EB70F920E944A1FE2EC7E
:103D7000F0E00E94E11E4F915F91EF91FF91E59578
:103D8000EE1FFF1F49F0FE57E0684427EE0F441F67
:103D9000FA95E1F74195550B0E94141F0F9007FE0D
:103DA0000C94081F08959F3F31F0915020F487959F
:103DB00077956795B795880F911D9695879597F993
:103DC0000895DF93CF931F930F93FF92EF92DF92AB
:103DD0007B018C01689406C0DA2EEF010E94F81B6B
:103DE000FE01E894A5912591359145915591A6F351
:103DF000EF010E94F21CFE019701A801DA9469F715
:103E0000DF90EF90FF900F911F91CF91DF91089578
:103E10009B01AC0160E070E080E89FE30C94471DDB
:103E20000C94521C0C94D31E0E94821CD8F399232C
:103E3000C9F3940F511DA3F39150504094F059F0E1
:103E4000882332F0660F771F881F91505040C1F7CA
:103E50009E3F51052CF7880F911D9695879597F9F0
:103E600008955F3FACF0983E9CF0BB278695779510
:103E70006795B79508F4B1609395C1F7BB0F58F7F4
:103E800011F460FFE8CF6F5F7F4F8F4F9F4FE3CFFD
:103E90000C949D1CFA01DC01AA0FBB1F9B01AC0115
:103EA000BF5728F4222733274427507820C0B75122
:103EB00090F4AB2F0024469537952795011CA395C8
:103EC000D2F3002071F0220F331F441FB395DAF3B1
:103ED0000ED00C94DA1C61307105A0E88A07B9464F
:103EE00030F49B01AC0166277727882790783096BD
:103EF00021F020833183428353830895A1E21A2E57
:103F0000AA1BBB1BFD010DC0AA1FBB1FEE1FFF1F7D
:103F1000A217B307E407F50720F0A21BB30BE40BCD
:103F2000F50B661F771F881F991F1A9469F7609514
:103F30007095809590959B01AC01BD01CF010895CE
:103F4000EE0FFF1F0590F491E02D09940F931F933E
:103F5000CF93DF938230910510F482E090E0E091FE
:103F60004E07F0914F0730E020E0B0E0A0E030973E
:103F700099F42115310509F44AC0281B390B243066
:103F80003105D8F58A819B816115710589F1FB01A5
:103F900093838283FE0111C040815181028113818C
:103FA00048175907E0F04817590799F4109761F03E
:103FB00012960C93129713961C933296CF01DF91B1
:103FC000CF911F910F91089500934E0710934F07C3
:103FD000F4CF2115310551F04217530738F0A901EC
:103FE000DB019A01BD01DF01F801C1CFEF01F9CF7B
:103FF00090934F0780934E07CDCFFE01E20FF31F42
:10400000819391932250310939832883D7CF20910E
:104010004C0730914D07232B41F420912A01309118
:104020002B0130934D0720934C07209128013091AC
:1040300029012115310541F42DB73EB740912C01DE
:1040400050912D01241B350BE0914C07F0914D0749
:10405000E217F307A0F42E1B3F0B2817390778F05F
:10406000AC014E5F5F4F2417350748F04E0F5F1FBE
:1040700050934D0740934C07819391939FCFF0E06D
:10408000E0E09CCFCF93DF930097E9F0FC013297FB
:1040900013821282A0914E07B0914F07ED0130E0DC
:1040A00020E01097A1F420813181820F931F20918D
:1040B0004C0730914D072817390709F061C0F0937C
:1040C0004D07E0934C07DF91CF910895EA01CE1799
:1040D000DF07E8F54A815B819E0141155105B1F783
:1040E000E901FB83EA8349915991C40FD51FEC176D
:1040F000FD0761F4808191810296840F951FE9018B
:1041000099838883828193819B838A83F0E0E0E0B6
:1041100012968D919C9113970097B9F52D913C9132
:104120001197CD010296820F931F20914C07309179
:104130004D072817390739F6309751F510924F0778
:1041400010924E07B0934D07A0934C07BCCFD3837A
:10415000C28340815181840F951FC817D90761F42C
:104160004E5F5F4F88819981480F591F518340836B
:104170008A819B81938382832115310509F0B0CF19
:10418000F0934F07E0934E079ECFFD01DC01C0CFB7
:1041900013821282D7CFB0E0A0E0E1EDF0E20C9400
:1041A000A51C8C01009751F4CB010E94A61F8C0125
:1041B000C801CDB7DEB7E0E10C94C11CFC01E60FED
:1041C000F71F9C0122503109E217F30708F49DC044
:1041D000D901CD91DC911197C617D70798F0C5305A
:1041E000D10530F3CE0104978617970708F3C61B55
:1041F000D70B2297C193D1936D937C93CF010E94EB
:104200004220D6CF5B01AC1ABD0A4C018C0E9D1E1C
:10421000A0914E07B0914F07512C412CF12CE12C6D
:10422000109731F580914C0790914D0788159905AD
:1042300009F05CC04616570608F058C08091280166
:1042400090912901009741F48DB79EB740912C01C0
:1042500050912D01841B950BE817F90708F055C004
:10426000F0934D07E0934C07F90171836083A0CF71
:104270008D919C91119712966C90129713967C9049
:104280001397A815B90559F56C0142E0C40ED11C6D
:10429000CA14DB0420F1AC014A195B09DA01129659
:1042A000159780F06282738251834083D9016D93A8
:1042B0007C93E114F10471F0D7011396FC93EE9313
:1042C000129776CF22968C0F9D1FF90191838083E0
:1042D000F301EFCFF0934F07E0934E0769CF4816F5
:1042E000590608F42C017D01D3019ACFCB010E941D
:1042F000A61F7C01009749F0AE01B8010E948821F9
:10430000C8010E944220870153CF10E000E050CF47
:10431000FB01DC0102C001900D9241505040D8F7E2
:104320000895FB01DC0101900D920020E1F7089552
:1043300011E0CCE4D1E004C0FE010E94A01F219650
:0A434000CD34D107C9F7F894FFCF80
:10434A00010001010000003F000040400000F04170
:10435A000000003F000040410000C8410000C84280
:10436A000000803F0000003F00005007800000006E
:10437A0000007E02DE010B02E6023C021A022E0255
:10438A0000000000A6047904D6045604D501660488
:10439A00570400000000A707DE01D604D5040D0A61
:1043AA00003E006E616E00696E66006F76660043BD
:1043BA005220522020202020200056202020202079
:1043CA002020492020202020204100502020202089
:1043DA00202057202020202020202000434320494D
:1043EA002020202020204120542020200056202058
:1043FA002020202020502020202020205700435019
:10440A0020502020202020205720542020200050F7
:10441A0072202020202057204566202020202500B9
:10442A00566F20202020202020566920202020009E
:10443A004261747420202020205620202020202031
:10444A00005461637120202020732046616E202071
:10445A0020004920202020204120566320202020AF
:10446A0020560020202020205768202020202020AD
:10447A004168004D657465720042617474657279B1
:10448A000053657474696E6773004572726F7220A7
:10449A00647572696E6720504D20696E69740045B3
:1044AA006C656374726F6E6963204C6F616400306F
:1044BA002D3130305620302D3541207600312E32C4
:0244CA000000F0
:00000001FF
