:100000000C9472020C949A020C949A020C949A0228
:100010000C949A020C949A020C949A020C949A02F0
:100020000C949A020C949A020C949A020C949A02E0
:100030000C949A020C949A020C949A020C949A02D0
:100040000C946A0E0C949A020C94380E0C94120EB6
:100050000C949A020C949A020C949A020C949A02B0
:100060000C94B40E0C949A0208000000BE9224492D
:10007000123EABAAAA2ABECDCCCC4C3E00000080DA
:10008000BEABAAAAAA3E00000000BF000000803F4D
:100090000000000000084178D3BB4387D1133D190D
:1000A0000E3CC3BD4282AD2B3E68EC8276BED98F3A
:1000B000E1A93E4C80EFFFBE01C4FF7F3F0000007E
:1000C000000007634236B79BD8A71A39685618AEA6
:1000D000BAAB558C1D3CB7CC5763BD6DEDFD753E7D
:1000E000F6177231BF000000803F4572726F7220B8
:1000F000647572696E67207772697465004D6F640C
:10010000650949286D412909560950286D57290963
:1001100049696E286D41290956696E0950696E2832
:100120006D57290945666628252900496E76616C58
:100130006964206E62206F66206172677300537479
:10014000617274696E672073776565702066726F7F
:100150006D2000496E76616C696420537765657027
:10016000206D6F6465000D0A00737765657020620D
:1001700020652073203A20737765657073206D6F5A
:100180006465277320706172616D657465722066A5
:10019000726F6D206220746F206520696E2073205D
:1001A000737465707300676574205B785D3A2072C4
:1001B000657475726E73206C6F616420696E666F12
:1001C0002C20782074696D6573006D6F64652078EC
:1001D000203A2053657420746865206C6F61642038
:1001E0006D6F6465203A2043433D302043503D31DC
:1001F0002043523D3220424154543D33006C6F61E4
:10020000642078203A205475726E732074686520DB
:100210006C6F6164206F6E28783D3129206F7220E9
:100220006F666628783D30290048656C7020506103
:10023000676500456D657267656E63792073746FDD
:100240007020210000000000240027002A00000088
:100250000000250028002B000000000023002600DD
:100260002900040404040404040402020202020239
:10027000030303030303010204081020408001026A
:1002800004081020010204081020000000080002E9
:100290000100000304070000000000000000457298
:1002A000726F7220647572696E6720504D20696E9E
:1002B00069740053657474696E6773004261747485
:1002C000657279004C6F6164004D65746572002041
:1002D0002020202057682020202020206D41680009
:1002E0004920202020204120566320202020205615
:1002F000005461637120202020732046616E20200D
:1003000020004261747420202020205620202020CC
:10031000202000566F2020202020202056692020F9
:1003200020202000507220202020205720456620C9
:100330002020202500562020202020202049202079
:100340002020202041004352205220202020202025
:100350004F205420202000562020202020202049FB
:100360002020202020204100435020502020202009
:1003700020205720542020200056202020202020FC
:1003800020502020202020205700434320492020B7
:1003900020202020412054202020005020202020F8
:1003A0002020572020202020202020005620202000
:1003B00020202020492020202020204100456C655D
:1003C0006374726F6E6963204C6F61642053746153
:1003D00072746564202100302D3130305620302D6C
:1003E0003541207600456C656374726F6E696320D9
:1003F0004C6F616400496E707574206D6561737532
:1004000072656D656E742073617475726174656474
:10041000004F7574707574206D6561737572656DCC
:10042000656E7420736174757261746564004661F1
:10043000756C742064657465637465642C206C6FDE
:100440006164207368757474696E6720646F776E79
:100450000046616E206F666620210046616E206F47
:100460006E20210054656D7020686F74206578637C
:10047000656564656420210009000D0A00537765F5
:10048000657020657863656564656420706172617C
:100490006D65746572206C696D697473006D416877
:1004A0002C205768203A004C6F6164206375746F8C
:1004B0006666202120416363756D756C61746564A7
:1004C0002076616C756573203A2000446163207367
:1004D000617475726174696E672075702021000007
:1004E000C110012011241FBECFEFD8E0DEBFCDBF69
:1004F00027E0A6EBB1E001C01D92A233B207E1F7FD
:1005000011E0A0E0B1E0EEE6FDE402C005900D923E
:10051000A63BB107D9F712E0C1E7D2E004C02197AA
:10052000FE010E948C24C037D107C9F70E944116F2
:100530000C94AA260C940000982F2091820281E04E
:10054000213208F043C080915E028111FCCF80917E
:10055000810232E030935E0290935D029FEF9093B0
:100560005C0210925B0220935A02A1E6B2E0EAE339
:10057000F2E090E0291331C01092390290913902D3
:10058000880F892B8093390280913802813049F598
:1005900010923802809139028093BB008091BC0098
:1005A00083FDF8CF85EC8093BC0080915E028230A1
:1005B000E1F380915C028F3FB1F080915C02803268
:1005C000A1F080915C02803391F084E0109260028F
:1005D0001092820210925F0208953D9131939F5FC5
:1005E000C9CF85EEE0CF80E0F1CF82E0EFCF83E0AE
:1005F000EDCF8091160290911702891B990B0895F7
:1006000008950895DC01ED91FC910190F081E02DB9
:100610000994EF92FF920F931F93CF93DF938C0176
:100620007B01D0E0C0E0F701EC0FFD1F6491662371
:1006300061F0D801ED91FC910190F081E02DC801AD
:100640000995892B11F02196EECFCE01DF91CF9144
:100650001F910F91FF90EF900895AF92BF92CF92AC
:10066000DF92EF92FF920F931F93CF93DF936C0172
:100670007B018B01040F151FEB015E01AE18BF0853
:10068000C017D10759F06991D601ED91FC91019005
:10069000F081E02DC6010995892B79F7C501DF911D
:1006A000CF911F910F91FF90EF90DF90CF90BF906F
:1006B000AF900895FC01538D448D252F30E0842F99
:1006C00090E0821B930B541710F0CF96089501977A
:1006D0000895FC01918D828D981761F0A28DAE0F67
:1006E000BF2FB11D5D968C91928D9F5F9F73928FEE
:1006F00090E008958FEF9FEF0895FC01918D828D1A
:10070000981731F0828DE80FF11D858D90E00895E6
:100710008FEF9FEF0895FC01918D228D892F90E03E
:10072000805C9F4F821B91098F739927089583E8FE
:1007300092E00E948B0321E0892B09F420E0822FB4
:10074000089580E090E0892B29F00E9497038111A1
:100750000C9400000895FC01A48DA80FB92FB11DC1
:10076000A35ABF4F2C91848D90E001968F739927E7
:10077000848FA689B7892C93A089B1898C918370C5
:1007800080648C93938D848D981306C00288F389BE
:10079000E02D80818F7D80830895EF92FF920F93EB
:1007A0001F93CF93DF93EC0181E0888F9B8D8C8D1D
:1007B00098131AC0E889F989808185FF15C09FB711
:1007C000F894EE89FF896083E889F98980818370D4
:1007D000806480839FBF81E090E0DF91CF911F9183
:1007E0000F91FF90EF900895F62E0B8D10E00F5FA4
:1007F0001F4F0F731127E02E8C8D8E110CC00FB67A
:1008000007FCFACFE889F989808185FFF5CFCE0111
:100810000E94AB03F1CFEB8DEC0FFD2FF11DE35ADE
:10082000FF4FF0829FB7F8940B8FEA89FB89808194
:100830008062CFCF69E083E892E00C94CD03CF9340
:10084000DF93EC01888D8823B9F0AA89BB89E889F8
:10085000F9898C9185FD03C0808186FD0DC00FB69E
:1008600007FCF7CF8C9185FFF2CF808185FFEDCF1C
:10087000CE010E94AB03E9CFDF91CF910895833081
:1008800081F028F4813099F08230A9F00895873002
:10089000A9F08830C9F08430B1F4809180008F7D58
:1008A00003C0809180008F7780938000089584B585
:1008B0008F7784BD089584B58F7DFBCF8091B00084
:1008C0008F778093B00008958091B0008F7DF9CF2D
:1008D000CF93DF93282F30E0F901E657FD4F849145
:1008E000F901EA58FD4FD491F901EE59FD4FC49139
:1008F000CC23A1F081110E943F04EC2FF0E0EE0F19
:10090000FF1FE85AFD4FA591B491EC91ED2381E0D2
:1009100090E009F480E0DF91CF91089580E090E0CD
:10092000FACF1F93CF93DF93282F30E0F901E657DA
:10093000FD4F8491F901EA58FD4FD491F901EE5928
:10094000FD4FC491CC23A9F0162F81110E943F04C2
:10095000EC2FF0E0EE0FFF1FE25BFD4FA591B4918D
:100960008FB7F894EC91111108C0D095DE23DC9379
:100970008FBFDF91CF911F910895DE2BF8CFCF93DA
:10098000DF9390E0FC01EA58FD4F24918E599D4F72
:10099000FC0184918823C9F090E0880F991FFC0125
:1009A000EC5BFD4FA591B491FC01E25BFD4FC5915D
:1009B000D49161110DC09FB7F8948C91209582233A
:1009C0008C938881282328839FBFDF91CF9108953E
:1009D000623051F49FB7F8943C91822F8095832325
:1009E0008C93E8812E2BEFCF8FB7F894EC912E2BC0
:1009F0002C938FBFEACF3FB7F8948091FE0190917E
:100A0000FF01A0910002B091010226B5A89B05C08C
:100A10002F3F19F00196A11DB11D3FBFBA2FA92F7D
:100A2000982F8827BC01CD01620F711D811D911D7A
:100A300042E0660F771F881F991F4A95D1F70895E6
:100A40008F929F92AF92BF92CF92DF92EF92FF92DE
:100A50004B015C010E94FB046B017C010E94FB04C2
:100A60006C197D098E099F09683E734081059105C7
:100A7000A8F321E0821A9108A108B10888EEC80EF7
:100A800083E0D81EE11CF11C81149104A104B1047F
:100A900029F7FF90EF90DF90CF90BF90AF909F909D
:100AA0008F9008952FB7F8946091FA017091FB012F
:100AB0008091FC019091FD012FBF089585ED8093F9
:100AC000BC008091BC0084FDFCCF10925E020895B2
:100AD0002091D601260F3327331F21323105ECF444
:100AE00020915E02FC0190E080E0243069F082E019
:100AF0000895A091D6012191AC014A545E4FA40FF4
:100B0000B52FB11D2C930196861798F38091D601CD
:100B1000680F6093D60180E0089581E008950895FC
:100B2000E091170280911602E81730F4F0E0E85ED9
:100B3000FD4F808190E008958FEF9FEF0895909191
:100B40001702809116022FEF3FEF981748F4E92F14
:100B5000F0E0E85EFD4F208130E09F5F9093170248
:100B6000C9010895CF92DF92EF92FF920F931F93E6
:100B7000CF93DF937C01CB018A0120915F02222376
:100B800089F0EB016B01C40ED51ECC15DD0569F0B3
:100B90006991D701ED91FC910190F081E02DC701A1
:100BA0000995F3CF642F0E946805C801DF91CF91AA
:100BB0001F910F91FF90EF90DF90CF900895CF930A
:100BC000DF931F92CDB7DEB7698320915F022223A6
:100BD000F9F020918202203258F021E030E0FC014F
:100BE0003383228390E080E00F90DF91CF910895CE
:100BF00080916002E82FF0E0EF59FD4F99819083DA
:100C00008F5F809360028093820281E090E0ECCF5E
:100C100061E0CE0101960E946805F7CF089590E04B
:100C200080E00895CF92DF92EF92FF9280911002C0
:100C30009091110281309105D9F058F082309105E0
:100C400009F44EC0039709F45CC0C12CD12C760185
:100C500008C0C0902401D0902501E0902601F090BA
:100C60002701C701B601FF90EF90DF90CF90089564
:100C7000C0903C05D0903D05E0903E05F0903F05CA
:100C800020E030E0A901C701B6010E94DB2218165E
:100C9000E4F6A701960160912001709121018091F5
:100CA0002201909123010E9433226B017C0120E0FC
:100CB00030E0A9010E94682087FDC7CF23E333E31A
:100CC00043EA50E4C701B6010E94DB2218164CF635
:100CD00083E3C82EDC2C83EAE82E80E4F82EC1CF13
:100CE00020911C0130911D0140911E0150911F0166
:100CF00060913C0570913D0580913E0590913F05C6
:100D0000D2CFC0900401D0900501E0900601F09090
:100D10000701A7CF80912E038823C9F1E0912C030E
:100D2000F0912D038681978123E08C39920729F475
:100D30001092110210921002089523E08F3892074A
:100D400039F481E090E090931102809310020895AD
:100D50008258934019F482E090E0F5CFEA53F340D3
:100D6000B1F483E090E0909311028093100210920E
:100D7000D8031092D9031092DA031092DB03109279
:100D8000BC031092BD031092BE031092BF030895DE
:100D9000FC0183859485A385B485662391F02D910C
:100DA0003C9134872387A385B48556962C9156971A
:100DB000211106C0A817B90771F781E08583148255
:100DC000089512962D913C91ECCFCF93DF93DC01E7
:100DD0001B96ED91FC91A081B18171836083EB0141
:100DE000FB83EA83B983A88313967C936E9312974F
:100DF000DF91CF9108958F929F92AF92BF92FF9211
:100E00000F931F93CF93DF938C01CB01BA01F801AD
:100E1000C481D581288139814A815B810E94C721A3
:100E2000688379838A839B83F80186849784A0886A
:100E3000B188A50194010E94DB22F12C181634F42C
:100E400088829982AA82BB82FF24F394F80182846B
:100E50009384A484B584A5019401688179818A81F1
:100E60009B810E94682087FF06C088829982AA829F
:100E7000BB82FF24F39488819981AA81BB81F80108
:100E800086839783A087B1878F2DDF91CF911F91A4
:100E90000F91FF90BF90AF909F908F900895CF9249
:100EA000DF92EF92FF92CF93DF93C62F91E0909362
:100EB0005F029FE69093810210926002109282027C
:100EC000682F80E293E00E94DF0580E00E949C0290
:100ED00080915E028111FCCF81E080935E0280935D
:100EE0005D029FEF90935C0210925B029C0F9093C7
:100EF0005A0280933902809139028E6D80933902B3
:100F000080913802813059F510923802809139026F
:100F10008093BB008091BC0083FDF8CF85EC80936B
:100F2000BC0080915E028130E1F380915B028C17FE
:100F3000C0F480915B02EAE3F2E0A8E1B2E0F12CB8
:100F4000F81211C010921702F0921602FC1678F4F3
:100F50006AE070E080E090E00E942005F7CF85EE27
:100F6000DECF8C2FE8CF91919D93F394E9CFC12CE4
:100F7000D12C7601D0E080E293E00E949F05FE2C08
:100F8000ED2CDC2CCC24C80ED11CE11CF11CDF5F45
:100F9000CD13F1CFC701B601DF91CF91FF90EF9054
:100FA000DF90CF900895CF93DF93EC0160E08E81C6
:100FB0000E94910461E08E810E94910460E08E8124
:100FC0000E9491048BE891E00197F1F7DF91CF91B6
:100FD0000895CF92DF92EF92FF920F931F93CF93DA
:100FE000DF936C017C0187E0E80EF11CD0E0C0E0EB
:100FF000062F10E0B8010C2E02C0759567950A9473
:10100000E2F76170F70181917F010E9491042196BE
:10101000C430D10579F7C601DF91CF911F910F91AF
:10102000FF90EF90DF90CF900C94D307CF92DF9298
:10103000EF92FF920F931F93CF93DF93EC01F62E65
:10104000642F8C810E9491048D818F3F19F060E0A4
:101050000E9491040F2D10E08F8584FF25C06E0142
:1010600087E0C80ED11CF12CE12CB8010E2C02C077
:10107000759567950A94E2F76170F60181916F01A9
:101080000E949104FFEFEF1AFF0A88E0E816F104CE
:1010900061F7CE01DF91CF911F910F91FF90EF90FB
:1010A000DF90CF900C94D307B80184E075956795D5
:1010B0008A95E1F7CE010E94E9076F2DCE01DF91FD
:1010C000CF911F910F91FF90EF90DF90CF900C94F4
:1010D000E90740E0682F8FEE96E00C941608643024
:1010E00008F063E090910207691710F06FEF690F45
:1010F000E62FF0E0E151F94F9489890F80680C9454
:10110000690881E00E9469088BE39FE10197F1F78C
:101110000895CF93DF93823029F49091FE06986072
:101120009093FE06809302071092030780E4809359
:10113000040780E18093050780E58093060761E05E
:101140008091F3060E94BF048091F4068F3F19F04E
:1011500061E00E94BF0461E08091F5060E94BF0437
:10116000CFEED6E09E012F5E36408091FE0684FDD4
:101170000BC084E090E021962817390744F461E021
:101180008E810E94BF04EECF88E090E0F4CF8BE325
:101190009DE00197F1F760E08091F3060E949104D1
:1011A00060E08091F5060E9491048091F4068F3FE3
:1011B00019F060E00E9491048091FE0684FD34C025
:1011C00063E08FEE96E00E94E907CBE4D6E4CE011F
:1011D0000197F1F763E08FEE96E00E94E90721970F
:1011E000F1F763E08FEE96E00E94E90783E592E075
:1011F0000197F1F762E08FEE96E00E94E907809197
:10120000FE0680620E94690884E08093FF068CE0FD
:101210000E9469080E94810882E08093000786E0AE
:10122000DF91CF910C94690880620E9469088BE479
:1012300096E40197F1F78091FE0680620E946908AA
:1012400083E592E00197F1F78091FE0680620E94AB
:101250006908D5CF41E00E94160881E090E008952A
:10126000FB0101900020E9F73197AF01461B570BB6
:10127000DC01ED91FC910280F381E02D0994CF9384
:10128000DF93BC0183E892E00E940903EC0166E66B
:1012900071E083E892E00E9430098C0F9D1FDF917E
:1012A000CF910895CF92DF92EF92FF920F93690151
:1012B0007A0191E090935F02809381021092600224
:1012C0001092820280E293E00E94DF05015028E044
:1012D000029FC0011124A701960104C055954795AE
:1012E000379527958A95D2F7B90180E293E00E945D
:1012F000DF050111EBCF81E00E949C02882361F0A1
:101300008AEE90E00E943F0901E0802F0F91FF904C
:10131000EF90DF90CF90089561E070E080E090E082
:101320000E942005F2CF0F938091EC069091ED067C
:101330008115904168F08BEC94E00E943F098FEF9B
:101340009FE09093ED068093EC0681E08093E706A2
:101350002091EC063091ED0650E040E002E060E0C4
:1013600081E60E9452090F9108950F93CF93DF9366
:10137000C6EED6E021E0288319826A837B838C83C2
:101380009D8320E030E846E354E40E94CE200E9492
:10139000AC227F836E830E94930902E020E030E05C
:1013A000A90168E481E60E94520961E081E1DF91D0
:1013B000CF910F910C9491040F93CF93DF93C6EECE
:1013C000D6E01F821E820E94930902E021E030E0F5
:1013D00040E050E068E481E60E945209188260E033
:1013E00081E1DF91CF910F910C94910480910A02D9
:1013F00090910B02892B71F00E94DC0910920B0274
:1014000010920A0283E392E00E943F0986E691E08F
:101410000C943F0989E292E00E943F098DEF91E030
:101420000E943F098AEC91E00E943F0986EA91E020
:101430000E943F0989E691E0E7CF8F929F92AF9299
:10144000BF92EF92FF920F931F93CF93DF93CDB78D
:10145000DEB7A1970FB6F894DEBF0FBECDBF7C01FB
:10146000FA01CB0119A2223008F42AE08E010F5DA7
:101470001F4F822E912CB12CA12CBF01A5019401EC
:101480000E946A24F901CA016A300CF5605DD80136
:101490006E938D01232B242B252B79F790E080E090
:1014A000109721F0BD01C7010E943009A1960FB627
:1014B000F894DEBF0FBECDBFDF91CF911F910F918A
:1014C000FF90EF90BF90AF909F908F900895695CD0
:1014D000DECFCF92DF92EF92FF92CF93DF936C013A
:1014E000990FEE08FF08F7FE1BC06DE283E892E05B
:1014F0000E940203EC0144275527BA014C195D09EB
:101500006E097F092AE083E892E00E941D0A8C0F91
:101510009D1FDF91CF91FF90EF90DF90CF900895C6
:101520002AE0B701A60183E892E0DF91CF91FF9016
:10153000EF90DF90CF900C941D0ACF93DF930E9421
:101540008108C0912C03D0912D036A8589850E9462
:101550006F0880912C0390912D0369E671E0C81704
:10156000D90711F063E971E08FEE96E00E9430092F
:10157000688179818FEE96E00E9409030A80DB8101
:10158000C02D80912C0390912D03C817D907E9F63F
:10159000DF91CF9108952F923F924F925F926F9279
:1015A0007F928F929F92AF92BF92CF92DF92EF92F3
:1015B000FF921F93CF93DF93EC016A017B01722EA0
:1015C000AB019601CB01B6010E9480236BE671E06E
:1015D000811126C046015701E894B7F82FEF3FEF7D
:1015E0004FE75FE7C501B4010E94802381110CC061
:1015F0002FEF3FEF4FE75FE7C501B4010E9468207E
:101600006FE671E0181664F02FEF3FEF4FE75FE4ED
:10161000C701B6010E94DB221816B4F463E771E03B
:10162000CE01DF91CF911F91FF90EF90DF90CF908F
:10163000BF90AF909F908F907F906F905F904F90F2
:101640003F902F900C9430092FEF3FEF4FE75FEC66
:10165000C701B6010E94682087FDE0CF20E030E09E
:10166000A901C701B6010E946820312C212C87FFF7
:1016700009C06DE2CE010E9402031C01F7FAF0944A
:10168000F7F8F09410E060E070E080E09FE37116FE
:1016900041F020E030E040E251E40E9433221F5F3D
:1016A000F6CFA70196010E94C7212B013C010E94A1
:1016B000AC224B015C012AE0BC01A401CE010E94D6
:1016C0001D0A7C01E20CF31C1123C1F1C501B40118
:1016D0000E946D209B01AC01C301B2010E94C62192
:1016E0004B015C016EE2CE010E940203E80EF91E7E
:1016F000115020F120E030E040E251E4C501B40196
:101700000E94CE202B013C010E94AC224B01B12C47
:10171000A12C2AE0B501A401CE010E941D0AE80E09
:10172000F91EC501B4010E946D209B01AC01C301EB
:10173000B2010E94C6214B015C01DACFC701DF91E3
:10174000CF911F91FF90EF90DF90CF90BF90AF901F
:101750009F908F907F906F905F904F903F902F90D1
:1017600008958F929F92AF92BF92EF92FF920F9344
:101770001F93CF93DF938C01FC01C385D485EE24A6
:10178000E394EC81FD8180809180A280B3802E81E2
:101790003F8148855985C501B4010E94682088238E
:1017A00021F08E829F82A886B9868E809F80A88431
:1017B000B984FC8820E030E040E251E4C501B40186
:1017C0000E94682087FF44C08FEF8F0D8D8BF11032
:1017D00001C01D8A6B898A890E946F084E815F81D2
:1017E000688579852D898FEE96E00E94CB0A099055
:1017F000D881C02DF801838594858C179D0709F643
:10180000858181114DC09F896B898A89890F2481C7
:1018100021112CC081500E946F088091FF068D7F9E
:101820008093FF0688600E9469088091FF06982FC8
:1018300091609093FF068960DF91CF911F910F9186
:10184000FF90EF90BF90AF909F908F900C9469089D
:1018500020E030E048EC52E4C501B4010E94682069
:1018600087FF02C08EEFB1CFED8AB1CF2C893D89C1
:10187000231B330B921713060CF08F5F0E946F0827
:101880008091FF06982F92609093FF068A600E94D5
:1018900069088091FF068E7F8093FF068860CCCF19
:1018A0008091FF068E7F8093FF0688600E94690802
:1018B0008091FF068D7FF0CFCF93DF93EC010E94E4
:1018C000810860E080E00E946F086E817F818FEE6A
:1018D00096E00E94090361E080E00E946F0868853D
:1018E00079858FEE96E00E940903CE01DF91CF91BA
:1018F0000C94B10B80912E03811102C00C949D0AAF
:10190000E0912C03F0912D03868197810C945C0C5F
:10191000FC0180819181009711F00C942E2508958F
:1019200040E756E06BE676E090E080E00C942C20F7
:101930000C94900C1F93CF93DF93209172063091FB
:1019400073062530310504F5EB01BC0116E1129F49
:10195000C001139F900D112444E150E08C58994F21
:101960000E949B268091720690917306189FF00149
:10197000199FF00D1124EC5AF94FD5ABC4AB019669
:101980009093730680937206DF91CF911F91089513
:101990000E94900C10920602109207021092080208
:1019A00010920902009751F00E94052070930B02DB
:1019B00060930A028DEF90E00C943F0981E090E083
:1019C00090930B0280930A02F5CF4F925F926F9231
:1019D0007F928F929F92AF92BF92CF92DF92EF92BF
:1019E000FF92CF93DF9300D000D0CDB7DEB70E9437
:1019F000900C009709F413C10E9405206B017C0133
:101A00000E94900C009709F40AC10E9405204B0126
:101A10005C010E94900C3C01892B09F400C1C701B4
:101A2000B6010E946F2020E030E04AE754E40E94B3
:101A300033226B017C01C501B4010E946F2020E0BC
:101A400030E04AE754E40E9433224B015C01C301B9
:101A50000E94052069837A838B839C83A70196016A
:101A6000C501B4010E94C6212B013C0129813A81A4
:101A7000B90190E080E00E946D209B01AC01C301A0
:101A8000B2010E9433226093060270930702809392
:101A900008029093090289819A81019690930B0222
:101AA00080930A020E948A0680911002909111028E
:101AB0008130910509F46FC008F454C0823091055B
:101AC00009F480C0039709F494C06EE371E083E8E1
:101AD00092E00E94090322E0B701A60183E892E0A8
:101AE0000E94CB0A67E771E083E892E00E94300928
:101AF00022E0B501A40183E892E00E94CB0A6CE7E2
:101B000071E083E892E00E94300940910602509112
:101B10000702609108027091090222E083E892E0D6
:101B20000E94CB0A66E671E083E892E00E943009E9
:101B30008DEF90E00E943F090E9412060F900F90D7
:101B40000F900F90DF91CF91FF90EF90DF90CF90AB
:101B5000BF90AF909F908F907F906F905F904F90CD
:101B60000C94B50988EE95E09093030180930201EF
:101B700020912401309125014091260150912701A7
:101B8000C701B6010E94C621AB01BC0188EE95E0F9
:101B90000E94FB069ACF80ED95E09093030180931D
:101BA00002012091200130912101409122015091A8
:101BB0002301C701B6010E94C621AB01BC0180ED23
:101BC00095E0E6CF88EB95E09093030180930201C6
:101BD00020911C0130911D0140911E0150911F0167
:101BE000C701B6010E94C621AB01BC0188EB95E09C
:101BF000CFCF83E591E00F900F900F900F90DF9182
:101C0000CF91FF90EF90DF90CF90BF90AF909F90DB
:101C10008F907F906F905F904F900C943F098BE274
:101C200091E0E9CF1F920F920FB60F9211242F93DC
:101C30003F934F935F936F937F938F939F93AF9354
:101C4000BF93EF93FF9383E892E00E94AB03FF9171
:101C5000EF91BF91AF919F918F917F916F915F9124
:101C60004F913F912F910F900FBE0F901F9018959D
:101C70001F920F920FB60F9211242F938F939F9361
:101C8000EF93FF93E0919302F09194028081E091B1
:101C90009902F0919A0282FD1BC0908180919C0272
:101CA0008F5F8F7320919D02821741F0E0919C021B
:101CB000F0E0ED57FD4F958F80939C02FF91EF91DF
:101CC0009F918F912F910F900FBE0F901F9018959D
:101CD0008081F4CF1F920F920FB60F9211242F9391
:101CE0003F938F939F93AF93BF938091FA0190910D
:101CF000FB01A091FC01B091FD013091F90123E0BD
:101D0000230F2D3758F50196A11DB11D2093F90120
:101D10008093FA019093FB01A093FC01B093FD0125
:101D20008091FE019091FF01A0910002B09101020B
:101D30000196A11DB11D8093FE019093FF01A09318
:101D40000002B0930102BF91AF919F918F913F919B
:101D50002F910F900FBE0F901F90189526E8230F1C
:101D60000296A11DB11DD2CF1F920F920FB60F92F6
:101D700011242F933F934F935F936F937F938F9390
:101D80009F93AF93BF93EF93FF938091B900887FA8
:101D9000803609F44AC0F0F5883209F4A7C018F576
:101DA000803109F49BC0B8F4882309F4F9C0883065
:101DB00009F494C0FF91EF91BF91AF919F918F91E2
:101DC0007F916F915F914F913F912F910F900FBE37
:101DD0000F901F901895883109F488C0803251F710
:101DE00080935C0214C0803409F49DC040F48033B9
:101DF000B9F38833F9F680935C0285ECB0C0803586
:101E000009F485C0883509F496C0883499F60E9493
:101E10005E05D0CF883909F48CC038F5883729F0B1
:101E200050F4883611F0803729F683E080935E0203
:101E30001092F80157C0883809F47BC0803919F036
:101E4000803809F0B7CF8091F801803208F071C076
:101E5000E091F80181E08E0F8093F8018091BB0042
:101E6000F0E0E852FE4F80833DC0803B39F0E0F463
:101E7000803A09F479C0883A09F09CCF84E08093D5
:101E80005E021092D7011092D601E0910402F09107
:101E9000050209958091D60181110FC081E08093E0
:101EA000D6011092B60109C0803C09F4A6CF883C47
:101EB00009F4A3CF883B09F07DCFE091D70181E001
:101EC0008E0F8093D701F0E0EA54FE4F808180931B
:101ED000BB009091D7018091D60129C08091390231
:101EE0008093BB0085EC8093BC0064CF90915B0233
:101EF00080915A02981758F5E0915B0281E08E0FAD
:101F000080935B02F0E0E65CFD4F8081E9CFE091D9
:101F10005B0281E08E0F80935B028091BB00F0E05A
:101F2000E65CFD4F808390915B0280915A02981786
:101F3000C8F285E8D8CFE0915B0281E08E0F8093F4
:101F40005B028091BB00F0E0E65CFD4F80838091F6
:101F50005D0281115CCF81E08093380284EA809336
:101F6000BC0010925E0226CF85EC8093BC001092DC
:101F70005E028091F801803230F4E091F801F0E0E7
:101F8000E852FE4F10826091F80170E0E091020289
:101F9000F091030288ED91E009951092F8010ACFC3
:101FA00010925C0234CF4F925F926F927F928F9229
:101FB0009F92AF92BF92CF92DF92EF92FF920F93D8
:101FC000CF93DF93CDB7DEB73C012B01FC01178A1D
:101FD00075836483428B238B048B158AC286D386D8
:101FE000E486F58686869786A08AB18A81E0868B0C
:101FF000A7019601FB0160817181828193810E941A
:10200000682087FF05C0F301C682D782E086F1868B
:10201000A5019401F20160817181828193810E9406
:10202000DB2218162CF4F30186829782A086B186F3
:10203000F20180819181A281B381F301868397832C
:10204000A087B187DF91CF910F91FF90EF90DF9044
:10205000CF90BF90AF909F908F907F906F905F9048
:102060004F9008950F931F93CF93DF93EC018881D6
:102070009981009759F02A813B812617370730F064
:1020800081E0DF91CF911F910F9108958B016F5FD8
:102090007F4F0E94B725009759F0998388831B834F
:1020A0000A832C813D81232B59F7FC011082E8CF54
:1020B00080E0E7CFEF92FF920F931F93CF93DF93D0
:1020C000EC01FB01E080F180E114F10411F10481E5
:1020D000158101151105A9F08C819D81080F191F2B
:1020E000B801CE010E943210882399F028813981ED
:1020F0008C819D81B701820F931F0E9486261D83CC
:102100000C83CE01DF91CF911F910F91FF90EF9043
:10211000089588819981009711F00E942E251982D7
:1021200018821D821C821B821A82EBCFEF92FF92D3
:102130000F931F93CF93DF93EC017B018A01BA01C8
:102140000E94321028813981811114C02115310576
:1021500019F0C9010E942E25198218821D821C8245
:102160001B821A82CE01DF91CF911F910F91FF90B8
:10217000EF9008951D830C83B701C9010E94862644
:10218000F1CF3F924F925F926F927F928F929F9288
:10219000AF92BF92CF92DF92EF92FF920F931F9375
:1021A000CF93DF93CDB7DEB768970FB6F894DEBF55
:1021B0000FBECDBF109286021092850288EE93E08A
:1021C000A0E0B0E08093870290938802A0938902F8
:1021D000B0938A022AE331E0309384022093830291
:1021E00025EC30E03093900220938F0224EC30E015
:1021F000309392022093910220EC30E030939402CD
:102200002093930221EC30E03093960220939502C4
:1022100022EC30E0309398022093970226EC30E0D5
:1022200030939A022093990210929C0210929D0280
:1022300010929E0210929F0210922303109222038A
:102240008093240390932503A0932603B093270340
:102250008CE491E0909321038093200381E08093AC
:10226000070782E090E090931C0780931B0788EC9F
:1022700090E090931E0780931D0710921F07109205
:1022800020071092210784E690E09093270780931F
:102290002607109228071092290710922A071092F9
:1022A0002B0710922C0710922D078CE080930807C3
:1022B0008DE0809309078BE080930A070E94520506
:1022C00060930B0770930C0780930D0790930E0794
:1022D00060930F0770931007809311079093120774
:1022E0006093130770931407809315079093160754
:1022F0006093220770932307809324079093250708
:1023000080910707813009F0B0C462E0809108072E
:102310000E94BF0462E0809109070E94BF0462E04E
:1023200080910A070E94BF041092F2061092F106F3
:102330008EE591E09093F0068093EF0688E080931D
:10234000F3068FEF8093F40687E08093F50686E02E
:102350008093F60685E08093F70684E08093F80684
:1023600083E08093F9061092FA061092FB06109211
:10237000FC061092FD061092FE0681E00E9489087C
:102380001092E7061092EE061092E5061092E4060F
:1023900080E290E090936C0680936B068DE08093D2
:1023A0006D061092730610927206E5E5F6E0119242
:1023B00026E0E936F207D9F710926A06109269060C
:1023C000109252061092530688E396E090934106CD
:1023D000809340068AE0382E30924E0610924F06C7
:1023E0008091380690913906A0913A06B0913B064B
:1023F0008093420690934306A0934406B09345060B
:1024000014E0109350061092510610923606109266
:1024100037069CE1492E96E0592E509225064092AF
:10242000240622E0622E60923206109233068091DA
:102430001C0690911D06A0911E06B0911F06809368
:10244000260690932706A0932806B093290610939A
:1024500034061092350610921A0610921B0680E080
:1024600096E09093090680930806609216067724FA
:102470007394709217068091000690910106A091C6
:102480000206B091030680930A0690930B06A09370
:102490000C06B0930D06109318061092190633E33C
:1024A000832E982C33EAA32E30E4B32EC12CD12CEA
:1024B000760104E020E045E064E271E088EE95E01A
:1024C0000E94D30F812C912C4AEFA42E43E4B42E0A
:1024D00020E045E060E271E080ED95E00E94D30FDE
:1024E000812C912C5AE7A52E54E4B52E6DECC62E06
:1024F0006CECD62E6CE4E62E6EE3F62E20E045E082
:102500006CE171E088EB95E00E94D30F1092B60564
:102510001092B70548E151E05093A5054093A405FA
:102520002EE02093B2051092B3058091180190918E
:102530001901A0911A01B0911B018093A6059093F7
:10254000A705A093A805B093A9051092B405109211
:10255000B50510929E0510929F0550938D054093EE
:102560008C0520939A0510929B0580938E0590937D
:102570008F05A0939005B093910510929C05109241
:102580009D0510928605109287055093750540931E
:1025900074052093820510928305809376059093AD
:1025A0007705A0937805B093790510928405109271
:1025B000850510926E0510926F0584E191E090936D
:1025C0005D0580935C0585E080936A0510926B053C
:1025D0008091140190911501A0911601B0911701FD
:1025E00080935E0590935F05A0936005B0936105AD
:1025F00083E080936C0510926D0510925605109241
:1026000057052CE335E0309345052093440560924F
:1026100052057092530540913C0550913D056091E3
:102620003E0570913F0540934605509347056093E2
:102630004805709349051093540510925505109262
:102640003A0510923B0530932905209328056092A6
:1026500036057092370540932A0550932B056093F9
:102660002C0570932D0510933805109239051092A2
:1026700022051092230530931105209310056092D6
:102680001E0570921F054093120550931305609329
:1026900014057093150510932005109221051092D2
:1026A0000A0510920B05E0EFF4E0F093F904E093D3
:1026B000F8043092060570920705C090F004D0909F
:1026C000F104E090F204F090F304C092FA04D09286
:1026D000FB04E092FC04F092FD04109308051092B4
:1026E00009051092EE041092EF04E4EDF4E0F0938B
:1026F000DD04E093DC043092EA047092EB04C090B5
:10270000D404D090D504E090D604F090D704C092C1
:10271000DE04D092DF04E092E004F092E104109332
:10272000EC041092ED041092D2041092D304F093B2
:10273000C104E093C0043092CE047092CF04C092E2
:10274000C204D092C304E092C404F092C504109372
:10275000D0041092D1041092BA041092BB04E0EAA3
:10276000F4E0F093A904E093A8048093B6041092D7
:10277000B704C090A004D090A104E090A204F0900F
:10278000A304C092AA04D092AB04E092AC04F092ED
:10279000AD048093B8041092B90410929E04109274
:1027A0009F04E4E8F4E0F0938D04E0938C049CE053
:1027B00090939A0410929B04C0908404D090850456
:1027C000E0908604F0908704C0928E04D0928F042B
:1027D000E0929004F092910410929C0410929D0457
:1027E0001092820410928304309371042093700439
:1027F00080937E0470927F0440937204509373041C
:102800006093740470937504809380041092810423
:1028100010926A0410926B0450925904409258042A
:10282000909366047092670440911C0650911D06B7
:1028300060911E0670911F0640935A0450935B04EA
:1028400060935C0470935D04809368041092690443
:10285000812C912C70E2A72E71E4B72EEDECCE2ED8
:10286000ECECDE2EECE4EE2EEDE3FE2E02E021E0B9
:1028700045E060E171E08CE394E00E94D30F812C8D
:10288000912CF8E4AF2EF2E4BF2EC12CD12CA0EA9B
:10289000EA2EA1E4FA2E21E04EE06CE071E084E241
:1028A00094E00E94D30FC12CD12C760103E020E0EC
:1028B0004BE068E071E08CE094E00E94D30FB3E35A
:1028C0008B2E982CB3EAAB2EB0E4BB2E20E042E076
:1028D00064E071E084EF93E00E94D30F1092F20362
:1028E0001092F30388ED93E09093E1038093E0036B
:1028F00088E08093EE037092EF038091D80390916B
:10290000D903A091DA03B091DB038093E2039093A3
:10291000E303A093E403B093E5031093F003109254
:10292000F1031092D6031092D7038CEB93E09093AF
:10293000C5038093C4031092D2037092D303809195
:10294000BC039091BD03A091BE03B091BF038093DF
:10295000C6039093C703A093C803B093C903109311
:10296000D4031092D5031C8A1B8A1E8A1D8A188ED6
:102970001F8A45E050E064E871E0CE0143960E9472
:1029800096101E861D86188A1F861A8A198A84EF59
:1029900089831A828E010F5F1F4FF801019000207A
:1029A000E9F73197AF01401B510BB801CE010D96ED
:1029B0000E9496101A8219821C821B821E821D821E
:1029C0004AE050E06AE871E0C8010E94961018865B
:1029D0001F821A8619861C861B8669817A81611579
:1029E000710531F04D815E81CE0107960E949610EF
:1029F000BE01635F7F4FCE0107960E945A10BE0151
:102A00006D5E7F4F0E945A101092B7031092B6036A
:102A10001092B9031092B8031092BB031092BA033C
:102A2000E3E0863B9E0761F0FC01608171816115E6
:102A3000710531F04481558186EB93E00E94961038
:102A4000CE0107960E94880CC8010E94880CCE0116
:102A50000D960E94880CCE0143960E94880C29EAAC
:102A600033E01092AD0381E08093AE031092B30384
:102A700040E256E05093B5034093B40350932106CF
:102A8000409320065093230640932206ECE9F3E09E
:102A90001092A0038093A1031092A60348EE55E084
:102AA0005093A8034093A7035093E9054093E8058A
:102AB0005093EB054093EA0510929303809394039F
:102AC0001092990340ED55E050939B0340939A0375
:102AD0005093D1054093D0055093D3054093D20530
:102AE000109286038093870310928C0348EB55E085
:102AF00050938E0340938D035093B9054093B805CE
:102B00005093BB054093BA051092790380937A03E2
:102B100010927F0344EA54E0509381034093800372
:102B20005093A5044093A4045093A7044093A60493
:102B300048E653E010926C0380936D031092720389
:102B400068E575E07093740360937303709359059F
:102B50006093580570935B0560935A056BE573E0CD
:102B600010925F038093600310926503A4EFB3E0BB
:102B7000B0936703A0936603B093F503A093F403A7
:102B8000B093F703A093F6031092580330935703C2
:102B9000209356033093AA032093A9033093AC03E8
:102BA0002093AB031092590380935A0325E433E03A
:102BB00010924D03F0934C03E0934B03F0939D036D
:102BC000E0939C03F0939F03E0939E0310924E03C7
:102BD00010924F031092420370934103609340039D
:102BE00070935C0360935B0370935E0360935D037B
:102BF00097E090934303109244031092370350934D
:102C00003603409335035093690340936803509310
:102C10006B0340936A0390933803809339031092B7
:102C20002E0330932D0320932C03309348032093DD
:102C3000470330934A032093490368960FB6F894EC
:102C4000DEBF0FBECDBFDF91CF911F910F91FF90DF
:102C5000EF90DF90CF90BF90AF909F908F907F903C
:102C60006F905F904F903F90089560E080910807CB
:102C70000E94BF0460E0809109070E94BF0460E0E9
:102C80004FCB789484B5826084BD84B5816084BD67
:102C900085B5826085BD85B5816085BD80916E00FA
:102CA000816080936E00109281008091810082602B
:102CB0008093810080918100816080938100809168
:102CC00080008160809380008091B1008460809357
:102CD000B1008091B00081608093B00080917A0053
:102CE000846080937A0080917A00826080937A0079
:102CF00080917A00816080937A0080917A00806868
:102D000080937A001092C100E0919302F0919402B6
:102D100082E08083E0918F02F09190021082E09136
:102D20009102F091920280E1808310929B02E091E7
:102D30009702F091980286E08083E0919502F091ED
:102D40009602808180618083E0919502F0919602E5
:102D5000808188608083E0919502F0919602808165
:102D600080688083E0919502F091960280818F7D4A
:102D70008083109217021092160210926002109235
:102D8000820210925E0281E080935D02109238020E
:102D900061E082E10E94910461E083E10E9491047C
:102DA0008091B9008E7F8093B9008091B9008D7FAA
:102DB0008093B90088E48093B80085E48093BC00D8
:102DC00080E093E0909305028093040281E093E019
:102DD000909303028093020201E026E030E040E09D
:102DE00050E060E08FE60E945209882321F08EE9CE
:102DF00092E00E943F0961E080E10E94BF0461E02F
:102E000081E10E94BF0461E082E00E94BF0460E0B3
:102E100082E00E94910460E080E10E94910460E001
:102E200081E10E9491041092E6061092E806109249
:102E3000E9061092EA061092EB061092ED06109247
:102E4000EC0602E021E030E040E050E060E481E6A2
:102E50000E94520920E031E040E050E060E581E668
:102E60000E94520921E030E040E050E068E481E651
:102E70000E94520961E089E00E94BF0460E089E09D
:102E80000E94910468E97CE085E991E00E949A0C37
:102E900068EC7CE08AE991E00E949A0C65EE7CE0A7
:102EA0008EE991E00E949A0C86EF99E09093E306F8
:102EB0008093E20660E08CE00E94BF0460E08DE059
:102EC0000E94BF0460E08BE00E94BF0460E08EE0DF
:102ED0000E94BF0460E08FE00E94BF0461E08AE0CE
:102EE0000E94BF0460E08AE00E94910482E00E9498
:102EF000890865EE73E08FEE96E00E94090361E0B9
:102F000080E00E946F0867ED73E08FEE96E00E940C
:102F1000090364EA71E08FEE96E00E9430098CEAC2
:102F200093E09093B0038093AF038BE993E0909389
:102F3000B2038093B1038AE893E09093A303809354
:102F4000A20389E793E09093A5038093A403FFE88D
:102F5000CF2EF3E0DF2E88E693E0909396038093E4
:102F6000950387E593E09093980380939703A2E8F5
:102F7000AA2EA3E0BA2E86E493E09093890380936F
:102F8000880385E393E090938B0380938A03B5E7EE
:102F90008B2EB3E09B2E84E293E090937C0380938E
:102FA0007B0383E193E090937E0380937D0382E033
:102FB00093E090936F0380936E0381EF92E0909380
:102FC00071038093700380EE92E09093620380938C
:102FD00061038FEC92E0909364038093630300E5B8
:102FE00013E089EC92E0909351038093500384ECBA
:102FF00092E09093460380934503CAE3D3E08CEBC1
:1030000092E090933B0380933A038FE2E82E83E0B3
:10301000F82E83EB92E09093300380932F036CE3C0
:1030200076E089EA93E00E94E50664E076E089EACA
:1030300093E00E94E50660EA75E08CE993E00E9467
:10304000E50660E475E08CE993E00E94E50664EF34
:1030500074E08CE993E00E94E50668E875E0C6013B
:103060000E94E50664E275E0C6010E94E50668ED8F
:1030700074E0C6010E94E50660E775E0C5010E94A4
:10308000E5066CE075E0C5010E94E5066CEB74E0B6
:10309000C5010E94E50668E874E0C4010E94E506E7
:1030A0006CE674E0C4010E94E50664E574E0C401C6
:1030B0000E94E5066CE374E088E693E00E94E50672
:1030C00064E274E088E693E00E94E5066CE074E058
:1030D0008BE593E00E94E50660EC73E08BE593E0FE
:1030E0000E94E5066CED73E08BE593E00E94E50637
:1030F000E0914B03F0914C03A081B18191828082D9
:10310000F0937803E0937703B0937603A09375036D
:1031100013969C928E921297A081B181B182A08267
:10312000F0938503E0938403B0938303A093820319
:103130001396BC92AE921297A081B181D182C082C7
:10314000F0939203E0939103B0939003A0938F03C5
:103150001396DC92CE921297E0912C03F0912D03FE
:10316000A281B381F382E282F0933403E0933303CC
:10317000B0933203A09331031596FC92EE9214970C
:10318000A281B38113830283F0935503E093540328
:10319000B0935303A093520315961C930E93149768
:1031A000A281B381D383C283F0933F03E0933E03B4
:1031B000B0933D03A0933C031596DC93CE931497F4
:1031C0008DEB93E00E943F0964EF71E080E090E0B6
:1031D0000E9420050E947A0C0E9452056093120200
:1031E0007093130280931402909315020E9452056B
:1031F00060930C0270930D0280930E0290930F0265
:1032000011E099E6C92E96E0D92E20E0222E20E08A
:10321000322E01E08FE00E946804209100012817FF
:10322000190661F0212720930001211107C0809128
:10323000E606882309F4A0C30E94DC098EE00E9400
:103240006804209101012817190619F121272093FC
:10325000010121111EC080912E03882309F493C31C
:10326000A0912C03B0912D0318968C911897882368
:1032700009F489C31696ED91FC9117978481811109
:10328000BAC618961C928581811101C015830E94CF
:103290007A0C0E945205AB01BC0140930B0750937E
:1032A0000C0760930D0770930E0720911B07309158
:1032B0001C0780910F0790911007A0911107B09102
:1032C0001207820F931FA11DB11D481759076A07E6
:1032D0007B0708F46FC0809108070E946804309152
:1032E000070721E03817190609F020E02093290785
:1032F000809109070E946804FC012091070730E0D3
:1033000081E0E217F30709F080E080932A079091AB
:10331000290740910B0750910C0760910D077091A0
:103320000E07911138C380912C07882309F433C309
:1033300081E0E217F30709F082E02091260730913F
:1033400027078090220790902307A0902407B09031
:103350002507820E931EA11CB11C481559056A054C
:103360007B0508F015C380912807409322075093EE
:103370002307609324077093250790932C074093AD
:103380000F07509310076093110770931207813055
:1033900009F04FC3E0912C03F0912D0380912E038F
:1033A0008111FBC28281938190932D0380932C0322
:1033B0000E947A0C0E94520560930B0770930C07D1
:1033C00080930D0790930E0780910A070E9468046E
:1033D000FC012091070730E091E0E217F30709F0C4
:1033E00090E090932B0740910B0750910C07609150
:1033F0000D0770910E07A0911D07B0911E078090D8
:10340000130790901407A0901507B09016078A0E26
:103410009B1EA11CB11C481559056A057B05C0F10E
:10342000E217F30709F465C380912D07882309F497
:1034300060C310921F0740931707509318076093BB
:10344000190770931A0781E090932D074093130793
:103450005093140760931507709316078823C1F0E3
:1034600080912E03882309F456C3E0912C03F09138
:103470002D031087C681D7818D81882309F43BC332
:103480001D8261E0CE010E94C806CE010E945C0C44
:1034900060911202709113028091140290911502B2
:1034A0000E946D2020E030E046E153E40E94C721F5
:1034B0004B015C010E9452050E946D209B01AC01F2
:1034C000C501B4010E94682087FF75C361E082E3F3
:1034D0000E944F07672B09F45FC163E085E00E94FB
:1034E0004F070E946F2025E831EB45E058E30E942A
:1034F000CE2060930006709301068093020690939D
:10350000030662E084E10E944F072B013C0174E056
:1035100075946794579447947A95D1F7C301B20193
:103520000E946F202FEA35E04AE45AE30E94CE2041
:10353000609338067093390680933A0690933B0661
:1035400062E08EE10E944F074B015C01E4E0B5941C
:10355000A79497948794EA95D1F7C501B4010E9486
:103560006F2020E635EE40ED5CE30E94CE206093B4
:103570001C0670931D0680931E0690931F06FFEF96
:103580004F16FFE05F06610471043CF42FEF8216D2
:103590002FE09206A104B10424F085EF93E00E948D
:1035A0003F0963E087E30E944F070E946F2025E8F0
:1035B00031EB45E058E30E94CE206093F004709315
:1035C000F1048093F2049093F30462E086E40E9495
:1035D0004F072B013C0154E075946794579447942E
:1035E0005A95D1F7C301B2010E946F2022EB34ED4E
:1035F00046E95AE30E94CE206093D4047093D50428
:103600008093D6049093D70462E080E50E944F0730
:103610004B015C0164E0B594A794979487946A95F4
:10362000D1F7C501B4010E946F2020E635EE40EDD0
:103630005CE30E94CE2060933C0570933D0580932F
:103640003E0590933F058FEF48168FE058066104C2
:1036500071043CF4AFEF8A16AFE09A06A104B104FE
:1036600024F081E194E00E943F098090180190903D
:103670001901A0901A01B0901B010E9412062B01A3
:103680003C0120E030E040E252E4C501B4010E9478
:10369000DB2287FD0AC08091E606882331F084E6AC
:1036A00094E00E943F090093E7068091E606882394
:1036B000E1F08091EE06811118C020910C0130914B
:1036C0000D0140910E0150910F01C501B4010E94FE
:1036D000DB2287FD0AC061E082E00E949104009332
:1036E000EE068BE594E00E943F098091EE06882368
:1036F00001F120E030E040E050E460910C01709175
:103700000D0180910E0190910F010E94C6219B0135
:10371000AC01C501B4010E94682087FF0AC060E0C7
:1037200082E00E9491041092EE0681E594E00E94EE
:103730003F098091E6068823E1F08091E706811138
:1037400018C04092E8065092E9066092EA0670922C
:10375000EB0620E030E846E354E4C301B2010E94E6
:10376000CE200E94AC227093ED066093EC060E947E
:1037700093098091E706882351F08091E60688231B
:1037800031F08EE294E00E943F090E94DC096091D2
:10379000E70680E10E94910480911002909111024D
:1037A000039709F04BC08091E606882309F446C0D0
:1037B000209108013091090140910A0150910B01BB
:1037C00060913C0570913D0580913E0590913F05CB
:1037D0000E94682087FFA4C10E94DC091092110298
:1037E0001092100267EA74E083E892E00E940903F5
:1037F0004091D8035091D9036091DA037091DB03B3
:1038000022E083E892E00E94CB0A6DE974E083E84D
:1038100092E00E9409034091BC035091BD03609166
:10382000BE037091BF0323E083E892E00E94CB0ABD
:1038300066E671E083E892E00E9430090E9452053A
:1038400060931202709313028093140290931502F6
:1038500083E892E00E948B03181619060CF0BFC390
:103860008091E4069091E506892B31F483E892E09B
:103870000E946903809354066091540683E892E0A5
:103880000E9402039091540680916D0698134CC0DB
:1038900010926A061092690640E756E06BE676E001
:1038A00085E596E00E942C204C0190936F06809352
:1038B0006E06892B09F493C3A0907206B09073062C
:1038C00084E5E82E86E0F82ED0E0C0E0CA15DB05DE
:1038D0000CF079C3B701605E7F4F44E150E0C40152
:1038E0000E948D26B6E1EB0EF11C892B09F069C30D
:1038F0006AE774E083E892E00E94090326E12C9FC6
:10390000F0012D9FF00D1124EC5AF94F04A8F5A9F0
:10391000E02D0995E5E5F6E01192CE16DF06E1F718
:1039200010926A0610926906C09154068C2F0C2ED4
:10393000000C990B0E947626892B09F489CF80917F
:10394000690690916A069C012F5F3F4F30936A068B
:10395000209369068C5A994FDC011196CC93F9019A
:10396000EC5AF94F1182243131050CF471CF1092C9
:103970006A06109269066CCF0E948A060E9412069F
:103980000E94B5095BCC10922E030E949D0A81CC47
:1039900080932807EACC80E0F0CCE680F780808531
:1039A000811108C0D7018D919C91978386830E94D5
:1039B0005C0C00CDF701848161E0882309F456C0D6
:1039C000C385D485AC80BD806C898D89681B770BDD
:1039D000615071098F89681B7109072E000C880BD3
:1039E000990B0E946F209B01AC0160E070E080E2C7
:1039F00091E40E943023F50120813181428153817D
:103A00000E94C721D5016D937D938D939C9313974D
:103A10004E845F8468887988A30192010E94DB222A
:103A200018160CF05CC0F5014082518262827382EC
:103A300056C0823009F0BECCE0912C03F0912D03EA
:103A400080912E03811103C084819581ADCCE680E5
:103A5000F7808085811105C0D70112968D919C91C8
:103A6000A4CFF7018481811106C060E0C7010E94E4
:103A7000C806C7019CCFC385D485AC80BD806C8946
:103A80008D89681B770B615071098F89681B7109DB
:103A9000072E000C880B990B0E946F209B01AC0134
:103AA00060E070E080E291E40E9430239B01AC0171
:103AB000F50160817181828193810E94C621D501C7
:103AC0006D937D938D939C9313974A845B846C8450
:103AD0007D84A30192010E94682087FDA4CFF50197
:103AE00080819181A281B3818E839F83A887B987CA
:103AF000C0CF80E0A9CC8C81811102C01C83C5CCD1
:103B0000EB85FC8587898F5F878B9489891708F4FB
:103B1000BCCC178ABACC00932E030E947A0CB8CC86
:103B200020E030E04AE754E46091D4047091D50479
:103B30008091D6049091D7040E94CE202EE333ECDE
:103B40004EE258E30E94CE209B01AC016091D80365
:103B50007091D9038091DA039091DB030E94C72111
:103B60006093D8037093D9038093DA039093DB03B7
:103B70002EE333EC4EE258E36091F0047091F104CF
:103B80008091F2049091F3040E94CE209B01AC013D
:103B90006091BC037091BD038091BE039091BF03FF
:103BA0000E94C7216093BC037093BD038093BE0342
:103BB0009093BF0343CE60910C0270910D028091EF
:103BC0000E0290910F020E946D204B015C0120E0DB
:103BD00030E04AE754E46091100170911101809146
:103BE0001201909113010E94CE209B01AC01C501EE
:103BF000B4010E94C7214B015C010E9452050E9442
:103C00006D209B01AC01C501B4010E94682087FFB3
:103C10001FCE61E08AE00E94910461E082E30E948D
:103C20004F07672BD1F362E08AE50E944F0734E02B
:103C300095958795779567953A95D1F70E946F206E
:103C400026E933E44BE85BE30E94CE206093140145
:103C500070931501809316019093170162E088E23A
:103C60000E944F0744E095958795779567954A950B
:103C7000D1F70E946F202FE632E143E050E40E942A
:103C8000CE2020E030E040E859E30E94CE204B01F6
:103C90005C0120E030E044E052E40E94CE202B01A1
:103CA0003C01A501940160E070E080EA90E40E948C
:103CB000C6219B01AC01C301B2010E94332220E066
:103CC00030E040E251E40E9433220E94E82221EFDA
:103CD0003BEB46E859E30E94CE202DE03FEC4BE55C
:103CE0005BE30E94C7219B01AC0160E070E080E8CB
:103CF0009FE30E94332223E333E948E853E40E9420
:103D0000C621609318017093190180931A01909352
:103D10001B014090000650900106609002067090D2
:103D2000030620E030E0A901C301B2010E94DB22BA
:103D30001816D4F4A30192016091F0047091F1047B
:103D40008091F2049091F3040E94332220E030E04D
:103D500048EC52E40E94CE20609384047093850462
:103D600080938604909387048090840490908504C7
:103D7000A0908604B090870420E030E0A901C5013E
:103D8000B4010E94682087FD66C020E030E046EC68
:103D900052E4C501B4010E94DB22181634F4812CD0
:103DA000912C26ECA22E22E4B22E809284049092D2
:103DB0008504A0928604B09287042091F00430918B
:103DC000F1044091F2045091F304C301B2010E9446
:103DD000C6214B015C0120E030E0A9010E9468206F
:103DE00087FF03C0812C912C54018092A0049092F3
:103DF000A104A092A204B092A30480912E03882370
:103E000041F0E0912C03F0912D03868197810E946F
:103E1000B10B80910A0290910B02009769F02091FA
:103E2000E606222349F0019790930B0280930A0241
:103E3000892BA9F40E94DC0960E08AE00E949104C9
:103E40000E94520560930C0270930D0280930E0243
:103E500090930F02FDCC812C912C5401A6CFE091C0
:103E60001002F0911102EE0FFF1FE25DFE4F608124
:103E700071816115710521F083E892E00E9430099B
:103E80000E941A0420E030E04AE754E46091D40430
:103E90007091D5048091D6049091D7040E94CE20D1
:103EA0000E94A522CB010E94690A0E941A04409137
:103EB0003C0550913D0560913E0570913F0522E023
:103EC00083E892E00E94CB0A0E941A0420E030E0CE
:103ED0004AE754E46091F0047091F1048091F20497
:103EE0009091F3040E94CE200E94A522CB010E9453
:103EF000690A0E941A0420E030E04AE754E4609125
:103F000038067091390680913A0690913B060E94DE
:103F1000CE200E94A522CB010E94690A0E941A04A9
:103F200040911C0650911D0660911E0670911F065F
:103F300022E083E892E00E94CB0A0E941A0420E06B
:103F400030E04AE754E460910006709101068091E8
:103F50000206909103060E94CE200E94A522CB016A
:103F60000E94690A0E941A044091840450918504B9
:103F7000609186047091870421E083E892E00E94BA
:103F8000CB0A88E794E00E943F09409106025091D5
:103F900007026091080270910902809102019091DC
:103FA00003010E94FB06882309F446CF10920B02FE
:103FB00010920A020E94DC098DE794E00E943F09FA
:103FC0003BCF219683CCE091E206F091E306099580
:103FD000E5E5F6E01192CE16DF06E1F7A1CC21145B
:103FE000310409F417C90E949703882309F412C900
:103FF0000E9400000FC914820384F485E02D178A03
:1040000046C986EB93E00C94880C1F93FC0199271A
:104010008827BC01E89411911032E9F3193010F0AF
:104020001E30C8F31B3251F01D3249F4689406C0AB
:104030000E945320610F711D811D911D119110531C
:104040001A30B0F33EF490958095709561957F4F4E
:104050008F4F9F4F1F910895FA01A191B081009752
:1040600019F41097E1F0CD01DC01CD010D90002095
:1040700011F4C00113C0FB012191222319F0201576
:10408000D9F7F3CFFB012191201519F41E92119657
:1040900006C02223C1F70D900020A1F7D001FA013C
:1040A000A193B0830895592F482F372F262F660FDD
:1040B000771F881F991F660F771F881F991F620F30
:1040C000731F841F951F660F771F881F991F089500
:1040D0000E94AA2008F481E00895E89409C097FBA3
:1040E0003EF490958095709561957F4F8F4F9F4FCF
:1040F0009923A9F0F92F96E9BB279395F695879513
:1041000077956795B795F111F8CFFAF4BB0F11F4D5
:1041100060FF1BC06F5F7F4F8F4F9F4F16C088237C
:1041200011F096E911C0772321F09EE8872F762FB2
:1041300005C0662371F096E8862F70E060E02AF0F3
:104140009A95660F771F881FDAF7880F96958795DF
:1041500097F90895990F0008550FAA0BE0E8FEEFB4
:1041600016161706E807F907C0F012161306E4073B
:10417000F50798F0621B730B840B950B39F40A2634
:1041800061F0232B242B252B21F408950A2609F412
:10419000A140A6958FEF811D811D08950E94E12009
:1041A0000C9455210E94472138F00E944E2120F0A6
:1041B000952311F00C943E210C94442111240C946D
:1041C00089210E94662170F3959FC1F3950F50E0FD
:1041D000551F629FF001729FBB27F00DB11D639FB9
:1041E000AA27F00DB11DAA1F649F6627B00DA11D5F
:1041F000661F829F2227B00DA11D621F739FB00D05
:10420000A11D621F839FA00D611D221F749F332774
:10421000A00D611D231F849F600D211D822F762F0D
:104220006A2F11249F5750409AF0F1F088234AF0EA
:10423000EE0FFF1FBB1F661F771F881F9150504056
:10424000A9F79E3F510580F00C943E210C948921E2
:104250005F3FE4F3983ED4F3869577956795B795DD
:10426000F795E7959F5FC1F7FE2B880F911D9695F7
:10427000879597F9089599278827089597F99F6753
:1042800080E870E060E008959FEF80EC08950024DE
:104290000A941616170618060906089500240A94AB
:1042A00012161306140605060895092E0394000C31
:1042B00011F4882352F0BB0F40F4BF2B11F460FFC0
:1042C00004C06F5F7F4F8F4F9F4F089557FD9058E9
:1042D000440F551F59F05F3F71F04795880F97FBCA
:1042E000991F61F09F3F79F0879508951216130684
:1042F0001406551FF2CF4695F1DF08C016161706B3
:104300001806991FF1CF86957105610508940895E7
:10431000E894BB2766277727CB0197F908952F925A
:104320003F924F925F926F927F928F929F92AF9245
:10433000BF92CF92DF92EF92FF920F931F93CF9392
:10434000DF93CDB7DEB7CA1BDB0B0FB6F894DEBF29
:104350000FBECDBF09942A88398848885F846E844F
:104360007D848C849B84AA84B984C884DF80EE8099
:10437000FD800C811B81AA81B981CE0FD11D0FB6A2
:10438000F894DEBF0FBECDBFED0108955058BB2796
:10439000AA270E94DE210C9455210E94472138F063
:1043A0000E944E2120F039F49F3F19F426F40C941A
:1043B00044210EF4E095E7FB0C943E21E92F0E9486
:1043C000662158F3BA17620773078407950720F030
:1043D00079F4A6F50C9488210EF4E0950B2EBA2FF3
:1043E000A02D0B01B90190010C01CA01A0011124FB
:1043F000FF27591B99F0593F50F4503E68F11A16A7
:10440000F040A22F232F342F4427585FF3CF469537
:1044100037952795A795F0405395C9F77EF41F1659
:10442000BA0B620B730B840BBAF09150A1F0FF0F23
:10443000BB1F661F771F881FC2F70EC0BA0F621F0F
:10444000731F841F48F4879577956795B795F795FF
:104450009E3F08F0B0CF9395880F08F09927EE0F94
:104460009795879508950E9447220C9455210E94A4
:104470004E2158F00E94472140F029F45F3F29F077
:104480000C943E2151110C9489210C9444210E94DA
:10449000662168F39923B1F3552391F3951B550BCE
:1044A000BB27AA2762177307840738F09F5F5F4F07
:1044B000220F331F441FAA1FA9F335D00E2E3AF046
:1044C000E0E832D091505040E695001CCAF72BD05E
:1044D000FE2F29D0660F771F881FBB1F26173707AF
:1044E0004807AB07B0E809F0BB0B802DBF01FF27E1
:1044F00093585F4F3AF09E3F510578F00C943E215F
:104500000C9489215F3FE4F3983ED4F38695779528
:104510006795B795F7959F5FC9F7880F911D969599
:10452000879597F90895E1E0660F771F881FBB1FF5
:10453000621773078407BA0720F0621B730B840BA2
:10454000BA0BEE1F88F7E09508950E94AC2268949C
:10455000B1110C94892108950E946E2188F09F5713
:1045600098F0B92F9927B751B0F0E1F0660F771F97
:10457000881F991F1AF0BA95C9F714C0B13091F08D
:104580000E948821B1E008950C948821672F782F2C
:104590008827B85F39F0B93FCCF386957795679552
:1045A000B395D9F73EF490958095709561957F4FBE
:1045B0008F4F9F4F08950E94AA2008F48FEF08950F
:1045C00016F00C94BF230C94442168940C943E2163
:1045D0000E946E21A8F39923C1F3AEF3DF93CF932A
:1045E0001F930F93FF92C92FDD2788232AF021976D
:1045F000660F771F881FDAF720E030E040E85FEBB6
:104600009FE3883920F0803E38F021968F770E9412
:10461000C721E8E6F0E004C00E94C721E5E9F0E028
:104620000E94CD238B01BE01EC01FB2E6F57710957
:104630007595771F880B990B0E946F2028E132E750
:1046400041E35FE30E94E120AF2D9801AE01FF90AE
:104650000F911F91CF91DF910E94DE210C94552183
:10466000FA01EE0FFF1F309621053105A1F161150A
:10467000710561F48038BFE39B0749F16894903875
:10468000810561F08038BFEF9B0741F099234AF51F
:10469000FF3FE1053105210519F1E8940894E795FC
:1046A000D901AA2329F4AB2FBE2FF85FD0F310C095
:1046B000FF5F70F4A695E0F7F73950F019F0FF3A74
:1046C00038F49F779F930DD00F9007FC9058089572
:1046D00046F00C94442160E070E080E89FE3089588
:1046E0004FE79F775F934F933F932F930E94E8226A
:1046F0002F913F914F915F910E94CE200C948D237A
:104700000E94AA20880B990B089529F416F00C94A6
:104710003E210C9488210C9444210E946E21A8F320
:104720009638A0F707F80F92E8942BE33AEA48EBA3
:104730005FE70E94E4200F920F920F924DB75EB791
:104740000F920E943624E2ECF0E00E94CD234F91BC
:104750005F91EF91FF91E595EE1FFF1F49F0FE5726
:10476000E0684427EE0F441FFA95E1F74195550B99
:104770000E9400240F9007FE0C94F42308959F3F9D
:1047800031F0915020F4879577956795B795880F0C
:10479000911D9695879597F90895DF93CF931F9371
:1047A0000F93FF92EF92DF927B018C01689406C019
:1047B000DA2EEF010E94E120FE01E894A5912591F7
:1047C000359145915591A6F3EF010E94DE21FE013E
:1047D0009701A801DA9469F7DF90EF90FF900F91AD
:1047E0001F91CF91DF9108959B01AC0160E070E0D3
:1047F00080E89FE30C9433220C943E210C94BF2359
:104800000E946E21D8F39923C9F3940F511DA3F38D
:104810009150504094F059F0882332F0660F771F82
:10482000881F91505040C1F79E3F51052CF7880FCB
:10483000911D9695879597F908955F3FACF0983E46
:104840009CF0BB27869577956795B79508F4B1607E
:104850009395C1F7BB0F58F711F460FFE8CF6F5F76
:104860007F4F8F4F9F4FE3CF0C948921FA01DC01DA
:10487000AA0FBB1F9B01AC01BF5728F42227332787
:104880004427507820C0B75190F4AB2F00244695B0
:1048900037952795011CA395D2F3002071F0220FC4
:1048A000331F441FB395DAF30ED00C94C621613048
:1048B0007105A0E88A07B94630F49B01AC01662770
:1048C000772788279078309621F0208331834283A0
:1048D00053830895A1E21A2EAA1BBB1BFD010DC034
:1048E000AA1FBB1FEE1FFF1FA217B307E407F507A0
:1048F00020F0A21BB30BE40BF50B661F771F881F7C
:10490000991F1A9469F760957095809590959B0111
:10491000AC01BD01CF010895EE0FFF1F0590F4918A
:10492000E02D09940F931F93CF93DF93823091056D
:1049300010F482E090E0E0913007F091310730E030
:1049400020E0B0E0A0E0309799F42115310509F49A
:104950004AC0281B390B24303105D8F58A819B8148
:104960006115710589F1FB0193838283FE0111C0FA
:10497000408151810281138148175907E0F048179F
:10498000590799F4109761F012960C9312971396A9
:104990001C933296CF01DF91CF911F910F91089513
:1049A0000093300710933107F4CF2115310551F0F2
:1049B0004217530738F0A901DB019A01BD01DF015D
:1049C000F801C1CFEF01F9CF909331078093300701
:1049D000CDCFFE01E20FF31F819391932250310955
:1049E00039832883D7CF20912E0730912F07232B8F
:1049F00041F420912A0130912B0130932F0720930D
:104A00002E0720912801309129012115310541F40B
:104A10002DB73EB740912C0150912D01241B350B31
:104A2000E0912E07F0912F07E217F307A0F42E1B59
:104A30003F0B2817390778F0AC014E5F5F4F241702
:104A4000350748F04E0F5F1F50932F0740932E07F6
:104A5000819391939FCFF0E0E0E09CCFCF93DF93E1
:104A60000097E9F0FC01329713821282A09130077F
:104A7000B0913107ED0130E020E01097A1F42081E2
:104A80003181820F931F20912E0730912F07281715
:104A9000390709F061C0F0932F07E0932E07DF91EB
:104AA000CF910895EA01CE17DF07E8F54A815B81CF
:104AB0009E0141155105B1F7E901FB83EA83499154
:104AC0005991C40FD51FEC17FD0761F480819181C6
:104AD0000296840F951FE9019983888382819381CF
:104AE0009B838A83F0E0E0E012968D919C9113976E
:104AF0000097B9F52D913C911197CD010296820F47
:104B0000931F20912E0730912F072817390739F668
:104B1000309751F51092310710923007B0932F075C
:104B2000A0932E07BCCFD383C28340815181840FD1
:104B3000951FC817D90761F44E5F5F4F888199812F
:104B4000480F591F518340838A819B8193838283BD
:104B50002115310509F0B0CFF0933107E09330070C
:104B60009ECFFD01DC01C0CF13821282D7CFB0E00F
:104B7000A0E0EDEBF5E20C9491218C01009751F44B
:104B8000CB010E9492248C01C801CDB7DEB7E0E1D1
:104B90000C94AD21FC01E60FF71F9C012250310956
:104BA000E217F30708F49DC0D901CD91DC9111976C
:104BB000C617D70798F0C530D10530F3CE0104975A
:104BC0008617970708F3C61BD70B2297C193D1937B
:104BD0006D937C93CF010E942E25D6CF5B01AC1A3A
:104BE000BD0A4C018C0E9D1EA0913007B09131077B
:104BF000512C412CF12CE12C109731F580912E078E
:104C000090912F078815990509F05CC04616570644
:104C100008F058C08091280190912901009741F433
:104C20008DB79EB740912C0150912D01841B950B9F
:104C3000E817F90708F055C0F0932F07E0932E0707
:104C4000F90171836083A0CF8D919C911197129689
:104C50006C90129713967C901397A815B90559F587
:104C60006C0142E0C40ED11CCA14DB0420F1AC017B
:104C70004A195B09DA011296159780F062827382F5
:104C800051834083D9016D937C93E114F10471F059
:104C9000D7011396FC93EE93129776CF22968C0F42
:104CA0009D1FF90191838083F301EFCFF0933107CA
:104CB000E093300769CF4816590608F42C017D01AE
:104CC000D3019ACFCB010E9492247C01009749F036
:104CD000AE01B8010E947D26C8010E942E258701E1
:104CE00053CF10E000E050CF803209F091110C94C6
:104CF0003B2180528F55D8F70895FB01DC0102C09B
:104D000001900D9241505040D8F70895FB01DC010D
:104D100001900D920020E1F70895FB01DC01415064
:104D2000504030F08D910190801919F40020B9F7AE
:104D3000881B990B0895FB01DC014150504048F05D
:104D400001900D920020C9F701C01D9241505040C2
:104D5000E0F7089512E0C1E7D2E004C0FE010E942E
:0E4D60008C242196C237D107C9F7F894FFCFF3
:104D6E000101E8050000003F0000404000000C4239
:104D7E000000003F000040410000C8410000C84252
:104D8E000000803F0000003F000032078000A801B5
:104D9E00AB01AE01B10100000000CD032D035A039B
:104DAE001F048B0369037D0300000000DF05B205BD
:104DBE000F068F05F9029F059005000000002A09D5
:104DCE002D030F060E060D0A003E006E616E006981
:104DDE006E66006F76660020746F2000202C2069AE
:104DEE006E632000205420202000435220522020A9
:104DFE0020202020006D6F64650067657400737756
:104E0E0065657000312E330043430043500043521A
:064E1E0000424154540063
:00000001FF
